{
	"data": {
		"bytecode": {
			"linkReferences": {
				"contracts/Validators.sol": {
					"AddressLinkedList": [
						{
							"length": 20,
							"start": 3904
						},
						{
							"length": 20,
							"start": 6885
						},
						{
							"length": 20,
							"start": 7109
						},
						{
							"length": 20,
							"start": 7515
						},
						{
							"length": 20,
							"start": 8180
						}
					]
				}
			},
			"object": "60806040523480156200001157600080fd5b5060405162002a3c38038062002a3c833981810160405260208110156200003757600080fd5b50518060006200004f6001600160e01b03620000cc16565b600080546001600160a01b0319166001600160a01b0383169081178255604051929350917f8be0079c531659141344cd1fd0a4f28419497f9722a3daafe3b4186f6b6457e0908290a35080620000c4576000805460ff60a01b1916740100000000000000000000000000000000000000001790555b5050620000d0565b3390565b61295c80620000e06000396000f3fe608060405234801561001057600080fd5b50600436106101fb5760003560e01c80638f32d59b1161011a578063c5805140116100ad578063e0e3ffe61161007c578063e0e3ffe614610645578063ee0983101461064d578063f2fde38b1461066a578063facd743b14610690578063fffdfccb146106b6576101fb565b8063c5805140146105e9578063ca6d56dc146105f1578063dcff4cf614610617578063df4da4611461063d576101fb565b8063bcc6587f116100e9578063bcc6587f14610574578063bd9e9d941461057c578063c4d66de81461059d578063c54c1cd4146105c3576101fb565b80638f32d59b146105185780639a7b3be714610520578063a91ee0dc14610528578063b591d3a51461054e576101fb565b80634cd76db411610192578063715018a611610161578063715018a6146104c55780637b103999146104cf5780638b16b1c6146104f35780638da5cb5b14610510576101fb565b80634cd76db41461047257806352f13a4e1461047a5780635779e93d146104a057806360fb822c146104a8576101fb565b806323f0ab65116101ce57806323f0ab65146102d85780633173b8db1461041557806336407b701461044d5780633b1eb4bf14610455576101fb565b80630352a592146102005780630b1ca49a1461021a578063104ad68114610254578063158ef93e146102d0575b600080fd5b6102086106be565b60408051918252519081900360200190f35b6102406004803603602081101561023057600080fd5b50356001600160a01b03166106c4565b604080519115158252519081900360200190f35b6102806004803603604081101561026a57600080fd5b506001600160a01b0381351690602001356107cf565b60408051602080825283518183015283519192839290830191858101910280838360005b838110156102bc5781810151838201526020016102a4565b505050509050019250505060405180910390f35b610240610823565b610240600480360360608110156102ee57600080fd5b6001600160a01b03823516919081019060408101602082013564010000000081111561031957600080fd5b82018360208201111561032b57600080fd5b8035906020019184600183028401116401000000008311171561034d57600080fd5b91908080601f01602080910402602001604051908101604052809392919081815260200183838082843760009201919091525092959493602081019350359150506401000000008111156103a057600080fd5b8201836020820111156103b257600080fd5b803590602001918460018302840111640100000000831117156103d457600080fd5b91908080601f016020809104026020016040519081016040528093929190818152602001838380828437600092019190915250929550610833945050505050565b6102406004803603606081101561042b57600080fd5b506001600160a01b0381358116916020810135821691604090910135166109af565b6102086109c7565b6102086004803603602081101561046b57600080fd5b50356109cd565b6102086109e0565b6102406004803603602081101561049057600080fd5b50356001600160a01b03166109e6565b610208610a04565b610240600480360360208110156104be57600080fd5b5035610a0a565b6104cd610c68565b005b6104d7610d0b565b604080516001600160a01b039092168252519081900360200190f35b6102406004803603602081101561050957600080fd5b5035610d1a565b6104d761100c565b61024061101c565b610208611040565b6104cd6004803603602081101561053e57600080fd5b50356001600160a01b0316611050565b6102406004803603602081101561056457600080fd5b50356001600160a01b031661114e565b6102406111a8565b610584611209565b6040805192835260208301919091528051918290030190f35b6104cd600480360360208110156105b357600080fd5b50356001600160a01b0316611212565b610240600480360360208110156105d957600080fd5b50356001600160a01b0316611299565b61058461134a565b6102406004803603602081101561060757600080fd5b50356001600160a01b0316611353565b6102086004803603602081101561062d57600080fd5b50356001600160a01b0316611362565b610208611460565b61020861155d565b6102406004803603602081101561066357600080fd5b5035611563565b6104cd6004803603602081101561068057600080fd5b50356001600160a01b03166116cc565b610240600480360360208110156106a657600080fd5b50356001600160a01b031661172e565b61024061174c565b60105481565b6000806106cf6118ae565b6001600160a01b03166364439b43336040518263ffffffff1660e01b815260040180826001600160a01b03166001600160a01b0316815260200191505060206040518083038186803b15801561072457600080fd5b505afa158015610738573d6000803e3d6000fd5b505050506040513d602081101561074e57600080fd5b5051905061075b816109e6565b801561076b575061076b8361172e565b6107bc576040805162461bcd60e51b815260206004820152601a60248201527f6973206e6f742067726f757020616e642076616c696461746f72000000000000604482015290519081900360640190fd5b6107c68184611955565b9150505b919050565b60408051600180825281830190925260609182919060208083019080388339019050509050338160008151811061080257fe5b6001600160a01b039092166020928302919091019091015290505b92915050565b600054600160a01b900460ff1681565b60008060fb6001600160a01b031685858560405160200180846001600160a01b03166001600160a01b031660601b815260140183805190602001908083835b602083106108915780518252601f199092019160209182019101610872565b51815160209384036101000a600019018019909216911617905285519190930192850191508083835b602083106108d95780518252601f1990920191602091820191016108ba565b6001836020036101000a03801982511681845116808217855250505050505090500193505050506040516020818303038152906040526040518082805190602001908083835b6020831061093e5780518252601f19909201916020918201910161091f565b6001836020036101000a038019825116818451168082178552505050505050905001915050600060405180830381855afa9150503d806000811461099e576040519150601f19603f3d011682016040523d82523d6000602084013e6109a3565b606091505b50909695505050505050565b6000336109be81868686611be9565b95945050505050565b600f5481565b600061081d826109db611460565b611d06565b600c5481565b6001600160a01b031660009081526002602052604090205460ff1690565b600d5481565b600080610a156118ae565b6001600160a01b03166364439b43336040518263ffffffff1660e01b815260040180826001600160a01b03166001600160a01b0316815260200191505060206040518083038186803b158015610a6a57600080fd5b505afa158015610a7e573d6000803e3d6000fd5b505050506040513d6020811015610a9457600080fd5b50519050610aa1816109e6565b610aea576040805162461bcd60e51b815260206004820152601560248201527404e6f7420612076616c696461746f722067726f757605c1b604482015290519081900360640190fd5b6001600160a01b03811660009081526002602052604090206003015415610b58576040805162461bcd60e51b815260206004820152601960248201527f56616c696461746f722067726f7570206e6f7420656d70747900000000000000604482015290519081900360640190fd5b6001600160a01b0381166000908152600260205260409020600801805460011015610be95742610bad60086001015483600181548110610b9457fe5b9060005260206000200154611d4390919063ffffffff16565b10610be95760405162461bcd60e51b81526004018080602001828103825260218152602001806128e26021913960400191505060405180910390fd5b6001600160a01b03821660009081526002602081905260408220805460ff19168155600181018390559081018290556003810182905560058101829055600681018290556007810182905590610c42600883018261279d565b50600060098201819055600a90910155610c5e60048386611da4565b5060019392505050565b610c7061101c565b610cc1576040805162461bcd60e51b815260206004820181905260248201527f4f776e61626c653a2063616c6c6572206973206e6f7420746865206f776e6572604482015290519081900360640190fd5b600080546040516001600160a01b03909116907f8be0079c531659141344cd1fd0a4f28419497f9722a3daafe3b4186f6b6457e0908390a3600080546001600160a01b0319169055565b6001546001600160a01b031681565b600080610d256118ae565b6001600160a01b03166364439b43336040518263ffffffff1660e01b815260040180826001600160a01b03166001600160a01b0316815260200191505060206040518083038186803b158015610d7a57600080fd5b505afa158015610d8e573d6000803e3d6000fd5b505050506040513d6020811015610da457600080fd5b50519050610db18161172e565b610df4576040805162461bcd60e51b815260206004820152600f60248201526e2737ba1030903b30b634b230ba37b960891b604482015290519081900360640190fd5b6001600160a01b0380821660009081526003602081905260409091209081015490911615610f145760038101546001600160a01b03908116600090815260026020908152604091829020825163542424fb60e01b8152600190910160048201529285166024840152905173__$e372bba41e780ae5ece036666c30763d85$__9263542424fb926044808301939192829003018186803b158015610e9657600080fd5b505af4158015610eaa573d6000803e3d6000fd5b505050506040513d6020811015610ec057600080fd5b505115610f14576040805162461bcd60e51b815260206004820152601e60248201527f486173206265656e2067726f7570206d656d62657220726563656e746c790000604482015290519081900360640190fd5b6007546008820154600091610f2f919063ffffffff611d4316565b9050428110610f85576040805162461bcd60e51b815260206004820152601c60248201527f4e6f742079657420726571756972656d656e7420656e642074696d6500000000604482015290519081900360640190fd5b610f9160058487611da4565b6001600160a01b0383166000908152600360205260408120805460ff19168155906001820181610fc182826127bb565b610fcf6001830160006127bb565b5050506003810180546001600160a01b03191690556000600482018190556005820181905560068201819055600890910155506001949350505050565b6000546001600160a01b03165b90565b600080546001600160a01b0316611031611eca565b6001600160a01b031614905090565b600061104b436109cd565b905090565b61105861101c565b6110a9576040805162461bcd60e51b815260206004820181905260248201527f4f776e61626c653a2063616c6c6572206973206e6f7420746865206f776e6572604482015290519081900360640190fd5b6001600160a01b038116611104576040805162461bcd60e51b815260206004820181905260248201527f43616e6e6f7420726567697374657220746865206e756c6c2061646472657373604482015290519081900360640190fd5b600180546001600160a01b0319166001600160a01b0383169081179091556040517f27fe5f0c1c3b1ed427cc63d0f05759ffdecf9aec9e18d31ef366fc8a6cb5dc3b90600090a250565b3360008181526003602081905260408220908101549192916001600160a01b0316156111805761117e8183611ece565b505b60030180546001600160a01b0385166001600160a01b03199091161790555060019050919050565b336000818152600360205260408120805460ff1916600190811790915560058054808301825592527f036b6384b5eca791c62761152d0c79bb0604c104a5fb6f4eb0703f3154bb3db090910180546001600160a01b03191690921790915590565b60065460075482565b600054600160a01b900460ff1615611271576040805162461bcd60e51b815260206004820152601c60248201527f636f6e747261637420616c726561647920696e697469616c697a656400000000604482015290519081900360640190fd5b6000805460ff60a01b1916600160a01b17905561128d33611fa0565b61129681611050565b50565b6000806112a4612040565b6001600160a01b03166330ec70f5846040518263ffffffff1660e01b815260040180826001600160a01b03166001600160a01b0316815260200191505060206040518083038186803b1580156112f957600080fd5b505afa15801561130d573d6000803e3d6000fd5b505050506040513d602081101561132357600080fd5b5051905061133083611362565b61134182600a63ffffffff611d4316565b10159392505050565b60085460095482565b6000336107c681848480611be9565b600061136d8261172e565b1561137b57506006546107ca565b611384826109e6565b15611458576001600160a01b0382166000908152600260205260408120600301546113b1906001906120b8565b6001600160a01b03841660009081526002602052604090206008018054919250901561143c5780546000906113ed90600163ffffffff6120cf16565b90505b801561143a574261140c600860010154848481548110610b9457fe5b106114225761141b81846120b8565b925061143a565b61143381600163ffffffff6120cf16565b90506113f0565b505b60085461144f908363ffffffff61211116565b925050506107ca565b506000919050565b604080516000808252602082019283905281519092606092849260f89290819081908082805b602083106114a55780518252601f199092019160209182019101611486565b6001836020036101000a038019825116818451168082178552505050505050905001915050600060405180830381855afa9150503d8060008114611505576040519150601f19603f3d011682016040523d82523d6000602084013e61150a565b606091505b50925090508061154b5760405162461bcd60e51b81526004018080602001828103825260258152602001806128bd6025913960400191505060405180910390fd5b61155682600061216a565b9250505090565b600e5481565b6000611575611570612176565b61219a565b8211156115b35760405162461bcd60e51b81526004018080602001828103825260258152602001806129036025913960400191505060405180910390fd5b336115bd816109e6565b1561160f576040805162461bcd60e51b815260206004820152601b60248201527f416c726561647920726567697374657265642061732067726f75700000000000604482015290519081900360640190fd5b6001600160a01b0381166000908152600260205260409020805460ff1916600117815561163b8461219e565b5160058201556040805180820190915280611654612176565b8152600060209182018190528251516009850155910151600a909201919091556004805460018082018355919092527f8a35acfbc15ff81a39ae7d344fd709f28e8600b4aa8c65c6b64bfe7fe36bd19b90910180546001600160a01b0319166001600160a01b03939093169290921790915592915050565b6116d461101c565b611725576040805162461bcd60e51b815260206004820181905260248201527f4f776e61626c653a2063616c6c6572206973206e6f7420746865206f776e6572604482015290519081900360640190fd5b61129681611fa0565b6001600160a01b031660009081526003602052604090205460ff1690565b6000806117576118ae565b6001600160a01b03166364439b43336040518263ffffffff1660e01b815260040180826001600160a01b03166001600160a01b0316815260200191505060206040518083038186803b1580156117ac57600080fd5b505afa1580156117c0573d6000803e3d6000fd5b505050506040513d60208110156117d657600080fd5b505190506117e38161172e565b611826576040805162461bcd60e51b815260206004820152600f60248201526e2737ba1030903b30b634b230ba37b960891b604482015290519081900360640190fd5b6001600160a01b0380821660009081526003602081905260409091209081015490911661189a576040805162461bcd60e51b815260206004820152601b60248201527f6465616666696c696174653a206e6f7420616666696c69617465640000000000604482015290519081900360640190fd5b6118a48183611ece565b5060019250505090565b60015460408051674163636f756e747360c01b602080830191909152825180830360080181526028830180855281519183019190912063dcf0aaed60e01b909152602c83015291516000936001600160a01b03169263dcf0aaed92604c8082019391829003018186803b15801561192457600080fd5b505afa158015611938573d6000803e3d6000fd5b505050506040513d602081101561194e57600080fd5b5051905090565b6001600160a01b038083166000818152600260209081526040808320868616845260039283905290832090910154919390929116146119db576040805162461bcd60e51b815260206004820152601760248201527f4e6f7420616666696c696174656420746f2067726f7570000000000000000000604482015290519081900360640190fd5b6040805163542424fb60e01b81526001830160048201526001600160a01b0385166024820152905173__$e372bba41e780ae5ece036666c30763d85$__9163542424fb916044808301926020929190829003018186803b158015611a3e57600080fd5b505af4158015611a52573d6000803e3d6000fd5b505050506040513d6020811015611a6857600080fd5b5051611abb576040805162461bcd60e51b815260206004820152601960248201527f4e6f742061206d656d626572206f66207468652067726f757000000000000000604482015290519081900360640190fd5b6040805163716062b560e11b81526001830160048201526001600160a01b0385166024820152905173__$e372bba41e780ae5ece036666c30763d85$__9163e2c0c56a916044808301926000929190829003018186803b158015611b1e57600080fd5b505af4158015611b32573d6000803e3d6000fd5b50505050600381015480611bb857611b486121b8565b6001600160a01b031663a8e45871866040518263ffffffff1660e01b815260040180826001600160a01b03166001600160a01b03168152602001915050600060405180830381600087803b158015611b9f57600080fd5b505af1158015611bb3573d6000803e3d6000fd5b505050505b611bc384600061222e565b50611bde85611bd983600163ffffffff611d4316565b6124cb565b506001949350505050565b6000611c1d6040518060400160405280601081526020016f05f6164644d656d6265722067726f75760841b81525086612582565b6001600160a01b03851660009081526002602052604081206003810154909190611c4e90600163ffffffff611d4316565b604080516326afac4960e01b81526001850160048201526001600160a01b0389166024820152905191925073__$e372bba41e780ae5ece036666c30763d85$__916326afac4991604480820192600092909190829003018186803b158015611cb557600080fd5b505af4158015611cc9573d6000803e3d6000fd5b50505050611cf96040518060400160405280600a8152602001696e756d4d656d6265727360b01b81525082612639565b5060019695505050505050565b600080828481611d1257fe5b049050828481611d1e57fe5b06611d2a57905061081d565b611d3b81600163ffffffff611d4316565b91505061081d565b600082820183811015611d9d576040805162461bcd60e51b815260206004820152601b60248201527f536166654d6174683a206164646974696f6e206f766572666c6f770000000000604482015290519081900360640190fd5b9392505050565b825481108015611ddc5750816001600160a01b0316838281548110611dc557fe5b6000918252602090912001546001600160a01b0316145b611e175760405162461bcd60e51b815260040180806020018281038252602181526020018061289c6021913960400191505060405180910390fd5b8254600090611e2d90600163ffffffff6120cf16565b9050838181548110611e3b57fe5b9060005260206000200160009054906101000a90046001600160a01b0316848381548110611e6557fe5b9060005260206000200160006101000a8154816001600160a01b0302191690836001600160a01b03160217905550838181548110611e9f57fe5b600091825260209091200180546001600160a01b031916905580611ec385826127ff565b5050505050565b3390565b60038201546001600160a01b039081166000818152600260209081526040808320815163542424fb60e01b8152600182016004820152958716602487015290519294909273__$e372bba41e780ae5ece036666c30763d85$__9263542424fb9260448082019391829003018186803b158015611f4957600080fd5b505af4158015611f5d573d6000803e3d6000fd5b505050506040513d6020811015611f7357600080fd5b505115611f8657611f848285611955565b505b5050505060030180546001600160a01b0319169055600190565b6001600160a01b038116611fe55760405162461bcd60e51b81526004018080602001828103825260268152602001806128556026913960400191505060405180910390fd5b600080546040516001600160a01b03808516939216917f8be0079c531659141344cd1fd0a4f28419497f9722a3daafe3b4186f6b6457e091a3600080546001600160a01b0319166001600160a01b0392909216919091179055565b6001546040805169131bd8dad95911dbdb1960b21b6020808301919091528251808303600a018152602a830180855281519183019190912063dcf0aaed60e01b909152602e83015291516000936001600160a01b03169263dcf0aaed92604e8082019391829003018186803b15801561192457600080fd5b6000818310156120c85781611d9d565b5090919050565b6000611d9d83836040518060400160405280601e81526020017f536166654d6174683a207375627472616374696f6e206f766572666c6f77000081525061269e565b6000826121205750600061081d565b8282028284828161212d57fe5b0414611d9d5760405162461bcd60e51b815260040180806020018281038252602181526020018061287b6021913960400191505060405180910390fd5b6000611d9d8383612735565b61217e612823565b50604080516020810190915269d3c21bcecceda1000000815290565b5190565b6121a6612823565b50604080516020810190915290815290565b600154604080516722b632b1ba34b7b760c11b602080830191909152825180830360080181526028830180855281519183019190912063dcf0aaed60e01b909152602c83015291516000936001600160a01b03169263dcf0aaed92604c8082019391829003018186803b15801561192457600080fd5b6001600160a01b038216600090815260036020526040812060050181612252611040565b9050600082600101546000146122905761228b61227d600185600101546120cf90919063ffffffff16565b84549063ffffffff611d4316565b612293565b60005b9050600083600101541180156122b057506001600160a01b038516155b156122bc574260038401555b600083600101541180156122df5750600081815260028401602052604090205482145b15612339576040805180820182529283526001600160a01b03868116602080860191825260009485526002969096019095529120915182559151600191820180546001600160a01b0319169190931617909155905061081d565b6000836001015460001461235d5761235882600163ffffffff611d4316565b612360565b60005b6040805180820182528581526001600160a01b038981166020808401918252600086815260028b0190915293909320915182559151600191820180546001600160a01b0319169190931617909155600c549086015491925011156123dd576001848101546123d39163ffffffff611d4316565b6001850155611cf9565b600c548460010154141561242b57835460009081526002850160205260408120908155600190810180546001600160a01b031916905584546124249163ffffffff611d4316565b8455611cf9565b8354600090815260028501602081905260408220828155600190810180546001600160a01b031916905586549192916124699163ffffffff611d4316565b815260208101919091526040016000908120908155600190810180546001600160a01b0319169055848101546124a49163ffffffff6120cf16565b600185015583546124bc90600263ffffffff611d4316565b84555060019695505050505050565b6001600160a01b038216600090815260026020526040902060080180548214156125095780546001810182556000828152602090204291015561257d565b8054821015612530574281838154811061251f57fe5b60009182526020909120015561257d565b6040805162461bcd60e51b815260206004820152601d60248201527f556e61626c6520746f207570646174652073697a6520686973746f7279000000604482015290519081900360640190fd5b505050565b7f62ddffe5b5108385f7a590f100e1ee414ad9551a31f089e64e82998440785e1e82826040518080602001836001600160a01b03166001600160a01b03168152602001828103825284818151815260200191508051906020019080838360005b838110156125fa5781810151838201526020016125e2565b50505050905090810190601f1680156126275780820380516001836020036101000a031916815260200191505b50935050505060405180910390a15050565b7f941296a39ea107bde685522318a4b6c2b544904a5dd82a512748ca2cf839bef78282604051808060200183815260200182810382528481815181526020019150805190602001908083836000838110156125fa5781810151838201526020016125e2565b6000818484111561272d5760405162461bcd60e51b81526004018080602001828103825283818151815260200191508051906020019080838360005b838110156126f25781810151838201526020016126da565b50505050905090810190601f16801561271f5780820380516001836020036101000a031916815260200191505b509250505060405180910390fd5b505050900390565b600061274882602063ffffffff611d4316565b83511015612794576040805162461bcd60e51b8152602060048201526014602482015273736c6963696e67206f7574206f662072616e676560601b604482015290519081900360640190fd5b50016020015190565b50805460008255906000526020600020908101906112969190612836565b50805460018160011615610100020316600290046000825580601f106127e15750611296565b601f0160209004906000526020600020908101906112969190612836565b81548183558181111561257d5760008381526020902061257d918101908301612836565b6040518060200160405280600081525090565b61101991905b80821115612850576000815560010161283c565b509056fe4f776e61626c653a206e6577206f776e657220697320746865207a65726f2061646472657373536166654d6174683a206d756c7469706c69636174696f6e206f766572666c6f7764656c657465456c656d656e743a20696e646578206f7574206f662072616e67656572726f722063616c6c696e672067657445706f636853697a6520707265636f6d70696c654861736e2774206265656e20656d70747920666f72206c6f6e6720656e6f756768436f6d6d697373696f6e2063616e27742062652067726561746572207468616e2031303025a265627a7a72315820d9145d218ddcafeae488a3e15d321e254c5adf8a92751f67ead3413e32b5367964736f6c634300050d0032",
			"opcodes": "PUSH1 0x80 PUSH1 0x40 MSTORE CALLVALUE DUP1 ISZERO PUSH3 0x11 JUMPI PUSH1 0x0 DUP1 REVERT JUMPDEST POP PUSH1 0x40 MLOAD PUSH3 0x2A3C CODESIZE SUB DUP1 PUSH3 0x2A3C DUP4 CODECOPY DUP2 DUP2 ADD PUSH1 0x40 MSTORE PUSH1 0x20 DUP2 LT ISZERO PUSH3 0x37 JUMPI PUSH1 0x0 DUP1 REVERT JUMPDEST POP MLOAD DUP1 PUSH1 0x0 PUSH3 0x4F PUSH1 0x1 PUSH1 0x1 PUSH1 0xE0 SHL SUB PUSH3 0xCC AND JUMP JUMPDEST PUSH1 0x0 DUP1 SLOAD PUSH1 0x1 PUSH1 0x1 PUSH1 0xA0 SHL SUB NOT AND PUSH1 0x1 PUSH1 0x1 PUSH1 0xA0 SHL SUB DUP4 AND SWAP1 DUP2 OR DUP3 SSTORE PUSH1 0x40 MLOAD SWAP3 SWAP4 POP SWAP2 PUSH32 0x8BE0079C531659141344CD1FD0A4F28419497F9722A3DAAFE3B4186F6B6457E0 SWAP1 DUP3 SWAP1 LOG3 POP DUP1 PUSH3 0xC4 JUMPI PUSH1 0x0 DUP1 SLOAD PUSH1 0xFF PUSH1 0xA0 SHL NOT AND PUSH21 0x10000000000000000000000000000000000000000 OR SWAP1 SSTORE JUMPDEST POP POP PUSH3 0xD0 JUMP JUMPDEST CALLER SWAP1 JUMP JUMPDEST PUSH2 0x295C DUP1 PUSH3 0xE0 PUSH1 0x0 CODECOPY PUSH1 0x0 RETURN INVALID PUSH1 0x80 PUSH1 0x40 MSTORE CALLVALUE DUP1 ISZERO PUSH2 0x10 JUMPI PUSH1 0x0 DUP1 REVERT JUMPDEST POP PUSH1 0x4 CALLDATASIZE LT PUSH2 0x1FB JUMPI PUSH1 0x0 CALLDATALOAD PUSH1 0xE0 SHR DUP1 PUSH4 0x8F32D59B GT PUSH2 0x11A JUMPI DUP1 PUSH4 0xC5805140 GT PUSH2 0xAD JUMPI DUP1 PUSH4 0xE0E3FFE6 GT PUSH2 0x7C JUMPI DUP1 PUSH4 0xE0E3FFE6 EQ PUSH2 0x645 JUMPI DUP1 PUSH4 0xEE098310 EQ PUSH2 0x64D JUMPI DUP1 PUSH4 0xF2FDE38B EQ PUSH2 0x66A JUMPI DUP1 PUSH4 0xFACD743B EQ PUSH2 0x690 JUMPI DUP1 PUSH4 0xFFFDFCCB EQ PUSH2 0x6B6 JUMPI PUSH2 0x1FB JUMP JUMPDEST DUP1 PUSH4 0xC5805140 EQ PUSH2 0x5E9 JUMPI DUP1 PUSH4 0xCA6D56DC EQ PUSH2 0x5F1 JUMPI DUP1 PUSH4 0xDCFF4CF6 EQ PUSH2 0x617 JUMPI DUP1 PUSH4 0xDF4DA461 EQ PUSH2 0x63D JUMPI PUSH2 0x1FB JUMP JUMPDEST DUP1 PUSH4 0xBCC6587F GT PUSH2 0xE9 JUMPI DUP1 PUSH4 0xBCC6587F EQ PUSH2 0x574 JUMPI DUP1 PUSH4 0xBD9E9D94 EQ PUSH2 0x57C JUMPI DUP1 PUSH4 0xC4D66DE8 EQ PUSH2 0x59D JUMPI DUP1 PUSH4 0xC54C1CD4 EQ PUSH2 0x5C3 JUMPI PUSH2 0x1FB JUMP JUMPDEST DUP1 PUSH4 0x8F32D59B EQ PUSH2 0x518 JUMPI DUP1 PUSH4 0x9A7B3BE7 EQ PUSH2 0x520 JUMPI DUP1 PUSH4 0xA91EE0DC EQ PUSH2 0x528 JUMPI DUP1 PUSH4 0xB591D3A5 EQ PUSH2 0x54E JUMPI PUSH2 0x1FB JUMP JUMPDEST DUP1 PUSH4 0x4CD76DB4 GT PUSH2 0x192 JUMPI DUP1 PUSH4 0x715018A6 GT PUSH2 0x161 JUMPI DUP1 PUSH4 0x715018A6 EQ PUSH2 0x4C5 JUMPI DUP1 PUSH4 0x7B103999 EQ PUSH2 0x4CF JUMPI DUP1 PUSH4 0x8B16B1C6 EQ PUSH2 0x4F3 JUMPI DUP1 PUSH4 0x8DA5CB5B EQ PUSH2 0x510 JUMPI PUSH2 0x1FB JUMP JUMPDEST DUP1 PUSH4 0x4CD76DB4 EQ PUSH2 0x472 JUMPI DUP1 PUSH4 0x52F13A4E EQ PUSH2 0x47A JUMPI DUP1 PUSH4 0x5779E93D EQ PUSH2 0x4A0 JUMPI DUP1 PUSH4 0x60FB822C EQ PUSH2 0x4A8 JUMPI PUSH2 0x1FB JUMP JUMPDEST DUP1 PUSH4 0x23F0AB65 GT PUSH2 0x1CE JUMPI DUP1 PUSH4 0x23F0AB65 EQ PUSH2 0x2D8 JUMPI DUP1 PUSH4 0x3173B8DB EQ PUSH2 0x415 JUMPI DUP1 PUSH4 0x36407B70 EQ PUSH2 0x44D JUMPI DUP1 PUSH4 0x3B1EB4BF EQ PUSH2 0x455 JUMPI PUSH2 0x1FB JUMP JUMPDEST DUP1 PUSH4 0x352A592 EQ PUSH2 0x200 JUMPI DUP1 PUSH4 0xB1CA49A EQ PUSH2 0x21A JUMPI DUP1 PUSH4 0x104AD681 EQ PUSH2 0x254 JUMPI DUP1 PUSH4 0x158EF93E EQ PUSH2 0x2D0 JUMPI JUMPDEST PUSH1 0x0 DUP1 REVERT JUMPDEST PUSH2 0x208 PUSH2 0x6BE JUMP JUMPDEST PUSH1 0x40 DUP1 MLOAD SWAP2 DUP3 MSTORE MLOAD SWAP1 DUP2 SWAP1 SUB PUSH1 0x20 ADD SWAP1 RETURN JUMPDEST PUSH2 0x240 PUSH1 0x4 DUP1 CALLDATASIZE SUB PUSH1 0x20 DUP2 LT ISZERO PUSH2 0x230 JUMPI PUSH1 0x0 DUP1 REVERT JUMPDEST POP CALLDATALOAD PUSH1 0x1 PUSH1 0x1 PUSH1 0xA0 SHL SUB AND PUSH2 0x6C4 JUMP JUMPDEST PUSH1 0x40 DUP1 MLOAD SWAP2 ISZERO ISZERO DUP3 MSTORE MLOAD SWAP1 DUP2 SWAP1 SUB PUSH1 0x20 ADD SWAP1 RETURN JUMPDEST PUSH2 0x280 PUSH1 0x4 DUP1 CALLDATASIZE SUB PUSH1 0x40 DUP2 LT ISZERO PUSH2 0x26A JUMPI PUSH1 0x0 DUP1 REVERT JUMPDEST POP PUSH1 0x1 PUSH1 0x1 PUSH1 0xA0 SHL SUB DUP2 CALLDATALOAD AND SWAP1 PUSH1 0x20 ADD CALLDATALOAD PUSH2 0x7CF JUMP JUMPDEST PUSH1 0x40 DUP1 MLOAD PUSH1 0x20 DUP1 DUP3 MSTORE DUP4 MLOAD DUP2 DUP4 ADD MSTORE DUP4 MLOAD SWAP2 SWAP3 DUP4 SWAP3 SWAP1 DUP4 ADD SWAP2 DUP6 DUP2 ADD SWAP2 MUL DUP1 DUP4 DUP4 PUSH1 0x0 JUMPDEST DUP4 DUP2 LT ISZERO PUSH2 0x2BC JUMPI DUP2 DUP2 ADD MLOAD DUP4 DUP3 ADD MSTORE PUSH1 0x20 ADD PUSH2 0x2A4 JUMP JUMPDEST POP POP POP POP SWAP1 POP ADD SWAP3 POP POP POP PUSH1 0x40 MLOAD DUP1 SWAP2 SUB SWAP1 RETURN JUMPDEST PUSH2 0x240 PUSH2 0x823 JUMP JUMPDEST PUSH2 0x240 PUSH1 0x4 DUP1 CALLDATASIZE SUB PUSH1 0x60 DUP2 LT ISZERO PUSH2 0x2EE JUMPI PUSH1 0x0 DUP1 REVERT JUMPDEST PUSH1 0x1 PUSH1 0x1 PUSH1 0xA0 SHL SUB DUP3 CALLDATALOAD AND SWAP2 SWAP1 DUP2 ADD SWAP1 PUSH1 0x40 DUP2 ADD PUSH1 0x20 DUP3 ADD CALLDATALOAD PUSH5 0x100000000 DUP2 GT ISZERO PUSH2 0x319 JUMPI PUSH1 0x0 DUP1 REVERT JUMPDEST DUP3 ADD DUP4 PUSH1 0x20 DUP3 ADD GT ISZERO PUSH2 0x32B JUMPI PUSH1 0x0 DUP1 REVERT JUMPDEST DUP1 CALLDATALOAD SWAP1 PUSH1 0x20 ADD SWAP2 DUP5 PUSH1 0x1 DUP4 MUL DUP5 ADD GT PUSH5 0x100000000 DUP4 GT OR ISZERO PUSH2 0x34D JUMPI PUSH1 0x0 DUP1 REVERT JUMPDEST SWAP2 SWAP1 DUP1 DUP1 PUSH1 0x1F ADD PUSH1 0x20 DUP1 SWAP2 DIV MUL PUSH1 0x20 ADD PUSH1 0x40 MLOAD SWAP1 DUP2 ADD PUSH1 0x40 MSTORE DUP1 SWAP4 SWAP3 SWAP2 SWAP1 DUP2 DUP2 MSTORE PUSH1 0x20 ADD DUP4 DUP4 DUP1 DUP3 DUP5 CALLDATACOPY PUSH1 0x0 SWAP3 ADD SWAP2 SWAP1 SWAP2 MSTORE POP SWAP3 SWAP6 SWAP5 SWAP4 PUSH1 0x20 DUP2 ADD SWAP4 POP CALLDATALOAD SWAP2 POP POP PUSH5 0x100000000 DUP2 GT ISZERO PUSH2 0x3A0 JUMPI PUSH1 0x0 DUP1 REVERT JUMPDEST DUP3 ADD DUP4 PUSH1 0x20 DUP3 ADD GT ISZERO PUSH2 0x3B2 JUMPI PUSH1 0x0 DUP1 REVERT JUMPDEST DUP1 CALLDATALOAD SWAP1 PUSH1 0x20 ADD SWAP2 DUP5 PUSH1 0x1 DUP4 MUL DUP5 ADD GT PUSH5 0x100000000 DUP4 GT OR ISZERO PUSH2 0x3D4 JUMPI PUSH1 0x0 DUP1 REVERT JUMPDEST SWAP2 SWAP1 DUP1 DUP1 PUSH1 0x1F ADD PUSH1 0x20 DUP1 SWAP2 DIV MUL PUSH1 0x20 ADD PUSH1 0x40 MLOAD SWAP1 DUP2 ADD PUSH1 0x40 MSTORE DUP1 SWAP4 SWAP3 SWAP2 SWAP1 DUP2 DUP2 MSTORE PUSH1 0x20 ADD DUP4 DUP4 DUP1 DUP3 DUP5 CALLDATACOPY PUSH1 0x0 SWAP3 ADD SWAP2 SWAP1 SWAP2 MSTORE POP SWAP3 SWAP6 POP PUSH2 0x833 SWAP5 POP POP POP POP POP JUMP JUMPDEST PUSH2 0x240 PUSH1 0x4 DUP1 CALLDATASIZE SUB PUSH1 0x60 DUP2 LT ISZERO PUSH2 0x42B JUMPI PUSH1 0x0 DUP1 REVERT JUMPDEST POP PUSH1 0x1 PUSH1 0x1 PUSH1 0xA0 SHL SUB DUP2 CALLDATALOAD DUP2 AND SWAP2 PUSH1 0x20 DUP2 ADD CALLDATALOAD DUP3 AND SWAP2 PUSH1 0x40 SWAP1 SWAP2 ADD CALLDATALOAD AND PUSH2 0x9AF JUMP JUMPDEST PUSH2 0x208 PUSH2 0x9C7 JUMP JUMPDEST PUSH2 0x208 PUSH1 0x4 DUP1 CALLDATASIZE SUB PUSH1 0x20 DUP2 LT ISZERO PUSH2 0x46B JUMPI PUSH1 0x0 DUP1 REVERT JUMPDEST POP CALLDATALOAD PUSH2 0x9CD JUMP JUMPDEST PUSH2 0x208 PUSH2 0x9E0 JUMP JUMPDEST PUSH2 0x240 PUSH1 0x4 DUP1 CALLDATASIZE SUB PUSH1 0x20 DUP2 LT ISZERO PUSH2 0x490 JUMPI PUSH1 0x0 DUP1 REVERT JUMPDEST POP CALLDATALOAD PUSH1 0x1 PUSH1 0x1 PUSH1 0xA0 SHL SUB AND PUSH2 0x9E6 JUMP JUMPDEST PUSH2 0x208 PUSH2 0xA04 JUMP JUMPDEST PUSH2 0x240 PUSH1 0x4 DUP1 CALLDATASIZE SUB PUSH1 0x20 DUP2 LT ISZERO PUSH2 0x4BE JUMPI PUSH1 0x0 DUP1 REVERT JUMPDEST POP CALLDATALOAD PUSH2 0xA0A JUMP JUMPDEST PUSH2 0x4CD PUSH2 0xC68 JUMP JUMPDEST STOP JUMPDEST PUSH2 0x4D7 PUSH2 0xD0B JUMP JUMPDEST PUSH1 0x40 DUP1 MLOAD PUSH1 0x1 PUSH1 0x1 PUSH1 0xA0 SHL SUB SWAP1 SWAP3 AND DUP3 MSTORE MLOAD SWAP1 DUP2 SWAP1 SUB PUSH1 0x20 ADD SWAP1 RETURN JUMPDEST PUSH2 0x240 PUSH1 0x4 DUP1 CALLDATASIZE SUB PUSH1 0x20 DUP2 LT ISZERO PUSH2 0x509 JUMPI PUSH1 0x0 DUP1 REVERT JUMPDEST POP CALLDATALOAD PUSH2 0xD1A JUMP JUMPDEST PUSH2 0x4D7 PUSH2 0x100C JUMP JUMPDEST PUSH2 0x240 PUSH2 0x101C JUMP JUMPDEST PUSH2 0x208 PUSH2 0x1040 JUMP JUMPDEST PUSH2 0x4CD PUSH1 0x4 DUP1 CALLDATASIZE SUB PUSH1 0x20 DUP2 LT ISZERO PUSH2 0x53E JUMPI PUSH1 0x0 DUP1 REVERT JUMPDEST POP CALLDATALOAD PUSH1 0x1 PUSH1 0x1 PUSH1 0xA0 SHL SUB AND PUSH2 0x1050 JUMP JUMPDEST PUSH2 0x240 PUSH1 0x4 DUP1 CALLDATASIZE SUB PUSH1 0x20 DUP2 LT ISZERO PUSH2 0x564 JUMPI PUSH1 0x0 DUP1 REVERT JUMPDEST POP CALLDATALOAD PUSH1 0x1 PUSH1 0x1 PUSH1 0xA0 SHL SUB AND PUSH2 0x114E JUMP JUMPDEST PUSH2 0x240 PUSH2 0x11A8 JUMP JUMPDEST PUSH2 0x584 PUSH2 0x1209 JUMP JUMPDEST PUSH1 0x40 DUP1 MLOAD SWAP3 DUP4 MSTORE PUSH1 0x20 DUP4 ADD SWAP2 SWAP1 SWAP2 MSTORE DUP1 MLOAD SWAP2 DUP3 SWAP1 SUB ADD SWAP1 RETURN JUMPDEST PUSH2 0x4CD PUSH1 0x4 DUP1 CALLDATASIZE SUB PUSH1 0x20 DUP2 LT ISZERO PUSH2 0x5B3 JUMPI PUSH1 0x0 DUP1 REVERT JUMPDEST POP CALLDATALOAD PUSH1 0x1 PUSH1 0x1 PUSH1 0xA0 SHL SUB AND PUSH2 0x1212 JUMP JUMPDEST PUSH2 0x240 PUSH1 0x4 DUP1 CALLDATASIZE SUB PUSH1 0x20 DUP2 LT ISZERO PUSH2 0x5D9 JUMPI PUSH1 0x0 DUP1 REVERT JUMPDEST POP CALLDATALOAD PUSH1 0x1 PUSH1 0x1 PUSH1 0xA0 SHL SUB AND PUSH2 0x1299 JUMP JUMPDEST PUSH2 0x584 PUSH2 0x134A JUMP JUMPDEST PUSH2 0x240 PUSH1 0x4 DUP1 CALLDATASIZE SUB PUSH1 0x20 DUP2 LT ISZERO PUSH2 0x607 JUMPI PUSH1 0x0 DUP1 REVERT JUMPDEST POP CALLDATALOAD PUSH1 0x1 PUSH1 0x1 PUSH1 0xA0 SHL SUB AND PUSH2 0x1353 JUMP JUMPDEST PUSH2 0x208 PUSH1 0x4 DUP1 CALLDATASIZE SUB PUSH1 0x20 DUP2 LT ISZERO PUSH2 0x62D JUMPI PUSH1 0x0 DUP1 REVERT JUMPDEST POP CALLDATALOAD PUSH1 0x1 PUSH1 0x1 PUSH1 0xA0 SHL SUB AND PUSH2 0x1362 JUMP JUMPDEST PUSH2 0x208 PUSH2 0x1460 JUMP JUMPDEST PUSH2 0x208 PUSH2 0x155D JUMP JUMPDEST PUSH2 0x240 PUSH1 0x4 DUP1 CALLDATASIZE SUB PUSH1 0x20 DUP2 LT ISZERO PUSH2 0x663 JUMPI PUSH1 0x0 DUP1 REVERT JUMPDEST POP CALLDATALOAD PUSH2 0x1563 JUMP JUMPDEST PUSH2 0x4CD PUSH1 0x4 DUP1 CALLDATASIZE SUB PUSH1 0x20 DUP2 LT ISZERO PUSH2 0x680 JUMPI PUSH1 0x0 DUP1 REVERT JUMPDEST POP CALLDATALOAD PUSH1 0x1 PUSH1 0x1 PUSH1 0xA0 SHL SUB AND PUSH2 0x16CC JUMP JUMPDEST PUSH2 0x240 PUSH1 0x4 DUP1 CALLDATASIZE SUB PUSH1 0x20 DUP2 LT ISZERO PUSH2 0x6A6 JUMPI PUSH1 0x0 DUP1 REVERT JUMPDEST POP CALLDATALOAD PUSH1 0x1 PUSH1 0x1 PUSH1 0xA0 SHL SUB AND PUSH2 0x172E JUMP JUMPDEST PUSH2 0x240 PUSH2 0x174C JUMP JUMPDEST PUSH1 0x10 SLOAD DUP2 JUMP JUMPDEST PUSH1 0x0 DUP1 PUSH2 0x6CF PUSH2 0x18AE JUMP JUMPDEST PUSH1 0x1 PUSH1 0x1 PUSH1 0xA0 SHL SUB AND PUSH4 0x64439B43 CALLER PUSH1 0x40 MLOAD DUP3 PUSH4 0xFFFFFFFF AND PUSH1 0xE0 SHL DUP2 MSTORE PUSH1 0x4 ADD DUP1 DUP3 PUSH1 0x1 PUSH1 0x1 PUSH1 0xA0 SHL SUB AND PUSH1 0x1 PUSH1 0x1 PUSH1 0xA0 SHL SUB AND DUP2 MSTORE PUSH1 0x20 ADD SWAP2 POP POP PUSH1 0x20 PUSH1 0x40 MLOAD DUP1 DUP4 SUB DUP2 DUP7 DUP1 EXTCODESIZE ISZERO DUP1 ISZERO PUSH2 0x724 JUMPI PUSH1 0x0 DUP1 REVERT JUMPDEST POP GAS STATICCALL ISZERO DUP1 ISZERO PUSH2 0x738 JUMPI RETURNDATASIZE PUSH1 0x0 DUP1 RETURNDATACOPY RETURNDATASIZE PUSH1 0x0 REVERT JUMPDEST POP POP POP POP PUSH1 0x40 MLOAD RETURNDATASIZE PUSH1 0x20 DUP2 LT ISZERO PUSH2 0x74E JUMPI PUSH1 0x0 DUP1 REVERT JUMPDEST POP MLOAD SWAP1 POP PUSH2 0x75B DUP2 PUSH2 0x9E6 JUMP JUMPDEST DUP1 ISZERO PUSH2 0x76B JUMPI POP PUSH2 0x76B DUP4 PUSH2 0x172E JUMP JUMPDEST PUSH2 0x7BC JUMPI PUSH1 0x40 DUP1 MLOAD PUSH3 0x461BCD PUSH1 0xE5 SHL DUP2 MSTORE PUSH1 0x20 PUSH1 0x4 DUP3 ADD MSTORE PUSH1 0x1A PUSH1 0x24 DUP3 ADD MSTORE PUSH32 0x6973206E6F742067726F757020616E642076616C696461746F72000000000000 PUSH1 0x44 DUP3 ADD MSTORE SWAP1 MLOAD SWAP1 DUP2 SWAP1 SUB PUSH1 0x64 ADD SWAP1 REVERT JUMPDEST PUSH2 0x7C6 DUP2 DUP5 PUSH2 0x1955 JUMP JUMPDEST SWAP2 POP POP JUMPDEST SWAP2 SWAP1 POP JUMP JUMPDEST PUSH1 0x40 DUP1 MLOAD PUSH1 0x1 DUP1 DUP3 MSTORE DUP2 DUP4 ADD SWAP1 SWAP3 MSTORE PUSH1 0x60 SWAP2 DUP3 SWAP2 SWAP1 PUSH1 0x20 DUP1 DUP4 ADD SWAP1 DUP1 CODESIZE DUP4 CODECOPY ADD SWAP1 POP POP SWAP1 POP CALLER DUP2 PUSH1 0x0 DUP2 MLOAD DUP2 LT PUSH2 0x802 JUMPI INVALID JUMPDEST PUSH1 0x1 PUSH1 0x1 PUSH1 0xA0 SHL SUB SWAP1 SWAP3 AND PUSH1 0x20 SWAP3 DUP4 MUL SWAP2 SWAP1 SWAP2 ADD SWAP1 SWAP2 ADD MSTORE SWAP1 POP JUMPDEST SWAP3 SWAP2 POP POP JUMP JUMPDEST PUSH1 0x0 SLOAD PUSH1 0x1 PUSH1 0xA0 SHL SWAP1 DIV PUSH1 0xFF AND DUP2 JUMP JUMPDEST PUSH1 0x0 DUP1 PUSH1 0xFB PUSH1 0x1 PUSH1 0x1 PUSH1 0xA0 SHL SUB AND DUP6 DUP6 DUP6 PUSH1 0x40 MLOAD PUSH1 0x20 ADD DUP1 DUP5 PUSH1 0x1 PUSH1 0x1 PUSH1 0xA0 SHL SUB AND PUSH1 0x1 PUSH1 0x1 PUSH1 0xA0 SHL SUB AND PUSH1 0x60 SHL DUP2 MSTORE PUSH1 0x14 ADD DUP4 DUP1 MLOAD SWAP1 PUSH1 0x20 ADD SWAP1 DUP1 DUP4 DUP4 JUMPDEST PUSH1 0x20 DUP4 LT PUSH2 0x891 JUMPI DUP1 MLOAD DUP3 MSTORE PUSH1 0x1F NOT SWAP1 SWAP3 ADD SWAP2 PUSH1 0x20 SWAP2 DUP3 ADD SWAP2 ADD PUSH2 0x872 JUMP JUMPDEST MLOAD DUP2 MLOAD PUSH1 0x20 SWAP4 DUP5 SUB PUSH2 0x100 EXP PUSH1 0x0 NOT ADD DUP1 NOT SWAP1 SWAP3 AND SWAP2 AND OR SWAP1 MSTORE DUP6 MLOAD SWAP2 SWAP1 SWAP4 ADD SWAP3 DUP6 ADD SWAP2 POP DUP1 DUP4 DUP4 JUMPDEST PUSH1 0x20 DUP4 LT PUSH2 0x8D9 JUMPI DUP1 MLOAD DUP3 MSTORE PUSH1 0x1F NOT SWAP1 SWAP3 ADD SWAP2 PUSH1 0x20 SWAP2 DUP3 ADD SWAP2 ADD PUSH2 0x8BA JUMP JUMPDEST PUSH1 0x1 DUP4 PUSH1 0x20 SUB PUSH2 0x100 EXP SUB DUP1 NOT DUP3 MLOAD AND DUP2 DUP5 MLOAD AND DUP1 DUP3 OR DUP6 MSTORE POP POP POP POP POP POP SWAP1 POP ADD SWAP4 POP POP POP POP PUSH1 0x40 MLOAD PUSH1 0x20 DUP2 DUP4 SUB SUB DUP2 MSTORE SWAP1 PUSH1 0x40 MSTORE PUSH1 0x40 MLOAD DUP1 DUP3 DUP1 MLOAD SWAP1 PUSH1 0x20 ADD SWAP1 DUP1 DUP4 DUP4 JUMPDEST PUSH1 0x20 DUP4 LT PUSH2 0x93E JUMPI DUP1 MLOAD DUP3 MSTORE PUSH1 0x1F NOT SWAP1 SWAP3 ADD SWAP2 PUSH1 0x20 SWAP2 DUP3 ADD SWAP2 ADD PUSH2 0x91F JUMP JUMPDEST PUSH1 0x1 DUP4 PUSH1 0x20 SUB PUSH2 0x100 EXP SUB DUP1 NOT DUP3 MLOAD AND DUP2 DUP5 MLOAD AND DUP1 DUP3 OR DUP6 MSTORE POP POP POP POP POP POP SWAP1 POP ADD SWAP2 POP POP PUSH1 0x0 PUSH1 0x40 MLOAD DUP1 DUP4 SUB DUP2 DUP6 GAS STATICCALL SWAP2 POP POP RETURNDATASIZE DUP1 PUSH1 0x0 DUP2 EQ PUSH2 0x99E JUMPI PUSH1 0x40 MLOAD SWAP2 POP PUSH1 0x1F NOT PUSH1 0x3F RETURNDATASIZE ADD AND DUP3 ADD PUSH1 0x40 MSTORE RETURNDATASIZE DUP3 MSTORE RETURNDATASIZE PUSH1 0x0 PUSH1 0x20 DUP5 ADD RETURNDATACOPY PUSH2 0x9A3 JUMP JUMPDEST PUSH1 0x60 SWAP2 POP JUMPDEST POP SWAP1 SWAP7 SWAP6 POP POP POP POP POP POP JUMP JUMPDEST PUSH1 0x0 CALLER PUSH2 0x9BE DUP2 DUP7 DUP7 DUP7 PUSH2 0x1BE9 JUMP JUMPDEST SWAP6 SWAP5 POP POP POP POP POP JUMP JUMPDEST PUSH1 0xF SLOAD DUP2 JUMP JUMPDEST PUSH1 0x0 PUSH2 0x81D DUP3 PUSH2 0x9DB PUSH2 0x1460 JUMP JUMPDEST PUSH2 0x1D06 JUMP JUMPDEST PUSH1 0xC SLOAD DUP2 JUMP JUMPDEST PUSH1 0x1 PUSH1 0x1 PUSH1 0xA0 SHL SUB AND PUSH1 0x0 SWAP1 DUP2 MSTORE PUSH1 0x2 PUSH1 0x20 MSTORE PUSH1 0x40 SWAP1 KECCAK256 SLOAD PUSH1 0xFF AND SWAP1 JUMP JUMPDEST PUSH1 0xD SLOAD DUP2 JUMP JUMPDEST PUSH1 0x0 DUP1 PUSH2 0xA15 PUSH2 0x18AE JUMP JUMPDEST PUSH1 0x1 PUSH1 0x1 PUSH1 0xA0 SHL SUB AND PUSH4 0x64439B43 CALLER PUSH1 0x40 MLOAD DUP3 PUSH4 0xFFFFFFFF AND PUSH1 0xE0 SHL DUP2 MSTORE PUSH1 0x4 ADD DUP1 DUP3 PUSH1 0x1 PUSH1 0x1 PUSH1 0xA0 SHL SUB AND PUSH1 0x1 PUSH1 0x1 PUSH1 0xA0 SHL SUB AND DUP2 MSTORE PUSH1 0x20 ADD SWAP2 POP POP PUSH1 0x20 PUSH1 0x40 MLOAD DUP1 DUP4 SUB DUP2 DUP7 DUP1 EXTCODESIZE ISZERO DUP1 ISZERO PUSH2 0xA6A JUMPI PUSH1 0x0 DUP1 REVERT JUMPDEST POP GAS STATICCALL ISZERO DUP1 ISZERO PUSH2 0xA7E JUMPI RETURNDATASIZE PUSH1 0x0 DUP1 RETURNDATACOPY RETURNDATASIZE PUSH1 0x0 REVERT JUMPDEST POP POP POP POP PUSH1 0x40 MLOAD RETURNDATASIZE PUSH1 0x20 DUP2 LT ISZERO PUSH2 0xA94 JUMPI PUSH1 0x0 DUP1 REVERT JUMPDEST POP MLOAD SWAP1 POP PUSH2 0xAA1 DUP2 PUSH2 0x9E6 JUMP JUMPDEST PUSH2 0xAEA JUMPI PUSH1 0x40 DUP1 MLOAD PUSH3 0x461BCD PUSH1 0xE5 SHL DUP2 MSTORE PUSH1 0x20 PUSH1 0x4 DUP3 ADD MSTORE PUSH1 0x15 PUSH1 0x24 DUP3 ADD MSTORE PUSH21 0x4E6F7420612076616C696461746F722067726F757 PUSH1 0x5C SHL PUSH1 0x44 DUP3 ADD MSTORE SWAP1 MLOAD SWAP1 DUP2 SWAP1 SUB PUSH1 0x64 ADD SWAP1 REVERT JUMPDEST PUSH1 0x1 PUSH1 0x1 PUSH1 0xA0 SHL SUB DUP2 AND PUSH1 0x0 SWAP1 DUP2 MSTORE PUSH1 0x2 PUSH1 0x20 MSTORE PUSH1 0x40 SWAP1 KECCAK256 PUSH1 0x3 ADD SLOAD ISZERO PUSH2 0xB58 JUMPI PUSH1 0x40 DUP1 MLOAD PUSH3 0x461BCD PUSH1 0xE5 SHL DUP2 MSTORE PUSH1 0x20 PUSH1 0x4 DUP3 ADD MSTORE PUSH1 0x19 PUSH1 0x24 DUP3 ADD MSTORE PUSH32 0x56616C696461746F722067726F7570206E6F7420656D70747900000000000000 PUSH1 0x44 DUP3 ADD MSTORE SWAP1 MLOAD SWAP1 DUP2 SWAP1 SUB PUSH1 0x64 ADD SWAP1 REVERT JUMPDEST PUSH1 0x1 PUSH1 0x1 PUSH1 0xA0 SHL SUB DUP2 AND PUSH1 0x0 SWAP1 DUP2 MSTORE PUSH1 0x2 PUSH1 0x20 MSTORE PUSH1 0x40 SWAP1 KECCAK256 PUSH1 0x8 ADD DUP1 SLOAD PUSH1 0x1 LT ISZERO PUSH2 0xBE9 JUMPI TIMESTAMP PUSH2 0xBAD PUSH1 0x8 PUSH1 0x1 ADD SLOAD DUP4 PUSH1 0x1 DUP2 SLOAD DUP2 LT PUSH2 0xB94 JUMPI INVALID JUMPDEST SWAP1 PUSH1 0x0 MSTORE PUSH1 0x20 PUSH1 0x0 KECCAK256 ADD SLOAD PUSH2 0x1D43 SWAP1 SWAP2 SWAP1 PUSH4 0xFFFFFFFF AND JUMP JUMPDEST LT PUSH2 0xBE9 JUMPI PUSH1 0x40 MLOAD PUSH3 0x461BCD PUSH1 0xE5 SHL DUP2 MSTORE PUSH1 0x4 ADD DUP1 DUP1 PUSH1 0x20 ADD DUP3 DUP2 SUB DUP3 MSTORE PUSH1 0x21 DUP2 MSTORE PUSH1 0x20 ADD DUP1 PUSH2 0x28E2 PUSH1 0x21 SWAP2 CODECOPY PUSH1 0x40 ADD SWAP2 POP POP PUSH1 0x40 MLOAD DUP1 SWAP2 SUB SWAP1 REVERT JUMPDEST PUSH1 0x1 PUSH1 0x1 PUSH1 0xA0 SHL SUB DUP3 AND PUSH1 0x0 SWAP1 DUP2 MSTORE PUSH1 0x2 PUSH1 0x20 DUP2 SWAP1 MSTORE PUSH1 0x40 DUP3 KECCAK256 DUP1 SLOAD PUSH1 0xFF NOT AND DUP2 SSTORE PUSH1 0x1 DUP2 ADD DUP4 SWAP1 SSTORE SWAP1 DUP2 ADD DUP3 SWAP1 SSTORE PUSH1 0x3 DUP2 ADD DUP3 SWAP1 SSTORE PUSH1 0x5 DUP2 ADD DUP3 SWAP1 SSTORE PUSH1 0x6 DUP2 ADD DUP3 SWAP1 SSTORE PUSH1 0x7 DUP2 ADD DUP3 SWAP1 SSTORE SWAP1 PUSH2 0xC42 PUSH1 0x8 DUP4 ADD DUP3 PUSH2 0x279D JUMP JUMPDEST POP PUSH1 0x0 PUSH1 0x9 DUP3 ADD DUP2 SWAP1 SSTORE PUSH1 0xA SWAP1 SWAP2 ADD SSTORE PUSH2 0xC5E PUSH1 0x4 DUP4 DUP7 PUSH2 0x1DA4 JUMP JUMPDEST POP PUSH1 0x1 SWAP4 SWAP3 POP POP POP JUMP JUMPDEST PUSH2 0xC70 PUSH2 0x101C JUMP JUMPDEST PUSH2 0xCC1 JUMPI PUSH1 0x40 DUP1 MLOAD PUSH3 0x461BCD PUSH1 0xE5 SHL DUP2 MSTORE PUSH1 0x20 PUSH1 0x4 DUP3 ADD DUP2 SWAP1 MSTORE PUSH1 0x24 DUP3 ADD MSTORE PUSH32 0x4F776E61626C653A2063616C6C6572206973206E6F7420746865206F776E6572 PUSH1 0x44 DUP3 ADD MSTORE SWAP1 MLOAD SWAP1 DUP2 SWAP1 SUB PUSH1 0x64 ADD SWAP1 REVERT JUMPDEST PUSH1 0x0 DUP1 SLOAD PUSH1 0x40 MLOAD PUSH1 0x1 PUSH1 0x1 PUSH1 0xA0 SHL SUB SWAP1 SWAP2 AND SWAP1 PUSH32 0x8BE0079C531659141344CD1FD0A4F28419497F9722A3DAAFE3B4186F6B6457E0 SWAP1 DUP4 SWAP1 LOG3 PUSH1 0x0 DUP1 SLOAD PUSH1 0x1 PUSH1 0x1 PUSH1 0xA0 SHL SUB NOT AND SWAP1 SSTORE JUMP JUMPDEST PUSH1 0x1 SLOAD PUSH1 0x1 PUSH1 0x1 PUSH1 0xA0 SHL SUB AND DUP2 JUMP JUMPDEST PUSH1 0x0 DUP1 PUSH2 0xD25 PUSH2 0x18AE JUMP JUMPDEST PUSH1 0x1 PUSH1 0x1 PUSH1 0xA0 SHL SUB AND PUSH4 0x64439B43 CALLER PUSH1 0x40 MLOAD DUP3 PUSH4 0xFFFFFFFF AND PUSH1 0xE0 SHL DUP2 MSTORE PUSH1 0x4 ADD DUP1 DUP3 PUSH1 0x1 PUSH1 0x1 PUSH1 0xA0 SHL SUB AND PUSH1 0x1 PUSH1 0x1 PUSH1 0xA0 SHL SUB AND DUP2 MSTORE PUSH1 0x20 ADD SWAP2 POP POP PUSH1 0x20 PUSH1 0x40 MLOAD DUP1 DUP4 SUB DUP2 DUP7 DUP1 EXTCODESIZE ISZERO DUP1 ISZERO PUSH2 0xD7A JUMPI PUSH1 0x0 DUP1 REVERT JUMPDEST POP GAS STATICCALL ISZERO DUP1 ISZERO PUSH2 0xD8E JUMPI RETURNDATASIZE PUSH1 0x0 DUP1 RETURNDATACOPY RETURNDATASIZE PUSH1 0x0 REVERT JUMPDEST POP POP POP POP PUSH1 0x40 MLOAD RETURNDATASIZE PUSH1 0x20 DUP2 LT ISZERO PUSH2 0xDA4 JUMPI PUSH1 0x0 DUP1 REVERT JUMPDEST POP MLOAD SWAP1 POP PUSH2 0xDB1 DUP2 PUSH2 0x172E JUMP JUMPDEST PUSH2 0xDF4 JUMPI PUSH1 0x40 DUP1 MLOAD PUSH3 0x461BCD PUSH1 0xE5 SHL DUP2 MSTORE PUSH1 0x20 PUSH1 0x4 DUP3 ADD MSTORE PUSH1 0xF PUSH1 0x24 DUP3 ADD MSTORE PUSH15 0x2737BA1030903B30B634B230BA37B9 PUSH1 0x89 SHL PUSH1 0x44 DUP3 ADD MSTORE SWAP1 MLOAD SWAP1 DUP2 SWAP1 SUB PUSH1 0x64 ADD SWAP1 REVERT JUMPDEST PUSH1 0x1 PUSH1 0x1 PUSH1 0xA0 SHL SUB DUP1 DUP3 AND PUSH1 0x0 SWAP1 DUP2 MSTORE PUSH1 0x3 PUSH1 0x20 DUP2 SWAP1 MSTORE PUSH1 0x40 SWAP1 SWAP2 KECCAK256 SWAP1 DUP2 ADD SLOAD SWAP1 SWAP2 AND ISZERO PUSH2 0xF14 JUMPI PUSH1 0x3 DUP2 ADD SLOAD PUSH1 0x1 PUSH1 0x1 PUSH1 0xA0 SHL SUB SWAP1 DUP2 AND PUSH1 0x0 SWAP1 DUP2 MSTORE PUSH1 0x2 PUSH1 0x20 SWAP1 DUP2 MSTORE PUSH1 0x40 SWAP2 DUP3 SWAP1 KECCAK256 DUP3 MLOAD PUSH4 0x542424FB PUSH1 0xE0 SHL DUP2 MSTORE PUSH1 0x1 SWAP1 SWAP2 ADD PUSH1 0x4 DUP3 ADD MSTORE SWAP3 DUP6 AND PUSH1 0x24 DUP5 ADD MSTORE SWAP1 MLOAD PUSH20 0x0 SWAP3 PUSH4 0x542424FB SWAP3 PUSH1 0x44 DUP1 DUP4 ADD SWAP4 SWAP2 SWAP3 DUP3 SWAP1 SUB ADD DUP2 DUP7 DUP1 EXTCODESIZE ISZERO DUP1 ISZERO PUSH2 0xE96 JUMPI PUSH1 0x0 DUP1 REVERT JUMPDEST POP GAS DELEGATECALL ISZERO DUP1 ISZERO PUSH2 0xEAA JUMPI RETURNDATASIZE PUSH1 0x0 DUP1 RETURNDATACOPY RETURNDATASIZE PUSH1 0x0 REVERT JUMPDEST POP POP POP POP PUSH1 0x40 MLOAD RETURNDATASIZE PUSH1 0x20 DUP2 LT ISZERO PUSH2 0xEC0 JUMPI PUSH1 0x0 DUP1 REVERT JUMPDEST POP MLOAD ISZERO PUSH2 0xF14 JUMPI PUSH1 0x40 DUP1 MLOAD PUSH3 0x461BCD PUSH1 0xE5 SHL DUP2 MSTORE PUSH1 0x20 PUSH1 0x4 DUP3 ADD MSTORE PUSH1 0x1E PUSH1 0x24 DUP3 ADD MSTORE PUSH32 0x486173206265656E2067726F7570206D656D62657220726563656E746C790000 PUSH1 0x44 DUP3 ADD MSTORE SWAP1 MLOAD SWAP1 DUP2 SWAP1 SUB PUSH1 0x64 ADD SWAP1 REVERT JUMPDEST PUSH1 0x7 SLOAD PUSH1 0x8 DUP3 ADD SLOAD PUSH1 0x0 SWAP2 PUSH2 0xF2F SWAP2 SWAP1 PUSH4 0xFFFFFFFF PUSH2 0x1D43 AND JUMP JUMPDEST SWAP1 POP TIMESTAMP DUP2 LT PUSH2 0xF85 JUMPI PUSH1 0x40 DUP1 MLOAD PUSH3 0x461BCD PUSH1 0xE5 SHL DUP2 MSTORE PUSH1 0x20 PUSH1 0x4 DUP3 ADD MSTORE PUSH1 0x1C PUSH1 0x24 DUP3 ADD MSTORE PUSH32 0x4E6F742079657420726571756972656D656E7420656E642074696D6500000000 PUSH1 0x44 DUP3 ADD MSTORE SWAP1 MLOAD SWAP1 DUP2 SWAP1 SUB PUSH1 0x64 ADD SWAP1 REVERT JUMPDEST PUSH2 0xF91 PUSH1 0x5 DUP5 DUP8 PUSH2 0x1DA4 JUMP JUMPDEST PUSH1 0x1 PUSH1 0x1 PUSH1 0xA0 SHL SUB DUP4 AND PUSH1 0x0 SWAP1 DUP2 MSTORE PUSH1 0x3 PUSH1 0x20 MSTORE PUSH1 0x40 DUP2 KECCAK256 DUP1 SLOAD PUSH1 0xFF NOT AND DUP2 SSTORE SWAP1 PUSH1 0x1 DUP3 ADD DUP2 PUSH2 0xFC1 DUP3 DUP3 PUSH2 0x27BB JUMP JUMPDEST PUSH2 0xFCF PUSH1 0x1 DUP4 ADD PUSH1 0x0 PUSH2 0x27BB JUMP JUMPDEST POP POP POP PUSH1 0x3 DUP2 ADD DUP1 SLOAD PUSH1 0x1 PUSH1 0x1 PUSH1 0xA0 SHL SUB NOT AND SWAP1 SSTORE PUSH1 0x0 PUSH1 0x4 DUP3 ADD DUP2 SWAP1 SSTORE PUSH1 0x5 DUP3 ADD DUP2 SWAP1 SSTORE PUSH1 0x6 DUP3 ADD DUP2 SWAP1 SSTORE PUSH1 0x8 SWAP1 SWAP2 ADD SSTORE POP PUSH1 0x1 SWAP5 SWAP4 POP POP POP POP JUMP JUMPDEST PUSH1 0x0 SLOAD PUSH1 0x1 PUSH1 0x1 PUSH1 0xA0 SHL SUB AND JUMPDEST SWAP1 JUMP JUMPDEST PUSH1 0x0 DUP1 SLOAD PUSH1 0x1 PUSH1 0x1 PUSH1 0xA0 SHL SUB AND PUSH2 0x1031 PUSH2 0x1ECA JUMP JUMPDEST PUSH1 0x1 PUSH1 0x1 PUSH1 0xA0 SHL SUB AND EQ SWAP1 POP SWAP1 JUMP JUMPDEST PUSH1 0x0 PUSH2 0x104B NUMBER PUSH2 0x9CD JUMP JUMPDEST SWAP1 POP SWAP1 JUMP JUMPDEST PUSH2 0x1058 PUSH2 0x101C JUMP JUMPDEST PUSH2 0x10A9 JUMPI PUSH1 0x40 DUP1 MLOAD PUSH3 0x461BCD PUSH1 0xE5 SHL DUP2 MSTORE PUSH1 0x20 PUSH1 0x4 DUP3 ADD DUP2 SWAP1 MSTORE PUSH1 0x24 DUP3 ADD MSTORE PUSH32 0x4F776E61626C653A2063616C6C6572206973206E6F7420746865206F776E6572 PUSH1 0x44 DUP3 ADD MSTORE SWAP1 MLOAD SWAP1 DUP2 SWAP1 SUB PUSH1 0x64 ADD SWAP1 REVERT JUMPDEST PUSH1 0x1 PUSH1 0x1 PUSH1 0xA0 SHL SUB DUP2 AND PUSH2 0x1104 JUMPI PUSH1 0x40 DUP1 MLOAD PUSH3 0x461BCD PUSH1 0xE5 SHL DUP2 MSTORE PUSH1 0x20 PUSH1 0x4 DUP3 ADD DUP2 SWAP1 MSTORE PUSH1 0x24 DUP3 ADD MSTORE PUSH32 0x43616E6E6F7420726567697374657220746865206E756C6C2061646472657373 PUSH1 0x44 DUP3 ADD MSTORE SWAP1 MLOAD SWAP1 DUP2 SWAP1 SUB PUSH1 0x64 ADD SWAP1 REVERT JUMPDEST PUSH1 0x1 DUP1 SLOAD PUSH1 0x1 PUSH1 0x1 PUSH1 0xA0 SHL SUB NOT AND PUSH1 0x1 PUSH1 0x1 PUSH1 0xA0 SHL SUB DUP4 AND SWAP1 DUP2 OR SWAP1 SWAP2 SSTORE PUSH1 0x40 MLOAD PUSH32 0x27FE5F0C1C3B1ED427CC63D0F05759FFDECF9AEC9E18D31EF366FC8A6CB5DC3B SWAP1 PUSH1 0x0 SWAP1 LOG2 POP JUMP JUMPDEST CALLER PUSH1 0x0 DUP2 DUP2 MSTORE PUSH1 0x3 PUSH1 0x20 DUP2 SWAP1 MSTORE PUSH1 0x40 DUP3 KECCAK256 SWAP1 DUP2 ADD SLOAD SWAP2 SWAP3 SWAP2 PUSH1 0x1 PUSH1 0x1 PUSH1 0xA0 SHL SUB AND ISZERO PUSH2 0x1180 JUMPI PUSH2 0x117E DUP2 DUP4 PUSH2 0x1ECE JUMP JUMPDEST POP JUMPDEST PUSH1 0x3 ADD DUP1 SLOAD PUSH1 0x1 PUSH1 0x1 PUSH1 0xA0 SHL SUB DUP6 AND PUSH1 0x1 PUSH1 0x1 PUSH1 0xA0 SHL SUB NOT SWAP1 SWAP2 AND OR SWAP1 SSTORE POP PUSH1 0x1 SWAP1 POP SWAP2 SWAP1 POP JUMP JUMPDEST CALLER PUSH1 0x0 DUP2 DUP2 MSTORE PUSH1 0x3 PUSH1 0x20 MSTORE PUSH1 0x40 DUP2 KECCAK256 DUP1 SLOAD PUSH1 0xFF NOT AND PUSH1 0x1 SWAP1 DUP2 OR SWAP1 SWAP2 SSTORE PUSH1 0x5 DUP1 SLOAD DUP1 DUP4 ADD DUP3 SSTORE SWAP3 MSTORE PUSH32 0x36B6384B5ECA791C62761152D0C79BB0604C104A5FB6F4EB0703F3154BB3DB0 SWAP1 SWAP2 ADD DUP1 SLOAD PUSH1 0x1 PUSH1 0x1 PUSH1 0xA0 SHL SUB NOT AND SWAP1 SWAP3 OR SWAP1 SWAP2 SSTORE SWAP1 JUMP JUMPDEST PUSH1 0x6 SLOAD PUSH1 0x7 SLOAD DUP3 JUMP JUMPDEST PUSH1 0x0 SLOAD PUSH1 0x1 PUSH1 0xA0 SHL SWAP1 DIV PUSH1 0xFF AND ISZERO PUSH2 0x1271 JUMPI PUSH1 0x40 DUP1 MLOAD PUSH3 0x461BCD PUSH1 0xE5 SHL DUP2 MSTORE PUSH1 0x20 PUSH1 0x4 DUP3 ADD MSTORE PUSH1 0x1C PUSH1 0x24 DUP3 ADD MSTORE PUSH32 0x636F6E747261637420616C726561647920696E697469616C697A656400000000 PUSH1 0x44 DUP3 ADD MSTORE SWAP1 MLOAD SWAP1 DUP2 SWAP1 SUB PUSH1 0x64 ADD SWAP1 REVERT JUMPDEST PUSH1 0x0 DUP1 SLOAD PUSH1 0xFF PUSH1 0xA0 SHL NOT AND PUSH1 0x1 PUSH1 0xA0 SHL OR SWAP1 SSTORE PUSH2 0x128D CALLER PUSH2 0x1FA0 JUMP JUMPDEST PUSH2 0x1296 DUP2 PUSH2 0x1050 JUMP JUMPDEST POP JUMP JUMPDEST PUSH1 0x0 DUP1 PUSH2 0x12A4 PUSH2 0x2040 JUMP JUMPDEST PUSH1 0x1 PUSH1 0x1 PUSH1 0xA0 SHL SUB AND PUSH4 0x30EC70F5 DUP5 PUSH1 0x40 MLOAD DUP3 PUSH4 0xFFFFFFFF AND PUSH1 0xE0 SHL DUP2 MSTORE PUSH1 0x4 ADD DUP1 DUP3 PUSH1 0x1 PUSH1 0x1 PUSH1 0xA0 SHL SUB AND PUSH1 0x1 PUSH1 0x1 PUSH1 0xA0 SHL SUB AND DUP2 MSTORE PUSH1 0x20 ADD SWAP2 POP POP PUSH1 0x20 PUSH1 0x40 MLOAD DUP1 DUP4 SUB DUP2 DUP7 DUP1 EXTCODESIZE ISZERO DUP1 ISZERO PUSH2 0x12F9 JUMPI PUSH1 0x0 DUP1 REVERT JUMPDEST POP GAS STATICCALL ISZERO DUP1 ISZERO PUSH2 0x130D JUMPI RETURNDATASIZE PUSH1 0x0 DUP1 RETURNDATACOPY RETURNDATASIZE PUSH1 0x0 REVERT JUMPDEST POP POP POP POP PUSH1 0x40 MLOAD RETURNDATASIZE PUSH1 0x20 DUP2 LT ISZERO PUSH2 0x1323 JUMPI PUSH1 0x0 DUP1 REVERT JUMPDEST POP MLOAD SWAP1 POP PUSH2 0x1330 DUP4 PUSH2 0x1362 JUMP JUMPDEST PUSH2 0x1341 DUP3 PUSH1 0xA PUSH4 0xFFFFFFFF PUSH2 0x1D43 AND JUMP JUMPDEST LT ISZERO SWAP4 SWAP3 POP POP POP JUMP JUMPDEST PUSH1 0x8 SLOAD PUSH1 0x9 SLOAD DUP3 JUMP JUMPDEST PUSH1 0x0 CALLER PUSH2 0x7C6 DUP2 DUP5 DUP5 DUP1 PUSH2 0x1BE9 JUMP JUMPDEST PUSH1 0x0 PUSH2 0x136D DUP3 PUSH2 0x172E JUMP JUMPDEST ISZERO PUSH2 0x137B JUMPI POP PUSH1 0x6 SLOAD PUSH2 0x7CA JUMP JUMPDEST PUSH2 0x1384 DUP3 PUSH2 0x9E6 JUMP JUMPDEST ISZERO PUSH2 0x1458 JUMPI PUSH1 0x1 PUSH1 0x1 PUSH1 0xA0 SHL SUB DUP3 AND PUSH1 0x0 SWAP1 DUP2 MSTORE PUSH1 0x2 PUSH1 0x20 MSTORE PUSH1 0x40 DUP2 KECCAK256 PUSH1 0x3 ADD SLOAD PUSH2 0x13B1 SWAP1 PUSH1 0x1 SWAP1 PUSH2 0x20B8 JUMP JUMPDEST PUSH1 0x1 PUSH1 0x1 PUSH1 0xA0 SHL SUB DUP5 AND PUSH1 0x0 SWAP1 DUP2 MSTORE PUSH1 0x2 PUSH1 0x20 MSTORE PUSH1 0x40 SWAP1 KECCAK256 PUSH1 0x8 ADD DUP1 SLOAD SWAP2 SWAP3 POP SWAP1 ISZERO PUSH2 0x143C JUMPI DUP1 SLOAD PUSH1 0x0 SWAP1 PUSH2 0x13ED SWAP1 PUSH1 0x1 PUSH4 0xFFFFFFFF PUSH2 0x20CF AND JUMP JUMPDEST SWAP1 POP JUMPDEST DUP1 ISZERO PUSH2 0x143A JUMPI TIMESTAMP PUSH2 0x140C PUSH1 0x8 PUSH1 0x1 ADD SLOAD DUP5 DUP5 DUP2 SLOAD DUP2 LT PUSH2 0xB94 JUMPI INVALID JUMPDEST LT PUSH2 0x1422 JUMPI PUSH2 0x141B DUP2 DUP5 PUSH2 0x20B8 JUMP JUMPDEST SWAP3 POP PUSH2 0x143A JUMP JUMPDEST PUSH2 0x1433 DUP2 PUSH1 0x1 PUSH4 0xFFFFFFFF PUSH2 0x20CF AND JUMP JUMPDEST SWAP1 POP PUSH2 0x13F0 JUMP JUMPDEST POP JUMPDEST PUSH1 0x8 SLOAD PUSH2 0x144F SWAP1 DUP4 PUSH4 0xFFFFFFFF PUSH2 0x2111 AND JUMP JUMPDEST SWAP3 POP POP POP PUSH2 0x7CA JUMP JUMPDEST POP PUSH1 0x0 SWAP2 SWAP1 POP JUMP JUMPDEST PUSH1 0x40 DUP1 MLOAD PUSH1 0x0 DUP1 DUP3 MSTORE PUSH1 0x20 DUP3 ADD SWAP3 DUP4 SWAP1 MSTORE DUP2 MLOAD SWAP1 SWAP3 PUSH1 0x60 SWAP3 DUP5 SWAP3 PUSH1 0xF8 SWAP3 SWAP1 DUP2 SWAP1 DUP2 SWAP1 DUP1 DUP3 DUP1 JUMPDEST PUSH1 0x20 DUP4 LT PUSH2 0x14A5 JUMPI DUP1 MLOAD DUP3 MSTORE PUSH1 0x1F NOT SWAP1 SWAP3 ADD SWAP2 PUSH1 0x20 SWAP2 DUP3 ADD SWAP2 ADD PUSH2 0x1486 JUMP JUMPDEST PUSH1 0x1 DUP4 PUSH1 0x20 SUB PUSH2 0x100 EXP SUB DUP1 NOT DUP3 MLOAD AND DUP2 DUP5 MLOAD AND DUP1 DUP3 OR DUP6 MSTORE POP POP POP POP POP POP SWAP1 POP ADD SWAP2 POP POP PUSH1 0x0 PUSH1 0x40 MLOAD DUP1 DUP4 SUB DUP2 DUP6 GAS STATICCALL SWAP2 POP POP RETURNDATASIZE DUP1 PUSH1 0x0 DUP2 EQ PUSH2 0x1505 JUMPI PUSH1 0x40 MLOAD SWAP2 POP PUSH1 0x1F NOT PUSH1 0x3F RETURNDATASIZE ADD AND DUP3 ADD PUSH1 0x40 MSTORE RETURNDATASIZE DUP3 MSTORE RETURNDATASIZE PUSH1 0x0 PUSH1 0x20 DUP5 ADD RETURNDATACOPY PUSH2 0x150A JUMP JUMPDEST PUSH1 0x60 SWAP2 POP JUMPDEST POP SWAP3 POP SWAP1 POP DUP1 PUSH2 0x154B JUMPI PUSH1 0x40 MLOAD PUSH3 0x461BCD PUSH1 0xE5 SHL DUP2 MSTORE PUSH1 0x4 ADD DUP1 DUP1 PUSH1 0x20 ADD DUP3 DUP2 SUB DUP3 MSTORE PUSH1 0x25 DUP2 MSTORE PUSH1 0x20 ADD DUP1 PUSH2 0x28BD PUSH1 0x25 SWAP2 CODECOPY PUSH1 0x40 ADD SWAP2 POP POP PUSH1 0x40 MLOAD DUP1 SWAP2 SUB SWAP1 REVERT JUMPDEST PUSH2 0x1556 DUP3 PUSH1 0x0 PUSH2 0x216A JUMP JUMPDEST SWAP3 POP POP POP SWAP1 JUMP JUMPDEST PUSH1 0xE SLOAD DUP2 JUMP JUMPDEST PUSH1 0x0 PUSH2 0x1575 PUSH2 0x1570 PUSH2 0x2176 JUMP JUMPDEST PUSH2 0x219A JUMP JUMPDEST DUP3 GT ISZERO PUSH2 0x15B3 JUMPI PUSH1 0x40 MLOAD PUSH3 0x461BCD PUSH1 0xE5 SHL DUP2 MSTORE PUSH1 0x4 ADD DUP1 DUP1 PUSH1 0x20 ADD DUP3 DUP2 SUB DUP3 MSTORE PUSH1 0x25 DUP2 MSTORE PUSH1 0x20 ADD DUP1 PUSH2 0x2903 PUSH1 0x25 SWAP2 CODECOPY PUSH1 0x40 ADD SWAP2 POP POP PUSH1 0x40 MLOAD DUP1 SWAP2 SUB SWAP1 REVERT JUMPDEST CALLER PUSH2 0x15BD DUP2 PUSH2 0x9E6 JUMP JUMPDEST ISZERO PUSH2 0x160F JUMPI PUSH1 0x40 DUP1 MLOAD PUSH3 0x461BCD PUSH1 0xE5 SHL DUP2 MSTORE PUSH1 0x20 PUSH1 0x4 DUP3 ADD MSTORE PUSH1 0x1B PUSH1 0x24 DUP3 ADD MSTORE PUSH32 0x416C726561647920726567697374657265642061732067726F75700000000000 PUSH1 0x44 DUP3 ADD MSTORE SWAP1 MLOAD SWAP1 DUP2 SWAP1 SUB PUSH1 0x64 ADD SWAP1 REVERT JUMPDEST PUSH1 0x1 PUSH1 0x1 PUSH1 0xA0 SHL SUB DUP2 AND PUSH1 0x0 SWAP1 DUP2 MSTORE PUSH1 0x2 PUSH1 0x20 MSTORE PUSH1 0x40 SWAP1 KECCAK256 DUP1 SLOAD PUSH1 0xFF NOT AND PUSH1 0x1 OR DUP2 SSTORE PUSH2 0x163B DUP5 PUSH2 0x219E JUMP JUMPDEST MLOAD PUSH1 0x5 DUP3 ADD SSTORE PUSH1 0x40 DUP1 MLOAD DUP1 DUP3 ADD SWAP1 SWAP2 MSTORE DUP1 PUSH2 0x1654 PUSH2 0x2176 JUMP JUMPDEST DUP2 MSTORE PUSH1 0x0 PUSH1 0x20 SWAP2 DUP3 ADD DUP2 SWAP1 MSTORE DUP3 MLOAD MLOAD PUSH1 0x9 DUP6 ADD SSTORE SWAP2 ADD MLOAD PUSH1 0xA SWAP1 SWAP3 ADD SWAP2 SWAP1 SWAP2 SSTORE PUSH1 0x4 DUP1 SLOAD PUSH1 0x1 DUP1 DUP3 ADD DUP4 SSTORE SWAP2 SWAP1 SWAP3 MSTORE PUSH32 0x8A35ACFBC15FF81A39AE7D344FD709F28E8600B4AA8C65C6B64BFE7FE36BD19B SWAP1 SWAP2 ADD DUP1 SLOAD PUSH1 0x1 PUSH1 0x1 PUSH1 0xA0 SHL SUB NOT AND PUSH1 0x1 PUSH1 0x1 PUSH1 0xA0 SHL SUB SWAP4 SWAP1 SWAP4 AND SWAP3 SWAP1 SWAP3 OR SWAP1 SWAP2 SSTORE SWAP3 SWAP2 POP POP JUMP JUMPDEST PUSH2 0x16D4 PUSH2 0x101C JUMP JUMPDEST PUSH2 0x1725 JUMPI PUSH1 0x40 DUP1 MLOAD PUSH3 0x461BCD PUSH1 0xE5 SHL DUP2 MSTORE PUSH1 0x20 PUSH1 0x4 DUP3 ADD DUP2 SWAP1 MSTORE PUSH1 0x24 DUP3 ADD MSTORE PUSH32 0x4F776E61626C653A2063616C6C6572206973206E6F7420746865206F776E6572 PUSH1 0x44 DUP3 ADD MSTORE SWAP1 MLOAD SWAP1 DUP2 SWAP1 SUB PUSH1 0x64 ADD SWAP1 REVERT JUMPDEST PUSH2 0x1296 DUP2 PUSH2 0x1FA0 JUMP JUMPDEST PUSH1 0x1 PUSH1 0x1 PUSH1 0xA0 SHL SUB AND PUSH1 0x0 SWAP1 DUP2 MSTORE PUSH1 0x3 PUSH1 0x20 MSTORE PUSH1 0x40 SWAP1 KECCAK256 SLOAD PUSH1 0xFF AND SWAP1 JUMP JUMPDEST PUSH1 0x0 DUP1 PUSH2 0x1757 PUSH2 0x18AE JUMP JUMPDEST PUSH1 0x1 PUSH1 0x1 PUSH1 0xA0 SHL SUB AND PUSH4 0x64439B43 CALLER PUSH1 0x40 MLOAD DUP3 PUSH4 0xFFFFFFFF AND PUSH1 0xE0 SHL DUP2 MSTORE PUSH1 0x4 ADD DUP1 DUP3 PUSH1 0x1 PUSH1 0x1 PUSH1 0xA0 SHL SUB AND PUSH1 0x1 PUSH1 0x1 PUSH1 0xA0 SHL SUB AND DUP2 MSTORE PUSH1 0x20 ADD SWAP2 POP POP PUSH1 0x20 PUSH1 0x40 MLOAD DUP1 DUP4 SUB DUP2 DUP7 DUP1 EXTCODESIZE ISZERO DUP1 ISZERO PUSH2 0x17AC JUMPI PUSH1 0x0 DUP1 REVERT JUMPDEST POP GAS STATICCALL ISZERO DUP1 ISZERO PUSH2 0x17C0 JUMPI RETURNDATASIZE PUSH1 0x0 DUP1 RETURNDATACOPY RETURNDATASIZE PUSH1 0x0 REVERT JUMPDEST POP POP POP POP PUSH1 0x40 MLOAD RETURNDATASIZE PUSH1 0x20 DUP2 LT ISZERO PUSH2 0x17D6 JUMPI PUSH1 0x0 DUP1 REVERT JUMPDEST POP MLOAD SWAP1 POP PUSH2 0x17E3 DUP2 PUSH2 0x172E JUMP JUMPDEST PUSH2 0x1826 JUMPI PUSH1 0x40 DUP1 MLOAD PUSH3 0x461BCD PUSH1 0xE5 SHL DUP2 MSTORE PUSH1 0x20 PUSH1 0x4 DUP3 ADD MSTORE PUSH1 0xF PUSH1 0x24 DUP3 ADD MSTORE PUSH15 0x2737BA1030903B30B634B230BA37B9 PUSH1 0x89 SHL PUSH1 0x44 DUP3 ADD MSTORE SWAP1 MLOAD SWAP1 DUP2 SWAP1 SUB PUSH1 0x64 ADD SWAP1 REVERT JUMPDEST PUSH1 0x1 PUSH1 0x1 PUSH1 0xA0 SHL SUB DUP1 DUP3 AND PUSH1 0x0 SWAP1 DUP2 MSTORE PUSH1 0x3 PUSH1 0x20 DUP2 SWAP1 MSTORE PUSH1 0x40 SWAP1 SWAP2 KECCAK256 SWAP1 DUP2 ADD SLOAD SWAP1 SWAP2 AND PUSH2 0x189A JUMPI PUSH1 0x40 DUP1 MLOAD PUSH3 0x461BCD PUSH1 0xE5 SHL DUP2 MSTORE PUSH1 0x20 PUSH1 0x4 DUP3 ADD MSTORE PUSH1 0x1B PUSH1 0x24 DUP3 ADD MSTORE PUSH32 0x6465616666696C696174653A206E6F7420616666696C69617465640000000000 PUSH1 0x44 DUP3 ADD MSTORE SWAP1 MLOAD SWAP1 DUP2 SWAP1 SUB PUSH1 0x64 ADD SWAP1 REVERT JUMPDEST PUSH2 0x18A4 DUP2 DUP4 PUSH2 0x1ECE JUMP JUMPDEST POP PUSH1 0x1 SWAP3 POP POP POP SWAP1 JUMP JUMPDEST PUSH1 0x1 SLOAD PUSH1 0x40 DUP1 MLOAD PUSH8 0x4163636F756E7473 PUSH1 0xC0 SHL PUSH1 0x20 DUP1 DUP4 ADD SWAP2 SWAP1 SWAP2 MSTORE DUP3 MLOAD DUP1 DUP4 SUB PUSH1 0x8 ADD DUP2 MSTORE PUSH1 0x28 DUP4 ADD DUP1 DUP6 MSTORE DUP2 MLOAD SWAP2 DUP4 ADD SWAP2 SWAP1 SWAP2 KECCAK256 PUSH4 0xDCF0AAED PUSH1 0xE0 SHL SWAP1 SWAP2 MSTORE PUSH1 0x2C DUP4 ADD MSTORE SWAP2 MLOAD PUSH1 0x0 SWAP4 PUSH1 0x1 PUSH1 0x1 PUSH1 0xA0 SHL SUB AND SWAP3 PUSH4 0xDCF0AAED SWAP3 PUSH1 0x4C DUP1 DUP3 ADD SWAP4 SWAP2 DUP3 SWAP1 SUB ADD DUP2 DUP7 DUP1 EXTCODESIZE ISZERO DUP1 ISZERO PUSH2 0x1924 JUMPI PUSH1 0x0 DUP1 REVERT JUMPDEST POP GAS STATICCALL ISZERO DUP1 ISZERO PUSH2 0x1938 JUMPI RETURNDATASIZE PUSH1 0x0 DUP1 RETURNDATACOPY RETURNDATASIZE PUSH1 0x0 REVERT JUMPDEST POP POP POP POP PUSH1 0x40 MLOAD RETURNDATASIZE PUSH1 0x20 DUP2 LT ISZERO PUSH2 0x194E JUMPI PUSH1 0x0 DUP1 REVERT JUMPDEST POP MLOAD SWAP1 POP SWAP1 JUMP JUMPDEST PUSH1 0x1 PUSH1 0x1 PUSH1 0xA0 SHL SUB DUP1 DUP4 AND PUSH1 0x0 DUP2 DUP2 MSTORE PUSH1 0x2 PUSH1 0x20 SWAP1 DUP2 MSTORE PUSH1 0x40 DUP1 DUP4 KECCAK256 DUP7 DUP7 AND DUP5 MSTORE PUSH1 0x3 SWAP3 DUP4 SWAP1 MSTORE SWAP1 DUP4 KECCAK256 SWAP1 SWAP2 ADD SLOAD SWAP2 SWAP4 SWAP1 SWAP3 SWAP2 AND EQ PUSH2 0x19DB JUMPI PUSH1 0x40 DUP1 MLOAD PUSH3 0x461BCD PUSH1 0xE5 SHL DUP2 MSTORE PUSH1 0x20 PUSH1 0x4 DUP3 ADD MSTORE PUSH1 0x17 PUSH1 0x24 DUP3 ADD MSTORE PUSH32 0x4E6F7420616666696C696174656420746F2067726F7570000000000000000000 PUSH1 0x44 DUP3 ADD MSTORE SWAP1 MLOAD SWAP1 DUP2 SWAP1 SUB PUSH1 0x64 ADD SWAP1 REVERT JUMPDEST PUSH1 0x40 DUP1 MLOAD PUSH4 0x542424FB PUSH1 0xE0 SHL DUP2 MSTORE PUSH1 0x1 DUP4 ADD PUSH1 0x4 DUP3 ADD MSTORE PUSH1 0x1 PUSH1 0x1 PUSH1 0xA0 SHL SUB DUP6 AND PUSH1 0x24 DUP3 ADD MSTORE SWAP1 MLOAD PUSH20 0x0 SWAP2 PUSH4 0x542424FB SWAP2 PUSH1 0x44 DUP1 DUP4 ADD SWAP3 PUSH1 0x20 SWAP3 SWAP2 SWAP1 DUP3 SWAP1 SUB ADD DUP2 DUP7 DUP1 EXTCODESIZE ISZERO DUP1 ISZERO PUSH2 0x1A3E JUMPI PUSH1 0x0 DUP1 REVERT JUMPDEST POP GAS DELEGATECALL ISZERO DUP1 ISZERO PUSH2 0x1A52 JUMPI RETURNDATASIZE PUSH1 0x0 DUP1 RETURNDATACOPY RETURNDATASIZE PUSH1 0x0 REVERT JUMPDEST POP POP POP POP PUSH1 0x40 MLOAD RETURNDATASIZE PUSH1 0x20 DUP2 LT ISZERO PUSH2 0x1A68 JUMPI PUSH1 0x0 DUP1 REVERT JUMPDEST POP MLOAD PUSH2 0x1ABB JUMPI PUSH1 0x40 DUP1 MLOAD PUSH3 0x461BCD PUSH1 0xE5 SHL DUP2 MSTORE PUSH1 0x20 PUSH1 0x4 DUP3 ADD MSTORE PUSH1 0x19 PUSH1 0x24 DUP3 ADD MSTORE PUSH32 0x4E6F742061206D656D626572206F66207468652067726F757000000000000000 PUSH1 0x44 DUP3 ADD MSTORE SWAP1 MLOAD SWAP1 DUP2 SWAP1 SUB PUSH1 0x64 ADD SWAP1 REVERT JUMPDEST PUSH1 0x40 DUP1 MLOAD PUSH4 0x716062B5 PUSH1 0xE1 SHL DUP2 MSTORE PUSH1 0x1 DUP4 ADD PUSH1 0x4 DUP3 ADD MSTORE PUSH1 0x1 PUSH1 0x1 PUSH1 0xA0 SHL SUB DUP6 AND PUSH1 0x24 DUP3 ADD MSTORE SWAP1 MLOAD PUSH20 0x0 SWAP2 PUSH4 0xE2C0C56A SWAP2 PUSH1 0x44 DUP1 DUP4 ADD SWAP3 PUSH1 0x0 SWAP3 SWAP2 SWAP1 DUP3 SWAP1 SUB ADD DUP2 DUP7 DUP1 EXTCODESIZE ISZERO DUP1 ISZERO PUSH2 0x1B1E JUMPI PUSH1 0x0 DUP1 REVERT JUMPDEST POP GAS DELEGATECALL ISZERO DUP1 ISZERO PUSH2 0x1B32 JUMPI RETURNDATASIZE PUSH1 0x0 DUP1 RETURNDATACOPY RETURNDATASIZE PUSH1 0x0 REVERT JUMPDEST POP POP POP POP PUSH1 0x3 DUP2 ADD SLOAD DUP1 PUSH2 0x1BB8 JUMPI PUSH2 0x1B48 PUSH2 0x21B8 JUMP JUMPDEST PUSH1 0x1 PUSH1 0x1 PUSH1 0xA0 SHL SUB AND PUSH4 0xA8E45871 DUP7 PUSH1 0x40 MLOAD DUP3 PUSH4 0xFFFFFFFF AND PUSH1 0xE0 SHL DUP2 MSTORE PUSH1 0x4 ADD DUP1 DUP3 PUSH1 0x1 PUSH1 0x1 PUSH1 0xA0 SHL SUB AND PUSH1 0x1 PUSH1 0x1 PUSH1 0xA0 SHL SUB AND DUP2 MSTORE PUSH1 0x20 ADD SWAP2 POP POP PUSH1 0x0 PUSH1 0x40 MLOAD DUP1 DUP4 SUB DUP2 PUSH1 0x0 DUP8 DUP1 EXTCODESIZE ISZERO DUP1 ISZERO PUSH2 0x1B9F JUMPI PUSH1 0x0 DUP1 REVERT JUMPDEST POP GAS CALL ISZERO DUP1 ISZERO PUSH2 0x1BB3 JUMPI RETURNDATASIZE PUSH1 0x0 DUP1 RETURNDATACOPY RETURNDATASIZE PUSH1 0x0 REVERT JUMPDEST POP POP POP POP JUMPDEST PUSH2 0x1BC3 DUP5 PUSH1 0x0 PUSH2 0x222E JUMP JUMPDEST POP PUSH2 0x1BDE DUP6 PUSH2 0x1BD9 DUP4 PUSH1 0x1 PUSH4 0xFFFFFFFF PUSH2 0x1D43 AND JUMP JUMPDEST PUSH2 0x24CB JUMP JUMPDEST POP PUSH1 0x1 SWAP5 SWAP4 POP POP POP POP JUMP JUMPDEST PUSH1 0x0 PUSH2 0x1C1D PUSH1 0x40 MLOAD DUP1 PUSH1 0x40 ADD PUSH1 0x40 MSTORE DUP1 PUSH1 0x10 DUP2 MSTORE PUSH1 0x20 ADD PUSH16 0x5F6164644D656D6265722067726F757 PUSH1 0x84 SHL DUP2 MSTORE POP DUP7 PUSH2 0x2582 JUMP JUMPDEST PUSH1 0x1 PUSH1 0x1 PUSH1 0xA0 SHL SUB DUP6 AND PUSH1 0x0 SWAP1 DUP2 MSTORE PUSH1 0x2 PUSH1 0x20 MSTORE PUSH1 0x40 DUP2 KECCAK256 PUSH1 0x3 DUP2 ADD SLOAD SWAP1 SWAP2 SWAP1 PUSH2 0x1C4E SWAP1 PUSH1 0x1 PUSH4 0xFFFFFFFF PUSH2 0x1D43 AND JUMP JUMPDEST PUSH1 0x40 DUP1 MLOAD PUSH4 0x26AFAC49 PUSH1 0xE0 SHL DUP2 MSTORE PUSH1 0x1 DUP6 ADD PUSH1 0x4 DUP3 ADD MSTORE PUSH1 0x1 PUSH1 0x1 PUSH1 0xA0 SHL SUB DUP10 AND PUSH1 0x24 DUP3 ADD MSTORE SWAP1 MLOAD SWAP2 SWAP3 POP PUSH20 0x0 SWAP2 PUSH4 0x26AFAC49 SWAP2 PUSH1 0x44 DUP1 DUP3 ADD SWAP3 PUSH1 0x0 SWAP3 SWAP1 SWAP2 SWAP1 DUP3 SWAP1 SUB ADD DUP2 DUP7 DUP1 EXTCODESIZE ISZERO DUP1 ISZERO PUSH2 0x1CB5 JUMPI PUSH1 0x0 DUP1 REVERT JUMPDEST POP GAS DELEGATECALL ISZERO DUP1 ISZERO PUSH2 0x1CC9 JUMPI RETURNDATASIZE PUSH1 0x0 DUP1 RETURNDATACOPY RETURNDATASIZE PUSH1 0x0 REVERT JUMPDEST POP POP POP POP PUSH2 0x1CF9 PUSH1 0x40 MLOAD DUP1 PUSH1 0x40 ADD PUSH1 0x40 MSTORE DUP1 PUSH1 0xA DUP2 MSTORE PUSH1 0x20 ADD PUSH10 0x6E756D4D656D62657273 PUSH1 0xB0 SHL DUP2 MSTORE POP DUP3 PUSH2 0x2639 JUMP JUMPDEST POP PUSH1 0x1 SWAP7 SWAP6 POP POP POP POP POP POP JUMP JUMPDEST PUSH1 0x0 DUP1 DUP3 DUP5 DUP2 PUSH2 0x1D12 JUMPI INVALID JUMPDEST DIV SWAP1 POP DUP3 DUP5 DUP2 PUSH2 0x1D1E JUMPI INVALID JUMPDEST MOD PUSH2 0x1D2A JUMPI SWAP1 POP PUSH2 0x81D JUMP JUMPDEST PUSH2 0x1D3B DUP2 PUSH1 0x1 PUSH4 0xFFFFFFFF PUSH2 0x1D43 AND JUMP JUMPDEST SWAP2 POP POP PUSH2 0x81D JUMP JUMPDEST PUSH1 0x0 DUP3 DUP3 ADD DUP4 DUP2 LT ISZERO PUSH2 0x1D9D JUMPI PUSH1 0x40 DUP1 MLOAD PUSH3 0x461BCD PUSH1 0xE5 SHL DUP2 MSTORE PUSH1 0x20 PUSH1 0x4 DUP3 ADD MSTORE PUSH1 0x1B PUSH1 0x24 DUP3 ADD MSTORE PUSH32 0x536166654D6174683A206164646974696F6E206F766572666C6F770000000000 PUSH1 0x44 DUP3 ADD MSTORE SWAP1 MLOAD SWAP1 DUP2 SWAP1 SUB PUSH1 0x64 ADD SWAP1 REVERT JUMPDEST SWAP4 SWAP3 POP POP POP JUMP JUMPDEST DUP3 SLOAD DUP2 LT DUP1 ISZERO PUSH2 0x1DDC JUMPI POP DUP2 PUSH1 0x1 PUSH1 0x1 PUSH1 0xA0 SHL SUB AND DUP4 DUP3 DUP2 SLOAD DUP2 LT PUSH2 0x1DC5 JUMPI INVALID JUMPDEST PUSH1 0x0 SWAP2 DUP3 MSTORE PUSH1 0x20 SWAP1 SWAP2 KECCAK256 ADD SLOAD PUSH1 0x1 PUSH1 0x1 PUSH1 0xA0 SHL SUB AND EQ JUMPDEST PUSH2 0x1E17 JUMPI PUSH1 0x40 MLOAD PUSH3 0x461BCD PUSH1 0xE5 SHL DUP2 MSTORE PUSH1 0x4 ADD DUP1 DUP1 PUSH1 0x20 ADD DUP3 DUP2 SUB DUP3 MSTORE PUSH1 0x21 DUP2 MSTORE PUSH1 0x20 ADD DUP1 PUSH2 0x289C PUSH1 0x21 SWAP2 CODECOPY PUSH1 0x40 ADD SWAP2 POP POP PUSH1 0x40 MLOAD DUP1 SWAP2 SUB SWAP1 REVERT JUMPDEST DUP3 SLOAD PUSH1 0x0 SWAP1 PUSH2 0x1E2D SWAP1 PUSH1 0x1 PUSH4 0xFFFFFFFF PUSH2 0x20CF AND JUMP JUMPDEST SWAP1 POP DUP4 DUP2 DUP2 SLOAD DUP2 LT PUSH2 0x1E3B JUMPI INVALID JUMPDEST SWAP1 PUSH1 0x0 MSTORE PUSH1 0x20 PUSH1 0x0 KECCAK256 ADD PUSH1 0x0 SWAP1 SLOAD SWAP1 PUSH2 0x100 EXP SWAP1 DIV PUSH1 0x1 PUSH1 0x1 PUSH1 0xA0 SHL SUB AND DUP5 DUP4 DUP2 SLOAD DUP2 LT PUSH2 0x1E65 JUMPI INVALID JUMPDEST SWAP1 PUSH1 0x0 MSTORE PUSH1 0x20 PUSH1 0x0 KECCAK256 ADD PUSH1 0x0 PUSH2 0x100 EXP DUP2 SLOAD DUP2 PUSH1 0x1 PUSH1 0x1 PUSH1 0xA0 SHL SUB MUL NOT AND SWAP1 DUP4 PUSH1 0x1 PUSH1 0x1 PUSH1 0xA0 SHL SUB AND MUL OR SWAP1 SSTORE POP DUP4 DUP2 DUP2 SLOAD DUP2 LT PUSH2 0x1E9F JUMPI INVALID JUMPDEST PUSH1 0x0 SWAP2 DUP3 MSTORE PUSH1 0x20 SWAP1 SWAP2 KECCAK256 ADD DUP1 SLOAD PUSH1 0x1 PUSH1 0x1 PUSH1 0xA0 SHL SUB NOT AND SWAP1 SSTORE DUP1 PUSH2 0x1EC3 DUP6 DUP3 PUSH2 0x27FF JUMP JUMPDEST POP POP POP POP POP JUMP JUMPDEST CALLER SWAP1 JUMP JUMPDEST PUSH1 0x3 DUP3 ADD SLOAD PUSH1 0x1 PUSH1 0x1 PUSH1 0xA0 SHL SUB SWAP1 DUP2 AND PUSH1 0x0 DUP2 DUP2 MSTORE PUSH1 0x2 PUSH1 0x20 SWAP1 DUP2 MSTORE PUSH1 0x40 DUP1 DUP4 KECCAK256 DUP2 MLOAD PUSH4 0x542424FB PUSH1 0xE0 SHL DUP2 MSTORE PUSH1 0x1 DUP3 ADD PUSH1 0x4 DUP3 ADD MSTORE SWAP6 DUP8 AND PUSH1 0x24 DUP8 ADD MSTORE SWAP1 MLOAD SWAP3 SWAP5 SWAP1 SWAP3 PUSH20 0x0 SWAP3 PUSH4 0x542424FB SWAP3 PUSH1 0x44 DUP1 DUP3 ADD SWAP4 SWAP2 DUP3 SWAP1 SUB ADD DUP2 DUP7 DUP1 EXTCODESIZE ISZERO DUP1 ISZERO PUSH2 0x1F49 JUMPI PUSH1 0x0 DUP1 REVERT JUMPDEST POP GAS DELEGATECALL ISZERO DUP1 ISZERO PUSH2 0x1F5D JUMPI RETURNDATASIZE PUSH1 0x0 DUP1 RETURNDATACOPY RETURNDATASIZE PUSH1 0x0 REVERT JUMPDEST POP POP POP POP PUSH1 0x40 MLOAD RETURNDATASIZE PUSH1 0x20 DUP2 LT ISZERO PUSH2 0x1F73 JUMPI PUSH1 0x0 DUP1 REVERT JUMPDEST POP MLOAD ISZERO PUSH2 0x1F86 JUMPI PUSH2 0x1F84 DUP3 DUP6 PUSH2 0x1955 JUMP JUMPDEST POP JUMPDEST POP POP POP POP PUSH1 0x3 ADD DUP1 SLOAD PUSH1 0x1 PUSH1 0x1 PUSH1 0xA0 SHL SUB NOT AND SWAP1 SSTORE PUSH1 0x1 SWAP1 JUMP JUMPDEST PUSH1 0x1 PUSH1 0x1 PUSH1 0xA0 SHL SUB DUP2 AND PUSH2 0x1FE5 JUMPI PUSH1 0x40 MLOAD PUSH3 0x461BCD PUSH1 0xE5 SHL DUP2 MSTORE PUSH1 0x4 ADD DUP1 DUP1 PUSH1 0x20 ADD DUP3 DUP2 SUB DUP3 MSTORE PUSH1 0x26 DUP2 MSTORE PUSH1 0x20 ADD DUP1 PUSH2 0x2855 PUSH1 0x26 SWAP2 CODECOPY PUSH1 0x40 ADD SWAP2 POP POP PUSH1 0x40 MLOAD DUP1 SWAP2 SUB SWAP1 REVERT JUMPDEST PUSH1 0x0 DUP1 SLOAD PUSH1 0x40 MLOAD PUSH1 0x1 PUSH1 0x1 PUSH1 0xA0 SHL SUB DUP1 DUP6 AND SWAP4 SWAP3 AND SWAP2 PUSH32 0x8BE0079C531659141344CD1FD0A4F28419497F9722A3DAAFE3B4186F6B6457E0 SWAP2 LOG3 PUSH1 0x0 DUP1 SLOAD PUSH1 0x1 PUSH1 0x1 PUSH1 0xA0 SHL SUB NOT AND PUSH1 0x1 PUSH1 0x1 PUSH1 0xA0 SHL SUB SWAP3 SWAP1 SWAP3 AND SWAP2 SWAP1 SWAP2 OR SWAP1 SSTORE JUMP JUMPDEST PUSH1 0x1 SLOAD PUSH1 0x40 DUP1 MLOAD PUSH10 0x131BD8DAD95911DBDB19 PUSH1 0xB2 SHL PUSH1 0x20 DUP1 DUP4 ADD SWAP2 SWAP1 SWAP2 MSTORE DUP3 MLOAD DUP1 DUP4 SUB PUSH1 0xA ADD DUP2 MSTORE PUSH1 0x2A DUP4 ADD DUP1 DUP6 MSTORE DUP2 MLOAD SWAP2 DUP4 ADD SWAP2 SWAP1 SWAP2 KECCAK256 PUSH4 0xDCF0AAED PUSH1 0xE0 SHL SWAP1 SWAP2 MSTORE PUSH1 0x2E DUP4 ADD MSTORE SWAP2 MLOAD PUSH1 0x0 SWAP4 PUSH1 0x1 PUSH1 0x1 PUSH1 0xA0 SHL SUB AND SWAP3 PUSH4 0xDCF0AAED SWAP3 PUSH1 0x4E DUP1 DUP3 ADD SWAP4 SWAP2 DUP3 SWAP1 SUB ADD DUP2 DUP7 DUP1 EXTCODESIZE ISZERO DUP1 ISZERO PUSH2 0x1924 JUMPI PUSH1 0x0 DUP1 REVERT JUMPDEST PUSH1 0x0 DUP2 DUP4 LT ISZERO PUSH2 0x20C8 JUMPI DUP2 PUSH2 0x1D9D JUMP JUMPDEST POP SWAP1 SWAP2 SWAP1 POP JUMP JUMPDEST PUSH1 0x0 PUSH2 0x1D9D DUP4 DUP4 PUSH1 0x40 MLOAD DUP1 PUSH1 0x40 ADD PUSH1 0x40 MSTORE DUP1 PUSH1 0x1E DUP2 MSTORE PUSH1 0x20 ADD PUSH32 0x536166654D6174683A207375627472616374696F6E206F766572666C6F770000 DUP2 MSTORE POP PUSH2 0x269E JUMP JUMPDEST PUSH1 0x0 DUP3 PUSH2 0x2120 JUMPI POP PUSH1 0x0 PUSH2 0x81D JUMP JUMPDEST DUP3 DUP3 MUL DUP3 DUP5 DUP3 DUP2 PUSH2 0x212D JUMPI INVALID JUMPDEST DIV EQ PUSH2 0x1D9D JUMPI PUSH1 0x40 MLOAD PUSH3 0x461BCD PUSH1 0xE5 SHL DUP2 MSTORE PUSH1 0x4 ADD DUP1 DUP1 PUSH1 0x20 ADD DUP3 DUP2 SUB DUP3 MSTORE PUSH1 0x21 DUP2 MSTORE PUSH1 0x20 ADD DUP1 PUSH2 0x287B PUSH1 0x21 SWAP2 CODECOPY PUSH1 0x40 ADD SWAP2 POP POP PUSH1 0x40 MLOAD DUP1 SWAP2 SUB SWAP1 REVERT JUMPDEST PUSH1 0x0 PUSH2 0x1D9D DUP4 DUP4 PUSH2 0x2735 JUMP JUMPDEST PUSH2 0x217E PUSH2 0x2823 JUMP JUMPDEST POP PUSH1 0x40 DUP1 MLOAD PUSH1 0x20 DUP2 ADD SWAP1 SWAP2 MSTORE PUSH10 0xD3C21BCECCEDA1000000 DUP2 MSTORE SWAP1 JUMP JUMPDEST MLOAD SWAP1 JUMP JUMPDEST PUSH2 0x21A6 PUSH2 0x2823 JUMP JUMPDEST POP PUSH1 0x40 DUP1 MLOAD PUSH1 0x20 DUP2 ADD SWAP1 SWAP2 MSTORE SWAP1 DUP2 MSTORE SWAP1 JUMP JUMPDEST PUSH1 0x1 SLOAD PUSH1 0x40 DUP1 MLOAD PUSH8 0x22B632B1BA34B7B7 PUSH1 0xC1 SHL PUSH1 0x20 DUP1 DUP4 ADD SWAP2 SWAP1 SWAP2 MSTORE DUP3 MLOAD DUP1 DUP4 SUB PUSH1 0x8 ADD DUP2 MSTORE PUSH1 0x28 DUP4 ADD DUP1 DUP6 MSTORE DUP2 MLOAD SWAP2 DUP4 ADD SWAP2 SWAP1 SWAP2 KECCAK256 PUSH4 0xDCF0AAED PUSH1 0xE0 SHL SWAP1 SWAP2 MSTORE PUSH1 0x2C DUP4 ADD MSTORE SWAP2 MLOAD PUSH1 0x0 SWAP4 PUSH1 0x1 PUSH1 0x1 PUSH1 0xA0 SHL SUB AND SWAP3 PUSH4 0xDCF0AAED SWAP3 PUSH1 0x4C DUP1 DUP3 ADD SWAP4 SWAP2 DUP3 SWAP1 SUB ADD DUP2 DUP7 DUP1 EXTCODESIZE ISZERO DUP1 ISZERO PUSH2 0x1924 JUMPI PUSH1 0x0 DUP1 REVERT JUMPDEST PUSH1 0x1 PUSH1 0x1 PUSH1 0xA0 SHL SUB DUP3 AND PUSH1 0x0 SWAP1 DUP2 MSTORE PUSH1 0x3 PUSH1 0x20 MSTORE PUSH1 0x40 DUP2 KECCAK256 PUSH1 0x5 ADD DUP2 PUSH2 0x2252 PUSH2 0x1040 JUMP JUMPDEST SWAP1 POP PUSH1 0x0 DUP3 PUSH1 0x1 ADD SLOAD PUSH1 0x0 EQ PUSH2 0x2290 JUMPI PUSH2 0x228B PUSH2 0x227D PUSH1 0x1 DUP6 PUSH1 0x1 ADD SLOAD PUSH2 0x20CF SWAP1 SWAP2 SWAP1 PUSH4 0xFFFFFFFF AND JUMP JUMPDEST DUP5 SLOAD SWAP1 PUSH4 0xFFFFFFFF PUSH2 0x1D43 AND JUMP JUMPDEST PUSH2 0x2293 JUMP JUMPDEST PUSH1 0x0 JUMPDEST SWAP1 POP PUSH1 0x0 DUP4 PUSH1 0x1 ADD SLOAD GT DUP1 ISZERO PUSH2 0x22B0 JUMPI POP PUSH1 0x1 PUSH1 0x1 PUSH1 0xA0 SHL SUB DUP6 AND ISZERO JUMPDEST ISZERO PUSH2 0x22BC JUMPI TIMESTAMP PUSH1 0x3 DUP5 ADD SSTORE JUMPDEST PUSH1 0x0 DUP4 PUSH1 0x1 ADD SLOAD GT DUP1 ISZERO PUSH2 0x22DF JUMPI POP PUSH1 0x0 DUP2 DUP2 MSTORE PUSH1 0x2 DUP5 ADD PUSH1 0x20 MSTORE PUSH1 0x40 SWAP1 KECCAK256 SLOAD DUP3 EQ JUMPDEST ISZERO PUSH2 0x2339 JUMPI PUSH1 0x40 DUP1 MLOAD DUP1 DUP3 ADD DUP3 MSTORE SWAP3 DUP4 MSTORE PUSH1 0x1 PUSH1 0x1 PUSH1 0xA0 SHL SUB DUP7 DUP2 AND PUSH1 0x20 DUP1 DUP7 ADD SWAP2 DUP3 MSTORE PUSH1 0x0 SWAP5 DUP6 MSTORE PUSH1 0x2 SWAP7 SWAP1 SWAP7 ADD SWAP1 SWAP6 MSTORE SWAP2 KECCAK256 SWAP2 MLOAD DUP3 SSTORE SWAP2 MLOAD PUSH1 0x1 SWAP2 DUP3 ADD DUP1 SLOAD PUSH1 0x1 PUSH1 0x1 PUSH1 0xA0 SHL SUB NOT AND SWAP2 SWAP1 SWAP4 AND OR SWAP1 SWAP2 SSTORE SWAP1 POP PUSH2 0x81D JUMP JUMPDEST PUSH1 0x0 DUP4 PUSH1 0x1 ADD SLOAD PUSH1 0x0 EQ PUSH2 0x235D JUMPI PUSH2 0x2358 DUP3 PUSH1 0x1 PUSH4 0xFFFFFFFF PUSH2 0x1D43 AND JUMP JUMPDEST PUSH2 0x2360 JUMP JUMPDEST PUSH1 0x0 JUMPDEST PUSH1 0x40 DUP1 MLOAD DUP1 DUP3 ADD DUP3 MSTORE DUP6 DUP2 MSTORE PUSH1 0x1 PUSH1 0x1 PUSH1 0xA0 SHL SUB DUP10 DUP2 AND PUSH1 0x20 DUP1 DUP5 ADD SWAP2 DUP3 MSTORE PUSH1 0x0 DUP7 DUP2 MSTORE PUSH1 0x2 DUP12 ADD SWAP1 SWAP2 MSTORE SWAP4 SWAP1 SWAP4 KECCAK256 SWAP2 MLOAD DUP3 SSTORE SWAP2 MLOAD PUSH1 0x1 SWAP2 DUP3 ADD DUP1 SLOAD PUSH1 0x1 PUSH1 0x1 PUSH1 0xA0 SHL SUB NOT AND SWAP2 SWAP1 SWAP4 AND OR SWAP1 SWAP2 SSTORE PUSH1 0xC SLOAD SWAP1 DUP7 ADD SLOAD SWAP2 SWAP3 POP GT ISZERO PUSH2 0x23DD JUMPI PUSH1 0x1 DUP5 DUP2 ADD SLOAD PUSH2 0x23D3 SWAP2 PUSH4 0xFFFFFFFF PUSH2 0x1D43 AND JUMP JUMPDEST PUSH1 0x1 DUP6 ADD SSTORE PUSH2 0x1CF9 JUMP JUMPDEST PUSH1 0xC SLOAD DUP5 PUSH1 0x1 ADD SLOAD EQ ISZERO PUSH2 0x242B JUMPI DUP4 SLOAD PUSH1 0x0 SWAP1 DUP2 MSTORE PUSH1 0x2 DUP6 ADD PUSH1 0x20 MSTORE PUSH1 0x40 DUP2 KECCAK256 SWAP1 DUP2 SSTORE PUSH1 0x1 SWAP1 DUP2 ADD DUP1 SLOAD PUSH1 0x1 PUSH1 0x1 PUSH1 0xA0 SHL SUB NOT AND SWAP1 SSTORE DUP5 SLOAD PUSH2 0x2424 SWAP2 PUSH4 0xFFFFFFFF PUSH2 0x1D43 AND JUMP JUMPDEST DUP5 SSTORE PUSH2 0x1CF9 JUMP JUMPDEST DUP4 SLOAD PUSH1 0x0 SWAP1 DUP2 MSTORE PUSH1 0x2 DUP6 ADD PUSH1 0x20 DUP2 SWAP1 MSTORE PUSH1 0x40 DUP3 KECCAK256 DUP3 DUP2 SSTORE PUSH1 0x1 SWAP1 DUP2 ADD DUP1 SLOAD PUSH1 0x1 PUSH1 0x1 PUSH1 0xA0 SHL SUB NOT AND SWAP1 SSTORE DUP7 SLOAD SWAP2 SWAP3 SWAP2 PUSH2 0x2469 SWAP2 PUSH4 0xFFFFFFFF PUSH2 0x1D43 AND JUMP JUMPDEST DUP2 MSTORE PUSH1 0x20 DUP2 ADD SWAP2 SWAP1 SWAP2 MSTORE PUSH1 0x40 ADD PUSH1 0x0 SWAP1 DUP2 KECCAK256 SWAP1 DUP2 SSTORE PUSH1 0x1 SWAP1 DUP2 ADD DUP1 SLOAD PUSH1 0x1 PUSH1 0x1 PUSH1 0xA0 SHL SUB NOT AND SWAP1 SSTORE DUP5 DUP2 ADD SLOAD PUSH2 0x24A4 SWAP2 PUSH4 0xFFFFFFFF PUSH2 0x20CF AND JUMP JUMPDEST PUSH1 0x1 DUP6 ADD SSTORE DUP4 SLOAD PUSH2 0x24BC SWAP1 PUSH1 0x2 PUSH4 0xFFFFFFFF PUSH2 0x1D43 AND JUMP JUMPDEST DUP5 SSTORE POP PUSH1 0x1 SWAP7 SWAP6 POP POP POP POP POP POP JUMP JUMPDEST PUSH1 0x1 PUSH1 0x1 PUSH1 0xA0 SHL SUB DUP3 AND PUSH1 0x0 SWAP1 DUP2 MSTORE PUSH1 0x2 PUSH1 0x20 MSTORE PUSH1 0x40 SWAP1 KECCAK256 PUSH1 0x8 ADD DUP1 SLOAD DUP3 EQ ISZERO PUSH2 0x2509 JUMPI DUP1 SLOAD PUSH1 0x1 DUP2 ADD DUP3 SSTORE PUSH1 0x0 DUP3 DUP2 MSTORE PUSH1 0x20 SWAP1 KECCAK256 TIMESTAMP SWAP2 ADD SSTORE PUSH2 0x257D JUMP JUMPDEST DUP1 SLOAD DUP3 LT ISZERO PUSH2 0x2530 JUMPI TIMESTAMP DUP2 DUP4 DUP2 SLOAD DUP2 LT PUSH2 0x251F JUMPI INVALID JUMPDEST PUSH1 0x0 SWAP2 DUP3 MSTORE PUSH1 0x20 SWAP1 SWAP2 KECCAK256 ADD SSTORE PUSH2 0x257D JUMP JUMPDEST PUSH1 0x40 DUP1 MLOAD PUSH3 0x461BCD PUSH1 0xE5 SHL DUP2 MSTORE PUSH1 0x20 PUSH1 0x4 DUP3 ADD MSTORE PUSH1 0x1D PUSH1 0x24 DUP3 ADD MSTORE PUSH32 0x556E61626C6520746F207570646174652073697A6520686973746F7279000000 PUSH1 0x44 DUP3 ADD MSTORE SWAP1 MLOAD SWAP1 DUP2 SWAP1 SUB PUSH1 0x64 ADD SWAP1 REVERT JUMPDEST POP POP POP JUMP JUMPDEST PUSH32 0x62DDFFE5B5108385F7A590F100E1EE414AD9551A31F089E64E82998440785E1E DUP3 DUP3 PUSH1 0x40 MLOAD DUP1 DUP1 PUSH1 0x20 ADD DUP4 PUSH1 0x1 PUSH1 0x1 PUSH1 0xA0 SHL SUB AND PUSH1 0x1 PUSH1 0x1 PUSH1 0xA0 SHL SUB AND DUP2 MSTORE PUSH1 0x20 ADD DUP3 DUP2 SUB DUP3 MSTORE DUP5 DUP2 DUP2 MLOAD DUP2 MSTORE PUSH1 0x20 ADD SWAP2 POP DUP1 MLOAD SWAP1 PUSH1 0x20 ADD SWAP1 DUP1 DUP4 DUP4 PUSH1 0x0 JUMPDEST DUP4 DUP2 LT ISZERO PUSH2 0x25FA JUMPI DUP2 DUP2 ADD MLOAD DUP4 DUP3 ADD MSTORE PUSH1 0x20 ADD PUSH2 0x25E2 JUMP JUMPDEST POP POP POP POP SWAP1 POP SWAP1 DUP2 ADD SWAP1 PUSH1 0x1F AND DUP1 ISZERO PUSH2 0x2627 JUMPI DUP1 DUP3 SUB DUP1 MLOAD PUSH1 0x1 DUP4 PUSH1 0x20 SUB PUSH2 0x100 EXP SUB NOT AND DUP2 MSTORE PUSH1 0x20 ADD SWAP2 POP JUMPDEST POP SWAP4 POP POP POP POP PUSH1 0x40 MLOAD DUP1 SWAP2 SUB SWAP1 LOG1 POP POP JUMP JUMPDEST PUSH32 0x941296A39EA107BDE685522318A4B6C2B544904A5DD82A512748CA2CF839BEF7 DUP3 DUP3 PUSH1 0x40 MLOAD DUP1 DUP1 PUSH1 0x20 ADD DUP4 DUP2 MSTORE PUSH1 0x20 ADD DUP3 DUP2 SUB DUP3 MSTORE DUP5 DUP2 DUP2 MLOAD DUP2 MSTORE PUSH1 0x20 ADD SWAP2 POP DUP1 MLOAD SWAP1 PUSH1 0x20 ADD SWAP1 DUP1 DUP4 DUP4 PUSH1 0x0 DUP4 DUP2 LT ISZERO PUSH2 0x25FA JUMPI DUP2 DUP2 ADD MLOAD DUP4 DUP3 ADD MSTORE PUSH1 0x20 ADD PUSH2 0x25E2 JUMP JUMPDEST PUSH1 0x0 DUP2 DUP5 DUP5 GT ISZERO PUSH2 0x272D JUMPI PUSH1 0x40 MLOAD PUSH3 0x461BCD PUSH1 0xE5 SHL DUP2 MSTORE PUSH1 0x4 ADD DUP1 DUP1 PUSH1 0x20 ADD DUP3 DUP2 SUB DUP3 MSTORE DUP4 DUP2 DUP2 MLOAD DUP2 MSTORE PUSH1 0x20 ADD SWAP2 POP DUP1 MLOAD SWAP1 PUSH1 0x20 ADD SWAP1 DUP1 DUP4 DUP4 PUSH1 0x0 JUMPDEST DUP4 DUP2 LT ISZERO PUSH2 0x26F2 JUMPI DUP2 DUP2 ADD MLOAD DUP4 DUP3 ADD MSTORE PUSH1 0x20 ADD PUSH2 0x26DA JUMP JUMPDEST POP POP POP POP SWAP1 POP SWAP1 DUP2 ADD SWAP1 PUSH1 0x1F AND DUP1 ISZERO PUSH2 0x271F JUMPI DUP1 DUP3 SUB DUP1 MLOAD PUSH1 0x1 DUP4 PUSH1 0x20 SUB PUSH2 0x100 EXP SUB NOT AND DUP2 MSTORE PUSH1 0x20 ADD SWAP2 POP JUMPDEST POP SWAP3 POP POP POP PUSH1 0x40 MLOAD DUP1 SWAP2 SUB SWAP1 REVERT JUMPDEST POP POP POP SWAP1 SUB SWAP1 JUMP JUMPDEST PUSH1 0x0 PUSH2 0x2748 DUP3 PUSH1 0x20 PUSH4 0xFFFFFFFF PUSH2 0x1D43 AND JUMP JUMPDEST DUP4 MLOAD LT ISZERO PUSH2 0x2794 JUMPI PUSH1 0x40 DUP1 MLOAD PUSH3 0x461BCD PUSH1 0xE5 SHL DUP2 MSTORE PUSH1 0x20 PUSH1 0x4 DUP3 ADD MSTORE PUSH1 0x14 PUSH1 0x24 DUP3 ADD MSTORE PUSH20 0x736C6963696E67206F7574206F662072616E6765 PUSH1 0x60 SHL PUSH1 0x44 DUP3 ADD MSTORE SWAP1 MLOAD SWAP1 DUP2 SWAP1 SUB PUSH1 0x64 ADD SWAP1 REVERT JUMPDEST POP ADD PUSH1 0x20 ADD MLOAD SWAP1 JUMP JUMPDEST POP DUP1 SLOAD PUSH1 0x0 DUP3 SSTORE SWAP1 PUSH1 0x0 MSTORE PUSH1 0x20 PUSH1 0x0 KECCAK256 SWAP1 DUP2 ADD SWAP1 PUSH2 0x1296 SWAP2 SWAP1 PUSH2 0x2836 JUMP JUMPDEST POP DUP1 SLOAD PUSH1 0x1 DUP2 PUSH1 0x1 AND ISZERO PUSH2 0x100 MUL SUB AND PUSH1 0x2 SWAP1 DIV PUSH1 0x0 DUP3 SSTORE DUP1 PUSH1 0x1F LT PUSH2 0x27E1 JUMPI POP PUSH2 0x1296 JUMP JUMPDEST PUSH1 0x1F ADD PUSH1 0x20 SWAP1 DIV SWAP1 PUSH1 0x0 MSTORE PUSH1 0x20 PUSH1 0x0 KECCAK256 SWAP1 DUP2 ADD SWAP1 PUSH2 0x1296 SWAP2 SWAP1 PUSH2 0x2836 JUMP JUMPDEST DUP2 SLOAD DUP2 DUP4 SSTORE DUP2 DUP2 GT ISZERO PUSH2 0x257D JUMPI PUSH1 0x0 DUP4 DUP2 MSTORE PUSH1 0x20 SWAP1 KECCAK256 PUSH2 0x257D SWAP2 DUP2 ADD SWAP1 DUP4 ADD PUSH2 0x2836 JUMP JUMPDEST PUSH1 0x40 MLOAD DUP1 PUSH1 0x20 ADD PUSH1 0x40 MSTORE DUP1 PUSH1 0x0 DUP2 MSTORE POP SWAP1 JUMP JUMPDEST PUSH2 0x1019 SWAP2 SWAP1 JUMPDEST DUP1 DUP3 GT ISZERO PUSH2 0x2850 JUMPI PUSH1 0x0 DUP2 SSTORE PUSH1 0x1 ADD PUSH2 0x283C JUMP JUMPDEST POP SWAP1 JUMP INVALID 0x4F PUSH24 0x6E61626C653A206E6577206F776E65722069732074686520 PUSH27 0x65726F2061646472657373536166654D6174683A206D756C746970 PUSH13 0x69636174696F6E206F76657266 PUSH13 0x6F7764656C657465456C656D65 PUSH15 0x743A20696E646578206F7574206F66 KECCAK256 PUSH19 0x616E67656572726F722063616C6C696E672067 PUSH6 0x7445706F6368 MSTORE8 PUSH10 0x7A6520707265636F6D70 PUSH10 0x6C654861736E27742062 PUSH6 0x656E20656D70 PUSH21 0x7920666F72206C6F6E6720656E6F756768436F6D6D PUSH10 0x7373696F6E2063616E27 PUSH21 0x2062652067726561746572207468616E2031303025 LOG2 PUSH6 0x627A7A723158 KECCAK256 0xD9 EQ 0x5D 0x21 DUP14 0xDC 0xAF 0xEA 0xE4 DUP9 LOG3 0xE1 0x5D ORIGIN 0x1E 0x25 0x4C GAS 0xDF DUP11 SWAP3 PUSH22 0x1F67EAD3413E32B5367964736F6C634300050D003200 "
		},
		"gasEstimates": {
			"creation": {
				"codeDepositCost": "2117600",
				"executionCost": "infinite",
				"totalCost": "infinite"
			},
			"external": {
				"addFirstMember(address,address,address)": "infinite",
				"addMember(address)": "infinite",
				"affiliate(address)": "infinite",
				"checkProofOfPossession(address,bytes,bytes)": "infinite",
				"commissionUpdateDelay()": "442",
				"deaffiliate()": "infinite",
				"deregisterValidator(uint256)": "infinite",
				"deregisterValidatorGroup(uint256)": "infinite",
				"downtimeGracePeriod()": "445",
				"getAccountLockedGoldRequirement(address)": "infinite",
				"getEpochNumber()": "infinite",
				"getEpochNumberOfBlock(uint256)": "infinite",
				"getEpochSize()": "infinite",
				"getGroupValidators(address,uint256)": "infinite",
				"groupLockedGoldRequirements()": "670",
				"initialize(address)": "infinite",
				"initialized()": "540",
				"isOwner()": "526",
				"isValidator(address)": "664",
				"isValidatorGroup(address)": "622",
				"maxGroupSize()": "488",
				"meetsAccountLockedGoldRequirements(address)": "infinite",
				"membershipHistoryLength()": "444",
				"owner()": "549",
				"registerValidator()": "61022",
				"registerValidatorGroup(uint256)": "infinite",
				"registry()": "504",
				"removeMember(address)": "infinite",
				"renounceOwnership()": "22490",
				"setRegistry(address)": "22057",
				"slashingMultiplierResetPeriod()": "488",
				"transferOwnership(address)": "infinite",
				"validatorLockedGoldRequirements()": "692"
			},
			"internal": {
				"_addMember(address,address,address,address)": "infinite",
				"_deaffiliate(struct Validators.Validator storage pointer,address)": "infinite",
				"_removeMember(address,address)": "infinite",
				"deleteElement(address[] storage pointer,address,uint256)": "infinite",
				"getElection()": "infinite",
				"updateMembershipHistory(address,address)": "infinite",
				"updateSizeHistory(address,uint256)": "infinite"
			}
		},
		"methodIdentifiers": {
			"addFirstMember(address,address,address)": "3173b8db",
			"addMember(address)": "ca6d56dc",
			"affiliate(address)": "b591d3a5",
			"checkProofOfPossession(address,bytes,bytes)": "23f0ab65",
			"commissionUpdateDelay()": "e0e3ffe6",
			"deaffiliate()": "fffdfccb",
			"deregisterValidator(uint256)": "8b16b1c6",
			"deregisterValidatorGroup(uint256)": "60fb822c",
			"downtimeGracePeriod()": "0352a592",
			"getAccountLockedGoldRequirement(address)": "dcff4cf6",
			"getEpochNumber()": "9a7b3be7",
			"getEpochNumberOfBlock(uint256)": "3b1eb4bf",
			"getEpochSize()": "df4da461",
			"getGroupValidators(address,uint256)": "104ad681",
			"groupLockedGoldRequirements()": "c5805140",
			"initialize(address)": "c4d66de8",
			"initialized()": "158ef93e",
			"isOwner()": "8f32d59b",
			"isValidator(address)": "facd743b",
			"isValidatorGroup(address)": "52f13a4e",
			"maxGroupSize()": "5779e93d",
			"meetsAccountLockedGoldRequirements(address)": "c54c1cd4",
			"membershipHistoryLength()": "4cd76db4",
			"owner()": "8da5cb5b",
			"registerValidator()": "bcc6587f",
			"registerValidatorGroup(uint256)": "ee098310",
			"registry()": "7b103999",
			"removeMember(address)": "0b1ca49a",
			"renounceOwnership()": "715018a6",
			"setRegistry(address)": "a91ee0dc",
			"slashingMultiplierResetPeriod()": "36407b70",
			"transferOwnership(address)": "f2fde38b",
			"validatorLockedGoldRequirements()": "bd9e9d94"
		}
	},
	"abi": [
		{
			"inputs": [
				{
					"internalType": "bool",
					"name": "test",
					"type": "bool"
				}
			],
			"payable": false,
			"stateMutability": "nonpayable",
			"type": "constructor"
		},
		{
			"anonymous": false,
			"inputs": [
				{
					"indexed": false,
					"internalType": "string",
					"name": "",
					"type": "string"
				},
				{
					"indexed": false,
					"internalType": "address",
					"name": "",
					"type": "address"
				}
			],
			"name": "LogAddress",
			"type": "event"
		},
		{
			"anonymous": false,
			"inputs": [
				{
					"indexed": false,
					"internalType": "string",
					"name": "",
					"type": "string"
				},
				{
					"indexed": false,
					"internalType": "bool",
					"name": "",
					"type": "bool"
				}
			],
			"name": "LogBool",
			"type": "event"
		},
		{
			"anonymous": false,
			"inputs": [
				{
					"indexed": false,
					"internalType": "string",
					"name": "",
					"type": "string"
				},
				{
					"indexed": false,
					"internalType": "bytes",
					"name": "",
					"type": "bytes"
				}
			],
			"name": "LogBytes",
			"type": "event"
		},
		{
			"anonymous": false,
			"inputs": [
				{
					"indexed": false,
					"internalType": "string",
					"name": "",
					"type": "string"
				},
				{
					"indexed": false,
					"internalType": "bytes32",
					"name": "",
					"type": "bytes32"
				}
			],
			"name": "LogBytes32",
			"type": "event"
		},
		{
			"anonymous": false,
			"inputs": [
				{
					"indexed": false,
					"internalType": "string",
					"name": "",
					"type": "string"
				},
				{
					"indexed": false,
					"internalType": "int256",
					"name": "",
					"type": "int256"
				}
			],
			"name": "LogInt",
			"type": "event"
		},
		{
			"anonymous": false,
			"inputs": [
				{
					"indexed": false,
					"internalType": "string",
					"name": "",
					"type": "string"
				},
				{
					"indexed": false,
					"internalType": "uint256",
					"name": "",
					"type": "uint256"
				}
			],
			"name": "LogUint",
			"type": "event"
		},
		{
			"anonymous": false,
			"inputs": [
				{
					"indexed": true,
					"internalType": "address",
					"name": "previousOwner",
					"type": "address"
				},
				{
					"indexed": true,
					"internalType": "address",
					"name": "newOwner",
					"type": "address"
				}
			],
			"name": "OwnershipTransferred",
			"type": "event"
		},
		{
			"anonymous": false,
			"inputs": [
				{
					"indexed": true,
					"internalType": "address",
					"name": "registryAddress",
					"type": "address"
				}
			],
			"name": "RegistrySet",
			"type": "event"
		},
		{
			"constant": false,
			"inputs": [
				{
					"internalType": "address",
					"name": "validator",
					"type": "address"
				},
				{
					"internalType": "address",
					"name": "lesser",
					"type": "address"
				},
				{
					"internalType": "address",
					"name": "greater",
					"type": "address"
				}
			],
			"name": "addFirstMember",
			"outputs": [
				{
					"internalType": "bool",
					"name": "",
					"type": "bool"
				}
			],
			"payable": false,
			"stateMutability": "nonpayable",
			"type": "function"
		},
		{
			"constant": false,
			"inputs": [
				{
					"internalType": "address",
					"name": "validator",
					"type": "address"
				}
			],
			"name": "addMember",
			"outputs": [
				{
					"internalType": "bool",
					"name": "",
					"type": "bool"
				}
			],
			"payable": false,
			"stateMutability": "nonpayable",
			"type": "function"
		},
		{
			"constant": false,
			"inputs": [
				{
					"internalType": "address",
					"name": "group",
					"type": "address"
				}
			],
			"name": "affiliate",
			"outputs": [
				{
					"internalType": "bool",
					"name": "",
					"type": "bool"
				}
			],
			"payable": false,
			"stateMutability": "nonpayable",
			"type": "function"
		},
		{
			"constant": true,
			"inputs": [
				{
					"internalType": "address",
					"name": "sender",
					"type": "address"
				},
				{
					"internalType": "bytes",
					"name": "blsKey",
					"type": "bytes"
				},
				{
					"internalType": "bytes",
					"name": "blsPop",
					"type": "bytes"
				}
			],
			"name": "checkProofOfPossession",
			"outputs": [
				{
					"internalType": "bool",
					"name": "",
					"type": "bool"
				}
			],
			"payable": false,
			"stateMutability": "view",
			"type": "function"
		},
		{
			"constant": true,
			"inputs": [],
			"name": "commissionUpdateDelay",
			"outputs": [
				{
					"internalType": "uint256",
					"name": "",
					"type": "uint256"
				}
			],
			"payable": false,
			"stateMutability": "view",
			"type": "function"
		},
		{
			"constant": false,
			"inputs": [],
			"name": "deaffiliate",
			"outputs": [
				{
					"internalType": "bool",
					"name": "",
					"type": "bool"
				}
			],
			"payable": false,
			"stateMutability": "nonpayable",
			"type": "function"
		},
		{
			"constant": false,
			"inputs": [
				{
					"internalType": "uint256",
					"name": "index",
					"type": "uint256"
				}
			],
			"name": "deregisterValidator",
			"outputs": [
				{
					"internalType": "bool",
					"name": "",
					"type": "bool"
				}
			],
			"payable": false,
			"stateMutability": "nonpayable",
			"type": "function"
		},
		{
			"constant": false,
			"inputs": [
				{
					"internalType": "uint256",
					"name": "index",
					"type": "uint256"
				}
			],
			"name": "deregisterValidatorGroup",
			"outputs": [
				{
					"internalType": "bool",
					"name": "",
					"type": "bool"
				}
			],
			"payable": false,
			"stateMutability": "nonpayable",
			"type": "function"
		},
		{
			"constant": true,
			"inputs": [],
			"name": "downtimeGracePeriod",
			"outputs": [
				{
					"internalType": "uint256",
					"name": "",
					"type": "uint256"
				}
			],
			"payable": false,
			"stateMutability": "view",
			"type": "function"
		},
		{
			"constant": true,
			"inputs": [
				{
					"internalType": "address",
					"name": "account",
					"type": "address"
				}
			],
			"name": "getAccountLockedGoldRequirement",
			"outputs": [
				{
					"internalType": "uint256",
					"name": "",
					"type": "uint256"
				}
			],
			"payable": false,
			"stateMutability": "view",
			"type": "function"
		},
		{
			"constant": true,
			"inputs": [],
			"name": "getEpochNumber",
			"outputs": [
				{
					"internalType": "uint256",
					"name": "",
					"type": "uint256"
				}
			],
			"payable": false,
			"stateMutability": "view",
			"type": "function"
		},
		{
			"constant": true,
			"inputs": [
				{
					"internalType": "uint256",
					"name": "blockNumber",
					"type": "uint256"
				}
			],
			"name": "getEpochNumberOfBlock",
			"outputs": [
				{
					"internalType": "uint256",
					"name": "",
					"type": "uint256"
				}
			],
			"payable": false,
			"stateMutability": "view",
			"type": "function"
		},
		{
			"constant": true,
			"inputs": [],
			"name": "getEpochSize",
			"outputs": [
				{
					"internalType": "uint256",
					"name": "",
					"type": "uint256"
				}
			],
			"payable": false,
			"stateMutability": "view",
			"type": "function"
		},
		{
			"constant": true,
			"inputs": [
				{
					"internalType": "address",
					"name": "account",
					"type": "address"
				},
				{
					"internalType": "uint256",
					"name": "n",
					"type": "uint256"
				}
			],
			"name": "getGroupValidators",
			"outputs": [
				{
					"internalType": "address[]",
					"name": "",
					"type": "address[]"
				}
			],
			"payable": false,
			"stateMutability": "view",
			"type": "function"
		},
		{
			"constant": true,
			"inputs": [],
			"name": "groupLockedGoldRequirements",
			"outputs": [
				{
					"internalType": "uint256",
					"name": "value",
					"type": "uint256"
				},
				{
					"internalType": "uint256",
					"name": "duration",
					"type": "uint256"
				}
			],
			"payable": false,
			"stateMutability": "view",
			"type": "function"
		},
		{
			"constant": false,
			"inputs": [
				{
					"internalType": "address",
					"name": "registryAddress",
					"type": "address"
				}
			],
			"name": "initialize",
			"outputs": [],
			"payable": false,
			"stateMutability": "nonpayable",
			"type": "function"
		},
		{
			"constant": true,
			"inputs": [],
			"name": "initialized",
			"outputs": [
				{
					"internalType": "bool",
					"name": "",
					"type": "bool"
				}
			],
			"payable": false,
			"stateMutability": "view",
			"type": "function"
		},
		{
			"constant": true,
			"inputs": [],
			"name": "isOwner",
			"outputs": [
				{
					"internalType": "bool",
					"name": "",
					"type": "bool"
				}
			],
			"payable": false,
			"stateMutability": "view",
			"type": "function"
		},
		{
			"constant": true,
			"inputs": [
				{
					"internalType": "address",
					"name": "account",
					"type": "address"
				}
			],
			"name": "isValidator",
			"outputs": [
				{
					"internalType": "bool",
					"name": "",
					"type": "bool"
				}
			],
			"payable": false,
			"stateMutability": "view",
			"type": "function"
		},
		{
			"constant": true,
			"inputs": [
				{
					"internalType": "address",
					"name": "account",
					"type": "address"
				}
			],
			"name": "isValidatorGroup",
			"outputs": [
				{
					"internalType": "bool",
					"name": "",
					"type": "bool"
				}
			],
			"payable": false,
			"stateMutability": "view",
			"type": "function"
		},
		{
			"constant": true,
			"inputs": [],
			"name": "maxGroupSize",
			"outputs": [
				{
					"internalType": "uint256",
					"name": "",
					"type": "uint256"
				}
			],
			"payable": false,
			"stateMutability": "view",
			"type": "function"
		},
		{
			"constant": true,
			"inputs": [
				{
					"internalType": "address",
					"name": "account",
					"type": "address"
				}
			],
			"name": "meetsAccountLockedGoldRequirements",
			"outputs": [
				{
					"internalType": "bool",
					"name": "",
					"type": "bool"
				}
			],
			"payable": false,
			"stateMutability": "view",
			"type": "function"
		},
		{
			"constant": true,
			"inputs": [],
			"name": "membershipHistoryLength",
			"outputs": [
				{
					"internalType": "uint256",
					"name": "",
					"type": "uint256"
				}
			],
			"payable": false,
			"stateMutability": "view",
			"type": "function"
		},
		{
			"constant": true,
			"inputs": [],
			"name": "owner",
			"outputs": [
				{
					"internalType": "address",
					"name": "",
					"type": "address"
				}
			],
			"payable": false,
			"stateMutability": "view",
			"type": "function"
		},
		{
			"constant": false,
			"inputs": [],
			"name": "registerValidator",
			"outputs": [
				{
					"internalType": "bool",
					"name": "",
					"type": "bool"
				}
			],
			"payable": false,
			"stateMutability": "nonpayable",
			"type": "function"
		},
		{
			"constant": false,
			"inputs": [
				{
					"internalType": "uint256",
					"name": "commission",
					"type": "uint256"
				}
			],
			"name": "registerValidatorGroup",
			"outputs": [
				{
					"internalType": "bool",
					"name": "",
					"type": "bool"
				}
			],
			"payable": false,
			"stateMutability": "nonpayable",
			"type": "function"
		},
		{
			"constant": true,
			"inputs": [],
			"name": "registry",
			"outputs": [
				{
					"internalType": "contract IRegistry",
					"name": "",
					"type": "address"
				}
			],
			"payable": false,
			"stateMutability": "view",
			"type": "function"
		},
		{
			"constant": false,
			"inputs": [
				{
					"internalType": "address",
					"name": "validator",
					"type": "address"
				}
			],
			"name": "removeMember",
			"outputs": [
				{
					"internalType": "bool",
					"name": "",
					"type": "bool"
				}
			],
			"payable": false,
			"stateMutability": "nonpayable",
			"type": "function"
		},
		{
			"constant": false,
			"inputs": [],
			"name": "renounceOwnership",
			"outputs": [],
			"payable": false,
			"stateMutability": "nonpayable",
			"type": "function"
		},
		{
			"constant": false,
			"inputs": [
				{
					"internalType": "address",
					"name": "registryAddress",
					"type": "address"
				}
			],
			"name": "setRegistry",
			"outputs": [],
			"payable": false,
			"stateMutability": "nonpayable",
			"type": "function"
		},
		{
			"constant": true,
			"inputs": [],
			"name": "slashingMultiplierResetPeriod",
			"outputs": [
				{
					"internalType": "uint256",
					"name": "",
					"type": "uint256"
				}
			],
			"payable": false,
			"stateMutability": "view",
			"type": "function"
		},
		{
			"constant": false,
			"inputs": [
				{
					"internalType": "address",
					"name": "newOwner",
					"type": "address"
				}
			],
			"name": "transferOwnership",
			"outputs": [],
			"payable": false,
			"stateMutability": "nonpayable",
			"type": "function"
		},
		{
			"constant": true,
			"inputs": [],
			"name": "validatorLockedGoldRequirements",
			"outputs": [
				{
					"internalType": "uint256",
					"name": "value",
					"type": "uint256"
				},
				{
					"internalType": "uint256",
					"name": "duration",
					"type": "uint256"
				}
			],
			"payable": false,
			"stateMutability": "view",
			"type": "function"
		}
	]
}