{
  "contractName": "__unstable__TokenVault",
  "abi": [
    {
      "anonymous": false,
      "inputs": [
        {
          "indexed": false,
          "internalType": "address",
          "name": "recipient",
          "type": "address"
        }
      ],
      "name": "PrimaryTransferred",
      "type": "event"
    },
    {
      "constant": true,
      "inputs": [],
      "name": "primary",
      "outputs": [
        {
          "internalType": "address",
          "name": "",
          "type": "address"
        }
      ],
      "payable": false,
      "stateMutability": "view",
      "type": "function"
    },
    {
      "constant": false,
      "inputs": [
        {
          "internalType": "address",
          "name": "recipient",
          "type": "address"
        }
      ],
      "name": "transferPrimary",
      "outputs": [],
      "payable": false,
      "stateMutability": "nonpayable",
      "type": "function"
    },
    {
      "constant": false,
      "inputs": [
        {
          "internalType": "contract IERC20",
          "name": "token",
          "type": "address"
        },
        {
          "internalType": "address",
          "name": "to",
          "type": "address"
        },
        {
          "internalType": "uint256",
          "name": "amount",
          "type": "uint256"
        }
      ],
      "name": "transfer",
      "outputs": [],
      "payable": false,
      "stateMutability": "nonpayable",
      "type": "function"
    }
  ],
  "bytecode": "0x608060405260006100146100bf60201b60201c565b9050806000806101000a81548173ffffffffffffffffffffffffffffffffffffffff021916908373ffffffffffffffffffffffffffffffffffffffff1602179055507f4101e71e974f68df5e9730cc223280b41654676bbb052cdcc735c3337e64d2d981604051808273ffffffffffffffffffffffffffffffffffffffff1673ffffffffffffffffffffffffffffffffffffffff16815260200191505060405180910390a1506100c7565b600033905090565b61054a806100d66000396000f3fe608060405234801561001057600080fd5b50600436106100415760003560e01c80632348238c14610046578063beabacc81461008a578063c6dbdf61146100f8575b600080fd5b6100886004803603602081101561005c57600080fd5b81019080803573ffffffffffffffffffffffffffffffffffffffff169060200190929190505050610142565b005b6100f6600480360360608110156100a057600080fd5b81019080803573ffffffffffffffffffffffffffffffffffffffff169060200190929190803573ffffffffffffffffffffffffffffffffffffffff1690602001909291908035906020019092919050505061031a565b005b61010061048e565b604051808273ffffffffffffffffffffffffffffffffffffffff1673ffffffffffffffffffffffffffffffffffffffff16815260200191505060405180910390f35b6000809054906101000a900473ffffffffffffffffffffffffffffffffffffffff1673ffffffffffffffffffffffffffffffffffffffff166101826104b7565b73ffffffffffffffffffffffffffffffffffffffff16146101ee576040517f08c379a000000000000000000000000000000000000000000000000000000000815260040180806020018281038252602c8152602001806104ea602c913960400191505060405180910390fd5b600073ffffffffffffffffffffffffffffffffffffffff168173ffffffffffffffffffffffffffffffffffffffff161415610274576040517f08c379a000000000000000000000000000000000000000000000000000000000815260040180806020018281038252602a8152602001806104c0602a913960400191505060405180910390fd5b806000806101000a81548173ffffffffffffffffffffffffffffffffffffffff021916908373ffffffffffffffffffffffffffffffffffffffff1602179055507f4101e71e974f68df5e9730cc223280b41654676bbb052cdcc735c3337e64d2d981604051808273ffffffffffffffffffffffffffffffffffffffff1673ffffffffffffffffffffffffffffffffffffffff16815260200191505060405180910390a150565b6000809054906101000a900473ffffffffffffffffffffffffffffffffffffffff1673ffffffffffffffffffffffffffffffffffffffff1661035a6104b7565b73ffffffffffffffffffffffffffffffffffffffff16146103c6576040517f08c379a000000000000000000000000000000000000000000000000000000000815260040180806020018281038252602c8152602001806104ea602c913960400191505060405180910390fd5b8273ffffffffffffffffffffffffffffffffffffffff1663a9059cbb83836040518363ffffffff1660e01b8152600401808373ffffffffffffffffffffffffffffffffffffffff1673ffffffffffffffffffffffffffffffffffffffff16815260200182815260200192505050602060405180830381600087803b15801561044d57600080fd5b505af1158015610461573d6000803e3d6000fd5b505050506040513d602081101561047757600080fd5b810190808051906020019092919050505050505050565b60008060009054906101000a900473ffffffffffffffffffffffffffffffffffffffff16905090565b60003390509056fe5365636f6e646172793a206e6577207072696d61727920697320746865207a65726f20616464726573735365636f6e646172793a2063616c6c6572206973206e6f7420746865207072696d617279206163636f756e74a265627a7a723158208efdb54bf997bc8f4c60d3f4f2e2c4545129f927c8bf8519a997792ef3c8b7ff64736f6c63430005100032",
  "source": "pragma solidity ^0.5.0;\n\nimport \"../validation/TimedCrowdsale.sol\";\nimport \"../../math/SafeMath.sol\";\nimport \"../../ownership/Secondary.sol\";\nimport \"../../token/ERC20/IERC20.sol\";\n\n/**\n * @title PostDeliveryCrowdsale\n * @dev Crowdsale that locks tokens from withdrawal until it ends.\n */\ncontract PostDeliveryCrowdsale is TimedCrowdsale {\n    using SafeMath for uint256;\n\n    mapping(address => uint256) private _balances;\n    __unstable__TokenVault private _vault;\n\n    constructor() public {\n        _vault = new __unstable__TokenVault();\n    }\n\n    /**\n     * @dev Withdraw tokens only after crowdsale ends.\n     * @param beneficiary Whose tokens will be withdrawn.\n     */\n    function withdrawTokens(address beneficiary) public {\n        require(hasClosed(), \"PostDeliveryCrowdsale: not closed\");\n        uint256 amount = _balances[beneficiary];\n        require(amount > 0, \"PostDeliveryCrowdsale: beneficiary is not due any tokens\");\n\n        _balances[beneficiary] = 0;\n        _vault.transfer(token(), beneficiary, amount);\n    }\n\n    /**\n     * @return the balance of an account.\n     */\n    function balanceOf(address account) public view returns (uint256) {\n        return _balances[account];\n    }\n\n    /**\n     * @dev Overrides parent by storing due balances, and delivering tokens to the vault instead of the end user. This\n     * ensures that the tokens will be available by the time they are withdrawn (which may not be the case if\n     * `_deliverTokens` was called later).\n     * @param beneficiary Token purchaser\n     * @param tokenAmount Amount of tokens purchased\n     */\n    function _processPurchase(address beneficiary, uint256 tokenAmount) internal {\n        _balances[beneficiary] = _balances[beneficiary].add(tokenAmount);\n        _deliverTokens(address(_vault), tokenAmount);\n    }\n}\n\n/**\n * @title __unstable__TokenVault\n * @dev Similar to an Escrow for tokens, this contract allows its primary account to spend its tokens as it sees fit.\n * This contract is an internal helper for PostDeliveryCrowdsale, and should not be used outside of this context.\n */\n// solhint-disable-next-line contract-name-camelcase\ncontract __unstable__TokenVault is Secondary {\n    function transfer(IERC20 token, address to, uint256 amount) public onlyPrimary {\n        token.transfer(to, amount);\n    }\n}\n",
  "sourcePath": "D:\\work\\zhangwei812\\mySolidity\\mySolidity\\contracts\\openzeppelin-solidity\\contracts\\crowdsale\\distribution\\PostDeliveryCrowdsale.sol",
  "compiler": {
    "name": "solc",
    "version": "0.5.16+commit.9c3226ce.Emscripten.clang"
  },
  "schemaVersion": "3.4.3",
  "updatedAt": "2021-11-05T07:20:27.046Z",
  "devdoc": {
    "details": "Similar to an Escrow for tokens, this contract allows its primary account to spend its tokens as it sees fit. This contract is an internal helper for PostDeliveryCrowdsale, and should not be used outside of this context.",
    "methods": {
      "primary()": {
        "return": "the address of the primary."
      },
      "transferPrimary(address)": {
        "details": "Transfers contract to a new primary.",
        "params": {
          "recipient": "The address of new primary."
        }
      }
    },
    "title": "__unstable__TokenVault"
  },
  "userdoc": {
    "methods": {}
  }
}