{
  "contractName": "Accounts",
  "abi": [
    {
      "inputs": [
        {
          "internalType": "bool",
          "name": "test",
          "type": "bool"
        }
      ],
      "payable": false,
      "stateMutability": "nonpayable",
      "type": "constructor"
    },
    {
      "anonymous": false,
      "inputs": [
        {
          "indexed": true,
          "internalType": "address",
          "name": "previousOwner",
          "type": "address"
        },
        {
          "indexed": true,
          "internalType": "address",
          "name": "newOwner",
          "type": "address"
        }
      ],
      "name": "OwnershipTransferred",
      "type": "event"
    },
    {
      "anonymous": false,
      "inputs": [
        {
          "indexed": true,
          "internalType": "address",
          "name": "registryAddress",
          "type": "address"
        }
      ],
      "name": "RegistrySet",
      "type": "event"
    },
    {
      "constant": true,
      "inputs": [],
      "name": "EIP712_AUTHORIZE_SIGNER_TYPEHASH",
      "outputs": [
        {
          "internalType": "bytes32",
          "name": "",
          "type": "bytes32"
        }
      ],
      "payable": false,
      "stateMutability": "view",
      "type": "function"
    },
    {
      "constant": true,
      "inputs": [
        {
          "internalType": "address",
          "name": "",
          "type": "address"
        }
      ],
      "name": "authorizedBy",
      "outputs": [
        {
          "internalType": "address",
          "name": "",
          "type": "address"
        }
      ],
      "payable": false,
      "stateMutability": "view",
      "type": "function"
    },
    {
      "constant": true,
      "inputs": [],
      "name": "eip712DomainSeparator",
      "outputs": [
        {
          "internalType": "bytes32",
          "name": "",
          "type": "bytes32"
        }
      ],
      "payable": false,
      "stateMutability": "view",
      "type": "function"
    },
    {
      "constant": true,
      "inputs": [],
      "name": "initialized",
      "outputs": [
        {
          "internalType": "bool",
          "name": "",
          "type": "bool"
        }
      ],
      "payable": false,
      "stateMutability": "view",
      "type": "function"
    },
    {
      "constant": true,
      "inputs": [],
      "name": "isOwner",
      "outputs": [
        {
          "internalType": "bool",
          "name": "",
          "type": "bool"
        }
      ],
      "payable": false,
      "stateMutability": "view",
      "type": "function"
    },
    {
      "constant": true,
      "inputs": [],
      "name": "owner",
      "outputs": [
        {
          "internalType": "address",
          "name": "",
          "type": "address"
        }
      ],
      "payable": false,
      "stateMutability": "view",
      "type": "function"
    },
    {
      "constant": true,
      "inputs": [],
      "name": "registry",
      "outputs": [
        {
          "internalType": "contract IRegistry",
          "name": "",
          "type": "address"
        }
      ],
      "payable": false,
      "stateMutability": "view",
      "type": "function"
    },
    {
      "constant": false,
      "inputs": [],
      "name": "renounceOwnership",
      "outputs": [],
      "payable": false,
      "stateMutability": "nonpayable",
      "type": "function"
    },
    {
      "constant": false,
      "inputs": [
        {
          "internalType": "address",
          "name": "registryAddress",
          "type": "address"
        }
      ],
      "name": "setRegistry",
      "outputs": [],
      "payable": false,
      "stateMutability": "nonpayable",
      "type": "function"
    },
    {
      "constant": false,
      "inputs": [
        {
          "internalType": "address",
          "name": "newOwner",
          "type": "address"
        }
      ],
      "name": "transferOwnership",
      "outputs": [],
      "payable": false,
      "stateMutability": "nonpayable",
      "type": "function"
    },
    {
      "constant": true,
      "inputs": [],
      "name": "getVersionNumber",
      "outputs": [
        {
          "internalType": "uint256",
          "name": "",
          "type": "uint256"
        },
        {
          "internalType": "uint256",
          "name": "",
          "type": "uint256"
        },
        {
          "internalType": "uint256",
          "name": "",
          "type": "uint256"
        },
        {
          "internalType": "uint256",
          "name": "",
          "type": "uint256"
        }
      ],
      "payable": false,
      "stateMutability": "pure",
      "type": "function"
    },
    {
      "constant": false,
      "inputs": [
        {
          "internalType": "address",
          "name": "registryAddress",
          "type": "address"
        }
      ],
      "name": "initialize",
      "outputs": [],
      "payable": false,
      "stateMutability": "nonpayable",
      "type": "function"
    },
    {
      "constant": false,
      "inputs": [],
      "name": "setEip712DomainSeparator",
      "outputs": [],
      "payable": false,
      "stateMutability": "nonpayable",
      "type": "function"
    },
    {
      "constant": false,
      "inputs": [
        {
          "internalType": "string",
          "name": "name",
          "type": "string"
        },
        {
          "internalType": "bytes",
          "name": "dataEncryptionKey",
          "type": "bytes"
        },
        {
          "internalType": "address",
          "name": "walletAddress",
          "type": "address"
        },
        {
          "internalType": "uint8",
          "name": "v",
          "type": "uint8"
        },
        {
          "internalType": "bytes32",
          "name": "r",
          "type": "bytes32"
        },
        {
          "internalType": "bytes32",
          "name": "s",
          "type": "bytes32"
        }
      ],
      "name": "setAccount",
      "outputs": [],
      "payable": false,
      "stateMutability": "nonpayable",
      "type": "function"
    },
    {
      "constant": false,
      "inputs": [],
      "name": "createAccount",
      "outputs": [
        {
          "internalType": "bool",
          "name": "",
          "type": "bool"
        }
      ],
      "payable": false,
      "stateMutability": "nonpayable",
      "type": "function"
    },
    {
      "constant": false,
      "inputs": [
        {
          "internalType": "string",
          "name": "name",
          "type": "string"
        }
      ],
      "name": "setName",
      "outputs": [],
      "payable": false,
      "stateMutability": "nonpayable",
      "type": "function"
    },
    {
      "constant": false,
      "inputs": [
        {
          "internalType": "address",
          "name": "walletAddress",
          "type": "address"
        },
        {
          "internalType": "uint8",
          "name": "v",
          "type": "uint8"
        },
        {
          "internalType": "bytes32",
          "name": "r",
          "type": "bytes32"
        },
        {
          "internalType": "bytes32",
          "name": "s",
          "type": "bytes32"
        }
      ],
      "name": "setWalletAddress",
      "outputs": [],
      "payable": false,
      "stateMutability": "nonpayable",
      "type": "function"
    },
    {
      "constant": false,
      "inputs": [
        {
          "internalType": "bytes",
          "name": "dataEncryptionKey",
          "type": "bytes"
        }
      ],
      "name": "setAccountDataEncryptionKey",
      "outputs": [],
      "payable": false,
      "stateMutability": "nonpayable",
      "type": "function"
    },
    {
      "constant": true,
      "inputs": [
        {
          "internalType": "address",
          "name": "account",
          "type": "address"
        }
      ],
      "name": "getName",
      "outputs": [
        {
          "internalType": "string",
          "name": "",
          "type": "string"
        }
      ],
      "payable": false,
      "stateMutability": "view",
      "type": "function"
    },
    {
      "constant": true,
      "inputs": [
        {
          "internalType": "address",
          "name": "account",
          "type": "address"
        }
      ],
      "name": "getDataEncryptionKey",
      "outputs": [
        {
          "internalType": "bytes",
          "name": "",
          "type": "bytes"
        }
      ],
      "payable": false,
      "stateMutability": "view",
      "type": "function"
    },
    {
      "constant": true,
      "inputs": [
        {
          "internalType": "address",
          "name": "account",
          "type": "address"
        }
      ],
      "name": "getWalletAddress",
      "outputs": [
        {
          "internalType": "address",
          "name": "",
          "type": "address"
        }
      ],
      "payable": false,
      "stateMutability": "view",
      "type": "function"
    },
    {
      "constant": true,
      "inputs": [
        {
          "internalType": "address",
          "name": "account",
          "type": "address"
        }
      ],
      "name": "isAccount",
      "outputs": [
        {
          "internalType": "bool",
          "name": "",
          "type": "bool"
        }
      ],
      "payable": false,
      "stateMutability": "view",
      "type": "function"
    },
    {
      "constant": true,
      "inputs": [
        {
          "internalType": "address",
          "name": "signer",
          "type": "address"
        }
      ],
      "name": "validatorSignerToAccount",
      "outputs": [
        {
          "internalType": "address",
          "name": "",
          "type": "address"
        }
      ],
      "payable": false,
      "stateMutability": "view",
      "type": "function"
    },
    {
      "constant": true,
      "inputs": [
        {
          "internalType": "address",
          "name": "account",
          "type": "address"
        },
        {
          "internalType": "address",
          "name": "signer",
          "type": "address"
        },
        {
          "internalType": "bytes32",
          "name": "role",
          "type": "bytes32"
        }
      ],
      "name": "isSigner",
      "outputs": [
        {
          "internalType": "bool",
          "name": "",
          "type": "bool"
        }
      ],
      "payable": false,
      "stateMutability": "view",
      "type": "function"
    },
    {
      "constant": true,
      "inputs": [
        {
          "internalType": "address",
          "name": "_account",
          "type": "address"
        },
        {
          "internalType": "address",
          "name": "signer",
          "type": "address"
        },
        {
          "internalType": "bytes32",
          "name": "role",
          "type": "bytes32"
        }
      ],
      "name": "isLegacySigner",
      "outputs": [
        {
          "internalType": "bool",
          "name": "",
          "type": "bool"
        }
      ],
      "payable": false,
      "stateMutability": "view",
      "type": "function"
    }
  ],
  "bytecode": "0x608060405234801561001057600080fd5b506040516120293803806120298339818101604052602081101561003357600080fd5b810190808051906020019092919050505080600061005561011b60201b60201c565b9050806000806101000a81548173ffffffffffffffffffffffffffffffffffffffff021916908373ffffffffffffffffffffffffffffffffffffffff1602179055508073ffffffffffffffffffffffffffffffffffffffff16600073ffffffffffffffffffffffffffffffffffffffff167f8be0079c531659141344cd1fd0a4f28419497f9722a3daafe3b4186f6b6457e060405160405180910390a35080610114576001600060146101000a81548160ff0219169083151502179055505b5050610123565b600033905090565b611ef7806101326000396000f3fe608060405234801561001057600080fd5b50600436106101735760003560e01c80638da5cb5b116100de578063a91ee0dc11610097578063c47f002711610071578063c47f0027146109b8578063c4d66de814610a73578063f0c5658414610ab7578063f2fde38b14610ad557610173565b8063a91ee0dc14610833578063ae32fa0e14610877578063b5a664c21461093457610173565b80638da5cb5b146105ab5780638f32d59b146105f557806390b12b471461061757806391cd074b146107265780639cafb2a1146107ac5780639dca362f1461081157610173565b806354255be01161013057806354255be0146103c55780635b07fdd8146103f85780635fd4b08a1461041657806364439b43146104d3578063715018a6146105575780637b1039991461056157610173565b80630fe7abab14610178578063158ef93e146102335780631fd9afa51461025557806325ca4c9c146102d95780633184b3c514610335578063485a46d11461033f575b600080fd5b6102316004803603602081101561018e57600080fd5b81019080803590602001906401000000008111156101ab57600080fd5b8201836020820111156101bd57600080fd5b803590602001918460018302840111640100000000831117156101df57600080fd5b91908080601f016020809104026020016040519081016040528093929190818152602001838380828437600081840152601f19601f820116905080830192505050505050509192919290505050610b19565b005b61023b610bf1565b604051808215151515815260200191505060405180910390f35b6102976004803603602081101561026b57600080fd5b81019080803573ffffffffffffffffffffffffffffffffffffffff169060200190929190505050610c04565b604051808273ffffffffffffffffffffffffffffffffffffffff1673ffffffffffffffffffffffffffffffffffffffff16815260200191505060405180910390f35b61031b600480360360208110156102ef57600080fd5b81019080803573ffffffffffffffffffffffffffffffffffffffff169060200190929190505050610c70565b604051808215151515815260200191505060405180910390f35b61033d610cc9565b005b6103ab6004803603606081101561035557600080fd5b81019080803573ffffffffffffffffffffffffffffffffffffffff169060200190929190803573ffffffffffffffffffffffffffffffffffffffff16906020019092919080359060200190929190505050610dd4565b604051808215151515815260200191505060405180910390f35b6103cd610f25565b6040518085815260200184815260200183815260200182815260200194505050505060405180910390f35b610400610f4c565b6040518082815260200191505060405180910390f35b6104586004803603602081101561042c57600080fd5b81019080803573ffffffffffffffffffffffffffffffffffffffff169060200190929190505050610f52565b6040518080602001828103825283818151815260200191508051906020019080838360005b8381101561049857808201518184015260208101905061047d565b50505050905090810190601f1680156104c55780820380516001836020036101000a031916815260200191505b509250505060405180910390f35b610515600480360360208110156104e957600080fd5b81019080803573ffffffffffffffffffffffffffffffffffffffff169060200190929190505050611036565b604051808273ffffffffffffffffffffffffffffffffffffffff1673ffffffffffffffffffffffffffffffffffffffff16815260200191505060405180910390f35b61055f61108f565b005b6105696111c8565b604051808273ffffffffffffffffffffffffffffffffffffffff1673ffffffffffffffffffffffffffffffffffffffff16815260200191505060405180910390f35b6105b36111ee565b604051808273ffffffffffffffffffffffffffffffffffffffff1673ffffffffffffffffffffffffffffffffffffffff16815260200191505060405180910390f35b6105fd611217565b604051808215151515815260200191505060405180910390f35b610724600480360360c081101561062d57600080fd5b810190808035906020019064010000000081111561064a57600080fd5b82018360208201111561065c57600080fd5b8035906020019184600183028401116401000000008311171561067e57600080fd5b90919293919293908035906020019064010000000081111561069f57600080fd5b8201836020820111156106b157600080fd5b803590602001918460018302840111640100000000831117156106d357600080fd5b9091929391929390803573ffffffffffffffffffffffffffffffffffffffff169060200190929190803560ff1690602001909291908035906020019092919080359060200190929190505050611275565b005b6107926004803603606081101561073c57600080fd5b81019080803573ffffffffffffffffffffffffffffffffffffffff169060200190929190803573ffffffffffffffffffffffffffffffffffffffff1690602001909291908035906020019092919050505061133c565b604051808215151515815260200191505060405180910390f35b61080f600480360360808110156107c257600080fd5b81019080803573ffffffffffffffffffffffffffffffffffffffff169060200190929190803560ff1690602001909291908035906020019092919080359060200190929190505050611349565b005b610819611636565b604051808215151515815260200191505060405180910390f35b6108756004803603602081101561084957600080fd5b81019080803573ffffffffffffffffffffffffffffffffffffffff16906020019092919050505061169f565b005b6108b96004803603602081101561088d57600080fd5b81019080803573ffffffffffffffffffffffffffffffffffffffff169060200190929190505050611843565b6040518080602001828103825283818151815260200191508051906020019080838360005b838110156108f95780820151818401526020810190506108de565b50505050905090810190601f1680156109265780820380516001836020036101000a031916815260200191505b509250505060405180910390f35b6109766004803603602081101561094a57600080fd5b81019080803573ffffffffffffffffffffffffffffffffffffffff169060200190929190505050611927565b604051808273ffffffffffffffffffffffffffffffffffffffff1673ffffffffffffffffffffffffffffffffffffffff16815260200191505060405180910390f35b610a71600480360360208110156109ce57600080fd5b81019080803590602001906401000000008111156109eb57600080fd5b8201836020820111156109fd57600080fd5b80359060200191846001830284011164010000000083111715610a1f57600080fd5b91908080601f016020809104026020016040519081016040528093929190818152602001838380828437600081840152601f19601f82011690508083019250505050505050919291929050505061195a565b005b610ab560048036036020811015610a8957600080fd5b81019080803573ffffffffffffffffffffffffffffffffffffffff169060200190929190505050611a35565b005b610abf611af0565b6040518082815260200191505060405180910390f35b610b1760048036036020811015610aeb57600080fd5b81019080803573ffffffffffffffffffffffffffffffffffffffff169060200190929190505050611b0c565b005b602181511015610b91576040517f08c379a00000000000000000000000000000000000000000000000000000000081526004018080602001828103825260208152602001807f6461746120656e6372797074696f6e206b6579206c656e677468203c3d20333281525060200191505060405180910390fd5b6000600260003373ffffffffffffffffffffffffffffffffffffffff1673ffffffffffffffffffffffffffffffffffffffff168152602001908152602001600020905081816006019080519060200190610bec929190611ce9565b505050565b600060149054906101000a900460ff1681565b6000600260008373ffffffffffffffffffffffffffffffffffffffff1673ffffffffffffffffffffffffffffffffffffffff16815260200190815260200160002060040160009054906101000a900473ffffffffffffffffffffffffffffffffffffffff169050919050565b6000600260008373ffffffffffffffffffffffffffffffffffffffff1673ffffffffffffffffffffffffffffffffffffffff16815260200190815260200160002060000160009054906101000a900460ff169050919050565b600060d390506040518080611e7160529139605201905060405180910390206040518060400160405280601381526020017f43656c6f20436f726520436f6e747261637473000000000000000000000000008152508051906020012060405180807f312e300000000000000000000000000000000000000000000000000000000000815250600301905060405180910390208330604051602001808681526020018581526020018481526020018381526020018273ffffffffffffffffffffffffffffffffffffffff1673ffffffffffffffffffffffffffffffffffffffff168152602001955050505050506040516020818303038152906040528051906020012060068190555050565b6000610de184848461133c565b80610f1c5750600560008573ffffffffffffffffffffffffffffffffffffffff1673ffffffffffffffffffffffffffffffffffffffff168152602001908152602001600020600083815260200190815260200160002060008473ffffffffffffffffffffffffffffffffffffffff1673ffffffffffffffffffffffffffffffffffffffff16815260200190815260200160002060000160019054906101000a900460ff168015610f1b57508373ffffffffffffffffffffffffffffffffffffffff16600360008573ffffffffffffffffffffffffffffffffffffffff1673ffffffffffffffffffffffffffffffffffffffff16815260200190815260200160002060009054906101000a900473ffffffffffffffffffffffffffffffffffffffff1673ffffffffffffffffffffffffffffffffffffffff16145b5b90509392505050565b60008060008060018060026001839350829250819150809050935093509350935090919293565b60065481565b6060600260008373ffffffffffffffffffffffffffffffffffffffff1673ffffffffffffffffffffffffffffffffffffffff1681526020019081526020016000206005018054600181600116156101000203166002900480601f01602080910402602001604051908101604052809291908181526020018280546001816001161561010002031660029004801561102a5780601f10610fff5761010080835404028352916020019161102a565b820191906000526020600020905b81548152906001019060200180831161100d57829003601f168201915b50505050509050919050565b60006110888260405160200180807f63656c6f2e6f72672f636f72652f76616c696461746f72000000000000000000815250601701905060405160208183030381529060405280519060200120611b92565b9050919050565b611097611217565b611109576040517f08c379a00000000000000000000000000000000000000000000000000000000081526004018080602001828103825260208152602001807f4f776e61626c653a2063616c6c6572206973206e6f7420746865206f776e657281525060200191505060405180910390fd5b600073ffffffffffffffffffffffffffffffffffffffff166000809054906101000a900473ffffffffffffffffffffffffffffffffffffffff1673ffffffffffffffffffffffffffffffffffffffff167f8be0079c531659141344cd1fd0a4f28419497f9722a3daafe3b4186f6b6457e060405160405180910390a360008060006101000a81548173ffffffffffffffffffffffffffffffffffffffff021916908373ffffffffffffffffffffffffffffffffffffffff160217905550565b600160009054906101000a900473ffffffffffffffffffffffffffffffffffffffff1681565b60008060009054906101000a900473ffffffffffffffffffffffffffffffffffffffff16905090565b60008060009054906101000a900473ffffffffffffffffffffffffffffffffffffffff1673ffffffffffffffffffffffffffffffffffffffff16611259611b9d565b73ffffffffffffffffffffffffffffffffffffffff1614905090565b61127e33610c70565b61128c5761128a611636565b505b6112d988888080601f016020809104026020016040519081016040528093929190818152602001838380828437600081840152601f19601f8201169050808301925050505050505061195a565b61132686868080601f016020809104026020016040519081016040528093929190818152602001838380828437600081840152601f19601f82011690508083019250505050505050610b19565b61133284848484611349565b5050505050505050565b6000600190509392505050565b61135233610c70565b6113c4576040517f08c379a000000000000000000000000000000000000000000000000000000000815260040180806020018281038252600f8152602001807f556e6b6e6f776e206163636f756e74000000000000000000000000000000000081525060200191505060405180910390fd5b3373ffffffffffffffffffffffffffffffffffffffff168473ffffffffffffffffffffffffffffffffffffffff16148061142a5750600073ffffffffffffffffffffffffffffffffffffffff168473ffffffffffffffffffffffffffffffffffffffff16145b6115a957600073__Signatures____________________________6396ef41a1338686866040518563ffffffff1660e01b8152600401808573ffffffffffffffffffffffffffffffffffffffff1673ffffffffffffffffffffffffffffffffffffffff1681526020018460ff1660ff16815260200183815260200182815260200194505050505060206040518083038186803b1580156114c957600080fd5b505af41580156114dd573d6000803e3d6000fd5b505050506040513d60208110156114f357600080fd5b810190808051906020019092919050505090508473ffffffffffffffffffffffffffffffffffffffff168173ffffffffffffffffffffffffffffffffffffffff16146115a7576040517f08c379a00000000000000000000000000000000000000000000000000000000081526004018080602001828103825260118152602001807f496e76616c6964207369676e617475726500000000000000000000000000000081525060200191505060405180910390fd5b505b6000600260003373ffffffffffffffffffffffffffffffffffffffff1673ffffffffffffffffffffffffffffffffffffffff1681526020019081526020016000209050848160040160006101000a81548173ffffffffffffffffffffffffffffffffffffffff021916908373ffffffffffffffffffffffffffffffffffffffff1602179055505050505050565b600080600260003373ffffffffffffffffffffffffffffffffffffffff1673ffffffffffffffffffffffffffffffffffffffff168152602001908152602001600020905060018160000160006101000a81548160ff021916908315150217905550600191505090565b6116a7611217565b611719576040517f08c379a00000000000000000000000000000000000000000000000000000000081526004018080602001828103825260208152602001807f4f776e61626c653a2063616c6c6572206973206e6f7420746865206f776e657281525060200191505060405180910390fd5b600073ffffffffffffffffffffffffffffffffffffffff168173ffffffffffffffffffffffffffffffffffffffff1614156117bc576040517f08c379a00000000000000000000000000000000000000000000000000000000081526004018080602001828103825260208152602001807f43616e6e6f7420726567697374657220746865206e756c6c206164647265737381525060200191505060405180910390fd5b80600160006101000a81548173ffffffffffffffffffffffffffffffffffffffff021916908373ffffffffffffffffffffffffffffffffffffffff1602179055508073ffffffffffffffffffffffffffffffffffffffff167f27fe5f0c1c3b1ed427cc63d0f05759ffdecf9aec9e18d31ef366fc8a6cb5dc3b60405160405180910390a250565b6060600260008373ffffffffffffffffffffffffffffffffffffffff1673ffffffffffffffffffffffffffffffffffffffff1681526020019081526020016000206006018054600181600116156101000203166002900480601f01602080910402602001604051908101604052809291908181526020018280546001816001161561010002031660029004801561191b5780601f106118f05761010080835404028352916020019161191b565b820191906000526020600020905b8154815290600101906020018083116118fe57829003601f168201915b50505050509050919050565b60036020528060005260406000206000915054906101000a900473ffffffffffffffffffffffffffffffffffffffff1681565b61196333610c70565b6119d5576040517f08c379a000000000000000000000000000000000000000000000000000000000815260040180806020018281038252600f8152602001807f556e6b6e6f776e206163636f756e74000000000000000000000000000000000081525060200191505060405180910390fd5b6000600260003373ffffffffffffffffffffffffffffffffffffffff1673ffffffffffffffffffffffffffffffffffffffff168152602001908152602001600020905081816005019080519060200190611a30929190611d69565b505050565b600060149054906101000a900460ff1615611ab8576040517f08c379a000000000000000000000000000000000000000000000000000000000815260040180806020018281038252601c8152602001807f636f6e747261637420616c726561647920696e697469616c697a65640000000081525060200191505060405180910390fd5b6001600060146101000a81548160ff021916908315150217905550611adc33611ba5565b611ae58161169f565b611aed610cc9565b50565b6040518080611e35603c9139603c019050604051809103902081565b611b14611217565b611b86576040517f08c379a00000000000000000000000000000000000000000000000000000000081526004018080602001828103825260208152602001807f4f776e61626c653a2063616c6c6572206973206e6f7420746865206f776e657281525060200191505060405180910390fd5b611b8f81611ba5565b50565b600082905092915050565b600033905090565b600073ffffffffffffffffffffffffffffffffffffffff168173ffffffffffffffffffffffffffffffffffffffff161415611c2b576040517f08c379a0000000000000000000000000000000000000000000000000000000008152600401808060200182810382526026815260200180611e0f6026913960400191505060405180910390fd5b8073ffffffffffffffffffffffffffffffffffffffff166000809054906101000a900473ffffffffffffffffffffffffffffffffffffffff1673ffffffffffffffffffffffffffffffffffffffff167f8be0079c531659141344cd1fd0a4f28419497f9722a3daafe3b4186f6b6457e060405160405180910390a3806000806101000a81548173ffffffffffffffffffffffffffffffffffffffff021916908373ffffffffffffffffffffffffffffffffffffffff16021790555050565b828054600181600116156101000203166002900490600052602060002090601f016020900481019282601f10611d2a57805160ff1916838001178555611d58565b82800160010185558215611d58579182015b82811115611d57578251825591602001919060010190611d3c565b5b509050611d659190611de9565b5090565b828054600181600116156101000203166002900490600052602060002090601f016020900481019282601f10611daa57805160ff1916838001178555611dd8565b82800160010185558215611dd8579182015b82811115611dd7578251825591602001919060010190611dbc565b5b509050611de59190611de9565b5090565b611e0b91905b80821115611e07576000816000905550600101611def565b5090565b9056fe4f776e61626c653a206e6577206f776e657220697320746865207a65726f2061646472657373417574686f72697a655369676e65722861646472657373206163636f756e742c61646472657373207369676e65722c6279746573333220726f6c6529454950373132446f6d61696e28737472696e67206e616d652c737472696e672076657273696f6e2c75696e7432353620636861696e49642c6164647265737320766572696679696e67436f6e747261637429a265627a7a723158200a05ca4be9dd313e19df9386239db29e902f48d71a5f585754d1f3e1b5f3d1c864736f6c63430005100032",
  "source": "pragma solidity ^0.5.13;\r\n\r\nimport \"./openzeppelin-solidity/contracts/math/SafeMath.sol\";\r\nimport \"./openzeppelin-solidity/contracts/ownership/Ownable.sol\";\r\n\r\nimport \"./IAccounts.sol\";\r\n\r\nimport \"./Initializable.sol\";\r\nimport \"./Signatures.sol\";\r\nimport \"./UsingRegistry.sol\";\r\n\r\ncontract Accounts is\r\nIAccounts,\r\nOwnable,\r\nInitializable,\r\nUsingRegistry\r\n{\r\n    using SafeMath for uint256;\r\n\r\n    struct Signers {\r\n        // The address that is authorized to vote in governance and validator elections on behalf of the\r\n        // account. The account can vote as well, whether or not a vote signing key has been specified.\r\n        address vote;\r\n        // The address that is authorized to manage a validator or validator group and sign consensus\r\n        // messages on behalf of the account. The account can manage the validator, whether or not a\r\n        // validator signing key has been specified. However, if a validator signing key has been\r\n        // specified, only that key may actually participate in consensus.\r\n        address validator;\r\n        // The address of the key with which this account wants to sign attestations on the Attestations\r\n        // contract\r\n        //\r\n        //\r\n        address attestation;\r\n    }\r\n\r\n    struct SignerAuthorization {\r\n        bool started;\r\n        bool completed;\r\n    }\r\n\r\n    struct Account {\r\n        bool exists;\r\n        // [Deprecated] Each account may authorize signing keys to use for voting,\r\n        // validating or attestation. These keys may not be keys of other accounts,\r\n        // and may not be authorized by any other account for any purpose.\r\n        Signers signers;\r\n        // The address at which the account expects to receive transfers. If it's empty/0x0, the\r\n        // account indicates that an address exchange should be initiated with the dataEncryptionKey\r\n        address walletAddress;\r\n        // An optional human readable identifier for the account\r\n        string name;\r\n        // The ECDSA public key used to encrypt and decrypt data for this account\r\n        bytes dataEncryptionKey;\r\n        // The URL under which an account adds metadata and claims\r\n        string metadataURL;\r\n    }\r\n\r\n    mapping(address => Account) internal accounts;\r\n    // Maps authorized signers to the account that provided the authorization.\r\n    mapping(address => address) public authorizedBy;\r\n    // Default signers by account (replaces the legacy Signers struct on Account)\r\n    mapping(address => mapping(bytes32 => address)) defaultSigners;\r\n    // All signers and their roles for a given account\r\n    // solhint-disable-next-line max-line-length\r\n    mapping(address => mapping(bytes32 => mapping(address => SignerAuthorization))) signerAuthorizations;\r\n\r\n    bytes32 public constant EIP712_AUTHORIZE_SIGNER_TYPEHASH = keccak256(\r\n        \"AuthorizeSigner(address account,address signer,bytes32 role)\"\r\n    );\r\n    bytes32 public eip712DomainSeparator;\r\n\r\n    bytes32 constant ValidatorSigner = keccak256(abi.encodePacked(\"celo.org/core/validator\"));\r\n    bytes32 constant AttestationSigner = keccak256(abi.encodePacked(\"celo.org/core/attestation\"));\r\n    bytes32 constant VoteSigner = keccak256(abi.encodePacked(\"celo.org/core/vote\"));\r\n\r\n\r\n\r\n    /**\r\n     * @notice Sets initialized == true on implementation contracts\r\n     * @param test Set to true to skip implementation initialization\r\n     */\r\n    constructor(bool test) public Initializable(test) {}\r\n\r\n    /**\r\n     * @notice Returns the storage, major, minor, and patch version of the contract.\r\n     * @return The storage, major, minor, and patch version of the contract.\r\n     */\r\n    function getVersionNumber() external pure returns (uint256, uint256, uint256, uint256) {\r\n        return (1, 1, 2, 1);\r\n    }\r\n\r\n    /**\r\n     * @notice Used in place of the constructor to allow the contract to be upgradable via proxy.\r\n     * @param registryAddress The address of the registry core smart contract.\r\n     */\r\n    function initialize(address registryAddress) external initializer {\r\n        _transferOwnership(msg.sender);\r\n        setRegistry(registryAddress);\r\n        setEip712DomainSeparator();\r\n    }\r\n\r\n    /**\r\n     * @notice Sets the EIP712 domain separator for the Celo Accounts abstraction.\r\n     */\r\n    function setEip712DomainSeparator() public {\r\n        uint256 chainId;\r\n        chainId = 211;\r\n        eip712DomainSeparator = keccak256(\r\n            abi.encode(\r\n                keccak256(\r\n                    \"EIP712Domain(string name,string version,uint256 chainId,address verifyingContract)\"\r\n                ),\r\n                keccak256(bytes(\"Celo Core Contracts\")),\r\n                keccak256(\"1.0\"),\r\n                chainId,\r\n                address(this)\r\n            )\r\n        );\r\n    }\r\n\r\n\r\n    //-----------------------\r\n    function setAccount(\r\n        string calldata name,\r\n        bytes calldata dataEncryptionKey,\r\n        address walletAddress,\r\n        uint8 v,\r\n        bytes32 r,\r\n        bytes32 s\r\n    ) external {\r\n        if (!isAccount(msg.sender)) {\r\n            createAccount();\r\n        }\r\n        setName(name);\r\n        setAccountDataEncryptionKey(dataEncryptionKey);\r\n        setWalletAddress(walletAddress, v, r, s);\r\n    }\r\n\r\n    /**\r\n     * @notice Creates an account.\r\n     * @return True if account creation succeeded.\r\n     */\r\n    //-------------------------------\r\n    function createAccount() public returns (bool) {\r\n//        require(isNotAccount(msg.sender), \"Account exists\");\r\n        Account storage account = accounts[msg.sender];\r\n        account.exists = true;\r\n        return true;\r\n    }\r\n\r\n    /**\r\n     * @notice Setter for the name of an account.\r\n     * @param name The name to set.\r\n     */\r\n    //-----------------------------------\r\n    function setName(string memory name) public {\r\n        require(isAccount(msg.sender), \"Unknown account\");\r\n        Account storage account = accounts[msg.sender];\r\n        account.name = name;\r\n    }\r\n\r\n\r\n    //----------------\r\n    function setWalletAddress(address walletAddress, uint8 v, bytes32 r, bytes32 s) public {\r\n        require(isAccount(msg.sender), \"Unknown account\");\r\n        if (!(walletAddress == msg.sender || walletAddress == address(0x0))) {\r\n            address signer = Signatures.getSignerOfAddress(msg.sender, v, r, s);\r\n            require(signer == walletAddress, \"Invalid signature\");\r\n        }\r\n        Account storage account = accounts[msg.sender];\r\n        account.walletAddress = walletAddress;\r\n    }\r\n\r\n\r\n    //---------------------\r\n    function setAccountDataEncryptionKey(bytes memory dataEncryptionKey) public {\r\n        require(dataEncryptionKey.length >= 33, \"data encryption key length <= 32\");\r\n        Account storage account = accounts[msg.sender];\r\n        account.dataEncryptionKey = dataEncryptionKey;\r\n    }\r\n\r\n\r\n    function getName(address account) external view returns (string memory) {\r\n        return accounts[account].name;\r\n    }\r\n\r\n    function getDataEncryptionKey(address account) external view returns (bytes memory) {\r\n        return accounts[account].dataEncryptionKey;\r\n    }\r\n\r\n\r\n    function getWalletAddress(address account) external view returns (address) {\r\n        return accounts[account].walletAddress;\r\n    }\r\n\r\n\r\n    //---------------------------\r\n    function isAccount(address account) public view returns (bool) {\r\n        return (accounts[account].exists);\r\n    }\r\n\r\n\r\n    // ----------------------\r\n    function isNotAccount(address account) internal view returns (bool) {\r\n        return (!accounts[account].exists);\r\n    }\r\n\r\n    function validatorSignerToAccount(address signer) public view returns (address) {\r\n        return signerToAccountWithRole(signer, ValidatorSigner);\r\n    }\r\n\r\n    function signerToAccountWithRole(address signer, bytes32 role) internal view returns (address) {\r\n        return signer;\r\n    }\r\n\r\n    function isSigner(address account, address signer, bytes32 role) public view returns (bool) {\r\n        return\r\n        isLegacySigner(account, signer, role) ||\r\n        (signerAuthorizations[account][role][signer].completed && authorizedBy[signer] == account);\r\n    }\r\n    //Legacy \r\n    function isLegacySigner(address _account, address signer, bytes32 role)\r\n    public\r\n    view\r\n    returns (bool)\r\n    {\r\n        return true;\r\n    }\r\n\r\n\r\n\r\n}\r\n",
  "sourcePath": "D:\\work\\zhangwei812\\mySolidity\\mySolidity\\contracts\\Accounts.sol",
  "compiler": {
    "name": "solc",
    "version": "0.5.16+commit.9c3226ce.Emscripten.clang"
  },
  "schemaVersion": "3.4.3",
  "updatedAt": "2021-11-10T05:01:33.798Z",
  "devdoc": {
    "methods": {
      "constructor": {
        "params": {
          "test": "Set to true to skip implementation initialization"
        }
      },
      "createAccount()": {
        "return": "True if account creation succeeded."
      },
      "getVersionNumber()": {
        "return": "The storage, major, minor, and patch version of the contract."
      },
      "initialize(address)": {
        "params": {
          "registryAddress": "The address of the registry core smart contract."
        }
      },
      "isOwner()": {
        "details": "Returns true if the caller is the current owner."
      },
      "owner()": {
        "details": "Returns the address of the current owner."
      },
      "renounceOwnership()": {
        "details": "Leaves the contract without owner. It will not be possible to call `onlyOwner` functions anymore. Can only be called by the current owner.     * NOTE: Renouncing ownership will leave the contract without an owner, thereby removing any functionality that is only available to the owner."
      },
      "setName(string)": {
        "params": {
          "name": "The name to set."
        }
      },
      "setRegistry(address)": {
        "params": {
          "registryAddress": "The address of a registry contract for routing to other contracts."
        }
      },
      "transferOwnership(address)": {
        "details": "Transfers ownership of the contract to a new account (`newOwner`). Can only be called by the current owner."
      }
    }
  },
  "userdoc": {
    "methods": {
      "constructor": "Sets initialized == true on implementation contracts",
      "createAccount()": {
        "notice": "Creates an account."
      },
      "getVersionNumber()": {
        "notice": "Returns the storage, major, minor, and patch version of the contract."
      },
      "initialize(address)": {
        "notice": "Used in place of the constructor to allow the contract to be upgradable via proxy."
      },
      "setEip712DomainSeparator()": {
        "notice": "Sets the EIP712 domain separator for the Celo Accounts abstraction."
      },
      "setName(string)": {
        "notice": "Setter for the name of an account."
      },
      "setRegistry(address)": {
        "notice": "Updates the address pointing to a Registry contract."
      }
    }
  }
}