{
  "contractName": "AddressLinkedList",
  "abi": [
    {
      "constant": true,
      "inputs": [
        {
          "internalType": "address",
          "name": "a",
          "type": "address"
        }
      ],
      "name": "toBytes",
      "outputs": [
        {
          "internalType": "bytes32",
          "name": "",
          "type": "bytes32"
        }
      ],
      "payable": false,
      "stateMutability": "pure",
      "type": "function"
    },
    {
      "constant": true,
      "inputs": [
        {
          "internalType": "bytes32",
          "name": "b",
          "type": "bytes32"
        }
      ],
      "name": "toAddress",
      "outputs": [
        {
          "internalType": "address",
          "name": "",
          "type": "address"
        }
      ],
      "payable": false,
      "stateMutability": "pure",
      "type": "function"
    }
  ],
  "bytecode": "0x61118a610026600b82828239805160001a60731461001957fe5b30600052607381538281f3fe730000000000000000000000000000000000000000301460806040526004361061009d5760003560e01c8063593b79fe11610070578063593b79fe1461026c578063b1cfea43146102c4578063b2f8fe9614610351578063e2c0c56a146103ec578063fe3c7a8e146104475761009d565b806307debf7c146100a257806326afac491461013d578063341f662314610198578063542424fb14610206575b600080fd5b8180156100ae57600080fd5b5061013b600480360360808110156100c557600080fd5b8101908080359060200190929190803573ffffffffffffffffffffffffffffffffffffffff169060200190929190803573ffffffffffffffffffffffffffffffffffffffff169060200190929190803573ffffffffffffffffffffffffffffffffffffffff1690602001909291905050506104ca565b005b81801561014957600080fd5b506101966004803603604081101561016057600080fd5b8101908080359060200190929190803573ffffffffffffffffffffffffffffffffffffffff1690602001909291905050506104ff565b005b6101c4600480360360208110156101ae57600080fd5b8101908080359060200190929190505050610528565b604051808273ffffffffffffffffffffffffffffffffffffffff1673ffffffffffffffffffffffffffffffffffffffff16815260200191505060405180910390f35b6102526004803603604081101561021c57600080fd5b8101908080359060200190929190803573ffffffffffffffffffffffffffffffffffffffff169060200190929190505050610539565b604051808215151515815260200191505060405180910390f35b6102ae6004803603602081101561028257600080fd5b81019080803573ffffffffffffffffffffffffffffffffffffffff169060200190929190505050610571565b6040518082815260200191505060405180910390f35b6102fa600480360360408110156102da57600080fd5b810190808035906020019092919080359060200190929190505050610598565b6040518080602001828103825283818151815260200191508051906020019060200280838360005b8381101561033d578082015181840152602081019050610322565b505050509050019250505060405180910390f35b81801561035d57600080fd5b506103ea6004803603608081101561037457600080fd5b8101908080359060200190929190803573ffffffffffffffffffffffffffffffffffffffff169060200190929190803573ffffffffffffffffffffffffffffffffffffffff169060200190929190803573ffffffffffffffffffffffffffffffffffffffff16906020019092919050505061067b565b005b8180156103f857600080fd5b506104456004803603604081101561040f57600080fd5b8101908080359060200190929190803573ffffffffffffffffffffffffffffffffffffffff1690602001909291905050506106b0565b005b6104736004803603602081101561045d57600080fd5b81019080803590602001909291905050506106cf565b6040518080602001828103825283818151815260200191508051906020019060200280838360005b838110156104b657808201518184015260208101905061049b565b505050509050019250505060405180910390f35b6104f96104d684610571565b6104df84610571565b6104e884610571565b876106e6909392919063ffffffff16565b50505050565b61052461050b82610571565b6000801b6000801b856106e6909392919063ffffffff16565b5050565b600060608260001c901c9050919050565b600082600301600061054a84610571565b815260200190815260200160002060020160009054906101000a900460ff16905092915050565b600060608273ffffffffffffffffffffffffffffffffffffffff16901b60001b9050919050565b6060806105ae8385610b2d90919063ffffffff16565b90506060836040519080825280602002602001820160405280156105e15781602001602082028038833980820191505090505b50905060008090505b8481101561066f5761060e83828151811061060157fe5b6020026020010151610528565b82828151811061061a57fe5b602002602001019073ffffffffffffffffffffffffffffffffffffffff16908173ffffffffffffffffffffffffffffffffffffffff1681525050610668600182610c4f90919063ffffffff16565b90506105ea565b50809250505092915050565b6106aa61068784610571565b61069084610571565b61069984610571565b87610cd7909392919063ffffffff16565b50505050565b6106cb6106bc82610571565b83610d9690919063ffffffff16565b5050565b60606106df828360020154610598565b9050919050565b6000801b83141561075f576040517f08c379a00000000000000000000000000000000000000000000000000000000081526004018080602001828103825260138152602001807f4b6579206d75737420626520646566696e65640000000000000000000000000081525060200191505060405180910390fd5b6107698484610f33565b156107dc576040517f08c379a00000000000000000000000000000000000000000000000000000000081526004018080602001828103825260208152602001807f43616e277420696e7365727420616e206578697374696e6720656c656d656e7481525060200191505060405180910390fd5b8282141580156107ec5750828114155b610841576040517f08c379a000000000000000000000000000000000000000000000000000000000815260040180806020018281038252603081526020018061106e6030913960400191505060405180910390fd5b6000846003016000858152602001908152602001600020905060018160020160006101000a81548160ff02191690831515021790555060008560020154141561089b57838560010181905550838560000181905550610b06565b6000801b831415806108b057506000801b8214155b610905576040517f08c379a000000000000000000000000000000000000000000000000000000000815260040180806020018281038252602d815260200180611129602d913960400191505060405180910390fd5b8281600001819055508181600101819055506000801b8314610a045761092b8584610f33565b610980576040517f08c379a00000000000000000000000000000000000000000000000000000000081526004018080602001828103825260348152602001806110c56034913960400191505060405180910390fd5b60008560030160008581526020019081526020016000209050828160010154146109f5576040517f08c379a000000000000000000000000000000000000000000000000000000000815260040180806020018281038252602781526020018061109e6027913960400191505060405180910390fd5b84816001018190555050610a0e565b8385600101819055505b6000801b8214610afb57610a228583610f33565b610a77576040517f08c379a00000000000000000000000000000000000000000000000000000000081526004018080602001828103825260308152602001806110f96030913960400191505060405180910390fd5b6000856003016000848152602001908152602001600020905083816000015414610aec576040517f08c379a000000000000000000000000000000000000000000000000000000000815260040180806020018281038252602781526020018061109e6027913960400191505060405180910390fd5b84816000018190555050610b05565b8385600001819055505b5b610b1e60018660020154610c4f90919063ffffffff16565b85600201819055505050505050565b60608260020154821115610ba9576040517f08c379a00000000000000000000000000000000000000000000000000000000081526004018080602001828103825260138152602001807f6e6f7420656e6f75676820656c656d656e74730000000000000000000000000081525060200191505060405180910390fd5b606082604051908082528060200260200182016040528015610bda5781602001602082028038833980820191505090505b50905060008460000154905060008090505b84811015610c435781838281518110610c0157fe5b602002602001018181525050856003016000838152602001908152602001600020600001549150610c3c600182610c4f90919063ffffffff16565b9050610bec565b50819250505092915050565b600080828401905083811015610ccd576040517f08c379a000000000000000000000000000000000000000000000000000000000815260040180806020018281038252601b8152602001807f536166654d6174683a206164646974696f6e206f766572666c6f77000000000081525060200191505060405180910390fd5b8091505092915050565b6000801b8314158015610cea5750818314155b8015610cf65750808314155b8015610d085750610d078484610f33565b5b610d7a576040517f08c379a000000000000000000000000000000000000000000000000000000000815260040180806020018281038252600e8152602001807f6b6579206f6e20696e206c69737400000000000000000000000000000000000081525060200191505060405180910390fd5b610d848484610d96565b610d90848484846106e6565b50505050565b600082600301600083815260200190815260200160002090506000801b8214158015610dc85750610dc78383610f33565b5b610e3a576040517f08c379a000000000000000000000000000000000000000000000000000000000815260040180806020018281038252600f8152602001807f6b6579206e6f7420696e206c697374000000000000000000000000000000000081525060200191505060405180910390fd5b6000801b816000015414610e785760008360030160008360000154815260200190815260200160002090508160010154816001018190555050610e86565b806001015483600101819055505b6000801b816001015414610ec45760008360030160008360010154815260200190815260200160002090508160000154816000018190555050610ed2565b806000015483600001819055505b82600301600083815260200190815260200160002060008082016000905560018201600090556002820160006101000a81549060ff02191690555050610f2660018460020154610f6390919063ffffffff16565b8360020181905550505050565b600082600301600083815260200190815260200160002060020160009054906101000a900460ff16905092915050565b6000610fa583836040518060400160405280601e81526020017f536166654d6174683a207375627472616374696f6e206f766572666c6f770000815250610fad565b905092915050565b600083831115829061105a576040517f08c379a00000000000000000000000000000000000000000000000000000000081526004018080602001828103825283818151815260200191508051906020019080838360005b8381101561101f578082015181840152602081019050611004565b50505050905090810190601f16801561104c5780820380516001836020036101000a031916815260200191505b509250505060405180910390fd5b506000838503905080915050939250505056fe4b65792063616e6e6f74206265207468652073616d652061732070726576696f75734b6579206f72206e6578744b657970726576696f75734b6579206d7573742062652061646a6163656e7420746f206e6578744b657949662070726576696f75734b657920697320646566696e65642c206974206d75737420657869737420696e20746865206c6973744966206e6578744b657920697320646566696e65642c206974206d75737420657869737420696e20746865206c6973744569746865722070726576696f75734b6579206f72206e6578744b6579206d75737420626520646566696e6564a265627a7a7231582031a0e21c48a444aa9a516940466a721a13a02d36291898e7995a9270ca33e77964736f6c63430005100032",
  "source": "pragma solidity ^0.5.13;\r\n\r\nimport \"./openzeppelin-solidity/contracts/math/SafeMath.sol\";\r\n\r\nimport \"./LinkedList.sol\";\r\n\r\n/**\r\n * @title Maintains a doubly linked list keyed by address.\r\n * @dev Following the `next` pointers will lead you to the head, rather than the tail.\r\n */\r\nlibrary AddressLinkedList {\r\n  using LinkedList for LinkedList.List;\r\n  using SafeMath for uint256;\r\n\r\n  function toBytes(address a) public pure returns (bytes32) {\r\n    return bytes32(uint256(a) << 96);\r\n  }\r\n\r\n  function toAddress(bytes32 b) public pure returns (address) {\r\n    return address(uint256(b) >> 96);\r\n  }\r\n\r\n  /**\r\n   * @notice Inserts an element into a doubly linked list.\r\n   * @param list A storage pointer to the underlying list.\r\n   * @param key The key of the element to insert.\r\n   * @param previousKey The key of the element that comes before the element to insert.\r\n   * @param nextKey The key of the element that comes after the element to insert.\r\n   */\r\n  function insert(LinkedList.List storage list, address key, address previousKey, address nextKey)\r\n    public\r\n  {\r\n    list.insert(toBytes(key), toBytes(previousKey), toBytes(nextKey));\r\n  }\r\n\r\n  /**\r\n   * @notice Inserts an element at the end of the doubly linked list.\r\n   * @param list A storage pointer to the underlying list.\r\n   * @param key The key of the element to insert.\r\n   */\r\n  function push(LinkedList.List storage list, address key) public {\r\n    list.insert(toBytes(key), bytes32(0),  bytes32(0));\r\n  }\r\n\r\n  /**\r\n   * @notice Removes an element from the doubly linked list.\r\n   * @param list A storage pointer to the underlying list.\r\n   * @param key The key of the element to remove.\r\n   */\r\n  function remove(LinkedList.List storage list, address key) public {\r\n    list.remove(toBytes(key));\r\n  }\r\n\r\n  /**\r\n   * @notice Updates an element in the list.\r\n   * @param list A storage pointer to the underlying list.\r\n   * @param key The element key.\r\n   * @param previousKey The key of the element that comes before the updated element.\r\n   * @param nextKey The key of the element that comes after the updated element.\r\n   */\r\n  function update(LinkedList.List storage list, address key, address previousKey, address nextKey)\r\n    public\r\n  {\r\n    list.update(toBytes(key), toBytes(previousKey), toBytes(nextKey));\r\n  }\r\n\r\n  /**\r\n   * @notice Returns whether or not a particular key is present in the sorted list.\r\n   * @param list A storage pointer to the underlying list.\r\n   * @param key The element key.\r\n   * @return Whether or not the key is in the sorted list.\r\n   */\r\n  function contains(LinkedList.List storage list, address key) public view returns (bool) {\r\n    return list.elements[toBytes(key)].exists;\r\n  }\r\n\r\n  /**\r\n   * @notice Returns the N greatest elements of the list.\r\n   * @param list A storage pointer to the underlying list.\r\n   * @param n The number of elements to return.\r\n   * @return The keys of the greatest elements.\r\n   * @dev Reverts if n is greater than the number of elements in the list.\r\n   */\r\n  function headN(LinkedList.List storage list, uint256 n) public view returns (address[] memory) {\r\n    bytes32[] memory byteKeys = list.headN(n);\r\n    address[] memory keys = new address[](n);\r\n    for (uint256 i = 0; i < n; i = i.add(1)) {\r\n      keys[i] = toAddress(byteKeys[i]);\r\n    }\r\n    return keys;\r\n  }\r\n\r\n  /**\r\n   * @notice Gets all element keys from the doubly linked list.\r\n   * @param list A storage pointer to the underlying list.\r\n   * @return All element keys from head to tail.\r\n   */\r\n  function getKeys(LinkedList.List storage list) public view returns (address[] memory) {\r\n    return headN(list, list.numElements);\r\n  }\r\n}\r\n",
  "sourcePath": "D:\\work\\zhangwei812\\mySolidity\\mySolidity\\contracts\\AddressLinkedList.sol",
  "compiler": {
    "name": "solc",
    "version": "0.5.16+commit.9c3226ce.Emscripten.clang"
  },
  "schemaVersion": "3.4.3",
  "updatedAt": "2021-11-08T11:10:16.873Z",
  "devdoc": {
    "details": "Following the `next` pointers will lead you to the head, rather than the tail.",
    "methods": {
      "contains(LinkedList.List storage,address)": {
        "params": {
          "key": "The element key.",
          "list": "A storage pointer to the underlying list."
        },
        "return": "Whether or not the key is in the sorted list."
      },
      "getKeys(LinkedList.List storage)": {
        "params": {
          "list": "A storage pointer to the underlying list."
        },
        "return": "All element keys from head to tail."
      },
      "headN(LinkedList.List storage,uint256)": {
        "details": "Reverts if n is greater than the number of elements in the list.",
        "params": {
          "list": "A storage pointer to the underlying list.",
          "n": "The number of elements to return."
        },
        "return": "The keys of the greatest elements."
      },
      "insert(LinkedList.List storage,address,address,address)": {
        "params": {
          "key": "The key of the element to insert.",
          "list": "A storage pointer to the underlying list.",
          "nextKey": "The key of the element that comes after the element to insert.",
          "previousKey": "The key of the element that comes before the element to insert."
        }
      },
      "push(LinkedList.List storage,address)": {
        "params": {
          "key": "The key of the element to insert.",
          "list": "A storage pointer to the underlying list."
        }
      },
      "remove(LinkedList.List storage,address)": {
        "params": {
          "key": "The key of the element to remove.",
          "list": "A storage pointer to the underlying list."
        }
      },
      "update(LinkedList.List storage,address,address,address)": {
        "params": {
          "key": "The element key.",
          "list": "A storage pointer to the underlying list.",
          "nextKey": "The key of the element that comes after the updated element.",
          "previousKey": "The key of the element that comes before the updated element."
        }
      }
    },
    "title": "Maintains a doubly linked list keyed by address."
  },
  "userdoc": {
    "methods": {
      "contains(LinkedList.List storage,address)": {
        "notice": "Returns whether or not a particular key is present in the sorted list."
      },
      "getKeys(LinkedList.List storage)": {
        "notice": "Gets all element keys from the doubly linked list."
      },
      "headN(LinkedList.List storage,uint256)": {
        "notice": "Returns the N greatest elements of the list."
      },
      "insert(LinkedList.List storage,address,address,address)": {
        "notice": "Inserts an element into a doubly linked list."
      },
      "push(LinkedList.List storage,address)": {
        "notice": "Inserts an element at the end of the doubly linked list."
      },
      "remove(LinkedList.List storage,address)": {
        "notice": "Removes an element from the doubly linked list."
      },
      "update(LinkedList.List storage,address,address,address)": {
        "notice": "Updates an element in the list."
      }
    }
  }
}