{
  "contractName": "Election",
  "abi": [
    {
      "inputs": [
        {
          "internalType": "bool",
          "name": "test",
          "type": "bool"
        }
      ],
      "payable": false,
      "stateMutability": "nonpayable",
      "type": "constructor"
    },
    {
      "anonymous": false,
      "inputs": [
        {
          "indexed": false,
          "internalType": "string",
          "name": "",
          "type": "string"
        },
        {
          "indexed": false,
          "internalType": "address",
          "name": "",
          "type": "address"
        }
      ],
      "name": "LogAddress",
      "type": "event"
    },
    {
      "anonymous": false,
      "inputs": [
        {
          "indexed": false,
          "internalType": "string",
          "name": "",
          "type": "string"
        },
        {
          "indexed": false,
          "internalType": "bool",
          "name": "",
          "type": "bool"
        }
      ],
      "name": "LogBool",
      "type": "event"
    },
    {
      "anonymous": false,
      "inputs": [
        {
          "indexed": false,
          "internalType": "string",
          "name": "",
          "type": "string"
        },
        {
          "indexed": false,
          "internalType": "bytes",
          "name": "",
          "type": "bytes"
        }
      ],
      "name": "LogBytes",
      "type": "event"
    },
    {
      "anonymous": false,
      "inputs": [
        {
          "indexed": false,
          "internalType": "string",
          "name": "",
          "type": "string"
        },
        {
          "indexed": false,
          "internalType": "bytes32",
          "name": "",
          "type": "bytes32"
        }
      ],
      "name": "LogBytes32",
      "type": "event"
    },
    {
      "anonymous": false,
      "inputs": [
        {
          "indexed": false,
          "internalType": "string",
          "name": "",
          "type": "string"
        },
        {
          "indexed": false,
          "internalType": "int256",
          "name": "",
          "type": "int256"
        }
      ],
      "name": "LogInt",
      "type": "event"
    },
    {
      "anonymous": false,
      "inputs": [
        {
          "indexed": false,
          "internalType": "string",
          "name": "",
          "type": "string"
        },
        {
          "indexed": false,
          "internalType": "uint256",
          "name": "",
          "type": "uint256"
        }
      ],
      "name": "LogUint",
      "type": "event"
    },
    {
      "anonymous": false,
      "inputs": [
        {
          "indexed": true,
          "internalType": "address",
          "name": "previousOwner",
          "type": "address"
        },
        {
          "indexed": true,
          "internalType": "address",
          "name": "newOwner",
          "type": "address"
        }
      ],
      "name": "OwnershipTransferred",
      "type": "event"
    },
    {
      "anonymous": false,
      "inputs": [
        {
          "indexed": true,
          "internalType": "address",
          "name": "registryAddress",
          "type": "address"
        }
      ],
      "name": "RegistrySet",
      "type": "event"
    },
    {
      "constant": true,
      "inputs": [],
      "name": "Validators2",
      "outputs": [
        {
          "internalType": "contract IValidators2",
          "name": "",
          "type": "address"
        }
      ],
      "payable": false,
      "stateMutability": "view",
      "type": "function"
    },
    {
      "constant": true,
      "inputs": [],
      "name": "electabilityThreshold",
      "outputs": [
        {
          "internalType": "uint256",
          "name": "value",
          "type": "uint256"
        }
      ],
      "payable": false,
      "stateMutability": "view",
      "type": "function"
    },
    {
      "constant": true,
      "inputs": [],
      "name": "electableValidators",
      "outputs": [
        {
          "internalType": "uint256",
          "name": "min",
          "type": "uint256"
        },
        {
          "internalType": "uint256",
          "name": "max",
          "type": "uint256"
        }
      ],
      "payable": false,
      "stateMutability": "view",
      "type": "function"
    },
    {
      "constant": true,
      "inputs": [],
      "name": "getEpochNumber",
      "outputs": [
        {
          "internalType": "uint256",
          "name": "",
          "type": "uint256"
        }
      ],
      "payable": false,
      "stateMutability": "view",
      "type": "function"
    },
    {
      "constant": true,
      "inputs": [
        {
          "internalType": "uint256",
          "name": "blockNumber",
          "type": "uint256"
        }
      ],
      "name": "getEpochNumberOfBlock",
      "outputs": [
        {
          "internalType": "uint256",
          "name": "",
          "type": "uint256"
        }
      ],
      "payable": false,
      "stateMutability": "view",
      "type": "function"
    },
    {
      "constant": true,
      "inputs": [],
      "name": "getEpochSize",
      "outputs": [
        {
          "internalType": "uint256",
          "name": "",
          "type": "uint256"
        }
      ],
      "payable": false,
      "stateMutability": "view",
      "type": "function"
    },
    {
      "constant": true,
      "inputs": [],
      "name": "initialized",
      "outputs": [
        {
          "internalType": "bool",
          "name": "",
          "type": "bool"
        }
      ],
      "payable": false,
      "stateMutability": "view",
      "type": "function"
    },
    {
      "constant": true,
      "inputs": [],
      "name": "isOwner",
      "outputs": [
        {
          "internalType": "bool",
          "name": "",
          "type": "bool"
        }
      ],
      "payable": false,
      "stateMutability": "view",
      "type": "function"
    },
    {
      "constant": true,
      "inputs": [],
      "name": "maxNumGroupsVotedFor",
      "outputs": [
        {
          "internalType": "uint256",
          "name": "",
          "type": "uint256"
        }
      ],
      "payable": false,
      "stateMutability": "view",
      "type": "function"
    },
    {
      "constant": true,
      "inputs": [],
      "name": "owner",
      "outputs": [
        {
          "internalType": "address",
          "name": "",
          "type": "address"
        }
      ],
      "payable": false,
      "stateMutability": "view",
      "type": "function"
    },
    {
      "constant": true,
      "inputs": [],
      "name": "registry",
      "outputs": [
        {
          "internalType": "contract IRegistry",
          "name": "",
          "type": "address"
        }
      ],
      "payable": false,
      "stateMutability": "view",
      "type": "function"
    },
    {
      "constant": false,
      "inputs": [],
      "name": "renounceOwnership",
      "outputs": [],
      "payable": false,
      "stateMutability": "nonpayable",
      "type": "function"
    },
    {
      "constant": false,
      "inputs": [
        {
          "internalType": "address",
          "name": "registryAddress",
          "type": "address"
        }
      ],
      "name": "setRegistry",
      "outputs": [],
      "payable": false,
      "stateMutability": "nonpayable",
      "type": "function"
    },
    {
      "constant": false,
      "inputs": [
        {
          "internalType": "address",
          "name": "newOwner",
          "type": "address"
        }
      ],
      "name": "transferOwnership",
      "outputs": [],
      "payable": false,
      "stateMutability": "nonpayable",
      "type": "function"
    },
    {
      "constant": false,
      "inputs": [
        {
          "internalType": "address",
          "name": "registryAddress",
          "type": "address"
        }
      ],
      "name": "initialize",
      "outputs": [],
      "payable": false,
      "stateMutability": "nonpayable",
      "type": "function"
    },
    {
      "constant": false,
      "inputs": [
        {
          "internalType": "address",
          "name": "group",
          "type": "address"
        },
        {
          "internalType": "uint256",
          "name": "value",
          "type": "uint256"
        },
        {
          "internalType": "address",
          "name": "lesser",
          "type": "address"
        },
        {
          "internalType": "address",
          "name": "greater",
          "type": "address"
        }
      ],
      "name": "vote",
      "outputs": [
        {
          "internalType": "bool",
          "name": "",
          "type": "bool"
        }
      ],
      "payable": false,
      "stateMutability": "nonpayable",
      "type": "function"
    },
    {
      "constant": true,
      "inputs": [],
      "name": "getElectableValidators",
      "outputs": [
        {
          "internalType": "uint256",
          "name": "",
          "type": "uint256"
        },
        {
          "internalType": "uint256",
          "name": "",
          "type": "uint256"
        }
      ],
      "payable": false,
      "stateMutability": "view",
      "type": "function"
    },
    {
      "constant": false,
      "inputs": [
        {
          "internalType": "address",
          "name": "group",
          "type": "address"
        }
      ],
      "name": "electValidatorSigners",
      "outputs": [
        {
          "internalType": "address[]",
          "name": "",
          "type": "address[]"
        }
      ],
      "payable": false,
      "stateMutability": "nonpayable",
      "type": "function"
    },
    {
      "constant": true,
      "inputs": [
        {
          "internalType": "uint256",
          "name": "minElectableValidators",
          "type": "uint256"
        },
        {
          "internalType": "uint256",
          "name": "maxElectableValidators",
          "type": "uint256"
        }
      ],
      "name": "electNValidatorSigners",
      "outputs": [
        {
          "internalType": "address[]",
          "name": "",
          "type": "address[]"
        }
      ],
      "payable": false,
      "stateMutability": "view",
      "type": "function"
    },
    {
      "constant": true,
      "inputs": [],
      "name": "getTotalVotes",
      "outputs": [
        {
          "internalType": "uint256",
          "name": "",
          "type": "uint256"
        }
      ],
      "payable": false,
      "stateMutability": "view",
      "type": "function"
    },
    {
      "constant": false,
      "inputs": [
        {
          "internalType": "address",
          "name": "validators2",
          "type": "address"
        }
      ],
      "name": "setValidators2",
      "outputs": [],
      "payable": false,
      "stateMutability": "nonpayable",
      "type": "function"
    }
  ],
  "bytecode": "0x608060405234801561001057600080fd5b506040516116ac3803806116ac8339818101604052602081101561003357600080fd5b810190808051906020019092919050505080600061005561012260201b60201c565b9050806000806101000a81548173ffffffffffffffffffffffffffffffffffffffff021916908373ffffffffffffffffffffffffffffffffffffffff1602179055508073ffffffffffffffffffffffffffffffffffffffff16600073ffffffffffffffffffffffffffffffffffffffff167f8be0079c531659141344cd1fd0a4f28419497f9722a3daafe3b4186f6b6457e060405160405180910390a350600180819055508061011b576001600260006101000a81548160ff0219169083151502179055505b505061012a565b600033905090565b611573806101396000396000f3fe608060405234801561001057600080fd5b50600436106101375760003560e01c806390a4dd5c116100b8578063c4d66de81161007c578063c4d66de8146104dd578063d7a71cf814610521578063df4da461146105ba578063f2fde38b146105d8578063f9d7daae1461061c578063f9f41a7a1461064157610137565b806390a4dd5c146103b25780639a0e7d661461043f5780639a7b3be71461045d578063a91ee0dc1461047b578063ac839d69146104bf57610137565b8063715018a6116100ff578063715018a6146102a85780637b103999146102b257806383483e3c146102fc5780638da5cb5b146103465780638f32d59b1461039057610137565b8063158ef93e1461013c578063334f4ffc1461015e5780633b1eb4bf146101a25780634be8843b146101e4578063580d747a14610202575b600080fd5b610144610666565b604051808215151515815260200191505060405180910390f35b6101a06004803603602081101561017457600080fd5b81019080803573ffffffffffffffffffffffffffffffffffffffff169060200190929190505050610679565b005b6101ce600480360360208110156101b857600080fd5b81019080803590602001909291905050506106fc565b6040518082815260200191505060405180910390f35b6101ec610716565b6040518082815260200191505060405180910390f35b61028e6004803603608081101561021857600080fd5b81019080803573ffffffffffffffffffffffffffffffffffffffff16906020019092919080359060200190929190803573ffffffffffffffffffffffffffffffffffffffff169060200190929190803573ffffffffffffffffffffffffffffffffffffffff169060200190929190505050610722565b604051808215151515815260200191505060405180910390f35b6102b0610730565b005b6102ba610869565b604051808273ffffffffffffffffffffffffffffffffffffffff1673ffffffffffffffffffffffffffffffffffffffff16815260200191505060405180910390f35b61030461088f565b604051808273ffffffffffffffffffffffffffffffffffffffff1673ffffffffffffffffffffffffffffffffffffffff16815260200191505060405180910390f35b61034e6108b5565b604051808273ffffffffffffffffffffffffffffffffffffffff1673ffffffffffffffffffffffffffffffffffffffff16815260200191505060405180910390f35b6103986108de565b604051808215151515815260200191505060405180910390f35b6103e8600480360360408110156103c857600080fd5b81019080803590602001909291908035906020019092919050505061093c565b6040518080602001828103825283818151815260200191508051906020019060200280838360005b8381101561042b578082015181840152602081019050610410565b505050509050019250505060405180910390f35b610447610a68565b6040518082815260200191505060405180910390f35b610465610a92565b6040518082815260200191505060405180910390f35b6104bd6004803603602081101561049157600080fd5b81019080803573ffffffffffffffffffffffffffffffffffffffff169060200190929190505050610aa2565b005b6104c7610c46565b6040518082815260200191505060405180910390f35b61051f600480360360208110156104f357600080fd5b81019080803573ffffffffffffffffffffffffffffffffffffffff169060200190929190505050610c4c565b005b6105636004803603602081101561053757600080fd5b81019080803573ffffffffffffffffffffffffffffffffffffffff169060200190929190505050610cff565b6040518080602001828103825283818151815260200191508051906020019060200280838360005b838110156105a657808201518184015260208101905061058b565b505050509050019250505060405180910390f35b6105c2610e6e565b6040518082815260200191505060405180910390f35b61061a600480360360208110156105ee57600080fd5b81019080803573ffffffffffffffffffffffffffffffffffffffff169060200190929190505050610faa565b005b610624611030565b604051808381526020018281526020019250505060405180910390f35b610649611042565b604051808381526020018281526020019250505060405180910390f35b600260009054906101000a900460ff1681565b80600360006101000a81548173ffffffffffffffffffffffffffffffffffffffff021916908373ffffffffffffffffffffffffffffffffffffffff1602179055506106f96040518060400160405280600e81526020017f73657456616c696461746f72733200000000000000000000000000000000000081525082611050565b50565b600061070f8261070a610e6e565b611124565b9050919050565b60118060000154905081565b600060019050949350505050565b6107386108de565b6107aa576040517f08c379a00000000000000000000000000000000000000000000000000000000081526004018080602001828103825260208152602001807f4f776e61626c653a2063616c6c6572206973206e6f7420746865206f776e657281525060200191505060405180910390fd5b600073ffffffffffffffffffffffffffffffffffffffff166000809054906101000a900473ffffffffffffffffffffffffffffffffffffffff1673ffffffffffffffffffffffffffffffffffffffff167f8be0079c531659141344cd1fd0a4f28419497f9722a3daafe3b4186f6b6457e060405160405180910390a360008060006101000a81548173ffffffffffffffffffffffffffffffffffffffff021916908373ffffffffffffffffffffffffffffffffffffffff160217905550565b600260019054906101000a900473ffffffffffffffffffffffffffffffffffffffff1681565b600360009054906101000a900473ffffffffffffffffffffffffffffffffffffffff1681565b60008060009054906101000a900473ffffffffffffffffffffffffffffffffffffffff16905090565b60008060009054906101000a900473ffffffffffffffffffffffffffffffffffffffff1673ffffffffffffffffffffffffffffffffffffffff1661092061116c565b73ffffffffffffffffffffffffffffffffffffffff1614905090565b6060610946611174565b73ffffffffffffffffffffffffffffffffffffffff1663e8a454876040518163ffffffff1660e01b815260040160006040518083038186803b15801561098b57600080fd5b505afa15801561099f573d6000803e3d6000fd5b505050506040513d6000823e3d601f19601f8201168201806040525060208110156109c957600080fd5b81019080805160405193929190846401000000008211156109e957600080fd5b838201915060208201858111156109ff57600080fd5b8251866020820283011164010000000082111715610a1c57600080fd5b8083526020830192505050908051906020019060200280838360005b83811015610a53578082015181840152602081019050610a38565b50505050905001604052505050905092915050565b6000610a8d60046000016000015460046002016000015461126f90919063ffffffff16565b905090565b6000610a9d436106fc565b905090565b610aaa6108de565b610b1c576040517f08c379a00000000000000000000000000000000000000000000000000000000081526004018080602001828103825260208152602001807f4f776e61626c653a2063616c6c6572206973206e6f7420746865206f776e657281525060200191505060405180910390fd5b600073ffffffffffffffffffffffffffffffffffffffff168173ffffffffffffffffffffffffffffffffffffffff161415610bbf576040517f08c379a00000000000000000000000000000000000000000000000000000000081526004018080602001828103825260208152602001807f43616e6e6f7420726567697374657220746865206e756c6c206164647265737381525060200191505060405180910390fd5b80600260016101000a81548173ffffffffffffffffffffffffffffffffffffffff021916908373ffffffffffffffffffffffffffffffffffffffff1602179055508073ffffffffffffffffffffffffffffffffffffffff167f27fe5f0c1c3b1ed427cc63d0f05759ffdecf9aec9e18d31ef366fc8a6cb5dc3b60405160405180910390a250565b60105481565b600260009054906101000a900460ff1615610ccf576040517f08c379a000000000000000000000000000000000000000000000000000000000815260040180806020018281038252601c8152602001807f636f6e747261637420616c726561647920696e697469616c697a65640000000081525060200191505060405180910390fd5b6001600260006101000a81548160ff021916908315150217905550610cf3336112f7565b610cfc81610aa2565b50565b6060610d09611174565b73ffffffffffffffffffffffffffffffffffffffff1663104ad68183600e600101546040518363ffffffff1660e01b8152600401808373ffffffffffffffffffffffffffffffffffffffff1673ffffffffffffffffffffffffffffffffffffffff1681526020018281526020019250505060006040518083038186803b158015610d9257600080fd5b505afa158015610da6573d6000803e3d6000fd5b505050506040513d6000823e3d601f19601f820116820180604052506020811015610dd057600080fd5b8101908080516040519392919084640100000000821115610df057600080fd5b83820191506020820185811115610e0657600080fd5b8251866020820283011164010000000082111715610e2357600080fd5b8083526020830192505050908051906020019060200280838360005b83811015610e5a578082015181840152602081019050610e3f565b505050509050016040525050509050919050565b60006060600060f873ffffffffffffffffffffffffffffffffffffffff166040516020016040516020818303038152906040526040518082805190602001908083835b60208310610ed45780518252602082019150602081019050602083039250610eb1565b6001836020036101000a038019825116818451168082178552505050505050905001915050600060405180830381855afa9150503d8060008114610f34576040519150601f19603f3d011682016040523d82523d6000602084013e610f39565b606091505b50809350819250505080610f98576040517f08c379a000000000000000000000000000000000000000000000000000000000815260040180806020018281038252602581526020018061151a6025913960400191505060405180910390fd5b610fa382600061143b565b9250505090565b610fb26108de565b611024576040517f08c379a00000000000000000000000000000000000000000000000000000000081526004018080602001828103825260208152602001807f4f776e61626c653a2063616c6c6572206973206e6f7420746865206f776e657281525060200191505060405180910390fd5b61102d816112f7565b50565b600e8060000154908060010154905082565b600080600480915091509091565b7f62ddffe5b5108385f7a590f100e1ee414ad9551a31f089e64e82998440785e1e828260405180806020018373ffffffffffffffffffffffffffffffffffffffff1673ffffffffffffffffffffffffffffffffffffffff168152602001828103825284818151815260200191508051906020019080838360005b838110156110e55780820151818401526020810190506110ca565b50505050905090810190601f1680156111125780820380516001836020036101000a031916815260200191505b50935050505060405180910390a15050565b60008082848161113057fe5b049050600083858161113e57fe5b06141561114e5780915050611166565b61116260018261126f90919063ffffffff16565b9150505b92915050565b600033905090565b6000600260019054906101000a900473ffffffffffffffffffffffffffffffffffffffff1673ffffffffffffffffffffffffffffffffffffffff1663dcf0aaed60405160200180807f56616c696461746f727300000000000000000000000000000000000000000000815250600a019050604051602081830303815290604052805190602001206040518263ffffffff1660e01b81526004018082815260200191505060206040518083038186803b15801561122f57600080fd5b505afa158015611243573d6000803e3d6000fd5b505050506040513d602081101561125957600080fd5b8101908080519060200190929190505050905090565b6000808284019050838110156112ed576040517f08c379a000000000000000000000000000000000000000000000000000000000815260040180806020018281038252601b8152602001807f536166654d6174683a206164646974696f6e206f766572666c6f77000000000081525060200191505060405180910390fd5b8091505092915050565b600073ffffffffffffffffffffffffffffffffffffffff168173ffffffffffffffffffffffffffffffffffffffff16141561137d576040517f08c379a00000000000000000000000000000000000000000000000000000000081526004018080602001828103825260268152602001806114f46026913960400191505060405180910390fd5b8073ffffffffffffffffffffffffffffffffffffffff166000809054906101000a900473ffffffffffffffffffffffffffffffffffffffff1673ffffffffffffffffffffffffffffffffffffffff167f8be0079c531659141344cd1fd0a4f28419497f9722a3daafe3b4186f6b6457e060405160405180910390a3806000806101000a81548173ffffffffffffffffffffffffffffffffffffffff021916908373ffffffffffffffffffffffffffffffffffffffff16021790555050565b60006114478383611452565b60001c905092915050565b600061146860208361126f90919063ffffffff16565b835110156114de576040517f08c379a00000000000000000000000000000000000000000000000000000000081526004018080602001828103825260148152602001807f736c6963696e67206f7574206f662072616e676500000000000000000000000081525060200191505060405180910390fd5b6000602083018401519050809150509291505056fe4f776e61626c653a206e6577206f776e657220697320746865207a65726f20616464726573736572726f722063616c6c696e672067657445706f636853697a6520707265636f6d70696c65a265627a7a723158206efd187c33e658e4bb59608ab199eef2894c2e8c83122ff9f101696932ae98a564736f6c63430005100032",
  "source": "pragma solidity ^0.5.13;\r\n\r\nimport \"./openzeppelin-solidity/contracts/math/Math.sol\";\r\nimport \"./openzeppelin-solidity/contracts/math/SafeMath.sol\";\r\nimport \"./openzeppelin-solidity/contracts/ownership/Ownable.sol\";\r\nimport \"./IValidators.sol\";\r\nimport \"./Initializable.sol\";\r\nimport \"./FixidityLib.sol\";\r\nimport \"./Heap.sol\";\r\nimport \"./ReentrancyGuard.sol\";\r\nimport \"./IAccounts.sol\";\r\nimport \"./IRegistry.sol\";\r\nimport \"./ILockedGold.sol\";\r\nimport \"./SortedLinkedList.sol\";\r\n\r\nimport \"./Console.sol\";\r\nimport \"./IValidators2.sol\";\r\n\r\nlibrary AddressSortedLinkedList {\r\n    using SafeMath for uint256;\r\n    using SortedLinkedList for SortedLinkedList.List;\r\n\r\n    function toBytes(address a) public pure returns (bytes32) {\r\n        return bytes32(uint256(a) << 96);\r\n    }\r\n\r\n    function toAddress(bytes32 b) public pure returns (address) {\r\n        return address(uint256(b) >> 96);\r\n    }\r\n\r\n    /**\r\n     * @notice Inserts an element into a doubly linked list.\r\n     * @param list A storage pointer to the underlying list.\r\n     * @param key The key of the element to insert.\r\n     * @param value The element value.\r\n     * @param lesserKey The key of the element less than the element to insert.\r\n     * @param greaterKey The key of the element greater than the element to insert.\r\n     */\r\n    function insert(\r\n        SortedLinkedList.List storage list,\r\n        address key,\r\n        uint256 value,\r\n        address lesserKey,\r\n        address greaterKey\r\n    ) public {\r\n        list.insert(toBytes(key), value, toBytes(lesserKey), toBytes(greaterKey));\r\n    }\r\n\r\n    /**\r\n     * @notice Removes an element from the doubly linked list.\r\n     * @param list A storage pointer to the underlying list.\r\n     * @param key The key of the element to remove.\r\n     */\r\n    function remove(SortedLinkedList.List storage list, address key) public {\r\n        list.remove(toBytes(key));\r\n    }\r\n\r\n    /**\r\n     * @notice Updates an element in the list.\r\n     * @param list A storage pointer to the underlying list.\r\n     * @param key The element key.\r\n     * @param value The element value.\r\n     * @param lesserKey The key of the element will be just left of `key` after the update.\r\n     * @param greaterKey The key of the element will be just right of `key` after the update.\r\n     * @dev Note that only one of \"lesserKey\" or \"greaterKey\" needs to be correct to reduce friction.\r\n     */\r\n    function update(\r\n        SortedLinkedList.List storage list,\r\n        address key,\r\n        uint256 value,\r\n        address lesserKey,\r\n        address greaterKey\r\n    ) public {\r\n        list.update(toBytes(key), value, toBytes(lesserKey), toBytes(greaterKey));\r\n    }\r\n\r\n    /**\r\n     * @notice Returns whether or not a particular key is present in the sorted list.\r\n     * @param list A storage pointer to the underlying list.\r\n     * @param key The element key.\r\n     * @return Whether or not the key is in the sorted list.\r\n     */\r\n    function contains(SortedLinkedList.List storage list, address key) public view returns (bool) {\r\n        return list.contains(toBytes(key));\r\n    }\r\n\r\n    /**\r\n     * @notice Returns the value for a particular key in the sorted list.\r\n     * @param list A storage pointer to the underlying list.\r\n     * @param key The element key.\r\n     * @return The element value.\r\n     */\r\n    function getValue(SortedLinkedList.List storage list, address key) public view returns (uint256) {\r\n        return list.getValue(toBytes(key));\r\n    }\r\n\r\n    /**\r\n     * @notice Gets all elements from the doubly linked list.\r\n     * @return An unpacked list of elements from largest to smallest.\r\n     */\r\n    function getElements(SortedLinkedList.List storage list)\r\n    public\r\n    view\r\n    returns (address[] memory, uint256[] memory)\r\n    {\r\n        bytes32[] memory byteKeys = list.getKeys();\r\n        address[] memory keys = new address[](byteKeys.length);\r\n        uint256[] memory values = new uint256[](byteKeys.length);\r\n        for (uint256 i = 0; i < byteKeys.length; i = i.add(1)) {\r\n            keys[i] = toAddress(byteKeys[i]);\r\n            values[i] = list.values[byteKeys[i]];\r\n        }\r\n        return (keys, values);\r\n    }\r\n\r\n    /**\r\n     * @notice Returns the minimum of `max` and the  number of elements in the list > threshold.\r\n     * @param list A storage pointer to the underlying list.\r\n     * @param threshold The number that the element must exceed to be included.\r\n     * @param max The maximum number returned by this function.\r\n     * @return The minimum of `max` and the  number of elements in the list > threshold.\r\n     */\r\n    function numElementsGreaterThan(\r\n        SortedLinkedList.List storage list,\r\n        uint256 threshold,\r\n        uint256 max\r\n    ) public view returns (uint256) {\r\n        uint256 revisedMax = Math.min(max, list.list.numElements);\r\n        bytes32 key = list.list.head;\r\n        for (uint256 i = 0; i < revisedMax; i = i.add(1)) {\r\n            if (list.getValue(key) < threshold) {\r\n                return i;\r\n            }\r\n            key = list.list.elements[key].previousKey;\r\n        }\r\n        return revisedMax;\r\n    }\r\n\r\n    /**\r\n     * @notice Returns the N greatest elements of the list.\r\n     * @param list A storage pointer to the underlying list.\r\n     * @param n The number of elements to return.\r\n     * @return The keys of the greatest elements.\r\n     */\r\n    function headN(SortedLinkedList.List storage list, uint256 n)\r\n    public\r\n    view\r\n    returns (address[] memory)\r\n    {\r\n        bytes32[] memory byteKeys = list.headN(n);\r\n        address[] memory keys = new address[](n);\r\n        for (uint256 i = 0; i < n; i = i.add(1)) {\r\n            keys[i] = toAddress(byteKeys[i]);\r\n        }\r\n        return keys;\r\n    }\r\n\r\n    /**\r\n     * @notice Gets all element keys from the doubly linked list.\r\n     * @param list A storage pointer to the underlying list.\r\n     * @return All element keys from head to tail.\r\n     */\r\n    function getKeys(SortedLinkedList.List storage list) public view returns (address[] memory) {\r\n        return headN(list, list.list.numElements);\r\n    }\r\n}\r\n\r\ncontract UsingRegistry is Ownable {\r\n    event RegistrySet(address indexed registryAddress);\r\n\r\n    // solhint-disable state-visibility\r\n    bytes32 constant ACCOUNTS_REGISTRY_ID = keccak256(abi.encodePacked(\"Accounts\"));\r\n\r\n    bytes32 constant VALIDATORS_REGISTRY_ID = keccak256(abi.encodePacked(\"Validators\"));\r\n    bytes32 constant LOCKED_GOLD_REGISTRY_ID = keccak256(abi.encodePacked(\"LockedGold\"));\r\n    // solhint-enable state-visibility\r\n\r\n    IRegistry public registry;\r\n\r\n\r\n\r\n    /**\r\n     * @notice Updates the address pointing to a Registry contract.\r\n     * @param registryAddress The address of a registry contract for routing to other contracts.\r\n     */\r\n    function setRegistry(address registryAddress) public onlyOwner {\r\n        require(registryAddress != address(0), \"Cannot register the null address\");\r\n        registry = IRegistry(registryAddress);\r\n        emit RegistrySet(registryAddress);\r\n    }\r\n\r\n    //-------------------\r\n    function getAccounts() internal view returns (IAccounts) {\r\n        return IAccounts(registry.getAddressForOrDie(ACCOUNTS_REGISTRY_ID));\r\n    }\r\n\r\n    //-------------------\r\n    function getLockedGold() internal view returns (ILockedGold) {\r\n        return ILockedGold(registry.getAddressForOrDie(LOCKED_GOLD_REGISTRY_ID));\r\n    }\r\n\r\n    //--------------------------\r\n    function getValidators() internal view returns (IValidators2) {\r\n        return IValidators2(registry.getAddressForOrDie(VALIDATORS_REGISTRY_ID));\r\n    }\r\n}\r\n\r\ncontract UsingPrecompiles {\r\n    using SafeMath for uint256;\r\n    address constant EPOCH_SIZE = address(0xff - 7);\r\n\r\n    /**\r\n     * @notice Returns the current epoch size in blocks.\r\n     * @return The current epoch size in blocks.\r\n     */\r\n    function getEpochSize() public view returns (uint256) {\r\n        bytes memory out;\r\n        bool success;\r\n        (success, out) = EPOCH_SIZE.staticcall(abi.encodePacked());\r\n        require(success, \"error calling getEpochSize precompile\");\r\n        return getUint256FromBytes(out, 0);\r\n    }\r\n\r\n    function getUint256FromBytes(bytes memory bs, uint256 start) internal pure returns (uint256) {\r\n        return uint256(getBytes32FromBytes(bs, start));\r\n    }\r\n\r\n    function getBytes32FromBytes(bytes memory bs, uint256 start) internal pure returns (bytes32) {\r\n        require(bs.length >= start.add(32), \"slicing out of range\");\r\n        bytes32 x;\r\n        assembly {\r\n            x := mload(add(bs, add(start, 32)))\r\n        }\r\n        return x;\r\n    }\r\n\r\n    //----------------\r\n    function getEpochNumberOfBlock(uint256 blockNumber) public view returns (uint256) {\r\n        return epochNumberOfBlock(blockNumber, getEpochSize());\r\n    }\r\n\r\n    //--------------\r\n    function getEpochNumber() public view returns (uint256) {\r\n        return getEpochNumberOfBlock(block.number);\r\n    }\r\n\r\n    //---------------------\r\n    function epochNumberOfBlock(uint256 blockNumber, uint256 epochSize)\r\n    internal\r\n    pure\r\n    returns (uint256)\r\n    {\r\n        // Follows GetEpochNumber from celo-blockchain/blob/master/consensus/istanbul/utils.go\r\n        uint256 epochNumber = blockNumber / epochSize;\r\n        if (blockNumber % epochSize == 0) {\r\n            return epochNumber;\r\n        } else {\r\n            return epochNumber.add(1);\r\n        }\r\n    }\r\n}\r\n\r\ncontract Election is\r\nOwnable,\r\nReentrancyGuard,\r\nInitializable,\r\nUsingRegistry,\r\nUsingPrecompiles,\r\nConsole\r\n{\r\n    using AddressSortedLinkedList for SortedLinkedList.List;\r\n    using FixidityLib for FixidityLib.Fraction;\r\n    using SafeMath for uint256;\r\n    uint256 private constant UNIT_PRECISION_FACTOR = 100000000000000000000;\r\n    IValidators2 public Validators2;\r\n\r\n\r\n    struct PendingVote {\r\n        uint256 value;\r\n        uint256 epoch;\r\n    }\r\n\r\n    struct GroupPendingVotes {\r\n        uint256 total;\r\n        mapping(address => PendingVote) byAccount;\r\n    }\r\n\r\n    struct PendingVotes {\r\n        uint256 total;\r\n        mapping(address => GroupPendingVotes) forGroup;\r\n    }\r\n\r\n    struct GroupActiveVotes {\r\n        uint256 total;\r\n        uint256 totalUnits;\r\n        mapping(address => uint256) unitsByAccount;\r\n    }\r\n\r\n    struct ActiveVotes {\r\n        uint256 total;\r\n        mapping(address => GroupActiveVotes) forGroup;\r\n    }\r\n\r\n    struct TotalVotes {\r\n        SortedLinkedList.List eligible;\r\n    }\r\n\r\n    struct Votes {\r\n        PendingVotes pending;\r\n        ActiveVotes active;\r\n        TotalVotes total;\r\n        mapping(address => address[]) groupsVotedFor;\r\n    }\r\n\r\n    struct ElectableValidators {\r\n        uint256 min;\r\n        uint256 max;\r\n    }\r\n\r\n    Votes private votes;\r\n    ElectableValidators public electableValidators;\r\n    uint256 public maxNumGroupsVotedFor;\r\n    FixidityLib.Fraction public electabilityThreshold;\r\n\r\n\r\n    function initialize(\r\n        address registryAddress\r\n    ) external initializer {\r\n        _transferOwnership(msg.sender);\r\n        setRegistry(registryAddress);\r\n\r\n    }\r\n\r\n    /**\r\n     * @notice Sets initialized == true on implementation contracts\r\n     * @param test Set to true to skip implementation initialization\r\n     */\r\n    constructor(bool test) public Initializable(test) {}\r\n\r\n    function vote(address group, uint256 value, address lesser, address greater)\r\n    external\r\n    returns (bool)\r\n    {\r\n        //        require(votes.total.eligible.contains(group), \"Group not eligible\");\r\n        //        require(0 < value, \"Vote value cannot be zero\");\r\n        //        //    address account = getAccounts().voteSignerToAccount(msg.sender);\r\n        //        address account = msg.sender;\r\n        //        // Add group to the groups voted for by the account.\r\n        //        bool alreadyVotedForGroup = false;\r\n        //        address[] storage groups = votes.groupsVotedFor[account];\r\n        //        for (uint256 i = 0; i < groups.length; i = i.add(1)) {\r\n        //            alreadyVotedForGroup = alreadyVotedForGroup || groups[i] == group;\r\n        //        }\r\n        //        if (!alreadyVotedForGroup) {\r\n        //            //      require(groups.length < maxNumGroupsVotedFor, \"Voted for too many groups\");\r\n        //            groups.push(group);\r\n        //        }\r\n\r\n        //    incrementPendingVotes(group, account, value);\r\n        //    incrementTotalVotes(group, value, lesser, greater);\r\n        //    getLockedGold().decrementNonvotingAccountBalance(account, value);\r\n\r\n        return true;\r\n    }\r\n\r\n    function incrementTotalVotes(address group, uint256 value, address lesser, address greater)\r\n    private\r\n    {\r\n        uint256 newVoteTotal = votes.total.eligible.getValue(group).add(value);\r\n        votes.total.eligible.update(group, newVoteTotal, lesser, greater);\r\n    }\r\n\r\n    function incrementPendingVotes(address group, address account, uint256 value) private {\r\n        PendingVotes storage pending = votes.pending;\r\n        pending.total = pending.total.add(value);\r\n\r\n        GroupPendingVotes storage groupPending = pending.forGroup[group];\r\n        groupPending.total = groupPending.total.add(value);\r\n\r\n        PendingVote storage pendingVote = groupPending.byAccount[account];\r\n        pendingVote.value = pendingVote.value.add(value);\r\n        pendingVote.epoch = getEpochNumber();\r\n    }\r\n\r\n    function getElectableValidators() external view returns (uint256, uint256) {\r\n        return (uint256(4), uint256(4));\r\n    }\r\n    //\r\n    function electValidatorSigners(address group) external returns (address[] memory) {\r\n        return getValidators().getGroupValidators(group, electableValidators.max);\r\n    }\r\n    // \r\n    function electNValidatorSigners(uint256 minElectableValidators, uint256 maxElectableValidators)\r\n    public\r\n    view\r\n    returns (address[] memory)\r\n    {\r\n        return getValidators().getFirstGroupValidators();\r\n    }\r\n\r\n    function getTotalVotes() public view returns (uint256) {\r\n        return votes.active.total.add(votes.pending.total);\r\n    }\r\n\r\n    function setValidators2(address validators2) public {\r\n        Validators2 = IValidators2(validators2);\r\n        log(\"setValidators2\", validators2);\r\n    }\r\n}\r\n",
  "sourcePath": "D:\\work\\zhangwei812\\mySolidity\\mySolidity\\contracts\\Election.sol",
  "compiler": {
    "name": "solc",
    "version": "0.5.16+commit.9c3226ce.Emscripten.clang"
  },
  "schemaVersion": "3.4.3",
  "updatedAt": "2021-11-05T11:19:21.072Z",
  "devdoc": {
    "methods": {
      "constructor": {
        "params": {
          "test": "Set to true to skip implementation initialization"
        }
      },
      "getEpochSize()": {
        "return": "The current epoch size in blocks."
      },
      "isOwner()": {
        "details": "Returns true if the caller is the current owner."
      },
      "owner()": {
        "details": "Returns the address of the current owner."
      },
      "renounceOwnership()": {
        "details": "Leaves the contract without owner. It will not be possible to call `onlyOwner` functions anymore. Can only be called by the current owner.     * NOTE: Renouncing ownership will leave the contract without an owner, thereby removing any functionality that is only available to the owner."
      },
      "setRegistry(address)": {
        "params": {
          "registryAddress": "The address of a registry contract for routing to other contracts."
        }
      },
      "transferOwnership(address)": {
        "details": "Transfers ownership of the contract to a new account (`newOwner`). Can only be called by the current owner."
      }
    }
  },
  "userdoc": {
    "methods": {
      "constructor": "Sets initialized == true on implementation contracts",
      "getEpochSize()": {
        "notice": "Returns the current epoch size in blocks."
      },
      "setRegistry(address)": {
        "notice": "Updates the address pointing to a Registry contract."
      }
    }
  }
}