{
  "contractName": "Election",
  "abi": [
    {
      "inputs": [
        {
          "internalType": "bool",
          "name": "test",
          "type": "bool"
        }
      ],
      "payable": false,
      "stateMutability": "nonpayable",
      "type": "constructor"
    },
    {
      "anonymous": false,
      "inputs": [
        {
          "indexed": false,
          "internalType": "string",
          "name": "",
          "type": "string"
        },
        {
          "indexed": false,
          "internalType": "address",
          "name": "",
          "type": "address"
        }
      ],
      "name": "LogAddress",
      "type": "event"
    },
    {
      "anonymous": false,
      "inputs": [
        {
          "indexed": false,
          "internalType": "string",
          "name": "",
          "type": "string"
        },
        {
          "indexed": false,
          "internalType": "bool",
          "name": "",
          "type": "bool"
        }
      ],
      "name": "LogBool",
      "type": "event"
    },
    {
      "anonymous": false,
      "inputs": [
        {
          "indexed": false,
          "internalType": "string",
          "name": "",
          "type": "string"
        },
        {
          "indexed": false,
          "internalType": "bytes",
          "name": "",
          "type": "bytes"
        }
      ],
      "name": "LogBytes",
      "type": "event"
    },
    {
      "anonymous": false,
      "inputs": [
        {
          "indexed": false,
          "internalType": "string",
          "name": "",
          "type": "string"
        },
        {
          "indexed": false,
          "internalType": "bytes32",
          "name": "",
          "type": "bytes32"
        }
      ],
      "name": "LogBytes32",
      "type": "event"
    },
    {
      "anonymous": false,
      "inputs": [
        {
          "indexed": false,
          "internalType": "string",
          "name": "",
          "type": "string"
        },
        {
          "indexed": false,
          "internalType": "int256",
          "name": "",
          "type": "int256"
        }
      ],
      "name": "LogInt",
      "type": "event"
    },
    {
      "anonymous": false,
      "inputs": [
        {
          "indexed": false,
          "internalType": "string",
          "name": "",
          "type": "string"
        },
        {
          "indexed": false,
          "internalType": "uint256",
          "name": "",
          "type": "uint256"
        }
      ],
      "name": "LogUint",
      "type": "event"
    },
    {
      "anonymous": false,
      "inputs": [
        {
          "indexed": true,
          "internalType": "address",
          "name": "previousOwner",
          "type": "address"
        },
        {
          "indexed": true,
          "internalType": "address",
          "name": "newOwner",
          "type": "address"
        }
      ],
      "name": "OwnershipTransferred",
      "type": "event"
    },
    {
      "anonymous": false,
      "inputs": [
        {
          "indexed": true,
          "internalType": "address",
          "name": "registryAddress",
          "type": "address"
        }
      ],
      "name": "RegistrySet",
      "type": "event"
    },
    {
      "constant": true,
      "inputs": [],
      "name": "Validators2",
      "outputs": [
        {
          "internalType": "contract IValidators2",
          "name": "",
          "type": "address"
        }
      ],
      "payable": false,
      "stateMutability": "view",
      "type": "function"
    },
    {
      "constant": true,
      "inputs": [],
      "name": "electabilityThreshold",
      "outputs": [
        {
          "internalType": "uint256",
          "name": "value",
          "type": "uint256"
        }
      ],
      "payable": false,
      "stateMutability": "view",
      "type": "function"
    },
    {
      "constant": true,
      "inputs": [],
      "name": "electableValidators",
      "outputs": [
        {
          "internalType": "uint256",
          "name": "min",
          "type": "uint256"
        },
        {
          "internalType": "uint256",
          "name": "max",
          "type": "uint256"
        }
      ],
      "payable": false,
      "stateMutability": "view",
      "type": "function"
    },
    {
      "constant": true,
      "inputs": [],
      "name": "getEpochNumber",
      "outputs": [
        {
          "internalType": "uint256",
          "name": "",
          "type": "uint256"
        }
      ],
      "payable": false,
      "stateMutability": "view",
      "type": "function"
    },
    {
      "constant": true,
      "inputs": [
        {
          "internalType": "uint256",
          "name": "blockNumber",
          "type": "uint256"
        }
      ],
      "name": "getEpochNumberOfBlock",
      "outputs": [
        {
          "internalType": "uint256",
          "name": "",
          "type": "uint256"
        }
      ],
      "payable": false,
      "stateMutability": "view",
      "type": "function"
    },
    {
      "constant": true,
      "inputs": [],
      "name": "getEpochSize",
      "outputs": [
        {
          "internalType": "uint256",
          "name": "",
          "type": "uint256"
        }
      ],
      "payable": false,
      "stateMutability": "view",
      "type": "function"
    },
    {
      "constant": true,
      "inputs": [],
      "name": "initialized",
      "outputs": [
        {
          "internalType": "bool",
          "name": "",
          "type": "bool"
        }
      ],
      "payable": false,
      "stateMutability": "view",
      "type": "function"
    },
    {
      "constant": true,
      "inputs": [],
      "name": "isOwner",
      "outputs": [
        {
          "internalType": "bool",
          "name": "",
          "type": "bool"
        }
      ],
      "payable": false,
      "stateMutability": "view",
      "type": "function"
    },
    {
      "constant": true,
      "inputs": [],
      "name": "maxNumGroupsVotedFor",
      "outputs": [
        {
          "internalType": "uint256",
          "name": "",
          "type": "uint256"
        }
      ],
      "payable": false,
      "stateMutability": "view",
      "type": "function"
    },
    {
      "constant": true,
      "inputs": [],
      "name": "owner",
      "outputs": [
        {
          "internalType": "address",
          "name": "",
          "type": "address"
        }
      ],
      "payable": false,
      "stateMutability": "view",
      "type": "function"
    },
    {
      "constant": true,
      "inputs": [],
      "name": "registry",
      "outputs": [
        {
          "internalType": "contract IRegistry",
          "name": "",
          "type": "address"
        }
      ],
      "payable": false,
      "stateMutability": "view",
      "type": "function"
    },
    {
      "constant": false,
      "inputs": [],
      "name": "renounceOwnership",
      "outputs": [],
      "payable": false,
      "stateMutability": "nonpayable",
      "type": "function"
    },
    {
      "constant": false,
      "inputs": [
        {
          "internalType": "address",
          "name": "registryAddress",
          "type": "address"
        }
      ],
      "name": "setRegistry",
      "outputs": [],
      "payable": false,
      "stateMutability": "nonpayable",
      "type": "function"
    },
    {
      "constant": false,
      "inputs": [
        {
          "internalType": "address",
          "name": "newOwner",
          "type": "address"
        }
      ],
      "name": "transferOwnership",
      "outputs": [],
      "payable": false,
      "stateMutability": "nonpayable",
      "type": "function"
    },
    {
      "constant": false,
      "inputs": [
        {
          "internalType": "address",
          "name": "registryAddress",
          "type": "address"
        }
      ],
      "name": "initialize",
      "outputs": [],
      "payable": false,
      "stateMutability": "nonpayable",
      "type": "function"
    },
    {
      "constant": false,
      "inputs": [
        {
          "internalType": "address",
          "name": "group",
          "type": "address"
        },
        {
          "internalType": "uint256",
          "name": "value",
          "type": "uint256"
        },
        {
          "internalType": "address",
          "name": "lesser",
          "type": "address"
        },
        {
          "internalType": "address",
          "name": "greater",
          "type": "address"
        }
      ],
      "name": "vote",
      "outputs": [
        {
          "internalType": "bool",
          "name": "",
          "type": "bool"
        }
      ],
      "payable": false,
      "stateMutability": "nonpayable",
      "type": "function"
    },
    {
      "constant": true,
      "inputs": [
        {
          "internalType": "address",
          "name": "group",
          "type": "address"
        }
      ],
      "name": "electValidatorSigners",
      "outputs": [
        {
          "internalType": "address[]",
          "name": "",
          "type": "address[]"
        }
      ],
      "payable": false,
      "stateMutability": "view",
      "type": "function"
    },
    {
      "constant": true,
      "inputs": [
        {
          "internalType": "uint256",
          "name": "minElectableValidators",
          "type": "uint256"
        },
        {
          "internalType": "uint256",
          "name": "maxElectableValidators",
          "type": "uint256"
        }
      ],
      "name": "electNValidatorSigners",
      "outputs": [
        {
          "internalType": "address[]",
          "name": "",
          "type": "address[]"
        }
      ],
      "payable": false,
      "stateMutability": "view",
      "type": "function"
    },
    {
      "constant": true,
      "inputs": [],
      "name": "getTotalVotes",
      "outputs": [
        {
          "internalType": "uint256",
          "name": "",
          "type": "uint256"
        }
      ],
      "payable": false,
      "stateMutability": "view",
      "type": "function"
    },
    {
      "constant": false,
      "inputs": [
        {
          "internalType": "address",
          "name": "validators2",
          "type": "address"
        }
      ],
      "name": "setValidators2",
      "outputs": [],
      "payable": false,
      "stateMutability": "nonpayable",
      "type": "function"
    }
  ],
  "bytecode": "0x60806040523480156200001157600080fd5b5060405162002b2238038062002b22833981810160405260208110156200003757600080fd5b81019080805190602001909291905050508060006200005b6200012a60201b60201c565b9050806000806101000a81548173ffffffffffffffffffffffffffffffffffffffff021916908373ffffffffffffffffffffffffffffffffffffffff1602179055508073ffffffffffffffffffffffffffffffffffffffff16600073ffffffffffffffffffffffffffffffffffffffff167f8be0079c531659141344cd1fd0a4f28419497f9722a3daafe3b4186f6b6457e060405160405180910390a350600180819055508062000122576001600260006101000a81548160ff0219169083151502179055505b505062000132565b600033905090565b6129e080620001426000396000f3fe608060405234801561001057600080fd5b506004361061012c5760003560e01c806390a4dd5c116100ad578063c4d66de811610071578063c4d66de8146104d2578063d7a71cf814610516578063df4da461146105af578063f2fde38b146105cd578063f9d7daae146106115761012c565b806390a4dd5c146103a75780639a0e7d66146104345780639a7b3be714610452578063a91ee0dc14610470578063ac839d69146104b45761012c565b8063715018a6116100f4578063715018a61461029d5780637b103999146102a757806383483e3c146102f15780638da5cb5b1461033b5780638f32d59b146103855761012c565b8063158ef93e14610131578063334f4ffc146101535780633b1eb4bf146101975780634be8843b146101d9578063580d747a146101f7575b600080fd5b610139610636565b604051808215151515815260200191505060405180910390f35b6101956004803603602081101561016957600080fd5b81019080803573ffffffffffffffffffffffffffffffffffffffff169060200190929190505050610649565b005b6101c3600480360360208110156101ad57600080fd5b81019080803590602001909291905050506106cc565b6040518082815260200191505060405180910390f35b6101e16106e6565b6040518082815260200191505060405180910390f35b6102836004803603608081101561020d57600080fd5b81019080803573ffffffffffffffffffffffffffffffffffffffff16906020019092919080359060200190929190803573ffffffffffffffffffffffffffffffffffffffff169060200190929190803573ffffffffffffffffffffffffffffffffffffffff1690602001909291905050506106f2565b604051808215151515815260200191505060405180910390f35b6102a5610700565b005b6102af610839565b604051808273ffffffffffffffffffffffffffffffffffffffff1673ffffffffffffffffffffffffffffffffffffffff16815260200191505060405180910390f35b6102f961085f565b604051808273ffffffffffffffffffffffffffffffffffffffff1673ffffffffffffffffffffffffffffffffffffffff16815260200191505060405180910390f35b610343610885565b604051808273ffffffffffffffffffffffffffffffffffffffff1673ffffffffffffffffffffffffffffffffffffffff16815260200191505060405180910390f35b61038d6108ae565b604051808215151515815260200191505060405180910390f35b6103dd600480360360408110156103bd57600080fd5b81019080803590602001909291908035906020019092919050505061090c565b6040518080602001828103825283818151815260200191508051906020019060200280838360005b83811015610420578082015181840152602081019050610405565b505050509050019250505060405180910390f35b61043c6113e9565b6040518082815260200191505060405180910390f35b61045a611413565b6040518082815260200191505060405180910390f35b6104b26004803603602081101561048657600080fd5b81019080803573ffffffffffffffffffffffffffffffffffffffff169060200190929190505050611423565b005b6104bc6115c7565b6040518082815260200191505060405180910390f35b610514600480360360208110156104e857600080fd5b81019080803573ffffffffffffffffffffffffffffffffffffffff1690602001909291905050506115cd565b005b6105586004803603602081101561052c57600080fd5b81019080803573ffffffffffffffffffffffffffffffffffffffff169060200190929190505050611680565b6040518080602001828103825283818151815260200191508051906020019060200280838360005b8381101561059b578082015181840152602081019050610580565b505050509050019250505060405180910390f35b6105b76116bf565b6040518082815260200191505060405180910390f35b61060f600480360360208110156105e357600080fd5b81019080803573ffffffffffffffffffffffffffffffffffffffff1690602001909291905050506117fb565b005b610619611881565b604051808381526020018281526020019250505060405180910390f35b600260009054906101000a900460ff1681565b80600360006101000a81548173ffffffffffffffffffffffffffffffffffffffff021916908373ffffffffffffffffffffffffffffffffffffffff1602179055506106c96040518060400160405280600e81526020017f73657456616c696461746f72733200000000000000000000000000000000000081525082611893565b50565b60006106df826106da6116bf565b611967565b9050919050565b60118060000154905081565b600060019050949350505050565b6107086108ae565b61077a576040517f08c379a00000000000000000000000000000000000000000000000000000000081526004018080602001828103825260208152602001807f4f776e61626c653a2063616c6c6572206973206e6f7420746865206f776e657281525060200191505060405180910390fd5b600073ffffffffffffffffffffffffffffffffffffffff166000809054906101000a900473ffffffffffffffffffffffffffffffffffffffff1673ffffffffffffffffffffffffffffffffffffffff167f8be0079c531659141344cd1fd0a4f28419497f9722a3daafe3b4186f6b6457e060405160405180910390a360008060006101000a81548173ffffffffffffffffffffffffffffffffffffffff021916908373ffffffffffffffffffffffffffffffffffffffff160217905550565b600260019054906101000a900473ffffffffffffffffffffffffffffffffffffffff1681565b600360009054906101000a900473ffffffffffffffffffffffffffffffffffffffff1681565b60008060009054906101000a900473ffffffffffffffffffffffffffffffffffffffff16905090565b60008060009054906101000a900473ffffffffffffffffffffffffffffffffffffffff1673ffffffffffffffffffffffffffffffffffffffff166108f06119af565b73ffffffffffffffffffffffffffffffffffffffff1614905090565b6060600061095061094b6109266109216113e9565b6119b7565b6011604051806020016040529081600082015481525050611a4190919063ffffffff16565b611ea0565b905060006004800160000173__AddressSortedLinkedList_______________6342b6351a909184876040518463ffffffff1660e01b815260040180848152602001838152602001828152602001935050505060206040518083038186803b1580156109bb57600080fd5b505af41580156109cf573d6000803e3d6000fd5b505050506040513d60208110156109e557600080fd5b8101908080519060200190929190505050905060606004800160000173__AddressSortedLinkedList_______________63dcb2a4dd9091846040518363ffffffff1660e01b8152600401808381526020018281526020019250505060006040518083038186803b158015610a5957600080fd5b505af4158015610a6d573d6000803e3d6000fd5b505050506040513d6000823e3d601f19601f820116820180604052506020811015610a9757600080fd5b8101908080516040519392919084640100000000821115610ab757600080fd5b83820191506020820185811115610acd57600080fd5b8251866020820283011164010000000082111715610aea57600080fd5b8083526020830192505050908051906020019060200280838360005b83811015610b21578082015181840152602081019050610b06565b5050505090500160405250505090506060610b3a611ec1565b73ffffffffffffffffffffffffffffffffffffffff166370447754836040518263ffffffff1660e01b81526004018080602001828103825283818151815260200191508051906020019060200280838360005b83811015610ba8578082015181840152602081019050610b8d565b505050509050019250505060006040518083038186803b158015610bcb57600080fd5b505afa158015610bdf573d6000803e3d6000fd5b505050506040513d6000823e3d601f19601f820116820180604052506020811015610c0957600080fd5b8101908080516040519392919084640100000000821115610c2957600080fd5b83820191506020820185811115610c3f57600080fd5b8251866020820283011164010000000082111715610c5c57600080fd5b8083526020830192505050908051906020019060200280838360005b83811015610c93578082015181840152602081019050610c78565b50505050905001604052505050905060608251604051908082528060200260200182016040528015610cd45781602001602082028038833980820191505090505b509050600080905060608451604051908082528060200260200182016040528015610d0e5781602001602082028038833980820191505090505b50905060608551604051908082528060200260200182016040528015610d4e57816020015b610d3b6128c0565b815260200190600190039081610d335790505b50905060008090505b8651811015610e8c5780838281518110610d6d57fe5b602002602001018181525050610e5a6004800160000173__AddressSortedLinkedList_______________63e0fe44b390918a8581518110610dab57fe5b60200260200101516040518363ffffffff1660e01b8152600401808381526020018273ffffffffffffffffffffffffffffffffffffffff1673ffffffffffffffffffffffffffffffffffffffff1681526020019250505060206040518083038186803b158015610e1a57600080fd5b505af4158015610e2e573d6000803e3d6000fd5b505050506040513d6020811015610e4457600080fd5b81019080805190602001909291905050506119b7565b828281518110610e6657fe5b6020026020010181905250610e85600182611fbc90919063ffffffff16565b9050610d57565b505b8983108015610e9e575060008651115b156110d757600082600081518110610eb257fe5b602002602001015190506000610eda838381518110610ecd57fe5b6020026020010151612044565b1415610ee657506110d7565b848181518110610ef257fe5b6020026020010151868281518110610f0657fe5b602002602001015111610f3957610f1d6000612052565b828281518110610f2957fe5b60200260200101819052506110c7565b610f606001868381518110610f4a57fe5b6020026020010151611fbc90919063ffffffff16565b858281518110610f6c57fe5b602002602001018181525050610f8c600185611fbc90919063ffffffff16565b93506110af610fc0610fbb6001888581518110610fa557fe5b6020026020010151611fbc90919063ffffffff16565b6119b7565b6110a16004800160000173__AddressSortedLinkedList_______________63e0fe44b390918c8781518110610ff257fe5b60200260200101516040518363ffffffff1660e01b8152600401808381526020018273ffffffffffffffffffffffffffffffffffffffff1673ffffffffffffffffffffffffffffffffffffffff1681526020019250505060206040518083038186803b15801561106157600080fd5b505af4158015611075573d6000803e3d6000fd5b505050506040513d602081101561108b57600080fd5b81019080805190602001909291905050506119b7565b61207090919063ffffffff16565b8282815181106110bb57fe5b60200260200101819052505b6110d183836121b9565b50610e8e565b8a83101561114d576040517f08c379a000000000000000000000000000000000000000000000000000000000815260040180806020018281038252601d8152602001807f4e6f7420656e6f75676820656c65637465642076616c696461746f727300000081525060200191505060405180910390fd5b60608360405190808252806020026020018201604052801561117e5781602001602082028038833980820191505090505b5090506000935060008090505b87518110156113d657606061119e611ec1565b73ffffffffffffffffffffffffffffffffffffffff16638dd31e398a84815181106111c557fe5b60200260200101518985815181106111d957fe5b60200260200101516040518363ffffffff1660e01b8152600401808373ffffffffffffffffffffffffffffffffffffffff1673ffffffffffffffffffffffffffffffffffffffff1681526020018281526020019250505060006040518083038186803b15801561124857600080fd5b505afa15801561125c573d6000803e3d6000fd5b505050506040513d6000823e3d601f19601f82011682018060405250602081101561128657600080fd5b81019080805160405193929190846401000000008211156112a657600080fd5b838201915060208201858111156112bc57600080fd5b82518660208202830111640100000000821117156112d957600080fd5b8083526020830192505050908051906020019060200280838360005b838110156113105780820151818401526020810190506112f5565b50505050905001604052505050905060008090505b81518110156113b95781818151811061133a57fe5b602002602001015184888151811061134e57fe5b602002602001019073ffffffffffffffffffffffffffffffffffffffff16908173ffffffffffffffffffffffffffffffffffffffff168152505061139c600188611fbc90919063ffffffff16565b96506113b2600182611fbc90919063ffffffff16565b9050611325565b50506113cf600182611fbc90919063ffffffff16565b905061118b565b5080995050505050505050505092915050565b600061140e600460000160000154600460020160000154611fbc90919063ffffffff16565b905090565b600061141e436106cc565b905090565b61142b6108ae565b61149d576040517f08c379a00000000000000000000000000000000000000000000000000000000081526004018080602001828103825260208152602001807f4f776e61626c653a2063616c6c6572206973206e6f7420746865206f776e657281525060200191505060405180910390fd5b600073ffffffffffffffffffffffffffffffffffffffff168173ffffffffffffffffffffffffffffffffffffffff161415611540576040517f08c379a00000000000000000000000000000000000000000000000000000000081526004018080602001828103825260208152602001807f43616e6e6f7420726567697374657220746865206e756c6c206164647265737381525060200191505060405180910390fd5b80600260016101000a81548173ffffffffffffffffffffffffffffffffffffffff021916908373ffffffffffffffffffffffffffffffffffffffff1602179055508073ffffffffffffffffffffffffffffffffffffffff167f27fe5f0c1c3b1ed427cc63d0f05759ffdecf9aec9e18d31ef366fc8a6cb5dc3b60405160405180910390a250565b60105481565b600260009054906101000a900460ff1615611650576040517f08c379a000000000000000000000000000000000000000000000000000000000815260040180806020018281038252601c8152602001807f636f6e747261637420616c726561647920696e697469616c697a65640000000081525060200191505060405180910390fd5b6001600260006101000a81548160ff021916908315150217905550611674336121cb565b61167d81611423565b50565b60608060016040519080825280602002602001820160405280156116b35781602001602082028038833980820191505090505b50905080915050919050565b60006060600060f873ffffffffffffffffffffffffffffffffffffffff166040516020016040516020818303038152906040526040518082805190602001908083835b602083106117255780518252602082019150602081019050602083039250611702565b6001836020036101000a038019825116818451168082178552505050505050905001915050600060405180830381855afa9150503d8060008114611785576040519150601f19603f3d011682016040523d82523d6000602084013e61178a565b606091505b508093508192505050806117e9576040517f08c379a00000000000000000000000000000000000000000000000000000000081526004018080602001828103825260258152602001806129646025913960400191505060405180910390fd5b6117f482600061230f565b9250505090565b6118036108ae565b611875576040517f08c379a00000000000000000000000000000000000000000000000000000000081526004018080602001828103825260208152602001807f4f776e61626c653a2063616c6c6572206973206e6f7420746865206f776e657281525060200191505060405180910390fd5b61187e816121cb565b50565b600e8060000154908060010154905082565b7f62ddffe5b5108385f7a590f100e1ee414ad9551a31f089e64e82998440785e1e828260405180806020018373ffffffffffffffffffffffffffffffffffffffff1673ffffffffffffffffffffffffffffffffffffffff168152602001828103825284818151815260200191508051906020019080838360005b8381101561192857808201518184015260208101905061190d565b50505050905090810190601f1680156119555780820380516001836020036101000a031916815260200191505b50935050505060405180910390a15050565b60008082848161197357fe5b049050600083858161198157fe5b06141561199157809150506119a9565b6119a5600182611fbc90919063ffffffff16565b9150505b92915050565b600033905090565b6119bf6128d3565b6119c7612326565b821115611a1f576040517f08c379a000000000000000000000000000000000000000000000000000000000815260040180806020018281038252603681526020018061290d6036913960400191505060405180910390fd5b604051806020016040528069d3c21bcecceda100000084028152509050919050565b611a496128d3565b600083600001511480611a60575060008260000151145b15611a7c57604051806020016040528060008152509050611e9a565b69d3c21bcecceda100000082600001511415611a9a57829050611e9a565b69d3c21bcecceda100000083600001511415611ab857819050611e9a565b600069d3c21bcecceda1000000611ace85612345565b6000015181611ad957fe5b0490506000611ae78561237c565b600001519050600069d3c21bcecceda1000000611b0386612345565b6000015181611b0e57fe5b0490506000611b1c8661237c565b6000015190506000828502905060008514611bb05782858281611b3b57fe5b0414611baf576040517f08c379a00000000000000000000000000000000000000000000000000000000081526004018080602001828103825260168152602001807f6f766572666c6f7720783179312064657465637465640000000000000000000081525060200191505060405180910390fd5b5b600069d3c21bcecceda10000008202905060008214611c525769d3c21bcecceda1000000828281611bdd57fe5b0414611c51576040517f08c379a000000000000000000000000000000000000000000000000000000000815260040180806020018281038252601f8152602001807f6f766572666c6f772078317931202a206669786564312064657465637465640081525060200191505060405180910390fd5b5b8091506000848602905060008614611ce35784868281611c6e57fe5b0414611ce2576040517f08c379a00000000000000000000000000000000000000000000000000000000081526004018080602001828103825260168152602001807f6f766572666c6f7720783279312064657465637465640000000000000000000081525060200191505060405180910390fd5b5b6000848802905060008814611d715784888281611cfc57fe5b0414611d70576040517f08c379a00000000000000000000000000000000000000000000000000000000081526004018080602001828103825260168152602001807f6f766572666c6f7720783179322064657465637465640000000000000000000081525060200191505060405180910390fd5b5b611d796123b9565b8781611d8157fe5b049650611d8c6123b9565b8581611d9457fe5b0494506000858802905060008814611e255785888281611db057fe5b0414611e24576040517f08c379a00000000000000000000000000000000000000000000000000000000081526004018080602001828103825260168152602001807f6f766572666c6f7720783279322064657465637465640000000000000000000081525060200191505060405180910390fd5b5b611e2d6128d3565b6040518060200160405280878152509050611e56816040518060200160405280878152506123c6565b9050611e70816040518060200160405280868152506123c6565b9050611e8a816040518060200160405280858152506123c6565b9050809a50505050505050505050505b92915050565b600069d3c21bcecceda1000000826000015181611eb957fe5b049050919050565b6000600260019054906101000a900473ffffffffffffffffffffffffffffffffffffffff1673ffffffffffffffffffffffffffffffffffffffff1663dcf0aaed60405160200180807f56616c696461746f727300000000000000000000000000000000000000000000815250600a019050604051602081830303815290604052805190602001206040518263ffffffff1660e01b81526004018082815260200191505060206040518083038186803b158015611f7c57600080fd5b505afa158015611f90573d6000803e3d6000fd5b505050506040513d6020811015611fa657600080fd5b8101908080519060200190929190505050905090565b60008082840190508381101561203a576040517f08c379a000000000000000000000000000000000000000000000000000000000815260040180806020018281038252601b8152602001807f536166654d6174683a206164646974696f6e206f766572666c6f77000000000081525060200191505060405180910390fd5b8091505092915050565b600081600001519050919050565b61205a6128d3565b6040518060200160405280838152509050919050565b6120786128d3565b6000826000015114156120f3576040517f08c379a00000000000000000000000000000000000000000000000000000000081526004018080602001828103825260118152602001807f63616e277420646976696465206279203000000000000000000000000000000081525060200191505060405180910390fd5b600069d3c21bcecceda10000008460000151029050836000015169d3c21bcecceda1000000828161212057fe5b0414612194576040517f08c379a00000000000000000000000000000000000000000000000000000000081526004018080602001828103825260128152602001807f6f766572666c6f7720617420646976696465000000000000000000000000000081525060200191505060405180910390fd5b6040518060200160405280846000015183816121ac57fe5b0481525091505092915050565b6121c782826000855161246f565b5050565b600073ffffffffffffffffffffffffffffffffffffffff168173ffffffffffffffffffffffffffffffffffffffff161415612251576040517f08c379a00000000000000000000000000000000000000000000000000000000081526004018080602001828103825260268152602001806128e76026913960400191505060405180910390fd5b8073ffffffffffffffffffffffffffffffffffffffff166000809054906101000a900473ffffffffffffffffffffffffffffffffffffffff1673ffffffffffffffffffffffffffffffffffffffff167f8be0079c531659141344cd1fd0a4f28419497f9722a3daafe3b4186f6b6457e060405160405180910390a3806000806101000a81548173ffffffffffffffffffffffffffffffffffffffff021916908373ffffffffffffffffffffffffffffffffffffffff16021790555050565b600061231b8383612784565b60001c905092915050565b60007601357c299a88ea76a58924d52ce4f26a85af186c2b9e74905090565b61234d6128d3565b604051806020016040528069d3c21bcecceda10000008085600001518161237057fe5b04028152509050919050565b6123846128d3565b604051806020016040528069d3c21bcecceda1000000808560000151816123a757fe5b04028460000151038152509050919050565b600064e8d4a51000905090565b6123ce6128d3565b6000826000015184600001510190508360000151811015612457576040517f08c379a00000000000000000000000000000000000000000000000000000000081526004018080602001828103825260158152602001807f616464206f766572666c6f77206465746563746564000000000000000000000081525060200191505060405180910390fd5b60405180602001604052808281525091505092915050565b82518451146124c9576040517f08c379a00000000000000000000000000000000000000000000000000000000081526004018080602001828103825260238152602001806129896023913960400191505060405180910390fd5b8351821061253f576040517f08c379a000000000000000000000000000000000000000000000000000000000815260040180806020018281038252601d8152602001807f6865617020737461727420696e646578206f7574206f662072616e676500000081525060200191505060405180910390fd5b83518111156125b6576040517f08c379a00000000000000000000000000000000000000000000000000000000081526004018080602001828103825260188152602001807f68656170206c656e677468206f7574206f662072616e6765000000000000000081525060200191505060405180910390fd5b60008290505b60011561277d5760006125ec60016125de60028561282590919063ffffffff16565b611fbc90919063ffffffff16565b90506000612617600261260960028661282590919063ffffffff16565b611fbc90919063ffffffff16565b90506000839050848310801561268857506126878789838151811061263857fe5b60200260200101518151811061264a57fe5b6020026020010151888a868151811061265f57fe5b60200260200101518151811061267157fe5b60200260200101516128ab90919063ffffffff16565b5b15612691578290505b84821080156126fb57506126fa878983815181106126ab57fe5b6020026020010151815181106126bd57fe5b6020026020010151888a85815181106126d257fe5b6020026020010151815181106126e457fe5b60200260200101516128ab90919063ffffffff16565b5b15612704578190505b838114156127145750505061277d565b600088858151811061272257fe5b6020026020010151905088828151811061273857fe5b602002602001015189868151811061274c57fe5b6020026020010181815250508089838151811061276557fe5b602002602001018181525050819450505050506125bc565b5050505050565b600061279a602083611fbc90919063ffffffff16565b83511015612810576040517f08c379a00000000000000000000000000000000000000000000000000000000081526004018080602001828103825260148152602001807f736c6963696e67206f7574206f662072616e676500000000000000000000000081525060200191505060405180910390fd5b60006020830184015190508091505092915050565b60008083141561283857600090506128a5565b600082840290508284828161284957fe5b04146128a0576040517f08c379a00000000000000000000000000000000000000000000000000000000081526004018080602001828103825260218152602001806129436021913960400191505060405180910390fd5b809150505b92915050565b60008160000151836000015111905092915050565b6040518060200160405280600081525090565b604051806020016040528060008152509056fe4f776e61626c653a206e6577206f776e657220697320746865207a65726f206164647265737363616e277420637265617465206669786964697479206e756d626572206c6172676572207468616e206d61784e657746697865642829536166654d6174683a206d756c7469706c69636174696f6e206f766572666c6f776572726f722063616c6c696e672067657445706f636853697a6520707265636f6d70696c656b657920616e642076616c7565206172726179206c656e677468206d69736d61746368a265627a7a7231582022d08962a521ec3af835bcbda7cb9f41ca4fe7f4d3df06cba880f52987184f0f64736f6c63430005100032",
  "source": "pragma solidity ^0.5.13;\r\n\r\nimport \"./openzeppelin-solidity/contracts/math/Math.sol\";\r\nimport \"./openzeppelin-solidity/contracts/math/SafeMath.sol\";\r\nimport \"./openzeppelin-solidity/contracts/ownership/Ownable.sol\";\r\nimport \"./IValidators.sol\";\r\nimport \"./Initializable.sol\";\r\nimport \"./FixidityLib.sol\";\r\nimport \"./Heap.sol\";\r\nimport \"./ReentrancyGuard.sol\";\r\nimport \"./IAccounts.sol\";\r\nimport \"./IRegistry.sol\";\r\nimport \"./ILockedGold.sol\";\r\nimport \"./SortedLinkedList.sol\";\r\n\r\nimport \"./Console.sol\";\r\nimport \"./IValidators2.sol\";\r\n\r\nlibrary AddressSortedLinkedList {\r\n    using SafeMath for uint256;\r\n    using SortedLinkedList for SortedLinkedList.List;\r\n\r\n    function toBytes(address a) public pure returns (bytes32) {\r\n        return bytes32(uint256(a) << 96);\r\n    }\r\n\r\n    function toAddress(bytes32 b) public pure returns (address) {\r\n        return address(uint256(b) >> 96);\r\n    }\r\n\r\n    /**\r\n     * @notice Inserts an element into a doubly linked list.\r\n     * @param list A storage pointer to the underlying list.\r\n     * @param key The key of the element to insert.\r\n     * @param value The element value.\r\n     * @param lesserKey The key of the element less than the element to insert.\r\n     * @param greaterKey The key of the element greater than the element to insert.\r\n     */\r\n    function insert(\r\n        SortedLinkedList.List storage list,\r\n        address key,\r\n        uint256 value,\r\n        address lesserKey,\r\n        address greaterKey\r\n    ) public {\r\n        list.insert(toBytes(key), value, toBytes(lesserKey), toBytes(greaterKey));\r\n    }\r\n\r\n    /**\r\n     * @notice Removes an element from the doubly linked list.\r\n     * @param list A storage pointer to the underlying list.\r\n     * @param key The key of the element to remove.\r\n     */\r\n    function remove(SortedLinkedList.List storage list, address key) public {\r\n        list.remove(toBytes(key));\r\n    }\r\n\r\n    /**\r\n     * @notice Updates an element in the list.\r\n     * @param list A storage pointer to the underlying list.\r\n     * @param key The element key.\r\n     * @param value The element value.\r\n     * @param lesserKey The key of the element will be just left of `key` after the update.\r\n     * @param greaterKey The key of the element will be just right of `key` after the update.\r\n     * @dev Note that only one of \"lesserKey\" or \"greaterKey\" needs to be correct to reduce friction.\r\n     */\r\n    function update(\r\n        SortedLinkedList.List storage list,\r\n        address key,\r\n        uint256 value,\r\n        address lesserKey,\r\n        address greaterKey\r\n    ) public {\r\n        list.update(toBytes(key), value, toBytes(lesserKey), toBytes(greaterKey));\r\n    }\r\n\r\n    /**\r\n     * @notice Returns whether or not a particular key is present in the sorted list.\r\n     * @param list A storage pointer to the underlying list.\r\n     * @param key The element key.\r\n     * @return Whether or not the key is in the sorted list.\r\n     */\r\n    function contains(SortedLinkedList.List storage list, address key) public view returns (bool) {\r\n        return list.contains(toBytes(key));\r\n    }\r\n\r\n    /**\r\n     * @notice Returns the value for a particular key in the sorted list.\r\n     * @param list A storage pointer to the underlying list.\r\n     * @param key The element key.\r\n     * @return The element value.\r\n     */\r\n    function getValue(SortedLinkedList.List storage list, address key) public view returns (uint256) {\r\n        return list.getValue(toBytes(key));\r\n    }\r\n\r\n    /**\r\n     * @notice Gets all elements from the doubly linked list.\r\n     * @return An unpacked list of elements from largest to smallest.\r\n     */\r\n    function getElements(SortedLinkedList.List storage list)\r\n    public\r\n    view\r\n    returns (address[] memory, uint256[] memory)\r\n    {\r\n        bytes32[] memory byteKeys = list.getKeys();\r\n        address[] memory keys = new address[](byteKeys.length);\r\n        uint256[] memory values = new uint256[](byteKeys.length);\r\n        for (uint256 i = 0; i < byteKeys.length; i = i.add(1)) {\r\n            keys[i] = toAddress(byteKeys[i]);\r\n            values[i] = list.values[byteKeys[i]];\r\n        }\r\n        return (keys, values);\r\n    }\r\n\r\n    /**\r\n     * @notice Returns the minimum of `max` and the  number of elements in the list > threshold.\r\n     * @param list A storage pointer to the underlying list.\r\n     * @param threshold The number that the element must exceed to be included.\r\n     * @param max The maximum number returned by this function.\r\n     * @return The minimum of `max` and the  number of elements in the list > threshold.\r\n     */\r\n    function numElementsGreaterThan(\r\n        SortedLinkedList.List storage list,\r\n        uint256 threshold,\r\n        uint256 max\r\n    ) public view returns (uint256) {\r\n        uint256 revisedMax = Math.min(max, list.list.numElements);\r\n        bytes32 key = list.list.head;\r\n        for (uint256 i = 0; i < revisedMax; i = i.add(1)) {\r\n            if (list.getValue(key) < threshold) {\r\n                return i;\r\n            }\r\n            key = list.list.elements[key].previousKey;\r\n        }\r\n        return revisedMax;\r\n    }\r\n\r\n    /**\r\n     * @notice Returns the N greatest elements of the list.\r\n     * @param list A storage pointer to the underlying list.\r\n     * @param n The number of elements to return.\r\n     * @return The keys of the greatest elements.\r\n     */\r\n    function headN(SortedLinkedList.List storage list, uint256 n)\r\n    public\r\n    view\r\n    returns (address[] memory)\r\n    {\r\n        bytes32[] memory byteKeys = list.headN(n);\r\n        address[] memory keys = new address[](n);\r\n        for (uint256 i = 0; i < n; i = i.add(1)) {\r\n            keys[i] = toAddress(byteKeys[i]);\r\n        }\r\n        return keys;\r\n    }\r\n\r\n    /**\r\n     * @notice Gets all element keys from the doubly linked list.\r\n     * @param list A storage pointer to the underlying list.\r\n     * @return All element keys from head to tail.\r\n     */\r\n    function getKeys(SortedLinkedList.List storage list) public view returns (address[] memory) {\r\n        return headN(list, list.list.numElements);\r\n    }\r\n}\r\n\r\ncontract UsingRegistry is Ownable {\r\n    event RegistrySet(address indexed registryAddress);\r\n\r\n    // solhint-disable state-visibility\r\n    bytes32 constant ACCOUNTS_REGISTRY_ID = keccak256(abi.encodePacked(\"Accounts\"));\r\n\r\n    bytes32 constant VALIDATORS_REGISTRY_ID = keccak256(abi.encodePacked(\"Validators\"));\r\n    bytes32 constant LOCKED_GOLD_REGISTRY_ID = keccak256(abi.encodePacked(\"LockedGold\"));\r\n    // solhint-enable state-visibility\r\n\r\n    IRegistry public registry;\r\n\r\n\r\n\r\n    /**\r\n     * @notice Updates the address pointing to a Registry contract.\r\n     * @param registryAddress The address of a registry contract for routing to other contracts.\r\n     */\r\n    function setRegistry(address registryAddress) public onlyOwner {\r\n        require(registryAddress != address(0), \"Cannot register the null address\");\r\n        registry = IRegistry(registryAddress);\r\n        emit RegistrySet(registryAddress);\r\n    }\r\n\r\n    //-------------------\r\n    function getAccounts() internal view returns (IAccounts) {\r\n        return IAccounts(registry.getAddressForOrDie(ACCOUNTS_REGISTRY_ID));\r\n    }\r\n\r\n    //-------------------\r\n    function getLockedGold() internal view returns (ILockedGold) {\r\n        return ILockedGold(registry.getAddressForOrDie(LOCKED_GOLD_REGISTRY_ID));\r\n    }\r\n\r\n    //--------------------------\r\n    function getValidators() internal view returns (IValidators) {\r\n        return IValidators(registry.getAddressForOrDie(VALIDATORS_REGISTRY_ID));\r\n    }\r\n}\r\n\r\ncontract UsingPrecompiles {\r\n    using SafeMath for uint256;\r\n    address constant EPOCH_SIZE = address(0xff - 7);\r\n\r\n    /**\r\n     * @notice Returns the current epoch size in blocks.\r\n     * @return The current epoch size in blocks.\r\n     */\r\n    function getEpochSize() public view returns (uint256) {\r\n        bytes memory out;\r\n        bool success;\r\n        (success, out) = EPOCH_SIZE.staticcall(abi.encodePacked());\r\n        require(success, \"error calling getEpochSize precompile\");\r\n        return getUint256FromBytes(out, 0);\r\n    }\r\n\r\n    function getUint256FromBytes(bytes memory bs, uint256 start) internal pure returns (uint256) {\r\n        return uint256(getBytes32FromBytes(bs, start));\r\n    }\r\n\r\n    function getBytes32FromBytes(bytes memory bs, uint256 start) internal pure returns (bytes32) {\r\n        require(bs.length >= start.add(32), \"slicing out of range\");\r\n        bytes32 x;\r\n        assembly {\r\n            x := mload(add(bs, add(start, 32)))\r\n        }\r\n        return x;\r\n    }\r\n\r\n    //----------------\r\n    function getEpochNumberOfBlock(uint256 blockNumber) public view returns (uint256) {\r\n        return epochNumberOfBlock(blockNumber, getEpochSize());\r\n    }\r\n\r\n    //--------------\r\n    function getEpochNumber() public view returns (uint256) {\r\n        return getEpochNumberOfBlock(block.number);\r\n    }\r\n\r\n    //---------------------\r\n    function epochNumberOfBlock(uint256 blockNumber, uint256 epochSize)\r\n    internal\r\n    pure\r\n    returns (uint256)\r\n    {\r\n        // Follows GetEpochNumber from celo-blockchain/blob/master/consensus/istanbul/utils.go\r\n        uint256 epochNumber = blockNumber / epochSize;\r\n        if (blockNumber % epochSize == 0) {\r\n            return epochNumber;\r\n        } else {\r\n            return epochNumber.add(1);\r\n        }\r\n    }\r\n}\r\n\r\ncontract Election is\r\nOwnable,\r\nReentrancyGuard,\r\nInitializable,\r\nUsingRegistry,\r\nUsingPrecompiles,\r\nConsole\r\n{\r\n    using AddressSortedLinkedList for SortedLinkedList.List;\r\n    using FixidityLib for FixidityLib.Fraction;\r\n    using SafeMath for uint256;\r\n    uint256 private constant UNIT_PRECISION_FACTOR = 100000000000000000000;\r\n    IValidators2 public Validators2;\r\n\r\n\r\n    struct PendingVote {\r\n        uint256 value;\r\n        uint256 epoch;\r\n    }\r\n\r\n    struct GroupPendingVotes {\r\n        uint256 total;\r\n        mapping(address => PendingVote) byAccount;\r\n    }\r\n\r\n    struct PendingVotes {\r\n        uint256 total;\r\n        mapping(address => GroupPendingVotes) forGroup;\r\n    }\r\n\r\n    struct GroupActiveVotes {\r\n        uint256 total;\r\n        uint256 totalUnits;\r\n        mapping(address => uint256) unitsByAccount;\r\n    }\r\n\r\n    struct ActiveVotes {\r\n        uint256 total;\r\n        mapping(address => GroupActiveVotes) forGroup;\r\n    }\r\n\r\n    struct TotalVotes {\r\n        SortedLinkedList.List eligible;\r\n    }\r\n\r\n    struct Votes {\r\n        PendingVotes pending;\r\n        ActiveVotes active;\r\n        TotalVotes total;\r\n        mapping(address => address[]) groupsVotedFor;\r\n    }\r\n\r\n    struct ElectableValidators {\r\n        uint256 min;\r\n        uint256 max;\r\n    }\r\n\r\n    Votes private votes;\r\n    ElectableValidators public electableValidators;\r\n    uint256 public maxNumGroupsVotedFor;\r\n    FixidityLib.Fraction public electabilityThreshold;\r\n\r\n\r\n    function initialize(\r\n        address registryAddress\r\n    ) external initializer {\r\n        _transferOwnership(msg.sender);\r\n        setRegistry(registryAddress);\r\n\r\n    }\r\n\r\n    /**\r\n     * @notice Sets initialized == true on implementation contracts\r\n     * @param test Set to true to skip implementation initialization\r\n     */\r\n    constructor(bool test) public Initializable(test) {}\r\n\r\n    function vote(address group, uint256 value, address lesser, address greater)\r\n    external\r\n    returns (bool)\r\n    {\r\n//        require(votes.total.eligible.contains(group), \"Group not eligible\");\r\n//        require(0 < value, \"Vote value cannot be zero\");\r\n//        //    address account = getAccounts().voteSignerToAccount(msg.sender);\r\n//        address account = msg.sender;\r\n//        // Add group to the groups voted for by the account.\r\n//        bool alreadyVotedForGroup = false;\r\n//        address[] storage groups = votes.groupsVotedFor[account];\r\n//        for (uint256 i = 0; i < groups.length; i = i.add(1)) {\r\n//            alreadyVotedForGroup = alreadyVotedForGroup || groups[i] == group;\r\n//        }\r\n//        if (!alreadyVotedForGroup) {\r\n//            //      require(groups.length < maxNumGroupsVotedFor, \"Voted for too many groups\");\r\n//            groups.push(group);\r\n//        }\r\n\r\n        //    incrementPendingVotes(group, account, value);\r\n        //    incrementTotalVotes(group, value, lesser, greater);\r\n        //    getLockedGold().decrementNonvotingAccountBalance(account, value);\r\n\r\n        return true;\r\n    }\r\n\r\n    function incrementTotalVotes(address group, uint256 value, address lesser, address greater)\r\n    private\r\n    {\r\n        uint256 newVoteTotal = votes.total.eligible.getValue(group).add(value);\r\n        votes.total.eligible.update(group, newVoteTotal, lesser, greater);\r\n    }\r\n\r\n    function incrementPendingVotes(address group, address account, uint256 value) private {\r\n        PendingVotes storage pending = votes.pending;\r\n        pending.total = pending.total.add(value);\r\n\r\n        GroupPendingVotes storage groupPending = pending.forGroup[group];\r\n        groupPending.total = groupPending.total.add(value);\r\n\r\n        PendingVote storage pendingVote = groupPending.byAccount[account];\r\n        pendingVote.value = pendingVote.value.add(value);\r\n        pendingVote.epoch = getEpochNumber();\r\n    }\r\n\r\n\r\n    function electValidatorSigners(address group) external view returns (address[] memory) {\r\n        address[] memory electedValidators = new address[](1);\r\n//        return Validators2.getGroupValidators(group, 1);\r\n//                return electNValidatorSigners(electableValidators.min, electableValidators.max);\r\n        return electedValidators;\r\n    }\r\n    // zhangwei change\r\n    function electNValidatorSigners(uint256 minElectableValidators, uint256 maxElectableValidators)\r\n    public\r\n    view\r\n    returns (address[] memory)\r\n    {\r\n        // Groups must have at least `electabilityThreshold` proportion of the total votes to be\r\n        // considered for the election.\r\n        uint256 requiredVotes = electabilityThreshold\r\n        .multiply(FixidityLib.newFixed(getTotalVotes()))\r\n        .fromFixed();\r\n        // Only consider groups with at least `requiredVotes` but do not consider more groups than the\r\n        // max number of electable validators.\r\n        uint256 numElectionGroups = votes.total.eligible.numElementsGreaterThan(\r\n            requiredVotes,\r\n            maxElectableValidators\r\n        );\r\n        address[] memory electionGroups = votes.total.eligible.headN(numElectionGroups);\r\n        uint256[] memory numMembers = getValidators().getGroupsNumMembers(electionGroups);\r\n        // Holds the number of members elected for each of the eligible validator groups.\r\n        uint256[] memory numMembersElected = new uint256[](electionGroups.length);\r\n        uint256 totalNumMembersElected = 0;\r\n\r\n        uint256[] memory keys = new uint256[](electionGroups.length);\r\n        FixidityLib.Fraction[] memory votesForNextMember = new FixidityLib.Fraction[](\r\n            electionGroups.length\r\n        );\r\n        for (uint256 i = 0; i < electionGroups.length; i = i.add(1)) {\r\n            keys[i] = i;\r\n            votesForNextMember[i] = FixidityLib.newFixed(\r\n                votes.total.eligible.getValue(electionGroups[i])\r\n            );\r\n        }\r\n\r\n        // Assign a number of seats to each validator group.\r\n        while (totalNumMembersElected < maxElectableValidators && electionGroups.length > 0) {\r\n            uint256 groupIndex = keys[0];\r\n            // All electable validators have been elected.\r\n            if (votesForNextMember[groupIndex].unwrap() == 0) break;\r\n            // All members of the group have been elected\r\n            if (numMembers[groupIndex] <= numMembersElected[groupIndex]) {\r\n                votesForNextMember[groupIndex] = FixidityLib.wrap(0);\r\n            } else {\r\n                // Elect the next member from the validator group\r\n                numMembersElected[groupIndex] = numMembersElected[groupIndex].add(1);\r\n                totalNumMembersElected = totalNumMembersElected.add(1);\r\n                // If there are already n elected members in a group, the votes for the next member\r\n                // are total votes of group divided by n+1\r\n                votesForNextMember[groupIndex] = FixidityLib\r\n                .newFixed(votes.total.eligible.getValue(electionGroups[groupIndex]))\r\n                .divide(FixidityLib.newFixed(numMembersElected[groupIndex].add(1)));\r\n            }\r\n            Heap.heapifyDown(keys, votesForNextMember);\r\n        }\r\n        require(totalNumMembersElected >= minElectableValidators, \"Not enough elected validators\");\r\n        // Grab the top validators from each group that won seats.\r\n        address[] memory electedValidators = new address[](totalNumMembersElected);\r\n        totalNumMembersElected = 0;\r\n        for (uint256 i = 0; i < electionGroups.length; i = i.add(1)) {\r\n            // We use the validating delegate if one is set.\r\n            address[] memory electedGroupValidators = getValidators().getTopGroupValidators(\r\n                electionGroups[i],\r\n                numMembersElected[i]\r\n            );\r\n            for (uint256 j = 0; j < electedGroupValidators.length; j = j.add(1)) {\r\n                electedValidators[totalNumMembersElected] = electedGroupValidators[j];\r\n                totalNumMembersElected = totalNumMembersElected.add(1);\r\n            }\r\n        }\r\n        return electedValidators;\r\n    }\r\n\r\n    function getTotalVotes() public view returns (uint256) {\r\n        return votes.active.total.add(votes.pending.total);\r\n    }\r\n\r\n    function setValidators2(address validators2) public  {\r\n        Validators2 = IValidators2(validators2);\r\n        log(\"setValidators2\", validators2);\r\n    }\r\n}\r\n",
  "sourcePath": "D:\\work\\zhangwei812\\mySolidity\\mySolidity\\contracts\\Election.sol",
  "compiler": {
    "name": "solc",
    "version": "0.5.16+commit.9c3226ce.Emscripten.clang"
  },
  "schemaVersion": "3.4.3",
  "updatedAt": "2021-11-01T07:18:15.787Z",
  "devdoc": {
    "methods": {
      "constructor": {
        "params": {
          "test": "Set to true to skip implementation initialization"
        }
      },
      "getEpochSize()": {
        "return": "The current epoch size in blocks."
      },
      "isOwner()": {
        "details": "Returns true if the caller is the current owner."
      },
      "owner()": {
        "details": "Returns the address of the current owner."
      },
      "renounceOwnership()": {
        "details": "Leaves the contract without owner. It will not be possible to call `onlyOwner` functions anymore. Can only be called by the current owner.     * NOTE: Renouncing ownership will leave the contract without an owner, thereby removing any functionality that is only available to the owner."
      },
      "setRegistry(address)": {
        "params": {
          "registryAddress": "The address of a registry contract for routing to other contracts."
        }
      },
      "transferOwnership(address)": {
        "details": "Transfers ownership of the contract to a new account (`newOwner`). Can only be called by the current owner."
      }
    }
  },
  "userdoc": {
    "methods": {
      "constructor": "Sets initialized == true on implementation contracts",
      "getEpochSize()": {
        "notice": "Returns the current epoch size in blocks."
      },
      "setRegistry(address)": {
        "notice": "Updates the address pointing to a Registry contract."
      }
    }
  }
}