{
  "contractName": "Initializable",
  "abi": [
    {
      "inputs": [
        {
          "internalType": "bool",
          "name": "testingDeployment",
          "type": "bool"
        }
      ],
      "payable": false,
      "stateMutability": "nonpayable",
      "type": "constructor"
    },
    {
      "constant": true,
      "inputs": [],
      "name": "initialized",
      "outputs": [
        {
          "internalType": "bool",
          "name": "",
          "type": "bool"
        }
      ],
      "payable": false,
      "stateMutability": "view",
      "type": "function"
    }
  ],
  "bytecode": "0x608060405234801561001057600080fd5b506040516101073803806101078339818101604052602081101561003357600080fd5b8101908080519060200190929190505050806100645760016000806101000a81548160ff0219169083151502179055505b506094806100736000396000f3fe6080604052348015600f57600080fd5b506004361060285760003560e01c8063158ef93e14602d575b600080fd5b6033604d565b604051808215151515815260200191505060405180910390f35b6000809054906101000a900460ff168156fea265627a7a72315820c7d6670811ecbdf8792d0b05a517a4e6425cabaea38f2ab24356af4de22864ad64736f6c63430005100032",
  "source": "pragma solidity ^0.5.13;\r\n\r\ncontract Initializable {\r\n    bool public initialized;\r\n\r\n    constructor(bool testingDeployment) public {\r\n        if (!testingDeployment) {\r\n            initialized = true;\r\n        }\r\n    }\r\n    //定义变量\r\n    modifier initializer() {\r\n        require(!initialized, \"contract already initialized\");\r\n        initialized = true;\r\n        _;\r\n    }\r\n}\r\n",
  "sourcePath": "D:\\work\\zhangwei812\\mySolidity\\mySolidity\\contracts\\Initializable.sol",
  "compiler": {
    "name": "solc",
    "version": "0.5.16+commit.9c3226ce.Emscripten.clang"
  },
  "schemaVersion": "3.4.3",
  "updatedAt": "2021-11-01T07:18:16.021Z",
  "devdoc": {
    "methods": {}
  },
  "userdoc": {
    "methods": {}
  }
}