{
  "contractName": "LockedGold",
  "abi": [
    {
      "inputs": [
        {
          "internalType": "bool",
          "name": "test",
          "type": "bool"
        }
      ],
      "payable": false,
      "stateMutability": "nonpayable",
      "type": "constructor"
    },
    {
      "anonymous": false,
      "inputs": [
        {
          "indexed": true,
          "internalType": "address",
          "name": "slashed",
          "type": "address"
        },
        {
          "indexed": false,
          "internalType": "uint256",
          "name": "penalty",
          "type": "uint256"
        },
        {
          "indexed": true,
          "internalType": "address",
          "name": "reporter",
          "type": "address"
        },
        {
          "indexed": false,
          "internalType": "uint256",
          "name": "reward",
          "type": "uint256"
        }
      ],
      "name": "AccountSlashed",
      "type": "event"
    },
    {
      "anonymous": false,
      "inputs": [
        {
          "indexed": true,
          "internalType": "address",
          "name": "account",
          "type": "address"
        },
        {
          "indexed": false,
          "internalType": "uint256",
          "name": "value",
          "type": "uint256"
        }
      ],
      "name": "GoldLocked",
      "type": "event"
    },
    {
      "anonymous": false,
      "inputs": [
        {
          "indexed": true,
          "internalType": "address",
          "name": "account",
          "type": "address"
        },
        {
          "indexed": false,
          "internalType": "uint256",
          "name": "value",
          "type": "uint256"
        }
      ],
      "name": "GoldRelocked",
      "type": "event"
    },
    {
      "anonymous": false,
      "inputs": [
        {
          "indexed": true,
          "internalType": "address",
          "name": "account",
          "type": "address"
        },
        {
          "indexed": false,
          "internalType": "uint256",
          "name": "value",
          "type": "uint256"
        },
        {
          "indexed": false,
          "internalType": "uint256",
          "name": "available",
          "type": "uint256"
        }
      ],
      "name": "GoldUnlocked",
      "type": "event"
    },
    {
      "anonymous": false,
      "inputs": [
        {
          "indexed": true,
          "internalType": "address",
          "name": "account",
          "type": "address"
        },
        {
          "indexed": false,
          "internalType": "uint256",
          "name": "value",
          "type": "uint256"
        }
      ],
      "name": "GoldWithdrawn",
      "type": "event"
    },
    {
      "anonymous": false,
      "inputs": [
        {
          "indexed": true,
          "internalType": "address",
          "name": "previousOwner",
          "type": "address"
        },
        {
          "indexed": true,
          "internalType": "address",
          "name": "newOwner",
          "type": "address"
        }
      ],
      "name": "OwnershipTransferred",
      "type": "event"
    },
    {
      "anonymous": false,
      "inputs": [
        {
          "indexed": true,
          "internalType": "address",
          "name": "registryAddress",
          "type": "address"
        }
      ],
      "name": "RegistrySet",
      "type": "event"
    },
    {
      "anonymous": false,
      "inputs": [
        {
          "indexed": true,
          "internalType": "string",
          "name": "slasherIdentifier",
          "type": "string"
        }
      ],
      "name": "SlasherWhitelistAdded",
      "type": "event"
    },
    {
      "anonymous": false,
      "inputs": [
        {
          "indexed": true,
          "internalType": "string",
          "name": "slasherIdentifier",
          "type": "string"
        }
      ],
      "name": "SlasherWhitelistRemoved",
      "type": "event"
    },
    {
      "anonymous": false,
      "inputs": [
        {
          "indexed": false,
          "internalType": "uint256",
          "name": "period",
          "type": "uint256"
        }
      ],
      "name": "UnlockingPeriodSet",
      "type": "event"
    },
    {
      "constant": true,
      "inputs": [
        {
          "internalType": "address",
          "name": "",
          "type": "address"
        }
      ],
      "name": "balances",
      "outputs": [
        {
          "internalType": "uint256",
          "name": "nonvoting",
          "type": "uint256"
        }
      ],
      "payable": false,
      "stateMutability": "view",
      "type": "function"
    },
    {
      "constant": true,
      "inputs": [],
      "name": "initialized",
      "outputs": [
        {
          "internalType": "bool",
          "name": "",
          "type": "bool"
        }
      ],
      "payable": false,
      "stateMutability": "view",
      "type": "function"
    },
    {
      "constant": true,
      "inputs": [],
      "name": "isOwner",
      "outputs": [
        {
          "internalType": "bool",
          "name": "",
          "type": "bool"
        }
      ],
      "payable": false,
      "stateMutability": "view",
      "type": "function"
    },
    {
      "constant": true,
      "inputs": [],
      "name": "owner",
      "outputs": [
        {
          "internalType": "address",
          "name": "",
          "type": "address"
        }
      ],
      "payable": false,
      "stateMutability": "view",
      "type": "function"
    },
    {
      "constant": true,
      "inputs": [],
      "name": "registry",
      "outputs": [
        {
          "internalType": "contract IRegistry",
          "name": "",
          "type": "address"
        }
      ],
      "payable": false,
      "stateMutability": "view",
      "type": "function"
    },
    {
      "constant": false,
      "inputs": [],
      "name": "renounceOwnership",
      "outputs": [],
      "payable": false,
      "stateMutability": "nonpayable",
      "type": "function"
    },
    {
      "constant": false,
      "inputs": [
        {
          "internalType": "address",
          "name": "registryAddress",
          "type": "address"
        }
      ],
      "name": "setRegistry",
      "outputs": [],
      "payable": false,
      "stateMutability": "nonpayable",
      "type": "function"
    },
    {
      "constant": true,
      "inputs": [
        {
          "internalType": "uint256",
          "name": "",
          "type": "uint256"
        }
      ],
      "name": "slashingWhitelist",
      "outputs": [
        {
          "internalType": "bytes32",
          "name": "",
          "type": "bytes32"
        }
      ],
      "payable": false,
      "stateMutability": "view",
      "type": "function"
    },
    {
      "constant": true,
      "inputs": [],
      "name": "totalNonvoting",
      "outputs": [
        {
          "internalType": "uint256",
          "name": "",
          "type": "uint256"
        }
      ],
      "payable": false,
      "stateMutability": "view",
      "type": "function"
    },
    {
      "constant": false,
      "inputs": [
        {
          "internalType": "address",
          "name": "newOwner",
          "type": "address"
        }
      ],
      "name": "transferOwnership",
      "outputs": [],
      "payable": false,
      "stateMutability": "nonpayable",
      "type": "function"
    },
    {
      "constant": true,
      "inputs": [],
      "name": "unlockingPeriod",
      "outputs": [
        {
          "internalType": "uint256",
          "name": "",
          "type": "uint256"
        }
      ],
      "payable": false,
      "stateMutability": "view",
      "type": "function"
    },
    {
      "constant": true,
      "inputs": [
        {
          "internalType": "address",
          "name": "slasher",
          "type": "address"
        }
      ],
      "name": "isSlasher",
      "outputs": [
        {
          "internalType": "bool",
          "name": "",
          "type": "bool"
        }
      ],
      "payable": false,
      "stateMutability": "view",
      "type": "function"
    },
    {
      "constant": true,
      "inputs": [],
      "name": "getVersionNumber",
      "outputs": [
        {
          "internalType": "uint256",
          "name": "",
          "type": "uint256"
        },
        {
          "internalType": "uint256",
          "name": "",
          "type": "uint256"
        },
        {
          "internalType": "uint256",
          "name": "",
          "type": "uint256"
        },
        {
          "internalType": "uint256",
          "name": "",
          "type": "uint256"
        }
      ],
      "payable": false,
      "stateMutability": "pure",
      "type": "function"
    },
    {
      "constant": false,
      "inputs": [
        {
          "internalType": "address",
          "name": "registryAddress",
          "type": "address"
        },
        {
          "internalType": "uint256",
          "name": "_unlockingPeriod",
          "type": "uint256"
        }
      ],
      "name": "initialize",
      "outputs": [],
      "payable": false,
      "stateMutability": "nonpayable",
      "type": "function"
    },
    {
      "constant": false,
      "inputs": [
        {
          "internalType": "uint256",
          "name": "value",
          "type": "uint256"
        }
      ],
      "name": "setUnlockingPeriod",
      "outputs": [],
      "payable": false,
      "stateMutability": "nonpayable",
      "type": "function"
    },
    {
      "constant": false,
      "inputs": [],
      "name": "lock",
      "outputs": [],
      "payable": true,
      "stateMutability": "payable",
      "type": "function"
    },
    {
      "constant": false,
      "inputs": [
        {
          "internalType": "address",
          "name": "account",
          "type": "address"
        },
        {
          "internalType": "uint256",
          "name": "value",
          "type": "uint256"
        }
      ],
      "name": "incrementNonvotingAccountBalance",
      "outputs": [],
      "payable": false,
      "stateMutability": "nonpayable",
      "type": "function"
    },
    {
      "constant": false,
      "inputs": [
        {
          "internalType": "address",
          "name": "account",
          "type": "address"
        },
        {
          "internalType": "uint256",
          "name": "value",
          "type": "uint256"
        }
      ],
      "name": "decrementNonvotingAccountBalance",
      "outputs": [],
      "payable": false,
      "stateMutability": "nonpayable",
      "type": "function"
    },
    {
      "constant": false,
      "inputs": [
        {
          "internalType": "uint256",
          "name": "value",
          "type": "uint256"
        }
      ],
      "name": "unlock",
      "outputs": [],
      "payable": false,
      "stateMutability": "nonpayable",
      "type": "function"
    },
    {
      "constant": false,
      "inputs": [
        {
          "internalType": "uint256",
          "name": "index",
          "type": "uint256"
        },
        {
          "internalType": "uint256",
          "name": "value",
          "type": "uint256"
        }
      ],
      "name": "relock",
      "outputs": [],
      "payable": false,
      "stateMutability": "nonpayable",
      "type": "function"
    },
    {
      "constant": false,
      "inputs": [
        {
          "internalType": "uint256",
          "name": "index",
          "type": "uint256"
        }
      ],
      "name": "withdraw",
      "outputs": [],
      "payable": false,
      "stateMutability": "nonpayable",
      "type": "function"
    },
    {
      "constant": true,
      "inputs": [],
      "name": "getTotalLockedGold",
      "outputs": [
        {
          "internalType": "uint256",
          "name": "",
          "type": "uint256"
        }
      ],
      "payable": false,
      "stateMutability": "view",
      "type": "function"
    },
    {
      "constant": true,
      "inputs": [],
      "name": "getNonvotingLockedGold",
      "outputs": [
        {
          "internalType": "uint256",
          "name": "",
          "type": "uint256"
        }
      ],
      "payable": false,
      "stateMutability": "view",
      "type": "function"
    },
    {
      "constant": true,
      "inputs": [
        {
          "internalType": "address",
          "name": "account",
          "type": "address"
        }
      ],
      "name": "getAccountTotalLockedGold",
      "outputs": [
        {
          "internalType": "uint256",
          "name": "",
          "type": "uint256"
        }
      ],
      "payable": false,
      "stateMutability": "view",
      "type": "function"
    },
    {
      "constant": true,
      "inputs": [
        {
          "internalType": "address",
          "name": "account",
          "type": "address"
        }
      ],
      "name": "getAccountNonvotingLockedGold",
      "outputs": [
        {
          "internalType": "uint256",
          "name": "",
          "type": "uint256"
        }
      ],
      "payable": false,
      "stateMutability": "view",
      "type": "function"
    },
    {
      "constant": true,
      "inputs": [
        {
          "internalType": "address",
          "name": "account",
          "type": "address"
        }
      ],
      "name": "getPendingWithdrawals",
      "outputs": [
        {
          "internalType": "uint256[]",
          "name": "",
          "type": "uint256[]"
        },
        {
          "internalType": "uint256[]",
          "name": "",
          "type": "uint256[]"
        }
      ],
      "payable": false,
      "stateMutability": "view",
      "type": "function"
    },
    {
      "constant": true,
      "inputs": [
        {
          "internalType": "address",
          "name": "account",
          "type": "address"
        }
      ],
      "name": "getTotalPendingWithdrawals",
      "outputs": [
        {
          "internalType": "uint256",
          "name": "",
          "type": "uint256"
        }
      ],
      "payable": false,
      "stateMutability": "view",
      "type": "function"
    },
    {
      "constant": true,
      "inputs": [],
      "name": "getSlashingWhitelist",
      "outputs": [
        {
          "internalType": "bytes32[]",
          "name": "",
          "type": "bytes32[]"
        }
      ],
      "payable": false,
      "stateMutability": "view",
      "type": "function"
    },
    {
      "constant": false,
      "inputs": [
        {
          "internalType": "string",
          "name": "slasherIdentifier",
          "type": "string"
        }
      ],
      "name": "addSlasher",
      "outputs": [],
      "payable": false,
      "stateMutability": "nonpayable",
      "type": "function"
    },
    {
      "constant": false,
      "inputs": [
        {
          "internalType": "string",
          "name": "slasherIdentifier",
          "type": "string"
        },
        {
          "internalType": "uint256",
          "name": "index",
          "type": "uint256"
        }
      ],
      "name": "removeSlasher",
      "outputs": [],
      "payable": false,
      "stateMutability": "nonpayable",
      "type": "function"
    },
    {
      "constant": false,
      "inputs": [
        {
          "internalType": "address",
          "name": "account",
          "type": "address"
        },
        {
          "internalType": "uint256",
          "name": "penalty",
          "type": "uint256"
        },
        {
          "internalType": "address",
          "name": "reporter",
          "type": "address"
        },
        {
          "internalType": "uint256",
          "name": "reward",
          "type": "uint256"
        },
        {
          "internalType": "address[]",
          "name": "lessers",
          "type": "address[]"
        },
        {
          "internalType": "address[]",
          "name": "greaters",
          "type": "address[]"
        },
        {
          "internalType": "uint256[]",
          "name": "indices",
          "type": "uint256[]"
        }
      ],
      "name": "slash",
      "outputs": [],
      "payable": false,
      "stateMutability": "nonpayable",
      "type": "function"
    }
  ],
  "bytecode": "0x60806040523480156200001157600080fd5b506040516200462338038062004623833981810160405260208110156200003757600080fd5b810190808051906020019092919050505080600160008190555080620000725760018060006101000a81548160ff0219169083151502179055505b506000620000856200012a60201b60201c565b9050806001806101000a81548173ffffffffffffffffffffffffffffffffffffffff021916908373ffffffffffffffffffffffffffffffffffffffff1602179055508073ffffffffffffffffffffffffffffffffffffffff16600073ffffffffffffffffffffffffffffffffffffffff167f8be0079c531659141344cd1fd0a4f28419497f9722a3daafe3b4186f6b6457e060405160405180910390a3505062000132565b600033905090565b6144e180620001426000396000f3fe6080604052600436106101d85760003560e01c806366f0633b11610102578063a91ee0dc11610095578063cd6dc68711610064578063cd6dc68714610b3b578063f2fde38b14610b96578063f340c0d014610be7578063f83d08ba14610cd5576101d8565b8063a91ee0dc14610a15578063b2fb30cb14610a66578063b6e1e49d14610aab578063c1867f6d14610b10576101d8565b80637b103999116100d15780637b1039991461090d578063807876b7146109645780638da5cb5b1461098f5780638f32d59b146109e6576101d8565b806366f0633b146108115780636adcc9381461084c5780636edf77a51461089b578063715018a6146108f6576101d8565b806330a61d591161017a57806354255be01161014957806354255be0146106a757806357601c5d146106e75780636198e33914610750578063648911981461078b576101d8565b806330a61d591461042e57806330ec70f51461045957806331993fc9146104be5780633f199b4014610642576101d8565b80631fe2dfda116101b65780631fe2dfda146102d357806320637d8e1461036357806327e235e31461038e5780632e1a7d4d146103f3576101d8565b806308764ee2146101dd578063158ef93e1461024957806318a4ff8c14610278575b600080fd5b3480156101e957600080fd5b506101f2610cdf565b6040518080602001828103825283818151815260200191508051906020019060200280838360005b8381101561023557808201518184015260208101905061021a565b505050509050019250505060405180910390f35b34801561025557600080fd5b5061025e610d37565b604051808215151515815260200191505060405180910390f35b34801561028457600080fd5b506102d16004803603604081101561029b57600080fd5b81019080803573ffffffffffffffffffffffffffffffffffffffff16906020019092919080359060200190929190505050610d4a565b005b3480156102df57600080fd5b50610361600480360360408110156102f657600080fd5b810190808035906020019064010000000081111561031357600080fd5b82018360208201111561032557600080fd5b8035906020019184600183028401116401000000008311171561034757600080fd5b909192939192939080359060200190929190505050610eee565b005b34801561036f57600080fd5b506103786111d4565b6040518082815260200191505060405180910390f35b34801561039a57600080fd5b506103dd600480360360208110156103b157600080fd5b81019080803573ffffffffffffffffffffffffffffffffffffffff1690602001909291905050506111da565b6040518082815260200191505060405180910390f35b3480156103ff57600080fd5b5061042c6004803603602081101561041657600080fd5b81019080803590602001909291905050506111f8565b005b34801561043a57600080fd5b5061044361161a565b6040518082815260200191505060405180910390f35b34801561046557600080fd5b506104a86004803603602081101561047c57600080fd5b81019080803573ffffffffffffffffffffffffffffffffffffffff1690602001909291905050506116bd565b6040518082815260200191505060405180910390f35b3480156104ca57600080fd5b50610640600480360360e08110156104e157600080fd5b81019080803573ffffffffffffffffffffffffffffffffffffffff16906020019092919080359060200190929190803573ffffffffffffffffffffffffffffffffffffffff169060200190929190803590602001909291908035906020019064010000000081111561055257600080fd5b82018360208201111561056457600080fd5b8035906020019184602083028401116401000000008311171561058657600080fd5b9091929391929390803590602001906401000000008111156105a757600080fd5b8201836020820111156105b957600080fd5b803590602001918460208302840111640100000000831117156105db57600080fd5b9091929391929390803590602001906401000000008111156105fc57600080fd5b82018360208201111561060e57600080fd5b8035906020019184602083028401116401000000008311171561063057600080fd5b90919293919293905050506117de565b005b34801561064e57600080fd5b506106916004803603602081101561066557600080fd5b81019080803573ffffffffffffffffffffffffffffffffffffffff169060200190929190505050611e73565b6040518082815260200191505060405180910390f35b3480156106b357600080fd5b506106bc611ebf565b6040518085815260200184815260200183815260200182815260200194505050505060405180910390f35b3480156106f357600080fd5b506107366004803603602081101561070a57600080fd5b81019080803573ffffffffffffffffffffffffffffffffffffffff169060200190929190505050611ee6565b604051808215151515815260200191505060405180910390f35b34801561075c57600080fd5b506107896004803603602081101561077357600080fd5b8101908080359060200190929190505050612010565b005b34801561079757600080fd5b5061080f600480360360208110156107ae57600080fd5b81019080803590602001906401000000008111156107cb57600080fd5b8201836020820111156107dd57600080fd5b803590602001918460018302840111640100000000831117156107ff57600080fd5b909192939192939050505061257c565b005b34801561081d57600080fd5b5061084a6004803603602081101561083457600080fd5b81019080803590602001909291905050506128b6565b005b34801561085857600080fd5b506108856004803603602081101561086f57600080fd5b81019080803590602001909291905050506129e9565b6040518082815260200191505060405180910390f35b3480156108a757600080fd5b506108f4600480360360408110156108be57600080fd5b81019080803573ffffffffffffffffffffffffffffffffffffffff16906020019092919080359060200190929190505050612a0a565b005b34801561090257600080fd5b5061090b612bae565b005b34801561091957600080fd5b50610922612ce7565b604051808273ffffffffffffffffffffffffffffffffffffffff1673ffffffffffffffffffffffffffffffffffffffff16815260200191505060405180910390f35b34801561097057600080fd5b50610979612d0d565b6040518082815260200191505060405180910390f35b34801561099b57600080fd5b506109a4612d17565b604051808273ffffffffffffffffffffffffffffffffffffffff1673ffffffffffffffffffffffffffffffffffffffff16815260200191505060405180910390f35b3480156109f257600080fd5b506109fb612d40565b604051808215151515815260200191505060405180910390f35b348015610a2157600080fd5b50610a6460048036036020811015610a3857600080fd5b81019080803573ffffffffffffffffffffffffffffffffffffffff169060200190929190505050612d9e565b005b348015610a7257600080fd5b50610aa960048036036040811015610a8957600080fd5b810190808035906020019092919080359060200190929190505050612f42565b005b348015610ab757600080fd5b50610afa60048036036020811015610ace57600080fd5b81019080803573ffffffffffffffffffffffffffffffffffffffff1690602001909291905050506132da565b6040518082815260200191505060405180910390f35b348015610b1c57600080fd5b50610b256133f2565b6040518082815260200191505060405180910390f35b348015610b4757600080fd5b50610b9460048036036040811015610b5e57600080fd5b81019080803573ffffffffffffffffffffffffffffffffffffffff169060200190929190803590602001909291905050506133f8565b005b348015610ba257600080fd5b50610be560048036036020811015610bb957600080fd5b81019080803573ffffffffffffffffffffffffffffffffffffffff1690602001909291905050506134b4565b005b348015610bf357600080fd5b50610c3660048036036020811015610c0a57600080fd5b81019080803573ffffffffffffffffffffffffffffffffffffffff16906020019092919050505061353a565b604051808060200180602001838103835285818151815260200191508051906020019060200280838360005b83811015610c7d578082015181840152602081019050610c62565b50505050905001838103825284818151815260200191508051906020019060200280838360005b83811015610cbf578082015181840152602081019050610ca4565b5050505090500194505050505060405180910390f35b610cdd613817565b005b60606005805480602002602001604051908101604052809291908181526020018280548015610d2d57602002820191906000526020600020905b815481526020019060010190808311610d19575b5050505050905090565b600160009054906101000a900460ff1681565b60405160200180807f456c656374696f6e0000000000000000000000000000000000000000000000008152506008019050604051602081830303815290604052805190602001203373ffffffffffffffffffffffffffffffffffffffff16600260009054906101000a900473ffffffffffffffffffffffffffffffffffffffff1673ffffffffffffffffffffffffffffffffffffffff1663dcf0aaed836040518263ffffffff1660e01b81526004018082815260200191505060206040518083038186803b158015610e1b57600080fd5b505afa158015610e2f573d6000803e3d6000fd5b505050506040513d6020811015610e4557600080fd5b810190808051906020019092919050505073ffffffffffffffffffffffffffffffffffffffff1614610edf576040517f08c379a00000000000000000000000000000000000000000000000000000000081526004018080602001828103825260188152602001807f6f6e6c79207265676973746572656420636f6e7472616374000000000000000081525060200191505060405180910390fd5b610ee98383613909565b505050565b610ef6612d40565b610f68576040517f08c379a00000000000000000000000000000000000000000000000000000000081526004018080602001828103825260208152602001807f4f776e61626c653a2063616c6c6572206973206e6f7420746865206f776e657281525060200191505060405180910390fd5b600083836040516020018083838082843780830192505050925050506040516020818303038152906040528051906020012090506004600082815260200190815260200160002060009054906101000a900460ff16611012576040517f08c379a00000000000000000000000000000000000000000000000000000000081526004018080602001828103825260278152602001806144656027913960400191505060405180910390fd5b600580549050821061106f576040517f08c379a000000000000000000000000000000000000000000000000000000000815260040180806020018281038252602881526020018061443d6028913960400191505060405180910390fd5b806005838154811061107d57fe5b9060005260206000200154146110fb576040517f08c379a000000000000000000000000000000000000000000000000000000000815260040180806020018281038252601e8152602001807f496e64657820646f65736e2774206d61746368206964656e746966696572000081525060200191505060405180910390fd5b60056001600580549050038154811061111057fe5b90600052602060002001546005838154811061112857fe5b9060005260206000200181905550600580548061114157fe5b6001900381819060005260206000200160009055905560006004600083815260200190815260200160002060006101000a81548160ff021916908315150217905550838360405180838380828437808301925050509250505060405180910390207faee8df56d95b5766042c2ff4dcb39a120f0a09dd21bb9c143f86a314eff4b71460405160405180910390a250505050565b60075481565b60036020528060005260406000206000915090508060000154905081565b600160008082825401925050819055506000805490506112166139c3565b73ffffffffffffffffffffffffffffffffffffffff166325ca4c9c336040518263ffffffff1660e01b8152600401808273ffffffffffffffffffffffffffffffffffffffff1673ffffffffffffffffffffffffffffffffffffffff16815260200191505060206040518083038186803b15801561129257600080fd5b505afa1580156112a6573d6000803e3d6000fd5b505050506040513d60208110156112bc57600080fd5b810190808051906020019092919050505061133f576040517f08c379a000000000000000000000000000000000000000000000000000000000815260040180806020018281038252600f8152602001807f556e6b6e6f776e206163636f756e74000000000000000000000000000000000081525060200191505060405180910390fd5b6000600360003373ffffffffffffffffffffffffffffffffffffffff1673ffffffffffffffffffffffffffffffffffffffff1681526020019081526020016000209050806001018054905083106113fe576040517f08c379a000000000000000000000000000000000000000000000000000000000815260040180806020018281038252601c8152602001807f4261642070656e64696e67207769746864726177616c20696e6465780000000081525060200191505060405180910390fd5b600081600101848154811061140f57fe5b906000526020600020906002020190508060010154421015611499576040517f08c379a00000000000000000000000000000000000000000000000000000000081526004018080602001828103825260208152602001807f50656e64696e67207769746864726177616c206e6f7420617661696c61626c6581525060200191505060405180910390fd5b6000816000015490506114af8360010186613abe565b47811115611525576040517f08c379a00000000000000000000000000000000000000000000000000000000081526004018080602001828103825260148152602001807f496e636f6e73697374656e742062616c616e636500000000000000000000000081525060200191505060405180910390fd5b61154e813373ffffffffffffffffffffffffffffffffffffffff16613b3890919063ffffffff16565b3373ffffffffffffffffffffffffffffffffffffffff167f292d39ba701489b7f640c83806d3eeabe0a32c9f0a61b49e95612ebad42211cd826040518082815260200191505060405180910390a25050506000548114611616576040517f08c379a000000000000000000000000000000000000000000000000000000000815260040180806020018281038252600e8152602001807f7265656e7472616e742063616c6c00000000000000000000000000000000000081525060200191505060405180910390fd5b5050565b60006116b8611627613c72565b73ffffffffffffffffffffffffffffffffffffffff16639a0e7d666040518163ffffffff1660e01b815260040160206040518083038186803b15801561166c57600080fd5b505afa158015611680573d6000803e3d6000fd5b505050506040513d602081101561169657600080fd5b8101908080519060200190929190505050600654613d6d90919063ffffffff16565b905090565b600080600360008473ffffffffffffffffffffffffffffffffffffffff1673ffffffffffffffffffffffffffffffffffffffff1681526020019081526020016000206000015490506117d6611710613c72565b73ffffffffffffffffffffffffffffffffffffffff16636c781a2c856040518263ffffffff1660e01b8152600401808273ffffffffffffffffffffffffffffffffffffffff1673ffffffffffffffffffffffffffffffffffffffff16815260200191505060206040518083038186803b15801561178c57600080fd5b505afa1580156117a0573d6000803e3d6000fd5b505050506040513d60208110156117b657600080fd5b810190808051906020019092919050505082613d6d90919063ffffffff16565b915050919050565b600260009054906101000a900473ffffffffffffffffffffffffffffffffffffffff1673ffffffffffffffffffffffffffffffffffffffff166317c508186005336040518363ffffffff1660e01b815260040180806020018373ffffffffffffffffffffffffffffffffffffffff1673ffffffffffffffffffffffffffffffffffffffff16815260200182810382528481815481526020019150805480156118a557602002820191906000526020600020905b815481526020019060010190808311611891575b5050935050505060206040518083038186803b1580156118c457600080fd5b505afa1580156118d8573d6000803e3d6000fd5b505050506040513d60208110156118ee57600080fd5b8101908080519060200190929190505050611954576040517f08c379a00000000000000000000000000000000000000000000000000000000081526004018080602001828103825260248152602001806143906024913960400191505060405180910390fd5b60006119688a6119638d6116bd565b613df5565b9050878110156119e0576040517f08c379a000000000000000000000000000000000000000000000000000000000815260040180806020018281038252601d8152602001807f7265776172642063616e6e6f74206578636565642070656e616c74792e00000081525060200191505060405180910390fd5b6000600360008d73ffffffffffffffffffffffffffffffffffffffff1673ffffffffffffffffffffffffffffffffffffffff168152602001908152602001600020600001549050600080905082821015611c0f57611a478284613e0e90919063ffffffff16565b905080611a52613c72565b73ffffffffffffffffffffffffffffffffffffffff16638ef01def8f848d8d8d8d8d8d6040518963ffffffff1660e01b8152600401808973ffffffffffffffffffffffffffffffffffffffff1673ffffffffffffffffffffffffffffffffffffffff16815260200188815260200180602001806020018060200184810384528a8a82818152602001925060200280828437600081840152601f19601f8201169050808301925050508481038352888882818152602001925060200280828437600081840152601f19601f8201169050808301925050508481038252868682818152602001925060200280828437600081840152601f19601f8201169050808301925050509b505050505050505050505050602060405180830381600087803b158015611b7d57600080fd5b505af1158015611b91573d6000803e3d6000fd5b505050506040513d6020811015611ba757600080fd5b810190808051906020019092919050505014611c0e576040517f08c379a000000000000000000000000000000000000000000000000000000000815260040180806020018281038252602181526020018061448c6021913960400191505060405180910390fd5b5b611c2b8d611c268386613e0e90919063ffffffff16565b613909565b611c358b8b613e58565b50506000600260009054906101000a900473ffffffffffffffffffffffffffffffffffffffff1673ffffffffffffffffffffffffffffffffffffffff1663dcf0aaed60405160200180807f476f7665726e616e636500000000000000000000000000000000000000000000815250600a019050604051602081830303815290604052805190602001206040518263ffffffff1660e01b81526004018082815260200191505060206040518083038186803b158015611cf257600080fd5b505afa158015611d06573d6000803e3d6000fd5b505050506040513d6020811015611d1c57600080fd5b81019080805190602001909291905050509050600081905047611d488b85613e0e90919063ffffffff16565b1115611dbc576040517f08c379a00000000000000000000000000000000000000000000000000000000081526004018080602001828103825260148152602001807f496e636f6e73697374656e742062616c616e636500000000000000000000000081525060200191505060405180910390fd5b611df7611dd28b85613e0e90919063ffffffff16565b8273ffffffffffffffffffffffffffffffffffffffff16613b3890919063ffffffff16565b8a73ffffffffffffffffffffffffffffffffffffffff168d73ffffffffffffffffffffffffffffffffffffffff167f7abcb995a115c34a67528d58d5fc5ce02c22cb835ce1685046163f7d366d7111858d604051808381526020018281526020019250505060405180910390a350505050505050505050505050565b6000600360008373ffffffffffffffffffffffffffffffffffffffff1673ffffffffffffffffffffffffffffffffffffffff168152602001908152602001600020600001549050919050565b60008060008060018060016002839350829250819150809050935093509350935090919293565b6000600260009054906101000a900473ffffffffffffffffffffffffffffffffffffffff1673ffffffffffffffffffffffffffffffffffffffff166317c508186005846040518363ffffffff1660e01b815260040180806020018373ffffffffffffffffffffffffffffffffffffffff1673ffffffffffffffffffffffffffffffffffffffff1681526020018281038252848181548152602001915080548015611faf57602002820191906000526020600020905b815481526020019060010190808311611f9b575b5050935050505060206040518083038186803b158015611fce57600080fd5b505afa158015611fe2573d6000803e3d6000fd5b505050506040513d6020811015611ff857600080fd5b81019080805190602001909291905050509050919050565b6001600080828254019250508190555060008054905061202e6139c3565b73ffffffffffffffffffffffffffffffffffffffff166325ca4c9c336040518263ffffffff1660e01b8152600401808273ffffffffffffffffffffffffffffffffffffffff1673ffffffffffffffffffffffffffffffffffffffff16815260200191505060206040518083038186803b1580156120aa57600080fd5b505afa1580156120be573d6000803e3d6000fd5b505050506040513d60208110156120d457600080fd5b8101908080519060200190929190505050612157576040517f08c379a000000000000000000000000000000000000000000000000000000000815260040180806020018281038252600f8152602001807f556e6b6e6f776e206163636f756e74000000000000000000000000000000000081525060200191505060405180910390fd5b6000600360003373ffffffffffffffffffffffffffffffffffffffff1673ffffffffffffffffffffffffffffffffffffffff16815260200190815260200160002090506121a2613f12565b73ffffffffffffffffffffffffffffffffffffffff16635f8dd649336040518263ffffffff1660e01b8152600401808273ffffffffffffffffffffffffffffffffffffffff1673ffffffffffffffffffffffffffffffffffffffff16815260200191505060206040518083038186803b15801561221e57600080fd5b505afa158015612232573d6000803e3d6000fd5b505050506040513d602081101561224857600080fd5b8101908080519060200190929190505050156122cc576040517f08c379a000000000000000000000000000000000000000000000000000000000815260040180806020018281038252600e8152602001807f4163636f756e74206c6f636b656400000000000000000000000000000000000081525060200191505060405180910390fd5b60006122d661400d565b73ffffffffffffffffffffffffffffffffffffffff1663dcff4cf6336040518263ffffffff1660e01b8152600401808273ffffffffffffffffffffffffffffffffffffffff1673ffffffffffffffffffffffffffffffffffffffff16815260200191505060206040518083038186803b15801561235257600080fd5b505afa158015612366573d6000803e3d6000fd5b505050506040513d602081101561237c57600080fd5b8101908080519060200190929190505050905060008114806123b857506123b4846123a6336116bd565b613e0e90919063ffffffff16565b8111155b61242a576040517f08c379a000000000000000000000000000000000000000000000000000000000815260040180806020018281038252601e8152602001807f547279696e6720746f20756e6c6f636b20746f6f206d75636820676f6c64000081525060200191505060405180910390fd5b6124343385613909565b600061244b60075442613d6d90919063ffffffff16565b9050826001016040518060400160405280878152602001838152509080600181540180825580915050906001820390600052602060002090600202016000909192909190915060008201518160000155602082015181600101555050503373ffffffffffffffffffffffffffffffffffffffff167fb1a3aef2a332070da206ad1868a5e327f5aa5144e00e9a7b40717c153158a5888683604051808381526020018281526020019250505060405180910390a25050506000548114612578576040517f08c379a000000000000000000000000000000000000000000000000000000000815260040180806020018281038252600e8152602001807f7265656e7472616e742063616c6c00000000000000000000000000000000000081525060200191505060405180910390fd5b5050565b612584612d40565b6125f6576040517f08c379a00000000000000000000000000000000000000000000000000000000081526004018080602001828103825260208152602001807f4f776e61626c653a2063616c6c6572206973206e6f7420746865206f776e657281525060200191505060405180910390fd5b60008282604051602001808383808284378083019250505092505050604051602081830303815290604052805190602001209050600073ffffffffffffffffffffffffffffffffffffffff16600260009054906101000a900473ffffffffffffffffffffffffffffffffffffffff1673ffffffffffffffffffffffffffffffffffffffff1663dd927233836040518263ffffffff1660e01b81526004018082815260200191505060206040518083038186803b1580156126b557600080fd5b505afa1580156126c9573d6000803e3d6000fd5b505050506040513d60208110156126df57600080fd5b810190808051906020019092919050505073ffffffffffffffffffffffffffffffffffffffff16141561277a576040517f08c379a000000000000000000000000000000000000000000000000000000000815260040180806020018281038252601c8152602001807f4964656e746966696572206973206e6f7420726567697374657265640000000081525060200191505060405180910390fd5b6004600082815260200190815260200160002060009054906101000a900460ff161561280e576040517f08c379a000000000000000000000000000000000000000000000000000000000815260040180806020018281038252601c8152602001807f43616e6e6f742061646420736c61736865722049442074776963652e0000000081525060200191505060405180910390fd5b600581908060018154018082558091505090600182039060005260206000200160009091929091909150555060016004600083815260200190815260200160002060006101000a81548160ff021916908315150217905550828260405180838380828437808301925050509250505060405180910390207f92a16cb9e1846d175c3007fc61953d186452c9ea1aa34183eb4b7f88cd3f07bb60405160405180910390a2505050565b6128be612d40565b612930576040517f08c379a00000000000000000000000000000000000000000000000000000000081526004018080602001828103825260208152602001807f4f776e61626c653a2063616c6c6572206973206e6f7420746865206f776e657281525060200191505060405180910390fd5b6007548114156129a8576040517f08c379a000000000000000000000000000000000000000000000000000000000815260040180806020018281038252601c8152602001807f556e6c6f636b696e6720706572696f64206e6f74206368616e6765640000000081525060200191505060405180910390fd5b806007819055507fd9274a7c98edc7c66931fc71872764091e7023fe3867358f8504d4c21b161fc5816040518082815260200191505060405180910390a150565b600581815481106129f657fe5b906000526020600020016000915090505481565b60405160200180807f456c656374696f6e0000000000000000000000000000000000000000000000008152506008019050604051602081830303815290604052805190602001203373ffffffffffffffffffffffffffffffffffffffff16600260009054906101000a900473ffffffffffffffffffffffffffffffffffffffff1673ffffffffffffffffffffffffffffffffffffffff1663dcf0aaed836040518263ffffffff1660e01b81526004018082815260200191505060206040518083038186803b158015612adb57600080fd5b505afa158015612aef573d6000803e3d6000fd5b505050506040513d6020811015612b0557600080fd5b810190808051906020019092919050505073ffffffffffffffffffffffffffffffffffffffff1614612b9f576040517f08c379a00000000000000000000000000000000000000000000000000000000081526004018080602001828103825260188152602001807f6f6e6c79207265676973746572656420636f6e7472616374000000000000000081525060200191505060405180910390fd5b612ba98383613e58565b505050565b612bb6612d40565b612c28576040517f08c379a00000000000000000000000000000000000000000000000000000000081526004018080602001828103825260208152602001807f4f776e61626c653a2063616c6c6572206973206e6f7420746865206f776e657281525060200191505060405180910390fd5b600073ffffffffffffffffffffffffffffffffffffffff166001809054906101000a900473ffffffffffffffffffffffffffffffffffffffff1673ffffffffffffffffffffffffffffffffffffffff167f8be0079c531659141344cd1fd0a4f28419497f9722a3daafe3b4186f6b6457e060405160405180910390a360006001806101000a81548173ffffffffffffffffffffffffffffffffffffffff021916908373ffffffffffffffffffffffffffffffffffffffff160217905550565b600260009054906101000a900473ffffffffffffffffffffffffffffffffffffffff1681565b6000600654905090565b60006001809054906101000a900473ffffffffffffffffffffffffffffffffffffffff16905090565b60006001809054906101000a900473ffffffffffffffffffffffffffffffffffffffff1673ffffffffffffffffffffffffffffffffffffffff16612d82614108565b73ffffffffffffffffffffffffffffffffffffffff1614905090565b612da6612d40565b612e18576040517f08c379a00000000000000000000000000000000000000000000000000000000081526004018080602001828103825260208152602001807f4f776e61626c653a2063616c6c6572206973206e6f7420746865206f776e657281525060200191505060405180910390fd5b600073ffffffffffffffffffffffffffffffffffffffff168173ffffffffffffffffffffffffffffffffffffffff161415612ebb576040517f08c379a00000000000000000000000000000000000000000000000000000000081526004018080602001828103825260208152602001807f43616e6e6f7420726567697374657220746865206e756c6c206164647265737381525060200191505060405180910390fd5b80600260006101000a81548173ffffffffffffffffffffffffffffffffffffffff021916908373ffffffffffffffffffffffffffffffffffffffff1602179055508073ffffffffffffffffffffffffffffffffffffffff167f27fe5f0c1c3b1ed427cc63d0f05759ffdecf9aec9e18d31ef366fc8a6cb5dc3b60405160405180910390a250565b60016000808282540192505081905550600080549050612f606139c3565b73ffffffffffffffffffffffffffffffffffffffff166325ca4c9c336040518263ffffffff1660e01b8152600401808273ffffffffffffffffffffffffffffffffffffffff1673ffffffffffffffffffffffffffffffffffffffff16815260200191505060206040518083038186803b158015612fdc57600080fd5b505afa158015612ff0573d6000803e3d6000fd5b505050506040513d602081101561300657600080fd5b8101908080519060200190929190505050613089576040517f08c379a000000000000000000000000000000000000000000000000000000000815260040180806020018281038252600f8152602001807f556e6b6e6f776e206163636f756e74000000000000000000000000000000000081525060200191505060405180910390fd5b6000600360003373ffffffffffffffffffffffffffffffffffffffff1673ffffffffffffffffffffffffffffffffffffffff168152602001908152602001600020905080600101805490508410613148576040517f08c379a000000000000000000000000000000000000000000000000000000000815260040180806020018281038252601c8152602001807f4261642070656e64696e67207769746864726177616c20696e6465780000000081525060200191505060405180910390fd5b600081600101858154811061315957fe5b9060005260206000209060020201905080600001548411156131c6576040517f08c379a00000000000000000000000000000000000000000000000000000000081526004018080602001828103825260298152602001806144146029913960400191505060405180910390fd5b80600001548414156131e4576131df8260010186613abe565b613204565b6131fb848260000154613e0e90919063ffffffff16565b81600001819055505b61320e3385613e58565b3373ffffffffffffffffffffffffffffffffffffffff167fa823fc38a01c2f76d7057a79bb5c317710f26f7dbdea78634598d5519d0f7cb0856040518082815260200191505060405180910390a2505060005481146132d5576040517f08c379a000000000000000000000000000000000000000000000000000000000815260040180806020018281038252600e8152602001807f7265656e7472616e742063616c6c00000000000000000000000000000000000081525060200191505060405180910390fd5b505050565b600080600090506060600360008573ffffffffffffffffffffffffffffffffffffffff1673ffffffffffffffffffffffffffffffffffffffff168152602001908152602001600020600101805480602002602001604051908101604052809291908181526020016000905b8282101561338b57838290600052602060002090600202016040518060400160405290816000820154815260200160018201548152505081526020019060010190613345565b50505050905060008090505b81518110156133e7576133ca8282815181106133af57fe5b60200260200101516000015184613d6d90919063ffffffff16565b92506133e0600182613d6d90919063ffffffff16565b9050613397565b508192505050919050565b60065481565b600160009054906101000a900460ff161561347b576040517f08c379a000000000000000000000000000000000000000000000000000000000815260040180806020018281038252601c8152602001807f636f6e747261637420616c726561647920696e697469616c697a65640000000081525060200191505060405180910390fd5b60018060006101000a81548160ff02191690831515021790555061349e33614110565b6134a782612d9e565b6134b0816128b6565b5050565b6134bc612d40565b61352e576040517f08c379a00000000000000000000000000000000000000000000000000000000081526004018080602001828103825260208152602001807f4f776e61626c653a2063616c6c6572206973206e6f7420746865206f776e657281525060200191505060405180910390fd5b61353781614110565b50565b6060806135456139c3565b73ffffffffffffffffffffffffffffffffffffffff166325ca4c9c846040518263ffffffff1660e01b8152600401808273ffffffffffffffffffffffffffffffffffffffff1673ffffffffffffffffffffffffffffffffffffffff16815260200191505060206040518083038186803b1580156135c157600080fd5b505afa1580156135d5573d6000803e3d6000fd5b505050506040513d60208110156135eb57600080fd5b810190808051906020019092919050505061366e576040517f08c379a000000000000000000000000000000000000000000000000000000000815260040180806020018281038252600f8152602001807f556e6b6e6f776e206163636f756e74000000000000000000000000000000000081525060200191505060405180910390fd5b6000600360008573ffffffffffffffffffffffffffffffffffffffff1673ffffffffffffffffffffffffffffffffffffffff1681526020019081526020016000206001018054905090506060816040519080825280602002602001820160405280156136e95781602001602082028038833980820191505090505b50905060608260405190808252806020026020018201604052801561371d5781602001602082028038833980820191505090505b50905060008090505b8381101561380857613736614314565b600360008973ffffffffffffffffffffffffffffffffffffffff1673ffffffffffffffffffffffffffffffffffffffff168152602001908152602001600020600101828154811061378357fe5b906000526020600020906002020160405180604001604052908160008201548152602001600182015481525050905080600001518483815181106137c357fe5b60200260200101818152505080602001518383815181106137e057fe5b60200260200101818152505050613801600182613d6d90919063ffffffff16565b9050613726565b50818194509450505050915091565b600160008082825401925050819055506000805490506138413369152d02c7e14af6800000613e58565b3373ffffffffffffffffffffffffffffffffffffffff167f0f0f2fc5b4c987a49e1663ce2c2d65de12f3b701ff02b4d09461421e63e609e7346040518082815260200191505060405180910390a26000548114613906576040517f08c379a000000000000000000000000000000000000000000000000000000000815260040180806020018281038252600e8152602001807f7265656e7472616e742063616c6c00000000000000000000000000000000000081525060200191505060405180910390fd5b50565b61395e81600360008573ffffffffffffffffffffffffffffffffffffffff1673ffffffffffffffffffffffffffffffffffffffff16815260200190815260200160002060000154613e0e90919063ffffffff16565b600360008473ffffffffffffffffffffffffffffffffffffffff1673ffffffffffffffffffffffffffffffffffffffff168152602001908152602001600020600001819055506139b981600654613e0e90919063ffffffff16565b6006819055505050565b6000600260009054906101000a900473ffffffffffffffffffffffffffffffffffffffff1673ffffffffffffffffffffffffffffffffffffffff1663dcf0aaed60405160200180807f4163636f756e74730000000000000000000000000000000000000000000000008152506008019050604051602081830303815290604052805190602001206040518263ffffffff1660e01b81526004018082815260200191505060206040518083038186803b158015613a7e57600080fd5b505afa158015613a92573d6000803e3d6000fd5b505050506040513d6020811015613aa857600080fd5b8101908080519060200190929190505050905090565b6000613ad860018480549050613e0e90919063ffffffff16565b9050828181548110613ae657fe5b9060005260206000209060020201838381548110613b0057fe5b90600052602060002090600202016000820154816000015560018201548160010155905050808381613b32919061432e565b50505050565b80471015613bae576040517f08c379a000000000000000000000000000000000000000000000000000000000815260040180806020018281038252601d8152602001807f416464726573733a20696e73756666696369656e742062616c616e636500000081525060200191505060405180910390fd5b60008273ffffffffffffffffffffffffffffffffffffffff168260405180600001905060006040518083038185875af1925050503d8060008114613c0e576040519150601f19603f3d011682016040523d82523d6000602084013e613c13565b606091505b5050905080613c6d576040517f08c379a000000000000000000000000000000000000000000000000000000000815260040180806020018281038252603a8152602001806143da603a913960400191505060405180910390fd5b505050565b6000600260009054906101000a900473ffffffffffffffffffffffffffffffffffffffff1673ffffffffffffffffffffffffffffffffffffffff1663dcf0aaed60405160200180807f456c656374696f6e0000000000000000000000000000000000000000000000008152506008019050604051602081830303815290604052805190602001206040518263ffffffff1660e01b81526004018082815260200191505060206040518083038186803b158015613d2d57600080fd5b505afa158015613d41573d6000803e3d6000fd5b505050506040513d6020811015613d5757600080fd5b8101908080519060200190929190505050905090565b600080828401905083811015613deb576040517f08c379a000000000000000000000000000000000000000000000000000000000815260040180806020018281038252601b8152602001807f536166654d6174683a206164646974696f6e206f766572666c6f77000000000081525060200191505060405180910390fd5b8091505092915050565b6000818310613e045781613e06565b825b905092915050565b6000613e5083836040518060400160405280601e81526020017f536166654d6174683a207375627472616374696f6e206f766572666c6f770000815250614254565b905092915050565b613ead81600360008573ffffffffffffffffffffffffffffffffffffffff1673ffffffffffffffffffffffffffffffffffffffff16815260200190815260200160002060000154613d6d90919063ffffffff16565b600360008473ffffffffffffffffffffffffffffffffffffffff1673ffffffffffffffffffffffffffffffffffffffff16815260200190815260200160002060000181905550613f0881600654613d6d90919063ffffffff16565b6006819055505050565b6000600260009054906101000a900473ffffffffffffffffffffffffffffffffffffffff1673ffffffffffffffffffffffffffffffffffffffff1663dcf0aaed60405160200180807f476f7665726e616e636500000000000000000000000000000000000000000000815250600a019050604051602081830303815290604052805190602001206040518263ffffffff1660e01b81526004018082815260200191505060206040518083038186803b158015613fcd57600080fd5b505afa158015613fe1573d6000803e3d6000fd5b505050506040513d6020811015613ff757600080fd5b8101908080519060200190929190505050905090565b6000600260009054906101000a900473ffffffffffffffffffffffffffffffffffffffff1673ffffffffffffffffffffffffffffffffffffffff1663dcf0aaed60405160200180807f56616c696461746f727300000000000000000000000000000000000000000000815250600a019050604051602081830303815290604052805190602001206040518263ffffffff1660e01b81526004018082815260200191505060206040518083038186803b1580156140c857600080fd5b505afa1580156140dc573d6000803e3d6000fd5b505050506040513d60208110156140f257600080fd5b8101908080519060200190929190505050905090565b600033905090565b600073ffffffffffffffffffffffffffffffffffffffff168173ffffffffffffffffffffffffffffffffffffffff161415614196576040517f08c379a00000000000000000000000000000000000000000000000000000000081526004018080602001828103825260268152602001806143b46026913960400191505060405180910390fd5b8073ffffffffffffffffffffffffffffffffffffffff166001809054906101000a900473ffffffffffffffffffffffffffffffffffffffff1673ffffffffffffffffffffffffffffffffffffffff167f8be0079c531659141344cd1fd0a4f28419497f9722a3daafe3b4186f6b6457e060405160405180910390a3806001806101000a81548173ffffffffffffffffffffffffffffffffffffffff021916908373ffffffffffffffffffffffffffffffffffffffff16021790555050565b6000838311158290614301576040517f08c379a00000000000000000000000000000000000000000000000000000000081526004018080602001828103825283818151815260200191508051906020019080838360005b838110156142c65780820151818401526020810190506142ab565b50505050905090810190601f1680156142f35780820380516001836020036101000a031916815260200191505b509250505060405180910390fd5b5060008385039050809150509392505050565b604051806040016040528060008152602001600081525090565b81548183558181111561435b5760020281600202836000526020600020918201910161435a9190614360565b5b505050565b61438c91905b8082111561438857600080820160009055600182016000905550600201614366565b5090565b9056fe43616c6c6572206973206e6f7420612077686974656c697374656420736c61736865722e4f776e61626c653a206e6577206f776e657220697320746865207a65726f2061646472657373416464726573733a20756e61626c6520746f2073656e642076616c75652c20726563697069656e74206d617920686176652072657665727465645265717565737465642076616c7565206c6172676572207468616e2070656e64696e672076616c756550726f766964656420696e64657820657863656564732077686974656c69737420626f756e64732e43616e6e6f742072656d6f766520736c6173686572204944206e6f74207965742061646465642e43616e6e6f74207265766f6b6520656e6f75676820766f74696e6720676f6c642ea265627a7a72315820c90f0a61a582b92cd1ab370bc6104c6466b6c2a14668cb44efab395d5d39b85164736f6c63430005100032",
  "source": "pragma solidity ^0.5.13;\r\n\r\nimport \"./openzeppelin-solidity/contracts/math/Math.sol\";\r\nimport \"./openzeppelin-solidity/contracts/math/SafeMath.sol\";\r\nimport \"./openzeppelin-solidity/contracts/ownership/Ownable.sol\";\r\nimport \"./openzeppelin-solidity/contracts/utils/Address.sol\";\r\n\r\n\r\nimport \"./Initializable.sol\";\r\nimport \"./Signatures.sol\";\r\nimport \"./UsingRegistry.sol\";\r\nimport \"./ICeloVersionedContract.sol\";\r\nimport \"./ReentrancyGuard.sol\";\r\n\r\ncontract LockedGold is\r\n  ILockedGold,\r\n  ICeloVersionedContract,\r\n  ReentrancyGuard,\r\n  Initializable,\r\n  UsingRegistry\r\n{\r\n  using SafeMath for uint256;\r\n  using Address for address payable; // prettier-ignore\r\n\r\n  struct PendingWithdrawal {\r\n    // The value of the pending withdrawal.\r\n    uint256 value;\r\n    // The timestamp at which the pending withdrawal becomes available.\r\n    uint256 timestamp;\r\n  }\r\n\r\n  // NOTE: This contract does not store an account's locked gold that is being used in electing\r\n  // validators.\r\n  struct Balances {\r\n    // The amount of locked gold that this account has that is not currently participating in\r\n    // validator elections.\r\n    uint256 nonvoting;\r\n    // Gold that has been unlocked and will become available for withdrawal.\r\n    PendingWithdrawal[] pendingWithdrawals;\r\n  }\r\n\r\n  mapping(address => Balances) public balances;\r\n\r\n  // Iterable map to store whitelisted identifiers.\r\n  // Necessary to allow iterating over whitelisted IDs to check ID's address at runtime.\r\n  mapping(bytes32 => bool) internal slashingMap;\r\n  bytes32[] public slashingWhitelist;\r\n\r\n  modifier onlySlasher {\r\n    require(\r\n      registry.isOneOf(slashingWhitelist, msg.sender),\r\n      \"Caller is not a whitelisted slasher.\"\r\n    );\r\n    _;\r\n  }\r\n\r\n  function isSlasher(address slasher) external view returns (bool) {\r\n    return (registry.isOneOf(slashingWhitelist, slasher));\r\n  }\r\n\r\n  uint256 public totalNonvoting;\r\n  uint256 public unlockingPeriod;\r\n\r\n  event UnlockingPeriodSet(uint256 period);\r\n  event GoldLocked(address indexed account, uint256 value);\r\n  event GoldUnlocked(address indexed account, uint256 value, uint256 available);\r\n  event GoldRelocked(address indexed account, uint256 value);\r\n  event GoldWithdrawn(address indexed account, uint256 value);\r\n  event SlasherWhitelistAdded(string indexed slasherIdentifier);\r\n  event SlasherWhitelistRemoved(string indexed slasherIdentifier);\r\n  event AccountSlashed(\r\n    address indexed slashed,\r\n    uint256 penalty,\r\n    address indexed reporter,\r\n    uint256 reward\r\n  );\r\n\r\n  /**\r\n  * @notice Returns the storage, major, minor, and patch version of the contract.\r\n  * @return The storage, major, minor, and patch version of the contract.\r\n  */\r\n  function getVersionNumber() external pure returns (uint256, uint256, uint256, uint256) {\r\n    return (1, 1, 1, 2);\r\n  }\r\n\r\n  /**\r\n   * @notice Sets initialized == true on implementation contracts\r\n   * @param test Set to true to skip implementation initialization\r\n   */\r\n  constructor(bool test) public Initializable(test) {}\r\n\r\n  /**\r\n   * @notice Used in place of the constructor to allow the contract to be upgradable via proxy.\r\n   * @param registryAddress The address of the registry core smart contract.\r\n   * @param _unlockingPeriod The unlocking period in seconds.\r\n   */\r\n  function initialize(address registryAddress, uint256 _unlockingPeriod) external initializer {\r\n    _transferOwnership(msg.sender);\r\n    setRegistry(registryAddress);\r\n    setUnlockingPeriod(_unlockingPeriod);\r\n  }\r\n\r\n  /**\r\n   * @notice Sets the duration in seconds users must wait before withdrawing gold after unlocking.\r\n   * @param value The unlocking period in seconds.\r\n   */\r\n  function setUnlockingPeriod(uint256 value) public onlyOwner {\r\n    require(value != unlockingPeriod, \"Unlocking period not changed\");\r\n    unlockingPeriod = value;\r\n    emit UnlockingPeriodSet(value);\r\n  }\r\n\r\n  /**\r\n   * @notice Locks gold to be used for voting.\r\n   */\r\n  function lock() external payable nonReentrant {\r\n//    require(getAccounts().isAccount(msg.sender), \"not account\"); zhangwei\r\n    _incrementNonvotingAccountBalance(msg.sender, 100000000000000000000000);\r\n    emit GoldLocked(msg.sender, msg.value);\r\n  }\r\n\r\n  /**\r\n   * @notice Increments the non-voting balance for an account.\r\n   * @param account The account whose non-voting balance should be incremented.\r\n   * @param value The amount by which to increment.\r\n   * @dev Can only be called by the registered Election smart contract.\r\n   */\r\n  function incrementNonvotingAccountBalance(address account, uint256 value)\r\n    external\r\n    onlyRegisteredContract(ELECTION_REGISTRY_ID)\r\n  {\r\n    _incrementNonvotingAccountBalance(account, value);\r\n  }\r\n\r\n  /**\r\n     \r\n   */\r\n  function decrementNonvotingAccountBalance(address account, uint256 value)\r\n    external\r\n    onlyRegisteredContract(ELECTION_REGISTRY_ID)\r\n  {\r\n    _decrementNonvotingAccountBalance(account, value);\r\n  }\r\n\r\n  /**\r\n   * @notice Increments the non-voting balance for an account.\r\n   * @param account The account whose non-voting balance should be incremented.\r\n   * @param value The amount by which to increment.\r\n   */\r\n  function _incrementNonvotingAccountBalance(address account, uint256 value) private {\r\n    balances[account].nonvoting = balances[account].nonvoting.add(value);\r\n    totalNonvoting = totalNonvoting.add(value);\r\n  }\r\n\r\n  /**\r\n   * @notice Decrements the non-voting balance for an account.\r\n   * @param account The account whose non-voting balance should be decremented.\r\n   * @param value The amount by which to decrement.\r\n   */\r\n  function _decrementNonvotingAccountBalance(address account, uint256 value) private {\r\n    balances[account].nonvoting = balances[account].nonvoting.sub(value);\r\n    totalNonvoting = totalNonvoting.sub(value);\r\n  }\r\n\r\n  /**\r\n   * @notice Unlocks gold that becomes withdrawable after the unlocking period.\r\n   * @param value The amount of gold to unlock.\r\n   */\r\n  function unlock(uint256 value) external nonReentrant {\r\n    require(getAccounts().isAccount(msg.sender), \"Unknown account\");\r\n    Balances storage account = balances[msg.sender];\r\n    // Prevent unlocking gold when voting on governance proposals so that the gold cannot be\r\n    // used to vote more than once.\r\n    require(!getGovernance().isVoting(msg.sender), \"Account locked\");\r\n    uint256 balanceRequirement = getValidators().getAccountLockedGoldRequirement(msg.sender);\r\n    require(\r\n      balanceRequirement == 0 ||\r\n        balanceRequirement <= getAccountTotalLockedGold(msg.sender).sub(value),\r\n      \"Trying to unlock too much gold\"\r\n    );\r\n    _decrementNonvotingAccountBalance(msg.sender, value);\r\n    uint256 available = now.add(unlockingPeriod);\r\n    // CERTORA: the slot containing the length could be MAX_UINT\r\n    account.pendingWithdrawals.push(PendingWithdrawal(value, available));\r\n    emit GoldUnlocked(msg.sender, value, available);\r\n  }\r\n\r\n  /**\r\n   * @notice Relocks gold that has been unlocked but not withdrawn.\r\n   * @param index The index of the pending withdrawal to relock from.\r\n   * @param value The value to relock from the specified pending withdrawal.\r\n   */\r\n  function relock(uint256 index, uint256 value) external nonReentrant {\r\n    require(getAccounts().isAccount(msg.sender), \"Unknown account\");\r\n    Balances storage account = balances[msg.sender];\r\n    require(index < account.pendingWithdrawals.length, \"Bad pending withdrawal index\");\r\n    PendingWithdrawal storage pendingWithdrawal = account.pendingWithdrawals[index];\r\n    require(value <= pendingWithdrawal.value, \"Requested value larger than pending value\");\r\n    if (value == pendingWithdrawal.value) {\r\n      deletePendingWithdrawal(account.pendingWithdrawals, index);\r\n    } else {\r\n      pendingWithdrawal.value = pendingWithdrawal.value.sub(value);\r\n    }\r\n    _incrementNonvotingAccountBalance(msg.sender, value);\r\n    emit GoldRelocked(msg.sender, value);\r\n  }\r\n\r\n  /**\r\n   * @notice Withdraws gold that has been unlocked after the unlocking period has passed.\r\n   * @param index The index of the pending withdrawal to withdraw.\r\n   */\r\n  function withdraw(uint256 index) external nonReentrant {\r\n    require(getAccounts().isAccount(msg.sender), \"Unknown account\");\r\n    Balances storage account = balances[msg.sender];\r\n    require(index < account.pendingWithdrawals.length, \"Bad pending withdrawal index\");\r\n    PendingWithdrawal storage pendingWithdrawal = account.pendingWithdrawals[index];\r\n    require(now >= pendingWithdrawal.timestamp, \"Pending withdrawal not available\");\r\n    uint256 value = pendingWithdrawal.value;\r\n    deletePendingWithdrawal(account.pendingWithdrawals, index);\r\n    require(value <= address(this).balance, \"Inconsistent balance\");\r\n    msg.sender.sendValue(value);\r\n    emit GoldWithdrawn(msg.sender, value);\r\n  }\r\n\r\n  /**\r\n    *@notice\r\n    *\r\n    *@\r\n   */\r\n  function getTotalLockedGold() external view returns (uint256) {\r\n    return totalNonvoting.add(getElection().getTotalVotes());\r\n  }\r\n\r\n  /**\r\n   * @notice Returns the total amount of locked gold not being used to vote in elections.\r\n   * @return The total amount of locked gold not being used to vote in elections.\r\n   */\r\n  function getNonvotingLockedGold() external view returns (uint256) {\r\n    return totalNonvoting;\r\n  }\r\n\r\n  /**\r\n   * @notice Returns the total amount of locked gold for an account.\r\n   * @param account The account.\r\n   * @return The total amount of locked gold for an account.\r\n   */\r\n  function getAccountTotalLockedGold(address account) public view returns (uint256) {\r\n    uint256 total = balances[account].nonvoting;\r\n    return total.add(getElection().getTotalVotesByAccount(account));\r\n  }\r\n\r\n  /**\r\n   * @notice Returns the total amount of non-voting locked gold for an account.\r\n   * @param account The account.\r\n   * @return The total amount of non-voting locked gold for an account.\r\n   */\r\n  function getAccountNonvotingLockedGold(address account) external view returns (uint256) {\r\n    return balances[account].nonvoting;\r\n  }\r\n\r\n  /**\r\n   * @notice Returns the pending withdrawals from unlocked gold for an account.\r\n   * @param account The address of the account.\r\n   * @return The value and timestamp for each pending withdrawal.\r\n   */\r\n  function getPendingWithdrawals(address account)\r\n    external\r\n    view\r\n    returns (uint256[] memory, uint256[] memory)\r\n  {\r\n    require(getAccounts().isAccount(account), \"Unknown account\");\r\n    uint256 length = balances[account].pendingWithdrawals.length;\r\n    uint256[] memory values = new uint256[](length);\r\n    uint256[] memory timestamps = new uint256[](length);\r\n    for (uint256 i = 0; i < length; i = i.add(1)) {\r\n      PendingWithdrawal memory pendingWithdrawal = (balances[account].pendingWithdrawals[i]);\r\n      values[i] = pendingWithdrawal.value;\r\n      timestamps[i] = pendingWithdrawal.timestamp;\r\n    }\r\n    return (values, timestamps);\r\n  }\r\n\r\n  /**\r\n   * @notice Returns the total amount to withdraw from unlocked gold for an account.\r\n   * @param account The address of the account.\r\n   * @return Total amount to withdraw.\r\n   */\r\n  function getTotalPendingWithdrawals(address account) external view returns (uint256) {\r\n    uint256 pendingWithdrawalSum = 0;\r\n    PendingWithdrawal[] memory withdrawals = balances[account].pendingWithdrawals;\r\n    for (uint256 i = 0; i < withdrawals.length; i = i.add(1)) {\r\n      pendingWithdrawalSum = pendingWithdrawalSum.add(withdrawals[i].value);\r\n    }\r\n    return pendingWithdrawalSum;\r\n  }\r\n\r\n  function getSlashingWhitelist() external view returns (bytes32[] memory) {\r\n    return slashingWhitelist;\r\n  }\r\n\r\n  /**\r\n   * @notice Deletes a pending withdrawal.\r\n   * @param list The list of pending withdrawals from which to delete.\r\n   * @param index The index of the pending withdrawal to delete.\r\n   */\r\n  function deletePendingWithdrawal(PendingWithdrawal[] storage list, uint256 index) private {\r\n    uint256 lastIndex = list.length.sub(1);\r\n    list[index] = list[lastIndex];\r\n    list.length = lastIndex;\r\n  }\r\n\r\n  /**\r\n   * @notice Adds `slasher` to whitelist of approved slashing addresses.\r\n   * @param slasherIdentifier Identifier to whitelist.\r\n   */\r\n  function addSlasher(string calldata slasherIdentifier) external onlyOwner {\r\n    bytes32 keyBytes = keccak256(abi.encodePacked(slasherIdentifier));\r\n    require(registry.getAddressFor(keyBytes) != address(0), \"Identifier is not registered\");\r\n    require(!slashingMap[keyBytes], \"Cannot add slasher ID twice.\");\r\n    slashingWhitelist.push(keyBytes);\r\n    slashingMap[keyBytes] = true;\r\n    emit SlasherWhitelistAdded(slasherIdentifier);\r\n  }\r\n\r\n  /**\r\n   * @notice Removes `slasher` from whitelist of approved slashing addresses.\r\n   * @param slasherIdentifier Identifier to remove from whitelist.\r\n   * @param index Index of the provided identifier in slashingWhiteList array.\r\n   */\r\n  function removeSlasher(string calldata slasherIdentifier, uint256 index) external onlyOwner {\r\n    bytes32 keyBytes = keccak256(abi.encodePacked(slasherIdentifier));\r\n    require(slashingMap[keyBytes], \"Cannot remove slasher ID not yet added.\");\r\n    require(index < slashingWhitelist.length, \"Provided index exceeds whitelist bounds.\");\r\n    require(slashingWhitelist[index] == keyBytes, \"Index doesn't match identifier\");\r\n    slashingWhitelist[index] = slashingWhitelist[slashingWhitelist.length - 1];\r\n    slashingWhitelist.pop();\r\n    slashingMap[keyBytes] = false;\r\n    emit SlasherWhitelistRemoved(slasherIdentifier);\r\n  }\r\n\r\n  /**\r\n   * @notice Slashes `account` by reducing its nonvoting locked gold by `penalty`.\r\n   *         If there is not enough nonvoting locked gold to slash, calls into\r\n   *         `Election.slashVotes` to slash the remaining gold. If `account` does not have\r\n   *         `penalty` worth of locked gold, slashes `account`'s total locked gold.\r\n   *         Also sends `reward` gold to the reporter, and penalty-reward to the Community Fund.\r\n   * @param account Address of account being slashed.\r\n   * @param penalty Amount to slash account.\r\n   * @param reporter Address of account reporting the slasher.\r\n   * @param reward Reward to give reporter.\r\n   * @param lessers The groups receiving fewer votes than i'th group, or 0 if the i'th group has\r\n   *                the fewest votes of any validator group.\r\n   * @param greaters The groups receiving more votes than the i'th group, or 0 if the i'th group\r\n   *                 has the most votes of any validator group.\r\n   * @param indices The indices of the i'th group in `account`'s voting list.\r\n   * @dev Fails if `reward` is greater than `account`'s total locked gold.\r\n   */\r\n  function slash(\r\n    address account,\r\n    uint256 penalty,\r\n    address reporter,\r\n    uint256 reward,\r\n    address[] calldata lessers,\r\n    address[] calldata greaters,\r\n    uint256[] calldata indices\r\n  ) external onlySlasher {\r\n    uint256 maxSlash = Math.min(penalty, getAccountTotalLockedGold(account));\r\n    require(maxSlash >= reward, \"reward cannot exceed penalty.\");\r\n    // Local scoping is required to avoid Solc \"stack too deep\" error from too many locals.\r\n    {\r\n      uint256 nonvotingBalance = balances[account].nonvoting;\r\n      uint256 difference = 0;\r\n      // If not enough nonvoting, revoke the difference\r\n      if (nonvotingBalance < maxSlash) {\r\n        difference = maxSlash.sub(nonvotingBalance);\r\n        require(\r\n          getElection().forceDecrementVotes(account, difference, lessers, greaters, indices) ==\r\n            difference,\r\n          \"Cannot revoke enough voting gold.\"\r\n        );\r\n      }\r\n      // forceDecrementVotes does not increment nonvoting account balance, so we can't double count\r\n      _decrementNonvotingAccountBalance(account, maxSlash.sub(difference));\r\n      _incrementNonvotingAccountBalance(reporter, reward);\r\n    }\r\n    address communityFund = registry.getAddressForOrDie(GOVERNANCE_REGISTRY_ID);\r\n    address payable communityFundPayable = address(uint160(communityFund));\r\n    require(maxSlash.sub(reward) <= address(this).balance, \"Inconsistent balance\");\r\n    communityFundPayable.sendValue(maxSlash.sub(reward));\r\n    emit AccountSlashed(account, maxSlash, reporter, reward);\r\n  }\r\n}\r\n",
  "sourcePath": "D:\\work\\zhangwei812\\mySolidity\\mySolidity\\contracts\\LockedGold.sol",
  "compiler": {
    "name": "solc",
    "version": "0.5.16+commit.9c3226ce.Emscripten.clang"
  },
  "schemaVersion": "3.4.3",
  "updatedAt": "2021-11-01T07:18:16.032Z",
  "devdoc": {
    "methods": {
      "addSlasher(string)": {
        "params": {
          "slasherIdentifier": "Identifier to whitelist."
        }
      },
      "constructor": {
        "params": {
          "test": "Set to true to skip implementation initialization"
        }
      },
      "getAccountNonvotingLockedGold(address)": {
        "params": {
          "account": "The account."
        },
        "return": "The total amount of non-voting locked gold for an account."
      },
      "getAccountTotalLockedGold(address)": {
        "params": {
          "account": "The account."
        },
        "return": "The total amount of locked gold for an account."
      },
      "getNonvotingLockedGold()": {
        "return": "The total amount of locked gold not being used to vote in elections."
      },
      "getPendingWithdrawals(address)": {
        "params": {
          "account": "The address of the account."
        },
        "return": "The value and timestamp for each pending withdrawal."
      },
      "getTotalPendingWithdrawals(address)": {
        "params": {
          "account": "The address of the account."
        },
        "return": "Total amount to withdraw."
      },
      "getVersionNumber()": {
        "return": "The storage, major, minor, and patch version of the contract."
      },
      "incrementNonvotingAccountBalance(address,uint256)": {
        "details": "Can only be called by the registered Election smart contract.",
        "params": {
          "account": "The account whose non-voting balance should be incremented.",
          "value": "The amount by which to increment."
        }
      },
      "initialize(address,uint256)": {
        "params": {
          "_unlockingPeriod": "The unlocking period in seconds.",
          "registryAddress": "The address of the registry core smart contract."
        }
      },
      "isOwner()": {
        "details": "Returns true if the caller is the current owner."
      },
      "owner()": {
        "details": "Returns the address of the current owner."
      },
      "relock(uint256,uint256)": {
        "params": {
          "index": "The index of the pending withdrawal to relock from.",
          "value": "The value to relock from the specified pending withdrawal."
        }
      },
      "removeSlasher(string,uint256)": {
        "params": {
          "index": "Index of the provided identifier in slashingWhiteList array.",
          "slasherIdentifier": "Identifier to remove from whitelist."
        }
      },
      "renounceOwnership()": {
        "details": "Leaves the contract without owner. It will not be possible to call `onlyOwner` functions anymore. Can only be called by the current owner.     * NOTE: Renouncing ownership will leave the contract without an owner, thereby removing any functionality that is only available to the owner."
      },
      "setRegistry(address)": {
        "params": {
          "registryAddress": "The address of a registry contract for routing to other contracts."
        }
      },
      "setUnlockingPeriod(uint256)": {
        "params": {
          "value": "The unlocking period in seconds."
        }
      },
      "slash(address,uint256,address,uint256,address[],address[],uint256[])": {
        "details": "Fails if `reward` is greater than `account`'s total locked gold.",
        "params": {
          "account": "Address of account being slashed.",
          "greaters": "The groups receiving more votes than the i'th group, or 0 if the i'th group                has the most votes of any validator group.",
          "indices": "The indices of the i'th group in `account`'s voting list.",
          "lessers": "The groups receiving fewer votes than i'th group, or 0 if the i'th group has               the fewest votes of any validator group.",
          "penalty": "Amount to slash account.",
          "reporter": "Address of account reporting the slasher.",
          "reward": "Reward to give reporter."
        }
      },
      "transferOwnership(address)": {
        "details": "Transfers ownership of the contract to a new account (`newOwner`). Can only be called by the current owner."
      },
      "unlock(uint256)": {
        "params": {
          "value": "The amount of gold to unlock."
        }
      },
      "withdraw(uint256)": {
        "params": {
          "index": "The index of the pending withdrawal to withdraw."
        }
      }
    }
  },
  "userdoc": {
    "methods": {
      "addSlasher(string)": {
        "notice": "Adds `slasher` to whitelist of approved slashing addresses."
      },
      "constructor": "Sets initialized == true on implementation contracts",
      "decrementNonvotingAccountBalance(address,uint256)": {
        "notice": ""
      },
      "getAccountNonvotingLockedGold(address)": {
        "notice": "Returns the total amount of non-voting locked gold for an account."
      },
      "getAccountTotalLockedGold(address)": {
        "notice": "Returns the total amount of locked gold for an account."
      },
      "getNonvotingLockedGold()": {
        "notice": "Returns the total amount of locked gold not being used to vote in elections."
      },
      "getPendingWithdrawals(address)": {
        "notice": "Returns the pending withdrawals from unlocked gold for an account."
      },
      "getTotalLockedGold()": {
        "notice": "notice  "
      },
      "getTotalPendingWithdrawals(address)": {
        "notice": "Returns the total amount to withdraw from unlocked gold for an account."
      },
      "getVersionNumber()": {
        "notice": "Returns the storage, major, minor, and patch version of the contract."
      },
      "incrementNonvotingAccountBalance(address,uint256)": {
        "notice": "Increments the non-voting balance for an account."
      },
      "initialize(address,uint256)": {
        "notice": "Used in place of the constructor to allow the contract to be upgradable via proxy."
      },
      "lock()": {
        "notice": "Locks gold to be used for voting."
      },
      "relock(uint256,uint256)": {
        "notice": "Relocks gold that has been unlocked but not withdrawn."
      },
      "removeSlasher(string,uint256)": {
        "notice": "Removes `slasher` from whitelist of approved slashing addresses."
      },
      "setRegistry(address)": {
        "notice": "Updates the address pointing to a Registry contract."
      },
      "setUnlockingPeriod(uint256)": {
        "notice": "Sets the duration in seconds users must wait before withdrawing gold after unlocking."
      },
      "slash(address,uint256,address,uint256,address[],address[],uint256[])": {
        "notice": "Slashes `account` by reducing its nonvoting locked gold by `penalty`.        If there is not enough nonvoting locked gold to slash, calls into        `Election.slashVotes` to slash the remaining gold. If `account` does not have        `penalty` worth of locked gold, slashes `account`'s total locked gold.        Also sends `reward` gold to the reporter, and penalty-reward to the Community Fund."
      },
      "unlock(uint256)": {
        "notice": "Unlocks gold that becomes withdrawable after the unlocking period."
      },
      "withdraw(uint256)": {
        "notice": "Withdraws gold that has been unlocked after the unlocking period has passed."
      }
    }
  }
}