{
  "contractName": "UsingRegistry",
  "abi": [
    {
      "anonymous": false,
      "inputs": [
        {
          "indexed": true,
          "internalType": "address",
          "name": "previousOwner",
          "type": "address"
        },
        {
          "indexed": true,
          "internalType": "address",
          "name": "newOwner",
          "type": "address"
        }
      ],
      "name": "OwnershipTransferred",
      "type": "event"
    },
    {
      "anonymous": false,
      "inputs": [
        {
          "indexed": true,
          "internalType": "address",
          "name": "registryAddress",
          "type": "address"
        }
      ],
      "name": "RegistrySet",
      "type": "event"
    },
    {
      "constant": true,
      "inputs": [],
      "name": "isOwner",
      "outputs": [
        {
          "internalType": "bool",
          "name": "",
          "type": "bool"
        }
      ],
      "payable": false,
      "stateMutability": "view",
      "type": "function"
    },
    {
      "constant": true,
      "inputs": [],
      "name": "owner",
      "outputs": [
        {
          "internalType": "address",
          "name": "",
          "type": "address"
        }
      ],
      "payable": false,
      "stateMutability": "view",
      "type": "function"
    },
    {
      "constant": true,
      "inputs": [],
      "name": "registry",
      "outputs": [
        {
          "internalType": "contract IRegistry",
          "name": "",
          "type": "address"
        }
      ],
      "payable": false,
      "stateMutability": "view",
      "type": "function"
    },
    {
      "constant": false,
      "inputs": [],
      "name": "renounceOwnership",
      "outputs": [],
      "payable": false,
      "stateMutability": "nonpayable",
      "type": "function"
    },
    {
      "constant": false,
      "inputs": [
        {
          "internalType": "address",
          "name": "newOwner",
          "type": "address"
        }
      ],
      "name": "transferOwnership",
      "outputs": [],
      "payable": false,
      "stateMutability": "nonpayable",
      "type": "function"
    },
    {
      "constant": false,
      "inputs": [
        {
          "internalType": "address",
          "name": "registryAddress",
          "type": "address"
        }
      ],
      "name": "setRegistry",
      "outputs": [],
      "payable": false,
      "stateMutability": "nonpayable",
      "type": "function"
    }
  ],
  "bytecode": "0x608060405260006100146100b760201b60201c565b9050806000806101000a81548173ffffffffffffffffffffffffffffffffffffffff021916908373ffffffffffffffffffffffffffffffffffffffff1602179055508073ffffffffffffffffffffffffffffffffffffffff16600073ffffffffffffffffffffffffffffffffffffffff167f8be0079c531659141344cd1fd0a4f28419497f9722a3daafe3b4186f6b6457e060405160405180910390a3506100bf565b600033905090565b610766806100ce6000396000f3fe608060405234801561001057600080fd5b50600436106100625760003560e01c8063715018a6146100675780637b103999146100715780638da5cb5b146100bb5780638f32d59b14610105578063a91ee0dc14610127578063f2fde38b1461016b575b600080fd5b61006f6101af565b005b6100796102e8565b604051808273ffffffffffffffffffffffffffffffffffffffff1673ffffffffffffffffffffffffffffffffffffffff16815260200191505060405180910390f35b6100c361030e565b604051808273ffffffffffffffffffffffffffffffffffffffff1673ffffffffffffffffffffffffffffffffffffffff16815260200191505060405180910390f35b61010d610337565b604051808215151515815260200191505060405180910390f35b6101696004803603602081101561013d57600080fd5b81019080803573ffffffffffffffffffffffffffffffffffffffff169060200190929190505050610395565b005b6101ad6004803603602081101561018157600080fd5b81019080803573ffffffffffffffffffffffffffffffffffffffff169060200190929190505050610539565b005b6101b7610337565b610229576040517f08c379a00000000000000000000000000000000000000000000000000000000081526004018080602001828103825260208152602001807f4f776e61626c653a2063616c6c6572206973206e6f7420746865206f776e657281525060200191505060405180910390fd5b600073ffffffffffffffffffffffffffffffffffffffff166000809054906101000a900473ffffffffffffffffffffffffffffffffffffffff1673ffffffffffffffffffffffffffffffffffffffff167f8be0079c531659141344cd1fd0a4f28419497f9722a3daafe3b4186f6b6457e060405160405180910390a360008060006101000a81548173ffffffffffffffffffffffffffffffffffffffff021916908373ffffffffffffffffffffffffffffffffffffffff160217905550565b600160009054906101000a900473ffffffffffffffffffffffffffffffffffffffff1681565b60008060009054906101000a900473ffffffffffffffffffffffffffffffffffffffff16905090565b60008060009054906101000a900473ffffffffffffffffffffffffffffffffffffffff1673ffffffffffffffffffffffffffffffffffffffff166103796105bf565b73ffffffffffffffffffffffffffffffffffffffff1614905090565b61039d610337565b61040f576040517f08c379a00000000000000000000000000000000000000000000000000000000081526004018080602001828103825260208152602001807f4f776e61626c653a2063616c6c6572206973206e6f7420746865206f776e657281525060200191505060405180910390fd5b600073ffffffffffffffffffffffffffffffffffffffff168173ffffffffffffffffffffffffffffffffffffffff1614156104b2576040517f08c379a00000000000000000000000000000000000000000000000000000000081526004018080602001828103825260208152602001807f43616e6e6f7420726567697374657220746865206e756c6c206164647265737381525060200191505060405180910390fd5b80600160006101000a81548173ffffffffffffffffffffffffffffffffffffffff021916908373ffffffffffffffffffffffffffffffffffffffff1602179055508073ffffffffffffffffffffffffffffffffffffffff167f27fe5f0c1c3b1ed427cc63d0f05759ffdecf9aec9e18d31ef366fc8a6cb5dc3b60405160405180910390a250565b610541610337565b6105b3576040517f08c379a00000000000000000000000000000000000000000000000000000000081526004018080602001828103825260208152602001807f4f776e61626c653a2063616c6c6572206973206e6f7420746865206f776e657281525060200191505060405180910390fd5b6105bc816105c7565b50565b600033905090565b600073ffffffffffffffffffffffffffffffffffffffff168173ffffffffffffffffffffffffffffffffffffffff16141561064d576040517f08c379a000000000000000000000000000000000000000000000000000000000815260040180806020018281038252602681526020018061070c6026913960400191505060405180910390fd5b8073ffffffffffffffffffffffffffffffffffffffff166000809054906101000a900473ffffffffffffffffffffffffffffffffffffffff1673ffffffffffffffffffffffffffffffffffffffff167f8be0079c531659141344cd1fd0a4f28419497f9722a3daafe3b4186f6b6457e060405160405180910390a3806000806101000a81548173ffffffffffffffffffffffffffffffffffffffff021916908373ffffffffffffffffffffffffffffffffffffffff1602179055505056fe4f776e61626c653a206e6577206f776e657220697320746865207a65726f2061646472657373a265627a7a7231582080ef39dbb0182fdfbf755b839c612ce5d541eabfd0e3d8d4b3ae52694275e82d64736f6c63430005100032",
  "source": "pragma solidity ^0.5.13;\r\n\r\nimport \"./openzeppelin-solidity/contracts/math/Math.sol\";\r\nimport \"./openzeppelin-solidity/contracts/ownership/Ownable.sol\";\r\nimport \"./openzeppelin-solidity/contracts/math/SafeMath.sol\";\r\nimport \"./Initializable.sol\";\r\nimport \"./IAccounts.sol\";\r\nimport \"./IRegistry.sol\";\r\nimport \"./IElection.sol\";\r\nimport \"./ILockedGold.sol\";\r\nimport \"./IValidators.sol\";\r\nimport \"./IValidators2.sol\";\r\nimport \"./Console.sol\";\r\n\r\n\r\nlibrary BytesLib {\r\n    function concat(\r\n        bytes memory _preBytes,\r\n        bytes memory _postBytes\r\n    )\r\n    internal\r\n    pure\r\n    returns (bytes memory)\r\n    {\r\n        bytes memory tempBytes;\r\n\r\n        assembly {\r\n        // Get a location of some free memory and store it in tempBytes as\r\n        // Solidity does for memory variables.\r\n            tempBytes := mload(0x40)\r\n\r\n        // Store the length of the first bytes array at the beginning of\r\n        // the memory for tempBytes.\r\n            let length := mload(_preBytes)\r\n            mstore(tempBytes, length)\r\n\r\n        // Maintain a memory counter for the current write location in the\r\n        // temp bytes array by adding the 32 bytes for the array length to\r\n        // the starting location.\r\n            let mc := add(tempBytes, 0x20)\r\n        // Stop copying when the memory counter reaches the length of the\r\n        // first bytes array.\r\n            let end := add(mc, length)\r\n\r\n            for {\r\n            // Initialize a copy counter to the start of the _preBytes data,\r\n            // 32 bytes into its memory.\r\n                let cc := add(_preBytes, 0x20)\r\n            } lt(mc, end) {\r\n            // Increase both counters by 32 bytes each iteration.\r\n                mc := add(mc, 0x20)\r\n                cc := add(cc, 0x20)\r\n            } {\r\n            // Write the _preBytes data into the tempBytes memory 32 bytes\r\n            // at a time.\r\n                mstore(mc, mload(cc))\r\n            }\r\n\r\n        // Add the length of _postBytes to the current length of tempBytes\r\n        // and store it as the new length in the first 32 bytes of the\r\n        // tempBytes memory.\r\n            length := mload(_postBytes)\r\n            mstore(tempBytes, add(length, mload(tempBytes)))\r\n\r\n        // Move the memory counter back from a multiple of 0x20 to the\r\n        // actual end of the _preBytes data.\r\n            mc := end\r\n        // Stop copying when the memory counter reaches the new combined\r\n        // length of the arrays.\r\n            end := add(mc, length)\r\n\r\n            for {\r\n                let cc := add(_postBytes, 0x20)\r\n            } lt(mc, end) {\r\n                mc := add(mc, 0x20)\r\n                cc := add(cc, 0x20)\r\n            } {\r\n                mstore(mc, mload(cc))\r\n            }\r\n\r\n        // Update the free-memory pointer by padding our last write location\r\n        // to 32 bytes: add 31 bytes to the end of tempBytes to move to the\r\n        // next 32 byte block, then round down to the nearest multiple of\r\n        // 32. If the sum of the length of the two arrays is zero then add\r\n        // one before rounding down to leave a blank 32 bytes (the length block with 0).\r\n            mstore(0x40, and(\r\n            add(add(end, iszero(add(length, mload(_preBytes)))), 31),\r\n            not(31) // Round down to the nearest 32 bytes.\r\n            ))\r\n        }\r\n\r\n        return tempBytes;\r\n    }\r\n\r\n    function concatStorage(bytes storage _preBytes, bytes memory _postBytes) internal {\r\n\r\n    }\r\n\r\n    function slice(\r\n        bytes memory _bytes,\r\n        uint256 _start,\r\n        uint256 _length\r\n    )\r\n    internal\r\n    pure\r\n    returns (bytes memory)\r\n    {\r\n        require(_length + 31 >= _length, \"slice_overflow\");\r\n        require(_bytes.length >= _start + _length, \"slice_outOfBounds\");\r\n\r\n        bytes memory tempBytes;\r\n\r\n        assembly {\r\n            switch iszero(_length)\r\n            case 0 {\r\n            // Get a location of some free memory and store it in tempBytes as\r\n            // Solidity does for memory variables.\r\n                tempBytes := mload(0x40)\r\n\r\n            // The first word of the slice result is potentially a partial\r\n            // word read from the original array. To read it, we calculate\r\n            // the length of that partial word and start copying that many\r\n            // bytes into the array. The first word we copy will start with\r\n            // data we don't care about, but the last `lengthmod` bytes will\r\n            // land at the beginning of the contents of the new array. When\r\n            // we're done copying, we overwrite the full first word with\r\n            // the actual length of the slice.\r\n                let lengthmod := and(_length, 31)\r\n\r\n            // The multiplication in the next line is necessary\r\n            // because when slicing multiples of 32 bytes (lengthmod == 0)\r\n            // the following copy loop was copying the origin's length\r\n            // and then ending prematurely not copying everything it should.\r\n                let mc := add(add(tempBytes, lengthmod), mul(0x20, iszero(lengthmod)))\r\n                let end := add(mc, _length)\r\n\r\n                for {\r\n                // The multiplication in the next line has the same exact purpose\r\n                // as the one above.\r\n                    let cc := add(add(add(_bytes, lengthmod), mul(0x20, iszero(lengthmod))), _start)\r\n                } lt(mc, end) {\r\n                    mc := add(mc, 0x20)\r\n                    cc := add(cc, 0x20)\r\n                } {\r\n                    mstore(mc, mload(cc))\r\n                }\r\n\r\n                mstore(tempBytes, _length)\r\n\r\n            //update free-memory pointer\r\n            //allocating the array padded to 32 bytes like the compiler does now\r\n                mstore(0x40, and(add(mc, 31), not(31)))\r\n            }\r\n            //if we want a zero-length slice let's just return a zero-length array\r\n            default {\r\n                tempBytes := mload(0x40)\r\n            //zero out the 32 bytes slice we are about to return\r\n            //we need to do it because Solidity does not garbage collect\r\n                mstore(tempBytes, 0)\r\n\r\n                mstore(0x40, add(tempBytes, 0x20))\r\n            }\r\n        }\r\n\r\n        return tempBytes;\r\n    }\r\n\r\n    function toAddress(bytes memory _bytes, uint256 _start) internal pure returns (address) {\r\n        require(_bytes.length >= _start + 20, \"toAddress_outOfBounds\");\r\n        address tempAddress;\r\n\r\n        assembly {\r\n            tempAddress := div(mload(add(add(_bytes, 0x20), _start)), 0x1000000000000000000000000)\r\n        }\r\n\r\n        return tempAddress;\r\n    }\r\n\r\n    function toUint8(bytes memory _bytes, uint256 _start) internal pure returns (uint8) {\r\n        require(_bytes.length >= _start + 1, \"toUint8_outOfBounds\");\r\n        uint8 tempUint;\r\n\r\n        assembly {\r\n            tempUint := mload(add(add(_bytes, 0x1), _start))\r\n        }\r\n\r\n        return tempUint;\r\n    }\r\n\r\n    function toUint16(bytes memory _bytes, uint256 _start) internal pure returns (uint16) {\r\n        require(_bytes.length >= _start + 2, \"toUint16_outOfBounds\");\r\n        uint16 tempUint;\r\n\r\n        assembly {\r\n            tempUint := mload(add(add(_bytes, 0x2), _start))\r\n        }\r\n\r\n        return tempUint;\r\n    }\r\n\r\n    function toUint32(bytes memory _bytes, uint256 _start) internal pure returns (uint32) {\r\n        require(_bytes.length >= _start + 4, \"toUint32_outOfBounds\");\r\n        uint32 tempUint;\r\n\r\n        assembly {\r\n            tempUint := mload(add(add(_bytes, 0x4), _start))\r\n        }\r\n\r\n        return tempUint;\r\n    }\r\n\r\n    function toUint64(bytes memory _bytes, uint256 _start) internal pure returns (uint64) {\r\n        require(_bytes.length >= _start + 8, \"toUint64_outOfBounds\");\r\n        uint64 tempUint;\r\n\r\n        assembly {\r\n            tempUint := mload(add(add(_bytes, 0x8), _start))\r\n        }\r\n\r\n        return tempUint;\r\n    }\r\n\r\n    function toUint96(bytes memory _bytes, uint256 _start) internal pure returns (uint96) {\r\n        require(_bytes.length >= _start + 12, \"toUint96_outOfBounds\");\r\n        uint96 tempUint;\r\n\r\n        assembly {\r\n            tempUint := mload(add(add(_bytes, 0xc), _start))\r\n        }\r\n\r\n        return tempUint;\r\n    }\r\n\r\n    function toUint128(bytes memory _bytes, uint256 _start) internal pure returns (uint128) {\r\n        require(_bytes.length >= _start + 16, \"toUint128_outOfBounds\");\r\n        uint128 tempUint;\r\n\r\n        assembly {\r\n            tempUint := mload(add(add(_bytes, 0x10), _start))\r\n        }\r\n\r\n        return tempUint;\r\n    }\r\n\r\n    function toUint256(bytes memory _bytes, uint256 _start) internal pure returns (uint256) {\r\n        require(_bytes.length >= _start + 32, \"toUint256_outOfBounds\");\r\n        uint256 tempUint;\r\n\r\n        assembly {\r\n            tempUint := mload(add(add(_bytes, 0x20), _start))\r\n        }\r\n\r\n        return tempUint;\r\n    }\r\n\r\n    function toBytes32(bytes memory _bytes, uint256 _start) internal pure returns (bytes32) {\r\n        require(_bytes.length >= _start + 32, \"toBytes32_outOfBounds\");\r\n        bytes32 tempBytes32;\r\n\r\n        assembly {\r\n            tempBytes32 := mload(add(add(_bytes, 0x20), _start))\r\n        }\r\n\r\n        return tempBytes32;\r\n    }\r\n\r\n    function equal(bytes memory _preBytes, bytes memory _postBytes) internal pure returns (bool) {\r\n        bool success = true;\r\n\r\n        assembly {\r\n            let length := mload(_preBytes)\r\n\r\n        // if lengths don't match the arrays are not equal\r\n            switch eq(length, mload(_postBytes))\r\n            case 1 {\r\n            // cb is a circuit breaker in the for loop since there's\r\n            //  no said feature for inline assembly loops\r\n            // cb = 1 - don't breaker\r\n            // cb = 0 - break\r\n                let cb := 1\r\n\r\n                let mc := add(_preBytes, 0x20)\r\n                let end := add(mc, length)\r\n\r\n                for {\r\n                    let cc := add(_postBytes, 0x20)\r\n                // the next line is the loop condition:\r\n                // while(uint256(mc < end) + cb == 2)\r\n                } eq(add(lt(mc, end), cb), 2) {\r\n                    mc := add(mc, 0x20)\r\n                    cc := add(cc, 0x20)\r\n                } {\r\n                // if any of these checks fails then arrays are not equal\r\n                    if iszero(eq(mload(mc), mload(cc))) {\r\n                    // unsuccess:\r\n                        success := 0\r\n                        cb := 0\r\n                    }\r\n                }\r\n            }\r\n            default {\r\n            // unsuccess:\r\n                success := 0\r\n            }\r\n        }\r\n\r\n        return success;\r\n    }\r\n\r\n\r\n}\r\n\r\nlibrary FixidityLib {\r\n    struct Fraction {\r\n        uint256 value;\r\n    }\r\n\r\n    /**\r\n     * @notice Number of positions that the comma is shifted to the right.\r\n     */\r\n    function digits() internal pure returns (uint8) {\r\n        return 24;\r\n    }\r\n\r\n    uint256 private constant FIXED1_UINT = 1000000000000000000000000;\r\n\r\n    /**\r\n     * @notice This is 1 in the fixed point units used in this library.\r\n     * @dev Test fixed1() equals 10^digits()\r\n     * Hardcoded to 24 digits.\r\n     */\r\n    function fixed1() internal pure returns (Fraction memory) {\r\n        return Fraction(FIXED1_UINT);\r\n    }\r\n\r\n    /**\r\n     * @notice Wrap a uint256 that represents a 24-decimal fraction in a Fraction\r\n     * struct.\r\n     * @param x Number that already represents a 24-decimal fraction.\r\n     * @return A Fraction struct with contents x.\r\n     */\r\n    function wrap(uint256 x) internal pure returns (Fraction memory) {\r\n        return Fraction(x);\r\n    }\r\n\r\n    /**\r\n     * @notice Unwraps the uint256 inside of a Fraction struct.\r\n     */\r\n    function unwrap(Fraction memory x) internal pure returns (uint256) {\r\n        return x.value;\r\n    }\r\n\r\n    /**\r\n     * @notice The amount of decimals lost on each multiplication operand.\r\n     * @dev Test mulPrecision() equals sqrt(fixed1)\r\n     */\r\n    function mulPrecision() internal pure returns (uint256) {\r\n        return 1000000000000;\r\n    }\r\n\r\n    /**\r\n     * @notice Maximum value that can be converted to fixed point. Optimize for deployment.\r\n     * @dev\r\n     * Test maxNewFixed() equals maxUint256() / fixed1()\r\n     */\r\n    function maxNewFixed() internal pure returns (uint256) {\r\n        return 115792089237316195423570985008687907853269984665640564;\r\n    }\r\n\r\n    /**\r\n     * @notice Converts a uint256 to fixed point Fraction\r\n     * @dev Test newFixed(0) returns 0\r\n     * Test newFixed(1) returns fixed1()\r\n     * Test newFixed(maxNewFixed()) returns maxNewFixed() * fixed1()\r\n     * Test newFixed(maxNewFixed()+1) fails\r\n     */\r\n    function newFixed(uint256 x) internal pure returns (Fraction memory) {\r\n        require(x <= maxNewFixed(), \"can't create fixidity number larger than maxNewFixed()\");\r\n        return Fraction(x * FIXED1_UINT);\r\n    }\r\n\r\n    /**\r\n     * @notice Converts a uint256 in the fixed point representation of this\r\n     * library to a non decimal. All decimal digits will be truncated.\r\n     */\r\n    function fromFixed(Fraction memory x) internal pure returns (uint256) {\r\n        return x.value / FIXED1_UINT;\r\n    }\r\n\r\n    /**\r\n     * @notice Converts two uint256 representing a fraction to fixed point units,\r\n     * equivalent to multiplying dividend and divisor by 10^digits().\r\n     * @param numerator numerator must be <= maxNewFixed()\r\n     * @param denominator denominator must be <= maxNewFixed() and denominator can't be 0\r\n     * @dev\r\n     * Test newFixedFraction(1,0) fails\r\n     * Test newFixedFraction(0,1) returns 0\r\n     * Test newFixedFraction(1,1) returns fixed1()\r\n     * Test newFixedFraction(1,fixed1()) returns 1\r\n     */\r\n    function newFixedFraction(uint256 numerator, uint256 denominator)\r\n    internal\r\n    pure\r\n    returns (Fraction memory)\r\n    {\r\n        Fraction memory convertedNumerator = newFixed(numerator);\r\n        Fraction memory convertedDenominator = newFixed(denominator);\r\n        return divide(convertedNumerator, convertedDenominator);\r\n    }\r\n\r\n    /**\r\n     * @notice Returns the integer part of a fixed point number.\r\n     * @dev\r\n     * Test integer(0) returns 0\r\n     * Test integer(fixed1()) returns fixed1()\r\n     * Test integer(newFixed(maxNewFixed())) returns maxNewFixed()*fixed1()\r\n     */\r\n    function integer(Fraction memory x) internal pure returns (Fraction memory) {\r\n        return Fraction((x.value / FIXED1_UINT) * FIXED1_UINT);\r\n        // Can't overflow\r\n    }\r\n\r\n    /**\r\n     * @notice Returns the fractional part of a fixed point number.\r\n     * In the case of a negative number the fractional is also negative.\r\n     * @dev\r\n     * Test fractional(0) returns 0\r\n     * Test fractional(fixed1()) returns 0\r\n     * Test fractional(fixed1()-1) returns 10^24-1\r\n     */\r\n    function fractional(Fraction memory x) internal pure returns (Fraction memory) {\r\n        return Fraction(x.value - (x.value / FIXED1_UINT) * FIXED1_UINT);\r\n        // Can't overflow\r\n    }\r\n\r\n    /**\r\n     * @notice x+y.\r\n     * @dev The maximum value that can be safely used as an addition operator is defined as\r\n     * maxFixedAdd = maxUint256()-1 / 2, or\r\n     * 57896044618658097711785492504343953926634992332820282019728792003956564819967.\r\n     * Test add(maxFixedAdd,maxFixedAdd) equals maxFixedAdd + maxFixedAdd\r\n     * Test add(maxFixedAdd+1,maxFixedAdd+1) throws\r\n     */\r\n    function add(Fraction memory x, Fraction memory y) internal pure returns (Fraction memory) {\r\n        uint256 z = x.value + y.value;\r\n        require(z >= x.value, \"add overflow detected\");\r\n        return Fraction(z);\r\n    }\r\n\r\n    /**\r\n     * @notice x-y.\r\n     * @dev\r\n     * Test subtract(6, 10) fails\r\n     */\r\n    function subtract(Fraction memory x, Fraction memory y) internal pure returns (Fraction memory) {\r\n        require(x.value >= y.value, \"substraction underflow detected\");\r\n        return Fraction(x.value - y.value);\r\n    }\r\n\r\n    /**\r\n     * @notice x*y. If any of the operators is higher than the max multiplier value it\r\n     * might overflow.\r\n     * @dev The maximum value that can be safely used as a multiplication operator\r\n     * (maxFixedMul) is calculated as sqrt(maxUint256()*fixed1()),\r\n     * or 340282366920938463463374607431768211455999999999999\r\n     * Test multiply(0,0) returns 0\r\n     * Test multiply(maxFixedMul,0) returns 0\r\n     * Test multiply(0,maxFixedMul) returns 0\r\n     * Test multiply(fixed1()/mulPrecision(),fixed1()*mulPrecision()) returns fixed1()\r\n     * Test multiply(maxFixedMul,maxFixedMul) is around maxUint256()\r\n     * Test multiply(maxFixedMul+1,maxFixedMul+1) fails\r\n     */\r\n    function multiply(Fraction memory x, Fraction memory y) internal pure returns (Fraction memory) {\r\n        if (x.value == 0 || y.value == 0) return Fraction(0);\r\n        if (y.value == FIXED1_UINT) return x;\r\n        if (x.value == FIXED1_UINT) return y;\r\n\r\n        // Separate into integer and fractional parts\r\n        // x = x1 + x2, y = y1 + y2\r\n        uint256 x1 = integer(x).value / FIXED1_UINT;\r\n        uint256 x2 = fractional(x).value;\r\n        uint256 y1 = integer(y).value / FIXED1_UINT;\r\n        uint256 y2 = fractional(y).value;\r\n\r\n        // (x1 + x2) * (y1 + y2) = (x1 * y1) + (x1 * y2) + (x2 * y1) + (x2 * y2)\r\n        uint256 x1y1 = x1 * y1;\r\n        if (x1 != 0) require(x1y1 / x1 == y1, \"overflow x1y1 detected\");\r\n\r\n        // x1y1 needs to be multiplied back by fixed1\r\n        // solium-disable-next-line mixedcase\r\n        uint256 fixed_x1y1 = x1y1 * FIXED1_UINT;\r\n        if (x1y1 != 0) require(fixed_x1y1 / x1y1 == FIXED1_UINT, \"overflow x1y1 * fixed1 detected\");\r\n        x1y1 = fixed_x1y1;\r\n\r\n        uint256 x2y1 = x2 * y1;\r\n        if (x2 != 0) require(x2y1 / x2 == y1, \"overflow x2y1 detected\");\r\n\r\n        uint256 x1y2 = x1 * y2;\r\n        if (x1 != 0) require(x1y2 / x1 == y2, \"overflow x1y2 detected\");\r\n\r\n        x2 = x2 / mulPrecision();\r\n        y2 = y2 / mulPrecision();\r\n        uint256 x2y2 = x2 * y2;\r\n        if (x2 != 0) require(x2y2 / x2 == y2, \"overflow x2y2 detected\");\r\n\r\n        // result = fixed1() * x1 * y1 + x1 * y2 + x2 * y1 + x2 * y2 / fixed1();\r\n        Fraction memory result = Fraction(x1y1);\r\n        result = add(result, Fraction(x2y1));\r\n        // Add checks for overflow\r\n        result = add(result, Fraction(x1y2));\r\n        // Add checks for overflow\r\n        result = add(result, Fraction(x2y2));\r\n        // Add checks for overflow\r\n        return result;\r\n    }\r\n\r\n    /**\r\n     * @notice 1/x\r\n     * @dev\r\n     * Test reciprocal(0) fails\r\n     * Test reciprocal(fixed1()) returns fixed1()\r\n     * Test reciprocal(fixed1()*fixed1()) returns 1 // Testing how the fractional is truncated\r\n     * Test reciprocal(1+fixed1()*fixed1()) returns 0 // Testing how the fractional is truncated\r\n     * Test reciprocal(newFixedFraction(1, 1e24)) returns newFixed(1e24)\r\n     */\r\n    function reciprocal(Fraction memory x) internal pure returns (Fraction memory) {\r\n        require(x.value != 0, \"can't call reciprocal(0)\");\r\n        return Fraction((FIXED1_UINT * FIXED1_UINT) / x.value);\r\n        // Can't overflow\r\n    }\r\n\r\n    /**\r\n     * @notice x/y. If the dividend is higher than the max dividend value, it\r\n     * might overflow. You can use multiply(x,reciprocal(y)) instead.\r\n     * @dev The maximum value that can be safely used as a dividend (maxNewFixed) is defined as\r\n     * divide(maxNewFixed,newFixedFraction(1,fixed1())) is around maxUint256().\r\n     * This yields the value 115792089237316195423570985008687907853269984665640564.\r\n     * Test maxNewFixed equals maxUint256()/fixed1()\r\n     * Test divide(maxNewFixed,1) equals maxNewFixed*(fixed1)\r\n     * Test divide(maxNewFixed+1,multiply(mulPrecision(),mulPrecision())) throws\r\n     * Test divide(fixed1(),0) fails\r\n     * Test divide(maxNewFixed,1) = maxNewFixed*(10^digits())\r\n     * Test divide(maxNewFixed+1,1) throws\r\n     */\r\n    function divide(Fraction memory x, Fraction memory y) internal pure returns (Fraction memory) {\r\n        require(y.value != 0, \"can't divide by 0\");\r\n        uint256 X = x.value * FIXED1_UINT;\r\n        require(X / FIXED1_UINT == x.value, \"overflow at divide\");\r\n        return Fraction(X / y.value);\r\n    }\r\n\r\n    /**\r\n     * @notice x > y\r\n     */\r\n    function gt(Fraction memory x, Fraction memory y) internal pure returns (bool) {\r\n        return x.value > y.value;\r\n    }\r\n\r\n    /**\r\n     * @notice x >= y\r\n     */\r\n    function gte(Fraction memory x, Fraction memory y) internal pure returns (bool) {\r\n        return x.value >= y.value;\r\n    }\r\n\r\n    /**\r\n     * @notice x < y\r\n     */\r\n    function lt(Fraction memory x, Fraction memory y) internal pure returns (bool) {\r\n        return x.value < y.value;\r\n    }\r\n\r\n    /**\r\n     * @notice x <= y\r\n     */\r\n    function lte(Fraction memory x, Fraction memory y) internal pure returns (bool) {\r\n        return x.value <= y.value;\r\n    }\r\n\r\n    /**\r\n     * @notice x == y\r\n     */\r\n    function equals(Fraction memory x, Fraction memory y) internal pure returns (bool) {\r\n        return x.value == y.value;\r\n    }\r\n\r\n    /**\r\n     * @notice x <= 1\r\n     */\r\n    function isProperFraction(Fraction memory x) internal pure returns (bool) {\r\n        return lte(x, fixed1());\r\n    }\r\n}\r\n\r\ncontract UsingRegistry is Ownable {\r\n    event RegistrySet(address indexed registryAddress);\r\n    // solhint-disable state-visibility\r\n    bytes32 constant ACCOUNTS_REGISTRY_ID = keccak256(abi.encodePacked(\"Accounts\"));\r\n    bytes32 constant VALIDATORS_REGISTRY_ID = keccak256(abi.encodePacked(\"Validators\"));\r\n    bytes32 constant LOCKED_GOLD_REGISTRY_ID = keccak256(abi.encodePacked(\"LockedGold\"));\r\n    bytes32 constant ELECTION_REGISTRY_ID = keccak256(abi.encodePacked(\"Election\"));\r\n    // solhint-enable state-visibility\r\n    IRegistry public registry;\r\n\r\n    function setRegistry(address registryAddress) public onlyOwner {\r\n        require(registryAddress != address(0), \"Cannot register the null address\");\r\n        registry = IRegistry(registryAddress);\r\n        emit RegistrySet(registryAddress);\r\n    }\r\n\r\n    function getAccounts() internal view returns (IAccounts) {\r\n        return IAccounts(registry.getAddressForOrDie(ACCOUNTS_REGISTRY_ID));\r\n        // 需要添加Accounts合約\r\n    }\r\n\r\n    function getLockedGold() internal view returns (ILockedGold) {\r\n        return ILockedGold(registry.getAddressForOrDie(LOCKED_GOLD_REGISTRY_ID));\r\n    }\r\n}\r\n\r\ncontract UsingPrecompiles {\r\n    using SafeMath for uint256;\r\n    address constant EPOCH_SIZE = address(0xff - 7);\r\n    address constant PROOF_OF_POSSESSION = address(0xff - 4);\r\n\r\n    function getEpochSize() public view returns (uint256) {\r\n        bytes memory out;\r\n        bool success;\r\n        (success, out) = EPOCH_SIZE.staticcall(abi.encodePacked());\r\n        require(success, \"error calling getEpochSize precompile\");\r\n        return getUint256FromBytes(out, 0);\r\n    }\r\n\r\n    function getUint256FromBytes(bytes memory bs, uint256 start) internal pure returns (uint256) {\r\n        return uint256(getBytes32FromBytes(bs, start));\r\n    }\r\n\r\n    function getBytes32FromBytes(bytes memory bs, uint256 start) internal pure returns (bytes32) {\r\n        require(bs.length >= start.add(32), \"slicing out of range\");\r\n        bytes32 x;\r\n        assembly {\r\n            x := mload(add(bs, add(start, 32)))\r\n        }\r\n        return x;\r\n    }\r\n\r\n    function getEpochNumberOfBlock(uint256 blockNumber) public view returns (uint256) {\r\n        return epochNumberOfBlock(blockNumber, getEpochSize());\r\n    }\r\n\r\n    function getEpochNumber() public view returns (uint256) {\r\n        return getEpochNumberOfBlock(block.number);\r\n    }\r\n\r\n    function epochNumberOfBlock(uint256 blockNumber, uint256 epochSize)\r\n    internal\r\n    pure\r\n    returns (uint256)\r\n    {\r\n        // Follows GetEpochNumber from celo-blockchain/blob/master/consensus/istanbul/utils.go\r\n        uint256 epochNumber = blockNumber / epochSize;\r\n        if (blockNumber % epochSize == 0) {\r\n            return epochNumber;\r\n        } else {\r\n            return epochNumber.add(1);\r\n        }\r\n    }\r\n\r\n    function checkProofOfPossession(address sender, bytes memory blsKey, bytes memory blsPop)\r\n    public\r\n    view\r\n    returns (bool)\r\n    {\r\n        bool success;\r\n        (success,) = PROOF_OF_POSSESSION.staticcall(abi.encodePacked(sender, blsKey, blsPop));\r\n        return success;\r\n    }\r\n\r\n}\r\n\r\ncontract Validators is\r\nOwnable,\r\nInitializable,\r\nUsingPrecompiles,\r\nUsingRegistry,\r\nConsole,\r\nIValidators2\r\n{\r\n    using FixidityLib for FixidityLib.Fraction;\r\n    using SafeMath for uint256;\r\n    using BytesLib for bytes;\r\n\r\n    struct LockedGoldRequirements {\r\n        uint256 value;\r\n        uint256 duration;\r\n    }\r\n\r\n\r\n    struct membersinfo {\r\n        address[] list;\r\n        mapping(address => uint256) member;//address  index\r\n        uint256 numElements;\r\n    }\r\n\r\n    struct ValidatorGroup {\r\n        bool exists;\r\n        membersinfo members;\r\n        FixidityLib.Fraction commission;\r\n        FixidityLib.Fraction nextCommission;\r\n        uint256 nextCommissionBlock;\r\n        uint256[] sizeHistory;\r\n        SlashingInfo slashInfo;\r\n    }\r\n\r\n    struct MembershipHistoryEntry {\r\n        uint256 epochNumber;\r\n        address group;\r\n    }\r\n\r\n\r\n    struct MembershipHistory {\r\n        uint256 tail;\r\n        uint256 numEntries;\r\n        mapping(uint256 => MembershipHistoryEntry) entries;\r\n        uint256 lastRemovedFromGroupTimestamp;\r\n    }\r\n\r\n    struct SlashingInfo {\r\n        FixidityLib.Fraction multiplier;\r\n        uint256 lastSlashed;\r\n    }\r\n\r\n    struct PublicKeys {\r\n        bytes ecdsa;\r\n        bytes bls;\r\n    }\r\n\r\n    struct Validator {\r\n        bool exists;\r\n        PublicKeys publicKeys;\r\n        address affiliation;\r\n        FixidityLib.Fraction score;\r\n        MembershipHistory membershipHistory;\r\n    }\r\n\r\n    struct ValidatorScoreParameters {\r\n        uint256 exponent;\r\n        FixidityLib.Fraction adjustmentSpeed;\r\n    }\r\n\r\n    mapping(address => ValidatorGroup) private groups;\r\n    mapping(address => Validator) private validators;\r\n    address[] private registeredGroups;\r\n    address[] private registeredValidators;\r\n    LockedGoldRequirements public validatorLockedGoldRequirements;\r\n    LockedGoldRequirements public groupLockedGoldRequirements;\r\n    ValidatorScoreParameters private validatorScoreParameters;\r\n    uint256 public membershipHistoryLength;\r\n    uint256 public maxGroupSize;\r\n    uint256 public commissionUpdateDelay;\r\n    uint256 public slashingMultiplierResetPeriod;\r\n    uint256 public downtimeGracePeriod;\r\n    constructor(bool test) public Initializable(test) {}\r\n\r\n    function initialize(\r\n        address registryAddress\r\n    ) external initializer {\r\n        _transferOwnership(msg.sender);\r\n        setRegistry(registryAddress);\r\n    }\r\n\r\n    function registerValidator(\r\n    ) external returns (bool) {\r\n        //        address account = getAccounts().validatorSignerToAccount(msg.sender);zhangwei\r\n        //        require(!isValidator(account) && !isValidatorGroup(account), \"Already registered\");\r\n        address account = msg.sender;\r\n        Validator storage validator = validators[account];\r\n        //        uint256 lockedGoldBalance = getLockedGold().getAccountTotalLockedGold(account);\r\n\r\n        //        require(lockedGoldBalance >= validatorLockedGoldRequirements.value, \"Deposit too small\");\r\n        validator.exists = true;\r\n        registeredValidators.push(account);\r\n        //        updateMembershipHistory(account, address(0));\r\n        return true;\r\n    }\r\n\r\n    function deregisterValidator(uint256 index) external returns (bool) {\r\n        address account = getAccounts().validatorSignerToAccount(msg.sender);\r\n        require(isValidator(account), \"Not a validator\");\r\n\r\n        // Require that the validator has not been a member of a validator group for\r\n        // `validatorLockedGoldRequirements.duration` seconds.\r\n        Validator storage validator = validators[account];\r\n        if (validator.affiliation != address(0)) {\r\n            // 1.是组成员不能注销\r\n            require(\r\n                !(groups[validator.affiliation].members.member[account] > 0),\r\n                \"Has been group member recently\"\r\n            );\r\n        }\r\n        uint256 requirementEndTime = validator.membershipHistory.lastRemovedFromGroupTimestamp.add(\r\n            validatorLockedGoldRequirements.duration\r\n        );\r\n        //2.未到注销时间不能删除\r\n        require(requirementEndTime < now, \"Not yet requirement end time\");\r\n\r\n        // Remove the validator.\r\n        deleteElement(registeredValidators, account, index);\r\n        delete validators[account];\r\n\r\n        return true;\r\n    }\r\n\r\n    function affiliate(address group) external returns (bool) {\r\n        //        address account = getAccounts().validatorSignerToAccount(msg.sender); zhangwei\r\n        address account = msg.sender;\r\n        //        require(isValidator(account), \"Not a validator\");\r\n        //        require(isValidatorGroup(group), \"Not a validator group\");\r\n        //        //1.验证器不符合要求\r\n        //        require(meetsAccountLockedGoldRequirements(account), \"Validator doesn't meet requirements\");\r\n        //        //2.组不符合要求\r\n        //        require(meetsAccountLockedGoldRequirements(group), \"Group doesn't meet requirements\");\r\n        Validator storage validator = validators[account];\r\n        if (validator.affiliation != address(0)) {\r\n            //3.取消其它组的关联\r\n            _deaffiliate(validator, account);\r\n        }\r\n        //3.关联\r\n        validator.affiliation = group;\r\n\r\n        return true;\r\n    }\r\n\r\n    function deaffiliate() external returns (bool) {\r\n        address account = getAccounts().validatorSignerToAccount(msg.sender);\r\n        require(isValidator(account), \"Not a validator\");\r\n        Validator storage validator = validators[account];\r\n        require(validator.affiliation != address(0), \"deaffiliate: not affiliated\");\r\n        _deaffiliate(validator, account);\r\n        return true;\r\n    }\r\n\r\n    function registerValidatorGroup(uint256 commission) external returns (bool) {\r\n        require(commission <= FixidityLib.fixed1().unwrap(), \"Commission can't be greater than 100%\");\r\n        //        address account = getAccounts().validatorSignerToAccount(msg.sender); zhangwei\r\n        // 2.不能是验证者\r\n        //        require(!isValidator(account), \"Already registered as validator\");\r\n        // 3.已经成为验证者组\r\n        address account = msg.sender;\r\n        require(!isValidatorGroup(account), \"Already registered as group\");\r\n        //        uint256 lockedGoldBalance = getLockedGold().getAccountTotalLockedGold(account);\r\n        //        uint256 lockedGoldBalance = LockedGold_zw.getAccountNonvotingLockedGold(account);\r\n        //        //4.符合验证者组要求金额\r\n        //        require(lockedGoldBalance >= groupLockedGoldRequirements.value, \"Not enough locked gold\");\r\n        ValidatorGroup storage group = groups[account];\r\n        group.exists = true;\r\n        group.commission = FixidityLib.wrap(commission);\r\n        group.slashInfo = SlashingInfo(FixidityLib.fixed1(), 0);\r\n        registeredGroups.push(account);\r\n\r\n        return true;\r\n    }\r\n\r\n    function deregisterValidatorGroup(uint256 index) external returns (bool) {\r\n        address account = getAccounts().validatorSignerToAccount(msg.sender);\r\n        // Only Validator Groups that have never had members or have been empty for at least\r\n        // `groupLockedGoldRequirements.duration` seconds can be deregistered.\r\n        require(isValidatorGroup(account), \"Not a validator group\");\r\n        require(groups[account].members.numElements == 0, \"Validator group not empty\");\r\n        uint256[] storage sizeHistory = groups[account].sizeHistory;\r\n        if (sizeHistory.length > 1) {\r\n            require(\r\n                sizeHistory[1].add(groupLockedGoldRequirements.duration) < now,\r\n                \"Hasn't been empty for long enough\"\r\n            );\r\n        }\r\n        delete groups[account];\r\n        deleteElement(registeredGroups, account, index);\r\n\r\n        return true;\r\n    }\r\n\r\n    function addMember(address validator) external returns (bool) {\r\n        address account = msg.sender;\r\n        ValidatorGroup storage _group = groups[account];\r\n        _group.members.list.push(validator);\r\n        _group.members.member[validator] = _group.members.list.length - 1;\r\n        _group.members.numElements.add(1);\r\n        \r\n        log(\"addMember\",_group.members.list.length);\r\n        log(\"addMember\",validator);\r\n        return true;\r\n    }\r\n\r\n\r\n    function removeMember(address validator) external returns (bool) {\r\n        address account = getAccounts().validatorSignerToAccount(msg.sender);\r\n        require(isValidatorGroup(account) && isValidator(validator), \"is not group and validator\");\r\n        return _removeMember(account, validator);\r\n    }\r\n\r\n    function getAccountLockedGoldRequirement(address account) public view returns (uint256) {\r\n        if (isValidator(account)) {\r\n            return validatorLockedGoldRequirements.value;\r\n        } else if (isValidatorGroup(account)) {\r\n            uint256 multiplier = Math.max(1, groups[account].members.numElements);\r\n            uint256[] storage sizeHistory = groups[account].sizeHistory;\r\n            if (sizeHistory.length > 0) {\r\n                for (uint256 i = sizeHistory.length.sub(1); i > 0; i = i.sub(1)) {\r\n                    if (sizeHistory[i].add(groupLockedGoldRequirements.duration) >= now) {\r\n                        multiplier = Math.max(i, multiplier);\r\n                        break;\r\n                    }\r\n                }\r\n            }\r\n            return groupLockedGoldRequirements.value.mul(multiplier);\r\n        }\r\n        return 0;\r\n    }\r\n\r\n    function meetsAccountLockedGoldRequirements(address account) public view returns (bool) {\r\n        uint256 balance = getLockedGold().getAccountTotalLockedGold(account);\r\n        // Add a bit of \"wiggle room\" to accommodate the fact that vote activation can result in ~1\r\n        // wei rounding errors. Using 10 as an additional margin of safety.\r\n        return balance.add(10) >= getAccountLockedGoldRequirement(account);\r\n    }\r\n\r\n    function isValidatorGroup(address account) public view returns (bool) {\r\n        return groups[account].exists;\r\n    }\r\n\r\n    function isValidator(address account) public view returns (bool) {\r\n        return validators[account].exists;\r\n    }\r\n\r\n    function deleteElement(address[] storage list, address element, uint256 index) private {\r\n        require(index < list.length && list[index] == element, \"deleteElement: index out of range\");\r\n        uint256 lastIndex = list.length.sub(1);\r\n        list[index] = list[lastIndex];\r\n        delete list[lastIndex];\r\n        list.length = lastIndex;\r\n    }\r\n\r\n    function _removeMember(address group, address validator) private returns (bool) {\r\n        ValidatorGroup storage _group = groups[group];\r\n        require(validators[validator].affiliation == group, \"Not affiliated to group\");\r\n        deleteElement(_group.members.list, validator, _group.members.member[validator]);\r\n        delete (_group.members.member[validator]);\r\n        uint256 numMembers = _group.members.numElements;\r\n        // Empty validator groups are not electable.\r\n        if (numMembers == 0) {\r\n            getElection().markGroupIneligible(group);\r\n        }\r\n        _group.members.list[_group.members.numElements] == address(0);\r\n        _group.members.numElements.sub(1);\r\n\r\n        return true;\r\n    }\r\n\r\n    function updateMembershipHistory(address account, address group) private returns (bool) {\r\n        MembershipHistory storage history = validators[account].membershipHistory;\r\n        uint256 epochNumber = getEpochNumber();\r\n        uint256 head = history.numEntries == 0 ? 0 : history.tail.add(history.numEntries.sub(1));\r\n\r\n        if (history.numEntries > 0 && group == address(0)) {\r\n            history.lastRemovedFromGroupTimestamp = now;\r\n        }\r\n\r\n        if (history.numEntries > 0 && history.entries[head].epochNumber == epochNumber) {\r\n            // There have been no elections since the validator last changed membership, overwrite the\r\n            // previous entry.\r\n            history.entries[head] = MembershipHistoryEntry(epochNumber, group);\r\n            return true;\r\n        }\r\n\r\n        // There have been elections since the validator last changed membership, create a new entry.\r\n        uint256 index = history.numEntries == 0 ? 0 : head.add(1);\r\n        history.entries[index] = MembershipHistoryEntry(epochNumber, group);\r\n        if (history.numEntries < membershipHistoryLength) {\r\n            // Not enough entries, don't remove any.\r\n            history.numEntries = history.numEntries.add(1);\r\n        } else if (history.numEntries == membershipHistoryLength) {\r\n            // Exactly enough entries, delete the oldest one to account for the one we added.\r\n            delete history.entries[history.tail];\r\n            history.tail = history.tail.add(1);\r\n        } else {\r\n            // Too many entries, delete the oldest two to account for the one we added.\r\n            delete history.entries[history.tail];\r\n            delete history.entries[history.tail.add(1)];\r\n            history.numEntries = history.numEntries.sub(1);\r\n            history.tail = history.tail.add(2);\r\n        }\r\n        return true;\r\n    }\r\n\r\n    function updateSizeHistory(address group, uint256 size) private {\r\n        uint256[] storage sizeHistory = groups[group].sizeHistory;\r\n        if (size == sizeHistory.length) {\r\n            sizeHistory.push(now);\r\n        } else if (size < sizeHistory.length) {\r\n            sizeHistory[size] = now;\r\n        } else {\r\n            require(false, \"Unable to update size history\");\r\n        }\r\n    }\r\n\r\n    function _deaffiliate(Validator storage validator, address validatorAccount)\r\n    private\r\n    returns (bool)\r\n    {\r\n        address affiliation = validator.affiliation;\r\n        ValidatorGroup storage group = groups[affiliation];\r\n        deleteElement(group.members.list, validatorAccount, group.members.member[validatorAccount]);\r\n        delete (group.members.member[validatorAccount]);\r\n        validator.affiliation = address(0);\r\n        return true;\r\n    }\r\n\r\n\r\n    function getElection() internal view returns (IElection) {\r\n        return IElection(registry.getAddressForOrDie(ELECTION_REGISTRY_ID));\r\n    }\r\n\r\n    function getGroupValidators(address account, uint256 n)\r\n    external\r\n    view\r\n    returns (address[] memory)\r\n    {\r\n        return groups[account].members.list;\r\n    }\r\n\r\n    function getFirstGroupValidators()\r\n    external\r\n    view\r\n    returns (address[] memory)\r\n    {\r\n        return groups[registeredGroups[0]].members.list;\r\n    }\r\n}\r\n",
  "sourcePath": "D:\\work\\zhangwei812\\mySolidity\\mySolidity\\contracts\\Validators.sol",
  "compiler": {
    "name": "solc",
    "version": "0.5.16+commit.9c3226ce.Emscripten.clang"
  },
  "schemaVersion": "3.4.3",
  "updatedAt": "2021-11-05T11:19:21.157Z",
  "devdoc": {
    "methods": {
      "isOwner()": {
        "details": "Returns true if the caller is the current owner."
      },
      "owner()": {
        "details": "Returns the address of the current owner."
      },
      "renounceOwnership()": {
        "details": "Leaves the contract without owner. It will not be possible to call `onlyOwner` functions anymore. Can only be called by the current owner.     * NOTE: Renouncing ownership will leave the contract without an owner, thereby removing any functionality that is only available to the owner."
      },
      "transferOwnership(address)": {
        "details": "Transfers ownership of the contract to a new account (`newOwner`). Can only be called by the current owner."
      }
    }
  },
  "userdoc": {
    "methods": {}
  }
}