{
  "contractName": "Validators",
  "abi": [
    {
      "inputs": [
        {
          "internalType": "bool",
          "name": "test",
          "type": "bool"
        }
      ],
      "payable": false,
      "stateMutability": "nonpayable",
      "type": "constructor"
    },
    {
      "anonymous": false,
      "inputs": [
        {
          "indexed": false,
          "internalType": "string",
          "name": "",
          "type": "string"
        },
        {
          "indexed": false,
          "internalType": "address",
          "name": "",
          "type": "address"
        }
      ],
      "name": "LogAddress",
      "type": "event"
    },
    {
      "anonymous": false,
      "inputs": [
        {
          "indexed": false,
          "internalType": "string",
          "name": "",
          "type": "string"
        },
        {
          "indexed": false,
          "internalType": "bool",
          "name": "",
          "type": "bool"
        }
      ],
      "name": "LogBool",
      "type": "event"
    },
    {
      "anonymous": false,
      "inputs": [
        {
          "indexed": false,
          "internalType": "string",
          "name": "",
          "type": "string"
        },
        {
          "indexed": false,
          "internalType": "bytes",
          "name": "",
          "type": "bytes"
        }
      ],
      "name": "LogBytes",
      "type": "event"
    },
    {
      "anonymous": false,
      "inputs": [
        {
          "indexed": false,
          "internalType": "string",
          "name": "",
          "type": "string"
        },
        {
          "indexed": false,
          "internalType": "bytes32",
          "name": "",
          "type": "bytes32"
        }
      ],
      "name": "LogBytes32",
      "type": "event"
    },
    {
      "anonymous": false,
      "inputs": [
        {
          "indexed": false,
          "internalType": "string",
          "name": "",
          "type": "string"
        },
        {
          "indexed": false,
          "internalType": "int256",
          "name": "",
          "type": "int256"
        }
      ],
      "name": "LogInt",
      "type": "event"
    },
    {
      "anonymous": false,
      "inputs": [
        {
          "indexed": false,
          "internalType": "string",
          "name": "",
          "type": "string"
        },
        {
          "indexed": false,
          "internalType": "uint256",
          "name": "",
          "type": "uint256"
        }
      ],
      "name": "LogUint",
      "type": "event"
    },
    {
      "anonymous": false,
      "inputs": [
        {
          "indexed": true,
          "internalType": "address",
          "name": "previousOwner",
          "type": "address"
        },
        {
          "indexed": true,
          "internalType": "address",
          "name": "newOwner",
          "type": "address"
        }
      ],
      "name": "OwnershipTransferred",
      "type": "event"
    },
    {
      "anonymous": false,
      "inputs": [
        {
          "indexed": true,
          "internalType": "address",
          "name": "registryAddress",
          "type": "address"
        }
      ],
      "name": "RegistrySet",
      "type": "event"
    },
    {
      "constant": true,
      "inputs": [
        {
          "internalType": "address",
          "name": "sender",
          "type": "address"
        },
        {
          "internalType": "bytes",
          "name": "blsKey",
          "type": "bytes"
        },
        {
          "internalType": "bytes",
          "name": "blsPop",
          "type": "bytes"
        }
      ],
      "name": "checkProofOfPossession",
      "outputs": [
        {
          "internalType": "bool",
          "name": "",
          "type": "bool"
        }
      ],
      "payable": false,
      "stateMutability": "view",
      "type": "function"
    },
    {
      "constant": true,
      "inputs": [],
      "name": "commissionUpdateDelay",
      "outputs": [
        {
          "internalType": "uint256",
          "name": "",
          "type": "uint256"
        }
      ],
      "payable": false,
      "stateMutability": "view",
      "type": "function"
    },
    {
      "constant": true,
      "inputs": [],
      "name": "downtimeGracePeriod",
      "outputs": [
        {
          "internalType": "uint256",
          "name": "",
          "type": "uint256"
        }
      ],
      "payable": false,
      "stateMutability": "view",
      "type": "function"
    },
    {
      "constant": true,
      "inputs": [],
      "name": "getEpochNumber",
      "outputs": [
        {
          "internalType": "uint256",
          "name": "",
          "type": "uint256"
        }
      ],
      "payable": false,
      "stateMutability": "view",
      "type": "function"
    },
    {
      "constant": true,
      "inputs": [
        {
          "internalType": "uint256",
          "name": "blockNumber",
          "type": "uint256"
        }
      ],
      "name": "getEpochNumberOfBlock",
      "outputs": [
        {
          "internalType": "uint256",
          "name": "",
          "type": "uint256"
        }
      ],
      "payable": false,
      "stateMutability": "view",
      "type": "function"
    },
    {
      "constant": true,
      "inputs": [],
      "name": "getEpochSize",
      "outputs": [
        {
          "internalType": "uint256",
          "name": "",
          "type": "uint256"
        }
      ],
      "payable": false,
      "stateMutability": "view",
      "type": "function"
    },
    {
      "constant": true,
      "inputs": [],
      "name": "groupLockedGoldRequirements",
      "outputs": [
        {
          "internalType": "uint256",
          "name": "value",
          "type": "uint256"
        },
        {
          "internalType": "uint256",
          "name": "duration",
          "type": "uint256"
        }
      ],
      "payable": false,
      "stateMutability": "view",
      "type": "function"
    },
    {
      "constant": true,
      "inputs": [],
      "name": "initialized",
      "outputs": [
        {
          "internalType": "bool",
          "name": "",
          "type": "bool"
        }
      ],
      "payable": false,
      "stateMutability": "view",
      "type": "function"
    },
    {
      "constant": true,
      "inputs": [],
      "name": "isOwner",
      "outputs": [
        {
          "internalType": "bool",
          "name": "",
          "type": "bool"
        }
      ],
      "payable": false,
      "stateMutability": "view",
      "type": "function"
    },
    {
      "constant": true,
      "inputs": [],
      "name": "maxGroupSize",
      "outputs": [
        {
          "internalType": "uint256",
          "name": "",
          "type": "uint256"
        }
      ],
      "payable": false,
      "stateMutability": "view",
      "type": "function"
    },
    {
      "constant": true,
      "inputs": [],
      "name": "membershipHistoryLength",
      "outputs": [
        {
          "internalType": "uint256",
          "name": "",
          "type": "uint256"
        }
      ],
      "payable": false,
      "stateMutability": "view",
      "type": "function"
    },
    {
      "constant": true,
      "inputs": [],
      "name": "owner",
      "outputs": [
        {
          "internalType": "address",
          "name": "",
          "type": "address"
        }
      ],
      "payable": false,
      "stateMutability": "view",
      "type": "function"
    },
    {
      "constant": true,
      "inputs": [],
      "name": "registry",
      "outputs": [
        {
          "internalType": "contract IRegistry",
          "name": "",
          "type": "address"
        }
      ],
      "payable": false,
      "stateMutability": "view",
      "type": "function"
    },
    {
      "constant": false,
      "inputs": [],
      "name": "renounceOwnership",
      "outputs": [],
      "payable": false,
      "stateMutability": "nonpayable",
      "type": "function"
    },
    {
      "constant": false,
      "inputs": [
        {
          "internalType": "address",
          "name": "registryAddress",
          "type": "address"
        }
      ],
      "name": "setRegistry",
      "outputs": [],
      "payable": false,
      "stateMutability": "nonpayable",
      "type": "function"
    },
    {
      "constant": true,
      "inputs": [],
      "name": "slashingMultiplierResetPeriod",
      "outputs": [
        {
          "internalType": "uint256",
          "name": "",
          "type": "uint256"
        }
      ],
      "payable": false,
      "stateMutability": "view",
      "type": "function"
    },
    {
      "constant": false,
      "inputs": [
        {
          "internalType": "address",
          "name": "newOwner",
          "type": "address"
        }
      ],
      "name": "transferOwnership",
      "outputs": [],
      "payable": false,
      "stateMutability": "nonpayable",
      "type": "function"
    },
    {
      "constant": true,
      "inputs": [],
      "name": "validatorLockedGoldRequirements",
      "outputs": [
        {
          "internalType": "uint256",
          "name": "value",
          "type": "uint256"
        },
        {
          "internalType": "uint256",
          "name": "duration",
          "type": "uint256"
        }
      ],
      "payable": false,
      "stateMutability": "view",
      "type": "function"
    },
    {
      "constant": false,
      "inputs": [
        {
          "internalType": "address",
          "name": "registryAddress",
          "type": "address"
        }
      ],
      "name": "initialize",
      "outputs": [],
      "payable": false,
      "stateMutability": "nonpayable",
      "type": "function"
    },
    {
      "constant": false,
      "inputs": [],
      "name": "registerValidator",
      "outputs": [
        {
          "internalType": "bool",
          "name": "",
          "type": "bool"
        }
      ],
      "payable": false,
      "stateMutability": "nonpayable",
      "type": "function"
    },
    {
      "constant": false,
      "inputs": [
        {
          "internalType": "uint256",
          "name": "index",
          "type": "uint256"
        }
      ],
      "name": "deregisterValidator",
      "outputs": [
        {
          "internalType": "bool",
          "name": "",
          "type": "bool"
        }
      ],
      "payable": false,
      "stateMutability": "nonpayable",
      "type": "function"
    },
    {
      "constant": false,
      "inputs": [
        {
          "internalType": "address",
          "name": "group",
          "type": "address"
        }
      ],
      "name": "affiliate",
      "outputs": [
        {
          "internalType": "bool",
          "name": "",
          "type": "bool"
        }
      ],
      "payable": false,
      "stateMutability": "nonpayable",
      "type": "function"
    },
    {
      "constant": false,
      "inputs": [],
      "name": "deaffiliate",
      "outputs": [
        {
          "internalType": "bool",
          "name": "",
          "type": "bool"
        }
      ],
      "payable": false,
      "stateMutability": "nonpayable",
      "type": "function"
    },
    {
      "constant": false,
      "inputs": [
        {
          "internalType": "uint256",
          "name": "commission",
          "type": "uint256"
        }
      ],
      "name": "registerValidatorGroup",
      "outputs": [
        {
          "internalType": "bool",
          "name": "",
          "type": "bool"
        }
      ],
      "payable": false,
      "stateMutability": "nonpayable",
      "type": "function"
    },
    {
      "constant": false,
      "inputs": [
        {
          "internalType": "uint256",
          "name": "index",
          "type": "uint256"
        }
      ],
      "name": "deregisterValidatorGroup",
      "outputs": [
        {
          "internalType": "bool",
          "name": "",
          "type": "bool"
        }
      ],
      "payable": false,
      "stateMutability": "nonpayable",
      "type": "function"
    },
    {
      "constant": false,
      "inputs": [
        {
          "internalType": "address",
          "name": "validator",
          "type": "address"
        }
      ],
      "name": "addMember",
      "outputs": [
        {
          "internalType": "bool",
          "name": "",
          "type": "bool"
        }
      ],
      "payable": false,
      "stateMutability": "nonpayable",
      "type": "function"
    },
    {
      "constant": false,
      "inputs": [
        {
          "internalType": "address",
          "name": "validator",
          "type": "address"
        }
      ],
      "name": "removeMember",
      "outputs": [
        {
          "internalType": "bool",
          "name": "",
          "type": "bool"
        }
      ],
      "payable": false,
      "stateMutability": "nonpayable",
      "type": "function"
    },
    {
      "constant": true,
      "inputs": [
        {
          "internalType": "address",
          "name": "account",
          "type": "address"
        }
      ],
      "name": "getAccountLockedGoldRequirement",
      "outputs": [
        {
          "internalType": "uint256",
          "name": "",
          "type": "uint256"
        }
      ],
      "payable": false,
      "stateMutability": "view",
      "type": "function"
    },
    {
      "constant": true,
      "inputs": [
        {
          "internalType": "address",
          "name": "account",
          "type": "address"
        }
      ],
      "name": "meetsAccountLockedGoldRequirements",
      "outputs": [
        {
          "internalType": "bool",
          "name": "",
          "type": "bool"
        }
      ],
      "payable": false,
      "stateMutability": "view",
      "type": "function"
    },
    {
      "constant": true,
      "inputs": [
        {
          "internalType": "address",
          "name": "account",
          "type": "address"
        }
      ],
      "name": "isValidatorGroup",
      "outputs": [
        {
          "internalType": "bool",
          "name": "",
          "type": "bool"
        }
      ],
      "payable": false,
      "stateMutability": "view",
      "type": "function"
    },
    {
      "constant": true,
      "inputs": [
        {
          "internalType": "address",
          "name": "account",
          "type": "address"
        }
      ],
      "name": "isValidator",
      "outputs": [
        {
          "internalType": "bool",
          "name": "",
          "type": "bool"
        }
      ],
      "payable": false,
      "stateMutability": "view",
      "type": "function"
    },
    {
      "constant": true,
      "inputs": [
        {
          "internalType": "address",
          "name": "account",
          "type": "address"
        },
        {
          "internalType": "uint256",
          "name": "n",
          "type": "uint256"
        }
      ],
      "name": "getGroupValidators",
      "outputs": [
        {
          "internalType": "address[]",
          "name": "",
          "type": "address[]"
        }
      ],
      "payable": false,
      "stateMutability": "view",
      "type": "function"
    }
  ],
  "bytecode": "0x60806040523480156200001157600080fd5b506040516200394f3803806200394f833981810160405260208110156200003757600080fd5b81019080805190602001909291905050508060006200005b6200012360201b60201c565b9050806000806101000a81548173ffffffffffffffffffffffffffffffffffffffff021916908373ffffffffffffffffffffffffffffffffffffffff1602179055508073ffffffffffffffffffffffffffffffffffffffff16600073ffffffffffffffffffffffffffffffffffffffff167f8be0079c531659141344cd1fd0a4f28419497f9722a3daafe3b4186f6b6457e060405160405180910390a350806200011b576001600060146101000a81548160ff0219169083151502179055505b50506200012b565b600033905090565b613814806200013b6000396000f3fe608060405234801561001057600080fd5b50600436106101f05760003560e01c80639a7b3be71161010f578063ca6d56dc116100a2578063ee09831011610071578063ee098310146109bc578063f2fde38b14610a02578063facd743b14610a46578063fffdfccb14610aa2576101f0565b8063ca6d56dc146108cc578063dcff4cf614610928578063df4da46114610980578063e0e3ffe61461099e576101f0565b8063bd9e9d94116100de578063bd9e9d94146107e2578063c4d66de814610807578063c54c1cd41461084b578063c5805140146108a7576101f0565b80639a7b3be714610702578063a91ee0dc14610720578063b591d3a514610764578063bcc6587f146107c0576101f0565b806352f13a4e116101875780637b103999116101565780637b103999146106065780638b16b1c6146106505780638da5cb5b146106965780638f32d59b146106e0576101f0565b806352f13a4e1461053c5780635779e93d1461059857806360fb822c146105b6578063715018a6146105fc576101f0565b806323f0ab65116101c357806323f0ab651461033457806336407b70146104be5780633b1eb4bf146104dc5780634cd76db41461051e576101f0565b80630352a592146101f55780630b1ca49a14610213578063104ad6811461026f578063158ef93e14610312575b600080fd5b6101fd610ac4565b6040518082815260200191505060405180910390f35b6102556004803603602081101561022957600080fd5b81019080803573ffffffffffffffffffffffffffffffffffffffff169060200190929190505050610aca565b604051808215151515815260200191505060405180910390f35b6102bb6004803603604081101561028557600080fd5b81019080803573ffffffffffffffffffffffffffffffffffffffff16906020019092919080359060200190929190505050610c2c565b6040518080602001828103825283818151815260200191508051906020019060200280838360005b838110156102fe5780820151818401526020810190506102e3565b505050509050019250505060405180910390f35b61031a610cb4565b604051808215151515815260200191505060405180910390f35b6104a46004803603606081101561034a57600080fd5b81019080803573ffffffffffffffffffffffffffffffffffffffff1690602001909291908035906020019064010000000081111561038757600080fd5b82018360208201111561039957600080fd5b803590602001918460018302840111640100000000831117156103bb57600080fd5b91908080601f016020809104026020016040519081016040528093929190818152602001838380828437600081840152601f19601f8201169050808301925050505050505091929192908035906020019064010000000081111561041e57600080fd5b82018360208201111561043057600080fd5b8035906020019184600183028401116401000000008311171561045257600080fd5b91908080601f016020809104026020016040519081016040528093929190818152602001838380828437600081840152601f19601f820116905080830192505050505050509192919290505050610cc7565b604051808215151515815260200191505060405180910390f35b6104c6610e80565b6040518082815260200191505060405180910390f35b610508600480360360208110156104f257600080fd5b8101908080359060200190929190505050610e86565b6040518082815260200191505060405180910390f35b610526610ea0565b6040518082815260200191505060405180910390f35b61057e6004803603602081101561055257600080fd5b81019080803573ffffffffffffffffffffffffffffffffffffffff169060200190929190505050610ea6565b604051808215151515815260200191505060405180910390f35b6105a0610eff565b6040518082815260200191505060405180910390f35b6105e2600480360360208110156105cc57600080fd5b8101908080359060200190929190505050610f05565b604051808215151515815260200191505060405180910390f35b6106046112aa565b005b61060e6113e3565b604051808273ffffffffffffffffffffffffffffffffffffffff1673ffffffffffffffffffffffffffffffffffffffff16815260200191505060405180910390f35b61067c6004803603602081101561066657600080fd5b8101908080359060200190929190505050611409565b604051808215151515815260200191505060405180910390f35b61069e61188d565b604051808273ffffffffffffffffffffffffffffffffffffffff1673ffffffffffffffffffffffffffffffffffffffff16815260200191505060405180910390f35b6106e86118b6565b604051808215151515815260200191505060405180910390f35b61070a611914565b6040518082815260200191505060405180910390f35b6107626004803603602081101561073657600080fd5b81019080803573ffffffffffffffffffffffffffffffffffffffff169060200190929190505050611924565b005b6107a66004803603602081101561077a57600080fd5b81019080803573ffffffffffffffffffffffffffffffffffffffff169060200190929190505050611ac8565b604051808215151515815260200191505060405180910390f35b6107c8611bc3565b604051808215151515815260200191505060405180910390f35b6107ea611c98565b604051808381526020018281526020019250505060405180910390f35b6108496004803603602081101561081d57600080fd5b81019080803573ffffffffffffffffffffffffffffffffffffffff169060200190929190505050611caa565b005b61088d6004803603602081101561086157600080fd5b81019080803573ffffffffffffffffffffffffffffffffffffffff169060200190929190505050611d5d565b604051808215151515815260200191505060405180910390f35b6108af611e48565b604051808381526020018281526020019250505060405180910390f35b61090e600480360360208110156108e257600080fd5b81019080803573ffffffffffffffffffffffffffffffffffffffff169060200190929190505050611e5a565b604051808215151515815260200191505060405180910390f35b61096a6004803603602081101561093e57600080fd5b81019080803573ffffffffffffffffffffffffffffffffffffffff169060200190929190505050611fe5565b6040518082815260200191505060405180910390f35b61098861216a565b6040518082815260200191505060405180910390f35b6109a66122a6565b6040518082815260200191505060405180910390f35b6109e8600480360360208110156109d257600080fd5b81019080803590602001909291905050506122ac565b604051808215151515815260200191505060405180910390f35b610a4460048036036020811015610a1857600080fd5b81019080803573ffffffffffffffffffffffffffffffffffffffff1690602001909291905050506124c5565b005b610a8860048036036020811015610a5c57600080fd5b81019080803573ffffffffffffffffffffffffffffffffffffffff16906020019092919050505061254b565b604051808215151515815260200191505060405180910390f35b610aaa6125a4565b604051808215151515815260200191505060405180910390f35b60105481565b600080610ad5612801565b73ffffffffffffffffffffffffffffffffffffffff166364439b43336040518263ffffffff1660e01b8152600401808273ffffffffffffffffffffffffffffffffffffffff1673ffffffffffffffffffffffffffffffffffffffff16815260200191505060206040518083038186803b158015610b5157600080fd5b505afa158015610b65573d6000803e3d6000fd5b505050506040513d6020811015610b7b57600080fd5b81019080805190602001909291905050509050610b9781610ea6565b8015610ba85750610ba78361254b565b5b610c1a576040517f08c379a000000000000000000000000000000000000000000000000000000000815260040180806020018281038252601a8152602001807f6973206e6f742067726f757020616e642076616c696461746f7200000000000081525060200191505060405180910390fd5b610c2481846128fc565b915050919050565b6060806001604051908082528060200260200182016040528015610c5f5781602001602082028038833980820191505090505b5090503381600081518110610c7057fe5b602002602001019073ffffffffffffffffffffffffffffffffffffffff16908173ffffffffffffffffffffffffffffffffffffffff16815250508091505092915050565b600060149054906101000a900460ff1681565b60008060fb73ffffffffffffffffffffffffffffffffffffffff16858585604051602001808473ffffffffffffffffffffffffffffffffffffffff1673ffffffffffffffffffffffffffffffffffffffff1660601b815260140183805190602001908083835b60208310610d505780518252602082019150602081019050602083039250610d2d565b6001836020036101000a03801982511681845116808217855250505050505090500182805190602001908083835b60208310610da15780518252602082019150602081019050602083039250610d7e565b6001836020036101000a03801982511681845116808217855250505050505090500193505050506040516020818303038152906040526040518082805190602001908083835b60208310610e0a5780518252602082019150602081019050602083039250610de7565b6001836020036101000a038019825116818451168082178552505050505050905001915050600060405180830381855afa9150503d8060008114610e6a576040519150601f19603f3d011682016040523d82523d6000602084013e610e6f565b606091505b505080915050809150509392505050565b600f5481565b6000610e9982610e9461216a565b612c4a565b9050919050565b600c5481565b6000600260008373ffffffffffffffffffffffffffffffffffffffff1673ffffffffffffffffffffffffffffffffffffffff16815260200190815260200160002060000160009054906101000a900460ff169050919050565b600d5481565b600080610f10612801565b73ffffffffffffffffffffffffffffffffffffffff166364439b43336040518263ffffffff1660e01b8152600401808273ffffffffffffffffffffffffffffffffffffffff1673ffffffffffffffffffffffffffffffffffffffff16815260200191505060206040518083038186803b158015610f8c57600080fd5b505afa158015610fa0573d6000803e3d6000fd5b505050506040513d6020811015610fb657600080fd5b81019080805190602001909291905050509050610fd281610ea6565b611044576040517f08c379a00000000000000000000000000000000000000000000000000000000081526004018080602001828103825260158152602001807f4e6f7420612076616c696461746f722067726f7570000000000000000000000081525060200191505060405180910390fd5b6000600260008373ffffffffffffffffffffffffffffffffffffffff1673ffffffffffffffffffffffffffffffffffffffff16815260200190815260200160002060010160010154146110ff576040517f08c379a00000000000000000000000000000000000000000000000000000000081526004018080602001828103825260198152602001807f56616c696461746f722067726f7570206e6f7420656d7074790000000000000081525060200191505060405180910390fd5b6000600260008373ffffffffffffffffffffffffffffffffffffffff1673ffffffffffffffffffffffffffffffffffffffff16815260200190815260200160002060060190506001818054905011156111d957426111826008600101548360018154811061116957fe5b9060005260206000200154612c9290919063ffffffff16565b106111d8576040517f08c379a000000000000000000000000000000000000000000000000000000000815260040180806020018281038252602181526020018061379a6021913960400191505060405180910390fd5b5b600260008373ffffffffffffffffffffffffffffffffffffffff1673ffffffffffffffffffffffffffffffffffffffff168152602001908152602001600020600080820160006101000a81549060ff0219169055600182016000600182016000905550506003820160008082016000905550506004820160008082016000905550506005820160009055600682016000611273919061363f565b600782016000808201600080820160009055505060018201600090555050505061129f60048386612d1a565b600192505050919050565b6112b26118b6565b611324576040517f08c379a00000000000000000000000000000000000000000000000000000000081526004018080602001828103825260208152602001807f4f776e61626c653a2063616c6c6572206973206e6f7420746865206f776e657281525060200191505060405180910390fd5b600073ffffffffffffffffffffffffffffffffffffffff166000809054906101000a900473ffffffffffffffffffffffffffffffffffffffff1673ffffffffffffffffffffffffffffffffffffffff167f8be0079c531659141344cd1fd0a4f28419497f9722a3daafe3b4186f6b6457e060405160405180910390a360008060006101000a81548173ffffffffffffffffffffffffffffffffffffffff021916908373ffffffffffffffffffffffffffffffffffffffff160217905550565b600160009054906101000a900473ffffffffffffffffffffffffffffffffffffffff1681565b600080611414612801565b73ffffffffffffffffffffffffffffffffffffffff166364439b43336040518263ffffffff1660e01b8152600401808273ffffffffffffffffffffffffffffffffffffffff1673ffffffffffffffffffffffffffffffffffffffff16815260200191505060206040518083038186803b15801561149057600080fd5b505afa1580156114a4573d6000803e3d6000fd5b505050506040513d60208110156114ba57600080fd5b810190808051906020019092919050505090506114d68161254b565b611548576040517f08c379a000000000000000000000000000000000000000000000000000000000815260040180806020018281038252600f8152602001807f4e6f7420612076616c696461746f72000000000000000000000000000000000081525060200191505060405180910390fd5b6000600360008373ffffffffffffffffffffffffffffffffffffffff1673ffffffffffffffffffffffffffffffffffffffff1681526020019081526020016000209050600073ffffffffffffffffffffffffffffffffffffffff168160030160009054906101000a900473ffffffffffffffffffffffffffffffffffffffff1673ffffffffffffffffffffffffffffffffffffffff161461170b57600260008260030160009054906101000a900473ffffffffffffffffffffffffffffffffffffffff1673ffffffffffffffffffffffffffffffffffffffff1673ffffffffffffffffffffffffffffffffffffffff16815260200190815260200160002060010160000160008373ffffffffffffffffffffffffffffffffffffffff1673ffffffffffffffffffffffffffffffffffffffff16815260200190815260200160002060009054906101000a900460ff161561170a576040517f08c379a000000000000000000000000000000000000000000000000000000000815260040180806020018281038252601e8152602001807f486173206265656e2067726f7570206d656d62657220726563656e746c79000081525060200191505060405180910390fd5b5b600061172c6006600101548360050160030154612c9290919063ffffffff16565b90504281106117a3576040517f08c379a000000000000000000000000000000000000000000000000000000000815260040180806020018281038252601c8152602001807f4e6f742079657420726571756972656d656e7420656e642074696d650000000081525060200191505060405180910390fd5b6117af60058487612d1a565b600360008473ffffffffffffffffffffffffffffffffffffffff1673ffffffffffffffffffffffffffffffffffffffff168152602001908152602001600020600080820160006101000a81549060ff021916905560018201600080820160006118189190613660565b6001820160006118289190613660565b50506003820160006101000a81549073ffffffffffffffffffffffffffffffffffffffff021916905560048201600080820160009055505060058201600080820160009055600182016000905560038201600090555050505060019350505050919050565b60008060009054906101000a900473ffffffffffffffffffffffffffffffffffffffff16905090565b60008060009054906101000a900473ffffffffffffffffffffffffffffffffffffffff1673ffffffffffffffffffffffffffffffffffffffff166118f8612ed7565b73ffffffffffffffffffffffffffffffffffffffff1614905090565b600061191f43610e86565b905090565b61192c6118b6565b61199e576040517f08c379a00000000000000000000000000000000000000000000000000000000081526004018080602001828103825260208152602001807f4f776e61626c653a2063616c6c6572206973206e6f7420746865206f776e657281525060200191505060405180910390fd5b600073ffffffffffffffffffffffffffffffffffffffff168173ffffffffffffffffffffffffffffffffffffffff161415611a41576040517f08c379a00000000000000000000000000000000000000000000000000000000081526004018080602001828103825260208152602001807f43616e6e6f7420726567697374657220746865206e756c6c206164647265737381525060200191505060405180910390fd5b80600160006101000a81548173ffffffffffffffffffffffffffffffffffffffff021916908373ffffffffffffffffffffffffffffffffffffffff1602179055508073ffffffffffffffffffffffffffffffffffffffff167f27fe5f0c1c3b1ed427cc63d0f05759ffdecf9aec9e18d31ef366fc8a6cb5dc3b60405160405180910390a250565b6000803390506000600360008373ffffffffffffffffffffffffffffffffffffffff1673ffffffffffffffffffffffffffffffffffffffff1681526020019081526020016000209050600073ffffffffffffffffffffffffffffffffffffffff168160030160009054906101000a900473ffffffffffffffffffffffffffffffffffffffff1673ffffffffffffffffffffffffffffffffffffffff1614611b7557611b738183612edf565b505b838160030160006101000a81548173ffffffffffffffffffffffffffffffffffffffff021916908373ffffffffffffffffffffffffffffffffffffffff160217905550600192505050919050565b6000803390506000600360008373ffffffffffffffffffffffffffffffffffffffff1673ffffffffffffffffffffffffffffffffffffffff168152602001908152602001600020905060018160000160006101000a81548160ff02191690831515021790555060058290806001815401808255809150509060018203906000526020600020016000909192909190916101000a81548173ffffffffffffffffffffffffffffffffffffffff021916908373ffffffffffffffffffffffffffffffffffffffff1602179055505060019250505090565b60068060000154908060010154905082565b600060149054906101000a900460ff1615611d2d576040517f08c379a000000000000000000000000000000000000000000000000000000000815260040180806020018281038252601c8152602001807f636f6e747261637420616c726561647920696e697469616c697a65640000000081525060200191505060405180910390fd5b6001600060146101000a81548160ff021916908315150217905550611d5133613051565b611d5a81611924565b50565b600080611d68613195565b73ffffffffffffffffffffffffffffffffffffffff166330ec70f5846040518263ffffffff1660e01b8152600401808273ffffffffffffffffffffffffffffffffffffffff1673ffffffffffffffffffffffffffffffffffffffff16815260200191505060206040518083038186803b158015611de457600080fd5b505afa158015611df8573d6000803e3d6000fd5b505050506040513d6020811015611e0e57600080fd5b81019080805190602001909291905050509050611e2a83611fe5565b611e3e600a83612c9290919063ffffffff16565b1015915050919050565b60088060000154908060010154905082565b600080611e65612801565b73ffffffffffffffffffffffffffffffffffffffff166364439b43336040518263ffffffff1660e01b8152600401808273ffffffffffffffffffffffffffffffffffffffff1673ffffffffffffffffffffffffffffffffffffffff16815260200191505060206040518083038186803b158015611ee157600080fd5b505afa158015611ef5573d6000803e3d6000fd5b505050506040513d6020811015611f0b57600080fd5b810190808051906020019092919050505090506000600260008373ffffffffffffffffffffffffffffffffffffffff1673ffffffffffffffffffffffffffffffffffffffff1681526020019081526020016000209050611f7c60018260010160010154612c9290919063ffffffff16565b5060018160010160000160008673ffffffffffffffffffffffffffffffffffffffff1673ffffffffffffffffffffffffffffffffffffffff16815260200190815260200160002060006101000a81548160ff021916908315150217905550600192505050919050565b6000611ff08261254b565b15612002576006600001549050612165565b61200b82610ea6565b156121605760006120626001600260008673ffffffffffffffffffffffffffffffffffffffff1673ffffffffffffffffffffffffffffffffffffffff16815260200190815260200160002060010160010154613290565b90506000600260008573ffffffffffffffffffffffffffffffffffffffff1673ffffffffffffffffffffffffffffffffffffffff168152602001908152602001600020600601905060008180549050111561213f5760006120d1600183805490506132aa90919063ffffffff16565b90505b600081111561213d574261210c6008600101548484815481106120f357fe5b9060005260206000200154612c9290919063ffffffff16565b106121225761211b8184613290565b925061213d565b6121366001826132aa90919063ffffffff16565b90506120d4565b505b612157826008600001546132f490919063ffffffff16565b92505050612165565b600090505b919050565b60006060600060f873ffffffffffffffffffffffffffffffffffffffff166040516020016040516020818303038152906040526040518082805190602001908083835b602083106121d057805182526020820191506020810190506020830392506121ad565b6001836020036101000a038019825116818451168082178552505050505050905001915050600060405180830381855afa9150503d8060008114612230576040519150601f19603f3d011682016040523d82523d6000602084013e612235565b606091505b50809350819250505080612294576040517f08c379a00000000000000000000000000000000000000000000000000000000081526004018080602001828103825260258152602001806137756025913960400191505060405180910390fd5b61229f82600061337a565b9250505090565b600e5481565b60006122be6122b9613391565b6133b7565b821115612316576040517f08c379a00000000000000000000000000000000000000000000000000000000081526004018080602001828103825260258152602001806137bb6025913960400191505060405180910390fd5b600033905061232481610ea6565b15612397576040517f08c379a000000000000000000000000000000000000000000000000000000000815260040180806020018281038252601b8152602001807f416c726561647920726567697374657265642061732067726f7570000000000081525060200191505060405180910390fd5b6000600260008373ffffffffffffffffffffffffffffffffffffffff1673ffffffffffffffffffffffffffffffffffffffff168152602001908152602001600020905060018160000160006101000a81548160ff021916908315150217905550612400846133c5565b81600301600082015181600001559050506040518060400160405280612424613391565b81526020016000815250816007016000820151816000016000820151816000015550506020820151816001015590505060048290806001815401808255809150509060018203906000526020600020016000909192909190916101000a81548173ffffffffffffffffffffffffffffffffffffffff021916908373ffffffffffffffffffffffffffffffffffffffff16021790555050600192505050919050565b6124cd6118b6565b61253f576040517f08c379a00000000000000000000000000000000000000000000000000000000081526004018080602001828103825260208152602001807f4f776e61626c653a2063616c6c6572206973206e6f7420746865206f776e657281525060200191505060405180910390fd5b61254881613051565b50565b6000600360008373ffffffffffffffffffffffffffffffffffffffff1673ffffffffffffffffffffffffffffffffffffffff16815260200190815260200160002060000160009054906101000a900460ff169050919050565b6000806125af612801565b73ffffffffffffffffffffffffffffffffffffffff166364439b43336040518263ffffffff1660e01b8152600401808273ffffffffffffffffffffffffffffffffffffffff1673ffffffffffffffffffffffffffffffffffffffff16815260200191505060206040518083038186803b15801561262b57600080fd5b505afa15801561263f573d6000803e3d6000fd5b505050506040513d602081101561265557600080fd5b810190808051906020019092919050505090506126718161254b565b6126e3576040517f08c379a000000000000000000000000000000000000000000000000000000000815260040180806020018281038252600f8152602001807f4e6f7420612076616c696461746f72000000000000000000000000000000000081525060200191505060405180910390fd5b6000600360008373ffffffffffffffffffffffffffffffffffffffff1673ffffffffffffffffffffffffffffffffffffffff1681526020019081526020016000209050600073ffffffffffffffffffffffffffffffffffffffff168160030160009054906101000a900473ffffffffffffffffffffffffffffffffffffffff1673ffffffffffffffffffffffffffffffffffffffff1614156127ed576040517f08c379a000000000000000000000000000000000000000000000000000000000815260040180806020018281038252601b8152602001807f6465616666696c696174653a206e6f7420616666696c6961746564000000000081525060200191505060405180910390fd5b6127f78183612edf565b5060019250505090565b6000600160009054906101000a900473ffffffffffffffffffffffffffffffffffffffff1673ffffffffffffffffffffffffffffffffffffffff1663dcf0aaed60405160200180807f4163636f756e74730000000000000000000000000000000000000000000000008152506008019050604051602081830303815290604052805190602001206040518263ffffffff1660e01b81526004018082815260200191505060206040518083038186803b1580156128bc57600080fd5b505afa1580156128d0573d6000803e3d6000fd5b505050506040513d60208110156128e657600080fd5b8101908080519060200190929190505050905090565b600080600260008573ffffffffffffffffffffffffffffffffffffffff1673ffffffffffffffffffffffffffffffffffffffff16815260200190815260200160002090508373ffffffffffffffffffffffffffffffffffffffff16600360008573ffffffffffffffffffffffffffffffffffffffff1673ffffffffffffffffffffffffffffffffffffffff16815260200190815260200160002060030160009054906101000a900473ffffffffffffffffffffffffffffffffffffffff1673ffffffffffffffffffffffffffffffffffffffff1614612a43576040517f08c379a00000000000000000000000000000000000000000000000000000000081526004018080602001828103825260178152602001807f4e6f7420616666696c696174656420746f2067726f757000000000000000000081525060200191505060405180910390fd5b600115158160010160000160008573ffffffffffffffffffffffffffffffffffffffff1673ffffffffffffffffffffffffffffffffffffffff16815260200190815260200160002060009054906101000a900460ff16151514612b0e576040517f08c379a00000000000000000000000000000000000000000000000000000000081526004018080602001828103825260198152602001807f4e6f742061206d656d626572206f66207468652067726f75700000000000000081525060200191505060405180910390fd5b600015158160010160000160008573ffffffffffffffffffffffffffffffffffffffff1673ffffffffffffffffffffffffffffffffffffffff16815260200190815260200160002060009054906101000a905050506000816001016001015490506000811415612c2157612b806133e3565b73ffffffffffffffffffffffffffffffffffffffff1663a8e45871866040518263ffffffff1660e01b8152600401808273ffffffffffffffffffffffffffffffffffffffff1673ffffffffffffffffffffffffffffffffffffffff168152602001915050600060405180830381600087803b158015612bfe57600080fd5b505af1158015612c12573d6000803e3d6000fd5b50505050600192505050612c44565b612c3c600183600101600101546132aa90919063ffffffff16565b506001925050505b92915050565b600080828481612c5657fe5b0490506000838581612c6457fe5b061415612c745780915050612c8c565b612c88600182612c9290919063ffffffff16565b9150505b92915050565b600080828401905083811015612d10576040517f08c379a000000000000000000000000000000000000000000000000000000000815260040180806020018281038252601b8152602001807f536166654d6174683a206164646974696f6e206f766572666c6f77000000000081525060200191505060405180910390fd5b8091505092915050565b828054905081108015612d8e57508173ffffffffffffffffffffffffffffffffffffffff16838281548110612d4b57fe5b9060005260206000200160009054906101000a900473ffffffffffffffffffffffffffffffffffffffff1673ffffffffffffffffffffffffffffffffffffffff16145b612de3576040517f08c379a00000000000000000000000000000000000000000000000000000000081526004018080602001828103825260218152602001806137546021913960400191505060405180910390fd5b6000612dfd600185805490506132aa90919063ffffffff16565b9050838181548110612e0b57fe5b9060005260206000200160009054906101000a900473ffffffffffffffffffffffffffffffffffffffff16848381548110612e4257fe5b9060005260206000200160006101000a81548173ffffffffffffffffffffffffffffffffffffffff021916908373ffffffffffffffffffffffffffffffffffffffff160217905550838181548110612e9657fe5b9060005260206000200160006101000a81549073ffffffffffffffffffffffffffffffffffffffff0219169055808481612ed091906136a8565b5050505050565b600033905090565b6000808360030160009054906101000a900473ffffffffffffffffffffffffffffffffffffffff1690506000600260008373ffffffffffffffffffffffffffffffffffffffff1673ffffffffffffffffffffffffffffffffffffffff16815260200190815260200160002090508060010160000160008573ffffffffffffffffffffffffffffffffffffffff1673ffffffffffffffffffffffffffffffffffffffff16815260200190815260200160002060009054906101000a900460ff16156130015760008160010160000160008673ffffffffffffffffffffffffffffffffffffffff1673ffffffffffffffffffffffffffffffffffffffff16815260200190815260200160002060006101000a81548160ff0219169083151502179055505b60008560030160006101000a81548173ffffffffffffffffffffffffffffffffffffffff021916908373ffffffffffffffffffffffffffffffffffffffff16021790555060019250505092915050565b600073ffffffffffffffffffffffffffffffffffffffff168173ffffffffffffffffffffffffffffffffffffffff1614156130d7576040517f08c379a000000000000000000000000000000000000000000000000000000000815260040180806020018281038252602681526020018061370d6026913960400191505060405180910390fd5b8073ffffffffffffffffffffffffffffffffffffffff166000809054906101000a900473ffffffffffffffffffffffffffffffffffffffff1673ffffffffffffffffffffffffffffffffffffffff167f8be0079c531659141344cd1fd0a4f28419497f9722a3daafe3b4186f6b6457e060405160405180910390a3806000806101000a81548173ffffffffffffffffffffffffffffffffffffffff021916908373ffffffffffffffffffffffffffffffffffffffff16021790555050565b6000600160009054906101000a900473ffffffffffffffffffffffffffffffffffffffff1673ffffffffffffffffffffffffffffffffffffffff1663dcf0aaed60405160200180807f4c6f636b6564476f6c6400000000000000000000000000000000000000000000815250600a019050604051602081830303815290604052805190602001206040518263ffffffff1660e01b81526004018082815260200191505060206040518083038186803b15801561325057600080fd5b505afa158015613264573d6000803e3d6000fd5b505050506040513d602081101561327a57600080fd5b8101908080519060200190929190505050905090565b6000818310156132a057816132a2565b825b905092915050565b60006132ec83836040518060400160405280601e81526020017f536166654d6174683a207375627472616374696f6e206f766572666c6f7700008152506134de565b905092915050565b6000808314156133075760009050613374565b600082840290508284828161331857fe5b041461336f576040517f08c379a00000000000000000000000000000000000000000000000000000000081526004018080602001828103825260218152602001806137336021913960400191505060405180910390fd5b809150505b92915050565b6000613386838361359e565b60001c905092915050565b6133996136d4565b604051806020016040528069d3c21bcecceda1000000815250905090565b600081600001519050919050565b6133cd6136d4565b6040518060200160405280838152509050919050565b6000600160009054906101000a900473ffffffffffffffffffffffffffffffffffffffff1673ffffffffffffffffffffffffffffffffffffffff1663dcf0aaed60405160200180807f456c656374696f6e0000000000000000000000000000000000000000000000008152506008019050604051602081830303815290604052805190602001206040518263ffffffff1660e01b81526004018082815260200191505060206040518083038186803b15801561349e57600080fd5b505afa1580156134b2573d6000803e3d6000fd5b505050506040513d60208110156134c857600080fd5b8101908080519060200190929190505050905090565b600083831115829061358b576040517f08c379a00000000000000000000000000000000000000000000000000000000081526004018080602001828103825283818151815260200191508051906020019080838360005b83811015613550578082015181840152602081019050613535565b50505050905090810190601f16801561357d5780820380516001836020036101000a031916815260200191505b509250505060405180910390fd5b5060008385039050809150509392505050565b60006135b4602083612c9290919063ffffffff16565b8351101561362a576040517f08c379a00000000000000000000000000000000000000000000000000000000081526004018080602001828103825260148152602001807f736c6963696e67206f7574206f662072616e676500000000000000000000000081525060200191505060405180910390fd5b60006020830184015190508091505092915050565b508054600082559060005260206000209081019061365d91906136e7565b50565b50805460018160011615610100020316600290046000825580601f1061368657506136a5565b601f0160209004906000526020600020908101906136a491906136e7565b5b50565b8154818355818111156136cf578183600052602060002091820191016136ce91906136e7565b5b505050565b6040518060200160405280600081525090565b61370991905b808211156137055760008160009055506001016136ed565b5090565b9056fe4f776e61626c653a206e6577206f776e657220697320746865207a65726f2061646472657373536166654d6174683a206d756c7469706c69636174696f6e206f766572666c6f7764656c657465456c656d656e743a20696e646578206f7574206f662072616e67656572726f722063616c6c696e672067657445706f636853697a6520707265636f6d70696c654861736e2774206265656e20656d70747920666f72206c6f6e6720656e6f756768436f6d6d697373696f6e2063616e27742062652067726561746572207468616e2031303025a265627a7a723158206bcd2e0e6114865c59f7004757d7b1052687e80aad5e797a79bd1f01bd36e6b764736f6c63430005100032",
  "source": "pragma solidity ^0.5.13;\r\n\r\nimport \"./openzeppelin-solidity/contracts/math/Math.sol\";\r\nimport \"./openzeppelin-solidity/contracts/ownership/Ownable.sol\";\r\nimport \"./openzeppelin-solidity/contracts/math/SafeMath.sol\";\r\nimport \"./Initializable.sol\";\r\nimport \"./IAccounts.sol\";\r\nimport \"./IRegistry.sol\";\r\nimport \"./IElection.sol\";\r\nimport \"./ILockedGold.sol\";\r\nimport \"./IValidators.sol\";\r\nimport \"./IValidators2.sol\";\r\nimport \"./Console.sol\";\r\n\r\n\r\nlibrary BytesLib {\r\n    function concat(\r\n        bytes memory _preBytes,\r\n        bytes memory _postBytes\r\n    )\r\n    internal\r\n    pure\r\n    returns (bytes memory)\r\n    {\r\n        bytes memory tempBytes;\r\n\r\n        assembly {\r\n        // Get a location of some free memory and store it in tempBytes as\r\n        // Solidity does for memory variables.\r\n            tempBytes := mload(0x40)\r\n\r\n        // Store the length of the first bytes array at the beginning of\r\n        // the memory for tempBytes.\r\n            let length := mload(_preBytes)\r\n            mstore(tempBytes, length)\r\n\r\n        // Maintain a memory counter for the current write location in the\r\n        // temp bytes array by adding the 32 bytes for the array length to\r\n        // the starting location.\r\n            let mc := add(tempBytes, 0x20)\r\n        // Stop copying when the memory counter reaches the length of the\r\n        // first bytes array.\r\n            let end := add(mc, length)\r\n\r\n            for {\r\n            // Initialize a copy counter to the start of the _preBytes data,\r\n            // 32 bytes into its memory.\r\n                let cc := add(_preBytes, 0x20)\r\n            } lt(mc, end) {\r\n            // Increase both counters by 32 bytes each iteration.\r\n                mc := add(mc, 0x20)\r\n                cc := add(cc, 0x20)\r\n            } {\r\n            // Write the _preBytes data into the tempBytes memory 32 bytes\r\n            // at a time.\r\n                mstore(mc, mload(cc))\r\n            }\r\n\r\n        // Add the length of _postBytes to the current length of tempBytes\r\n        // and store it as the new length in the first 32 bytes of the\r\n        // tempBytes memory.\r\n            length := mload(_postBytes)\r\n            mstore(tempBytes, add(length, mload(tempBytes)))\r\n\r\n        // Move the memory counter back from a multiple of 0x20 to the\r\n        // actual end of the _preBytes data.\r\n            mc := end\r\n        // Stop copying when the memory counter reaches the new combined\r\n        // length of the arrays.\r\n            end := add(mc, length)\r\n\r\n            for {\r\n                let cc := add(_postBytes, 0x20)\r\n            } lt(mc, end) {\r\n                mc := add(mc, 0x20)\r\n                cc := add(cc, 0x20)\r\n            } {\r\n                mstore(mc, mload(cc))\r\n            }\r\n\r\n        // Update the free-memory pointer by padding our last write location\r\n        // to 32 bytes: add 31 bytes to the end of tempBytes to move to the\r\n        // next 32 byte block, then round down to the nearest multiple of\r\n        // 32. If the sum of the length of the two arrays is zero then add\r\n        // one before rounding down to leave a blank 32 bytes (the length block with 0).\r\n            mstore(0x40, and(\r\n            add(add(end, iszero(add(length, mload(_preBytes)))), 31),\r\n            not(31) // Round down to the nearest 32 bytes.\r\n            ))\r\n        }\r\n\r\n        return tempBytes;\r\n    }\r\n\r\n    function concatStorage(bytes storage _preBytes, bytes memory _postBytes) internal {\r\n\r\n    }\r\n\r\n    function slice(\r\n        bytes memory _bytes,\r\n        uint256 _start,\r\n        uint256 _length\r\n    )\r\n    internal\r\n    pure\r\n    returns (bytes memory)\r\n    {\r\n        require(_length + 31 >= _length, \"slice_overflow\");\r\n        require(_bytes.length >= _start + _length, \"slice_outOfBounds\");\r\n\r\n        bytes memory tempBytes;\r\n\r\n        assembly {\r\n            switch iszero(_length)\r\n            case 0 {\r\n            // Get a location of some free memory and store it in tempBytes as\r\n            // Solidity does for memory variables.\r\n                tempBytes := mload(0x40)\r\n\r\n            // The first word of the slice result is potentially a partial\r\n            // word read from the original array. To read it, we calculate\r\n            // the length of that partial word and start copying that many\r\n            // bytes into the array. The first word we copy will start with\r\n            // data we don't care about, but the last `lengthmod` bytes will\r\n            // land at the beginning of the contents of the new array. When\r\n            // we're done copying, we overwrite the full first word with\r\n            // the actual length of the slice.\r\n                let lengthmod := and(_length, 31)\r\n\r\n            // The multiplication in the next line is necessary\r\n            // because when slicing multiples of 32 bytes (lengthmod == 0)\r\n            // the following copy loop was copying the origin's length\r\n            // and then ending prematurely not copying everything it should.\r\n                let mc := add(add(tempBytes, lengthmod), mul(0x20, iszero(lengthmod)))\r\n                let end := add(mc, _length)\r\n\r\n                for {\r\n                // The multiplication in the next line has the same exact purpose\r\n                // as the one above.\r\n                    let cc := add(add(add(_bytes, lengthmod), mul(0x20, iszero(lengthmod))), _start)\r\n                } lt(mc, end) {\r\n                    mc := add(mc, 0x20)\r\n                    cc := add(cc, 0x20)\r\n                } {\r\n                    mstore(mc, mload(cc))\r\n                }\r\n\r\n                mstore(tempBytes, _length)\r\n\r\n            //update free-memory pointer\r\n            //allocating the array padded to 32 bytes like the compiler does now\r\n                mstore(0x40, and(add(mc, 31), not(31)))\r\n            }\r\n            //if we want a zero-length slice let's just return a zero-length array\r\n            default {\r\n                tempBytes := mload(0x40)\r\n            //zero out the 32 bytes slice we are about to return\r\n            //we need to do it because Solidity does not garbage collect\r\n                mstore(tempBytes, 0)\r\n\r\n                mstore(0x40, add(tempBytes, 0x20))\r\n            }\r\n        }\r\n\r\n        return tempBytes;\r\n    }\r\n\r\n    function toAddress(bytes memory _bytes, uint256 _start) internal pure returns (address) {\r\n        require(_bytes.length >= _start + 20, \"toAddress_outOfBounds\");\r\n        address tempAddress;\r\n\r\n        assembly {\r\n            tempAddress := div(mload(add(add(_bytes, 0x20), _start)), 0x1000000000000000000000000)\r\n        }\r\n\r\n        return tempAddress;\r\n    }\r\n\r\n    function toUint8(bytes memory _bytes, uint256 _start) internal pure returns (uint8) {\r\n        require(_bytes.length >= _start + 1, \"toUint8_outOfBounds\");\r\n        uint8 tempUint;\r\n\r\n        assembly {\r\n            tempUint := mload(add(add(_bytes, 0x1), _start))\r\n        }\r\n\r\n        return tempUint;\r\n    }\r\n\r\n    function toUint16(bytes memory _bytes, uint256 _start) internal pure returns (uint16) {\r\n        require(_bytes.length >= _start + 2, \"toUint16_outOfBounds\");\r\n        uint16 tempUint;\r\n\r\n        assembly {\r\n            tempUint := mload(add(add(_bytes, 0x2), _start))\r\n        }\r\n\r\n        return tempUint;\r\n    }\r\n\r\n    function toUint32(bytes memory _bytes, uint256 _start) internal pure returns (uint32) {\r\n        require(_bytes.length >= _start + 4, \"toUint32_outOfBounds\");\r\n        uint32 tempUint;\r\n\r\n        assembly {\r\n            tempUint := mload(add(add(_bytes, 0x4), _start))\r\n        }\r\n\r\n        return tempUint;\r\n    }\r\n\r\n    function toUint64(bytes memory _bytes, uint256 _start) internal pure returns (uint64) {\r\n        require(_bytes.length >= _start + 8, \"toUint64_outOfBounds\");\r\n        uint64 tempUint;\r\n\r\n        assembly {\r\n            tempUint := mload(add(add(_bytes, 0x8), _start))\r\n        }\r\n\r\n        return tempUint;\r\n    }\r\n\r\n    function toUint96(bytes memory _bytes, uint256 _start) internal pure returns (uint96) {\r\n        require(_bytes.length >= _start + 12, \"toUint96_outOfBounds\");\r\n        uint96 tempUint;\r\n\r\n        assembly {\r\n            tempUint := mload(add(add(_bytes, 0xc), _start))\r\n        }\r\n\r\n        return tempUint;\r\n    }\r\n\r\n    function toUint128(bytes memory _bytes, uint256 _start) internal pure returns (uint128) {\r\n        require(_bytes.length >= _start + 16, \"toUint128_outOfBounds\");\r\n        uint128 tempUint;\r\n\r\n        assembly {\r\n            tempUint := mload(add(add(_bytes, 0x10), _start))\r\n        }\r\n\r\n        return tempUint;\r\n    }\r\n\r\n    function toUint256(bytes memory _bytes, uint256 _start) internal pure returns (uint256) {\r\n        require(_bytes.length >= _start + 32, \"toUint256_outOfBounds\");\r\n        uint256 tempUint;\r\n\r\n        assembly {\r\n            tempUint := mload(add(add(_bytes, 0x20), _start))\r\n        }\r\n\r\n        return tempUint;\r\n    }\r\n\r\n    function toBytes32(bytes memory _bytes, uint256 _start) internal pure returns (bytes32) {\r\n        require(_bytes.length >= _start + 32, \"toBytes32_outOfBounds\");\r\n        bytes32 tempBytes32;\r\n\r\n        assembly {\r\n            tempBytes32 := mload(add(add(_bytes, 0x20), _start))\r\n        }\r\n\r\n        return tempBytes32;\r\n    }\r\n\r\n    function equal(bytes memory _preBytes, bytes memory _postBytes) internal pure returns (bool) {\r\n        bool success = true;\r\n\r\n        assembly {\r\n            let length := mload(_preBytes)\r\n\r\n        // if lengths don't match the arrays are not equal\r\n            switch eq(length, mload(_postBytes))\r\n            case 1 {\r\n            // cb is a circuit breaker in the for loop since there's\r\n            //  no said feature for inline assembly loops\r\n            // cb = 1 - don't breaker\r\n            // cb = 0 - break\r\n                let cb := 1\r\n\r\n                let mc := add(_preBytes, 0x20)\r\n                let end := add(mc, length)\r\n\r\n                for {\r\n                    let cc := add(_postBytes, 0x20)\r\n                // the next line is the loop condition:\r\n                // while(uint256(mc < end) + cb == 2)\r\n                } eq(add(lt(mc, end), cb), 2) {\r\n                    mc := add(mc, 0x20)\r\n                    cc := add(cc, 0x20)\r\n                } {\r\n                // if any of these checks fails then arrays are not equal\r\n                    if iszero(eq(mload(mc), mload(cc))) {\r\n                    // unsuccess:\r\n                        success := 0\r\n                        cb := 0\r\n                    }\r\n                }\r\n            }\r\n            default {\r\n            // unsuccess:\r\n                success := 0\r\n            }\r\n        }\r\n\r\n        return success;\r\n    }\r\n\r\n\r\n}\r\n\r\nlibrary FixidityLib {\r\n    struct Fraction {\r\n        uint256 value;\r\n    }\r\n\r\n    /**\r\n     * @notice Number of positions that the comma is shifted to the right.\r\n     */\r\n    function digits() internal pure returns (uint8) {\r\n        return 24;\r\n    }\r\n\r\n    uint256 private constant FIXED1_UINT = 1000000000000000000000000;\r\n\r\n    /**\r\n     * @notice This is 1 in the fixed point units used in this library.\r\n     * @dev Test fixed1() equals 10^digits()\r\n     * Hardcoded to 24 digits.\r\n     */\r\n    function fixed1() internal pure returns (Fraction memory) {\r\n        return Fraction(FIXED1_UINT);\r\n    }\r\n\r\n    /**\r\n     * @notice Wrap a uint256 that represents a 24-decimal fraction in a Fraction\r\n     * struct.\r\n     * @param x Number that already represents a 24-decimal fraction.\r\n     * @return A Fraction struct with contents x.\r\n     */\r\n    function wrap(uint256 x) internal pure returns (Fraction memory) {\r\n        return Fraction(x);\r\n    }\r\n\r\n    /**\r\n     * @notice Unwraps the uint256 inside of a Fraction struct.\r\n     */\r\n    function unwrap(Fraction memory x) internal pure returns (uint256) {\r\n        return x.value;\r\n    }\r\n\r\n    /**\r\n     * @notice The amount of decimals lost on each multiplication operand.\r\n     * @dev Test mulPrecision() equals sqrt(fixed1)\r\n     */\r\n    function mulPrecision() internal pure returns (uint256) {\r\n        return 1000000000000;\r\n    }\r\n\r\n    /**\r\n     * @notice Maximum value that can be converted to fixed point. Optimize for deployment.\r\n     * @dev\r\n     * Test maxNewFixed() equals maxUint256() / fixed1()\r\n     */\r\n    function maxNewFixed() internal pure returns (uint256) {\r\n        return 115792089237316195423570985008687907853269984665640564;\r\n    }\r\n\r\n    /**\r\n     * @notice Converts a uint256 to fixed point Fraction\r\n     * @dev Test newFixed(0) returns 0\r\n     * Test newFixed(1) returns fixed1()\r\n     * Test newFixed(maxNewFixed()) returns maxNewFixed() * fixed1()\r\n     * Test newFixed(maxNewFixed()+1) fails\r\n     */\r\n    function newFixed(uint256 x) internal pure returns (Fraction memory) {\r\n        require(x <= maxNewFixed(), \"can't create fixidity number larger than maxNewFixed()\");\r\n        return Fraction(x * FIXED1_UINT);\r\n    }\r\n\r\n    /**\r\n     * @notice Converts a uint256 in the fixed point representation of this\r\n     * library to a non decimal. All decimal digits will be truncated.\r\n     */\r\n    function fromFixed(Fraction memory x) internal pure returns (uint256) {\r\n        return x.value / FIXED1_UINT;\r\n    }\r\n\r\n    /**\r\n     * @notice Converts two uint256 representing a fraction to fixed point units,\r\n     * equivalent to multiplying dividend and divisor by 10^digits().\r\n     * @param numerator numerator must be <= maxNewFixed()\r\n     * @param denominator denominator must be <= maxNewFixed() and denominator can't be 0\r\n     * @dev\r\n     * Test newFixedFraction(1,0) fails\r\n     * Test newFixedFraction(0,1) returns 0\r\n     * Test newFixedFraction(1,1) returns fixed1()\r\n     * Test newFixedFraction(1,fixed1()) returns 1\r\n     */\r\n    function newFixedFraction(uint256 numerator, uint256 denominator)\r\n    internal\r\n    pure\r\n    returns (Fraction memory)\r\n    {\r\n        Fraction memory convertedNumerator = newFixed(numerator);\r\n        Fraction memory convertedDenominator = newFixed(denominator);\r\n        return divide(convertedNumerator, convertedDenominator);\r\n    }\r\n\r\n    /**\r\n     * @notice Returns the integer part of a fixed point number.\r\n     * @dev\r\n     * Test integer(0) returns 0\r\n     * Test integer(fixed1()) returns fixed1()\r\n     * Test integer(newFixed(maxNewFixed())) returns maxNewFixed()*fixed1()\r\n     */\r\n    function integer(Fraction memory x) internal pure returns (Fraction memory) {\r\n        return Fraction((x.value / FIXED1_UINT) * FIXED1_UINT);\r\n        // Can't overflow\r\n    }\r\n\r\n    /**\r\n     * @notice Returns the fractional part of a fixed point number.\r\n     * In the case of a negative number the fractional is also negative.\r\n     * @dev\r\n     * Test fractional(0) returns 0\r\n     * Test fractional(fixed1()) returns 0\r\n     * Test fractional(fixed1()-1) returns 10^24-1\r\n     */\r\n    function fractional(Fraction memory x) internal pure returns (Fraction memory) {\r\n        return Fraction(x.value - (x.value / FIXED1_UINT) * FIXED1_UINT);\r\n        // Can't overflow\r\n    }\r\n\r\n    /**\r\n     * @notice x+y.\r\n     * @dev The maximum value that can be safely used as an addition operator is defined as\r\n     * maxFixedAdd = maxUint256()-1 / 2, or\r\n     * 57896044618658097711785492504343953926634992332820282019728792003956564819967.\r\n     * Test add(maxFixedAdd,maxFixedAdd) equals maxFixedAdd + maxFixedAdd\r\n     * Test add(maxFixedAdd+1,maxFixedAdd+1) throws\r\n     */\r\n    function add(Fraction memory x, Fraction memory y) internal pure returns (Fraction memory) {\r\n        uint256 z = x.value + y.value;\r\n        require(z >= x.value, \"add overflow detected\");\r\n        return Fraction(z);\r\n    }\r\n\r\n    /**\r\n     * @notice x-y.\r\n     * @dev\r\n     * Test subtract(6, 10) fails\r\n     */\r\n    function subtract(Fraction memory x, Fraction memory y) internal pure returns (Fraction memory) {\r\n        require(x.value >= y.value, \"substraction underflow detected\");\r\n        return Fraction(x.value - y.value);\r\n    }\r\n\r\n    /**\r\n     * @notice x*y. If any of the operators is higher than the max multiplier value it\r\n     * might overflow.\r\n     * @dev The maximum value that can be safely used as a multiplication operator\r\n     * (maxFixedMul) is calculated as sqrt(maxUint256()*fixed1()),\r\n     * or 340282366920938463463374607431768211455999999999999\r\n     * Test multiply(0,0) returns 0\r\n     * Test multiply(maxFixedMul,0) returns 0\r\n     * Test multiply(0,maxFixedMul) returns 0\r\n     * Test multiply(fixed1()/mulPrecision(),fixed1()*mulPrecision()) returns fixed1()\r\n     * Test multiply(maxFixedMul,maxFixedMul) is around maxUint256()\r\n     * Test multiply(maxFixedMul+1,maxFixedMul+1) fails\r\n     */\r\n    function multiply(Fraction memory x, Fraction memory y) internal pure returns (Fraction memory) {\r\n        if (x.value == 0 || y.value == 0) return Fraction(0);\r\n        if (y.value == FIXED1_UINT) return x;\r\n        if (x.value == FIXED1_UINT) return y;\r\n\r\n        // Separate into integer and fractional parts\r\n        // x = x1 + x2, y = y1 + y2\r\n        uint256 x1 = integer(x).value / FIXED1_UINT;\r\n        uint256 x2 = fractional(x).value;\r\n        uint256 y1 = integer(y).value / FIXED1_UINT;\r\n        uint256 y2 = fractional(y).value;\r\n\r\n        // (x1 + x2) * (y1 + y2) = (x1 * y1) + (x1 * y2) + (x2 * y1) + (x2 * y2)\r\n        uint256 x1y1 = x1 * y1;\r\n        if (x1 != 0) require(x1y1 / x1 == y1, \"overflow x1y1 detected\");\r\n\r\n        // x1y1 needs to be multiplied back by fixed1\r\n        // solium-disable-next-line mixedcase\r\n        uint256 fixed_x1y1 = x1y1 * FIXED1_UINT;\r\n        if (x1y1 != 0) require(fixed_x1y1 / x1y1 == FIXED1_UINT, \"overflow x1y1 * fixed1 detected\");\r\n        x1y1 = fixed_x1y1;\r\n\r\n        uint256 x2y1 = x2 * y1;\r\n        if (x2 != 0) require(x2y1 / x2 == y1, \"overflow x2y1 detected\");\r\n\r\n        uint256 x1y2 = x1 * y2;\r\n        if (x1 != 0) require(x1y2 / x1 == y2, \"overflow x1y2 detected\");\r\n\r\n        x2 = x2 / mulPrecision();\r\n        y2 = y2 / mulPrecision();\r\n        uint256 x2y2 = x2 * y2;\r\n        if (x2 != 0) require(x2y2 / x2 == y2, \"overflow x2y2 detected\");\r\n\r\n        // result = fixed1() * x1 * y1 + x1 * y2 + x2 * y1 + x2 * y2 / fixed1();\r\n        Fraction memory result = Fraction(x1y1);\r\n        result = add(result, Fraction(x2y1));\r\n        // Add checks for overflow\r\n        result = add(result, Fraction(x1y2));\r\n        // Add checks for overflow\r\n        result = add(result, Fraction(x2y2));\r\n        // Add checks for overflow\r\n        return result;\r\n    }\r\n\r\n    /**\r\n     * @notice 1/x\r\n     * @dev\r\n     * Test reciprocal(0) fails\r\n     * Test reciprocal(fixed1()) returns fixed1()\r\n     * Test reciprocal(fixed1()*fixed1()) returns 1 // Testing how the fractional is truncated\r\n     * Test reciprocal(1+fixed1()*fixed1()) returns 0 // Testing how the fractional is truncated\r\n     * Test reciprocal(newFixedFraction(1, 1e24)) returns newFixed(1e24)\r\n     */\r\n    function reciprocal(Fraction memory x) internal pure returns (Fraction memory) {\r\n        require(x.value != 0, \"can't call reciprocal(0)\");\r\n        return Fraction((FIXED1_UINT * FIXED1_UINT) / x.value);\r\n        // Can't overflow\r\n    }\r\n\r\n    /**\r\n     * @notice x/y. If the dividend is higher than the max dividend value, it\r\n     * might overflow. You can use multiply(x,reciprocal(y)) instead.\r\n     * @dev The maximum value that can be safely used as a dividend (maxNewFixed) is defined as\r\n     * divide(maxNewFixed,newFixedFraction(1,fixed1())) is around maxUint256().\r\n     * This yields the value 115792089237316195423570985008687907853269984665640564.\r\n     * Test maxNewFixed equals maxUint256()/fixed1()\r\n     * Test divide(maxNewFixed,1) equals maxNewFixed*(fixed1)\r\n     * Test divide(maxNewFixed+1,multiply(mulPrecision(),mulPrecision())) throws\r\n     * Test divide(fixed1(),0) fails\r\n     * Test divide(maxNewFixed,1) = maxNewFixed*(10^digits())\r\n     * Test divide(maxNewFixed+1,1) throws\r\n     */\r\n    function divide(Fraction memory x, Fraction memory y) internal pure returns (Fraction memory) {\r\n        require(y.value != 0, \"can't divide by 0\");\r\n        uint256 X = x.value * FIXED1_UINT;\r\n        require(X / FIXED1_UINT == x.value, \"overflow at divide\");\r\n        return Fraction(X / y.value);\r\n    }\r\n\r\n    /**\r\n     * @notice x > y\r\n     */\r\n    function gt(Fraction memory x, Fraction memory y) internal pure returns (bool) {\r\n        return x.value > y.value;\r\n    }\r\n\r\n    /**\r\n     * @notice x >= y\r\n     */\r\n    function gte(Fraction memory x, Fraction memory y) internal pure returns (bool) {\r\n        return x.value >= y.value;\r\n    }\r\n\r\n    /**\r\n     * @notice x < y\r\n     */\r\n    function lt(Fraction memory x, Fraction memory y) internal pure returns (bool) {\r\n        return x.value < y.value;\r\n    }\r\n\r\n    /**\r\n     * @notice x <= y\r\n     */\r\n    function lte(Fraction memory x, Fraction memory y) internal pure returns (bool) {\r\n        return x.value <= y.value;\r\n    }\r\n\r\n    /**\r\n     * @notice x == y\r\n     */\r\n    function equals(Fraction memory x, Fraction memory y) internal pure returns (bool) {\r\n        return x.value == y.value;\r\n    }\r\n\r\n    /**\r\n     * @notice x <= 1\r\n     */\r\n    function isProperFraction(Fraction memory x) internal pure returns (bool) {\r\n        return lte(x, fixed1());\r\n    }\r\n}\r\n\r\ncontract UsingRegistry is Ownable {\r\n    event RegistrySet(address indexed registryAddress);\r\n    // solhint-disable state-visibility\r\n    bytes32 constant ACCOUNTS_REGISTRY_ID = keccak256(abi.encodePacked(\"Accounts\"));\r\n    bytes32 constant VALIDATORS_REGISTRY_ID = keccak256(abi.encodePacked(\"Validators\"));\r\n    bytes32 constant LOCKED_GOLD_REGISTRY_ID = keccak256(abi.encodePacked(\"LockedGold\"));\r\n    bytes32 constant ELECTION_REGISTRY_ID = keccak256(abi.encodePacked(\"Election\"));\r\n    // solhint-enable state-visibility\r\n    IRegistry public registry;\r\n\r\n    function setRegistry(address registryAddress) public onlyOwner {\r\n        require(registryAddress != address(0), \"Cannot register the null address\");\r\n        registry = IRegistry(registryAddress);\r\n        emit RegistrySet(registryAddress);\r\n    }\r\n\r\n    function getAccounts() internal view returns (IAccounts) {\r\n        return IAccounts(registry.getAddressForOrDie(ACCOUNTS_REGISTRY_ID));\r\n        // Accounts\r\n    }\r\n\r\n    function getLockedGold() internal view returns (ILockedGold) {\r\n        return ILockedGold(registry.getAddressForOrDie(LOCKED_GOLD_REGISTRY_ID));\r\n    }\r\n}\r\n\r\ncontract UsingPrecompiles {\r\n    using SafeMath for uint256;\r\n    address constant EPOCH_SIZE = address(0xff - 7);\r\n    address constant PROOF_OF_POSSESSION = address(0xff - 4);\r\n\r\n    function getEpochSize() public view returns (uint256) {\r\n        bytes memory out;\r\n        bool success;\r\n        (success, out) = EPOCH_SIZE.staticcall(abi.encodePacked());\r\n        require(success, \"error calling getEpochSize precompile\");\r\n        return getUint256FromBytes(out, 0);\r\n    }\r\n\r\n    function getUint256FromBytes(bytes memory bs, uint256 start) internal pure returns (uint256) {\r\n        return uint256(getBytes32FromBytes(bs, start));\r\n    }\r\n\r\n    function getBytes32FromBytes(bytes memory bs, uint256 start) internal pure returns (bytes32) {\r\n        require(bs.length >= start.add(32), \"slicing out of range\");\r\n        bytes32 x;\r\n        assembly {\r\n            x := mload(add(bs, add(start, 32)))\r\n        }\r\n        return x;\r\n    }\r\n\r\n    function getEpochNumberOfBlock(uint256 blockNumber) public view returns (uint256) {\r\n        return epochNumberOfBlock(blockNumber, getEpochSize());\r\n    }\r\n\r\n    function getEpochNumber() public view returns (uint256) {\r\n        return getEpochNumberOfBlock(block.number);\r\n    }\r\n\r\n    function epochNumberOfBlock(uint256 blockNumber, uint256 epochSize)\r\n    internal\r\n    pure\r\n    returns (uint256)\r\n    {\r\n        // Follows GetEpochNumber from celo-blockchain/blob/master/consensus/istanbul/utils.go\r\n        uint256 epochNumber = blockNumber / epochSize;\r\n        if (blockNumber % epochSize == 0) {\r\n            return epochNumber;\r\n        } else {\r\n            return epochNumber.add(1);\r\n        }\r\n    }\r\n\r\n    function checkProofOfPossession(address sender, bytes memory blsKey, bytes memory blsPop)\r\n    public\r\n    view\r\n    returns (bool)\r\n    {\r\n        bool success;\r\n        (success,) = PROOF_OF_POSSESSION.staticcall(abi.encodePacked(sender, blsKey, blsPop));\r\n        return success;\r\n    }\r\n\r\n}\r\n\r\ncontract Validators is\r\nOwnable,\r\nInitializable,\r\nUsingPrecompiles,\r\nUsingRegistry,\r\nConsole,\r\nIValidators2\r\n{\r\n    using FixidityLib for FixidityLib.Fraction;\r\n    using SafeMath for uint256;\r\n    using BytesLib for bytes;\r\n\r\n    struct LockedGoldRequirements {\r\n        uint256 value;\r\n        uint256 duration;\r\n    }\r\n\r\n    struct membersinfo {\r\n        mapping(address => bool) member;\r\n        uint256 numElements;\r\n    }\r\n\r\n    struct ValidatorGroup {\r\n        bool exists;\r\n        membersinfo members;\r\n        FixidityLib.Fraction commission;\r\n        FixidityLib.Fraction nextCommission;\r\n        uint256 nextCommissionBlock;\r\n        uint256[] sizeHistory;\r\n        SlashingInfo slashInfo;\r\n    }\r\n\r\n    struct MembershipHistoryEntry {\r\n        uint256 epochNumber;\r\n        address group;\r\n    }\r\n\r\n\r\n    struct MembershipHistory {\r\n        uint256 tail;\r\n        uint256 numEntries;\r\n        mapping(uint256 => MembershipHistoryEntry) entries;\r\n        uint256 lastRemovedFromGroupTimestamp;\r\n    }\r\n\r\n    struct SlashingInfo {\r\n        FixidityLib.Fraction multiplier;\r\n        uint256 lastSlashed;\r\n    }\r\n\r\n    struct PublicKeys {\r\n        bytes ecdsa;\r\n        bytes bls;\r\n    }\r\n\r\n    struct Validator {\r\n        bool exists;\r\n        PublicKeys publicKeys;\r\n        address affiliation;\r\n        FixidityLib.Fraction score;\r\n        MembershipHistory membershipHistory;\r\n    }\r\n\r\n    struct ValidatorScoreParameters {\r\n        uint256 exponent;\r\n        FixidityLib.Fraction adjustmentSpeed;\r\n    }\r\n\r\n    mapping(address => ValidatorGroup) private groups;\r\n    mapping(address => Validator) private validators;\r\n    address[] private registeredGroups;\r\n    address[] private registeredValidators;\r\n    LockedGoldRequirements public validatorLockedGoldRequirements;\r\n    LockedGoldRequirements public groupLockedGoldRequirements;\r\n    ValidatorScoreParameters private validatorScoreParameters;\r\n    uint256 public membershipHistoryLength;\r\n    uint256 public maxGroupSize;\r\n    uint256 public commissionUpdateDelay;\r\n    uint256 public slashingMultiplierResetPeriod;\r\n    uint256 public downtimeGracePeriod;\r\n    constructor(bool test) public Initializable(test) {}\r\n\r\n    function initialize(\r\n        address registryAddress\r\n    ) external initializer {\r\n        _transferOwnership(msg.sender);\r\n        setRegistry(registryAddress);\r\n    }\r\n\r\n    function registerValidator(\r\n    ) external returns (bool) {\r\n        //        address account = getAccounts().validatorSignerToAccount(msg.sender);zhangwei\r\n        //        require(!isValidator(account) && !isValidatorGroup(account), \"Already registered\");\r\n        address account = msg.sender;\r\n        Validator storage validator = validators[account];\r\n        //        uint256 lockedGoldBalance = getLockedGold().getAccountTotalLockedGold(account);\r\n\r\n        //        require(lockedGoldBalance >= validatorLockedGoldRequirements.value, \"Deposit too small\");\r\n        validator.exists = true;\r\n        registeredValidators.push(account);\r\n        //        updateMembershipHistory(account, address(0));\r\n        return true;\r\n    }\r\n\r\n    function deregisterValidator(uint256 index) external returns (bool) {\r\n        address account = getAccounts().validatorSignerToAccount(msg.sender);\r\n        require(isValidator(account), \"Not a validator\");\r\n\r\n        // Require that the validator has not been a member of a validator group for\r\n        // `validatorLockedGoldRequirements.duration` seconds.\r\n        Validator storage validator = validators[account];\r\n        if (validator.affiliation != address(0)) {\r\n            // 1.\r\n            require(\r\n                !(groups[validator.affiliation].members.member[account]),\r\n                \"Has been group member recently\"\r\n            );\r\n        }\r\n        uint256 requirementEndTime = validator.membershipHistory.lastRemovedFromGroupTimestamp.add(\r\n            validatorLockedGoldRequirements.duration\r\n        );\r\n        //2.\r\n        require(requirementEndTime < now, \"Not yet requirement end time\");\r\n\r\n        // Remove the validator.\r\n        deleteElement(registeredValidators, account, index);\r\n        delete validators[account];\r\n\r\n        return true;\r\n    }\r\n\r\n    function affiliate(address group) external returns (bool) {\r\n        //        address account = getAccounts().validatorSignerToAccount(msg.sender); zhangwei\r\n        address account = msg.sender;\r\n        //        require(isValidator(account), \"Not a validator\");\r\n        //        require(isValidatorGroup(group), \"Not a validator group\");\r\n        //        //1.\r\n        //        require(meetsAccountLockedGoldRequirements(account), \"Validator doesn't meet requirements\");\r\n        //        //2.\r\n        //        require(meetsAccountLockedGoldRequirements(group), \"Group doesn't meet requirements\");\r\n        Validator storage validator = validators[account];\r\n        if (validator.affiliation != address(0)) {\r\n            //3.\r\n            _deaffiliate(validator, account);\r\n        }\r\n        //3.\r\n        validator.affiliation = group;\r\n\r\n        return true;\r\n    }\r\n\r\n    function deaffiliate() external returns (bool) {\r\n        address account = getAccounts().validatorSignerToAccount(msg.sender);\r\n        require(isValidator(account), \"Not a validator\");\r\n        Validator storage validator = validators[account];\r\n        require(validator.affiliation != address(0), \"deaffiliate: not affiliated\");\r\n        _deaffiliate(validator, account);\r\n        return true;\r\n    }\r\n\r\n    function registerValidatorGroup(uint256 commission) external returns (bool) {\r\n        require(commission <= FixidityLib.fixed1().unwrap(), \"Commission can't be greater than 100%\");\r\n        //        address account = getAccounts().validatorSignerToAccount(msg.sender); zhangwei\r\n        // 2.\r\n        //        require(!isValidator(account), \"Already registered as validator\");\r\n        // 3.\r\n        address account = msg.sender;\r\n        require(!isValidatorGroup(account), \"Already registered as group\");\r\n        //        uint256 lockedGoldBalance = getLockedGold().getAccountTotalLockedGold(account);\r\n        //        uint256 lockedGoldBalance = LockedGold_zw.getAccountNonvotingLockedGold(account);\r\n        //        //4.\r\n        //        require(lockedGoldBalance >= groupLockedGoldRequirements.value, \"Not enough locked gold\");\r\n        ValidatorGroup storage group = groups[account];\r\n        group.exists = true;\r\n        group.commission = FixidityLib.wrap(commission);\r\n        group.slashInfo = SlashingInfo(FixidityLib.fixed1(), 0);\r\n        registeredGroups.push(account);\r\n\r\n        return true;\r\n    }\r\n\r\n    function deregisterValidatorGroup(uint256 index) external returns (bool) {\r\n        address account = getAccounts().validatorSignerToAccount(msg.sender);\r\n        // Only Validator Groups that have never had members or have been empty for at least\r\n        // `groupLockedGoldRequirements.duration` seconds can be deregistered.\r\n        require(isValidatorGroup(account), \"Not a validator group\");\r\n        require(groups[account].members.numElements == 0, \"Validator group not empty\");\r\n        uint256[] storage sizeHistory = groups[account].sizeHistory;\r\n        if (sizeHistory.length > 1) {\r\n            require(\r\n                sizeHistory[1].add(groupLockedGoldRequirements.duration) < now,\r\n                \"Hasn't been empty for long enough\"\r\n            );\r\n        }\r\n        delete groups[account];\r\n        deleteElement(registeredGroups, account, index);\r\n\r\n        return true;\r\n    }\r\n\r\n    function addMember(address validator) external returns (bool) {\r\n        address account = getAccounts().validatorSignerToAccount(msg.sender);\r\n        ValidatorGroup storage _group = groups[account];\r\n        _group.members.numElements.add(1);\r\n        _group.members.member[validator] = true;\r\n        return true;\r\n    }\r\n\r\n\r\n\r\n    function removeMember(address validator) external returns (bool) {\r\n        address account = getAccounts().validatorSignerToAccount(msg.sender);\r\n        require(isValidatorGroup(account) && isValidator(validator), \"is not group and validator\");\r\n        return _removeMember(account, validator);\r\n    }\r\n\r\n    function getAccountLockedGoldRequirement(address account) public view returns (uint256) {\r\n        if (isValidator(account)) {\r\n            return validatorLockedGoldRequirements.value;\r\n        } else if (isValidatorGroup(account)) {\r\n            uint256 multiplier = Math.max(1, groups[account].members.numElements);\r\n            uint256[] storage sizeHistory = groups[account].sizeHistory;\r\n            if (sizeHistory.length > 0) {\r\n                for (uint256 i = sizeHistory.length.sub(1); i > 0; i = i.sub(1)) {\r\n                    if (sizeHistory[i].add(groupLockedGoldRequirements.duration) >= now) {\r\n                        multiplier = Math.max(i, multiplier);\r\n                        break;\r\n                    }\r\n                }\r\n            }\r\n            return groupLockedGoldRequirements.value.mul(multiplier);\r\n        }\r\n        return 0;\r\n    }\r\n\r\n    function meetsAccountLockedGoldRequirements(address account) public view returns (bool) {\r\n        uint256 balance = getLockedGold().getAccountTotalLockedGold(account);\r\n        // Add a bit of \"wiggle room\" to accommodate the fact that vote activation can result in ~1\r\n        // wei rounding errors. Using 10 as an additional margin of safety.\r\n        return balance.add(10) >= getAccountLockedGoldRequirement(account);\r\n    }\r\n\r\n    function isValidatorGroup(address account) public view returns (bool) {\r\n        return groups[account].exists;\r\n    }\r\n\r\n    function isValidator(address account) public view returns (bool) {\r\n        return validators[account].exists;\r\n    }\r\n\r\n    function deleteElement(address[] storage list, address element, uint256 index) private {\r\n        require(index < list.length && list[index] == element, \"deleteElement: index out of range\");\r\n        uint256 lastIndex = list.length.sub(1);\r\n        list[index] = list[lastIndex];\r\n        delete list[lastIndex];\r\n        list.length = lastIndex;\r\n    }\r\n\r\n    function _removeMember(address group, address validator) private returns (bool) {\r\n        ValidatorGroup storage _group = groups[group];\r\n        require(validators[validator].affiliation == group, \"Not affiliated to group\");\r\n        require((_group.members.member[validator]==true), \"Not a member of the group\");\r\n        _group.members.member[validator]==false;\r\n        uint256 numMembers = _group.members.numElements;\r\n        // Empty validator groups are not electable.\r\n        if (numMembers == 0) {\r\n            getElection().markGroupIneligible(group);\r\n            return true ;\r\n        }\r\n        _group.members.numElements.sub(1);\r\n        return true;\r\n    }\r\n\r\n    function updateMembershipHistory(address account, address group) private returns (bool) {\r\n        MembershipHistory storage history = validators[account].membershipHistory;\r\n        uint256 epochNumber = getEpochNumber();\r\n        uint256 head = history.numEntries == 0 ? 0 : history.tail.add(history.numEntries.sub(1));\r\n\r\n        if (history.numEntries > 0 && group == address(0)) {\r\n            history.lastRemovedFromGroupTimestamp = now;\r\n        }\r\n\r\n        if (history.numEntries > 0 && history.entries[head].epochNumber == epochNumber) {\r\n            // There have been no elections since the validator last changed membership, overwrite the\r\n            // previous entry.\r\n            history.entries[head] = MembershipHistoryEntry(epochNumber, group);\r\n            return true;\r\n        }\r\n\r\n        // There have been elections since the validator last changed membership, create a new entry.\r\n        uint256 index = history.numEntries == 0 ? 0 : head.add(1);\r\n        history.entries[index] = MembershipHistoryEntry(epochNumber, group);\r\n        if (history.numEntries < membershipHistoryLength) {\r\n            // Not enough entries, don't remove any.\r\n            history.numEntries = history.numEntries.add(1);\r\n        } else if (history.numEntries == membershipHistoryLength) {\r\n            // Exactly enough entries, delete the oldest one to account for the one we added.\r\n            delete history.entries[history.tail];\r\n            history.tail = history.tail.add(1);\r\n        } else {\r\n            // Too many entries, delete the oldest two to account for the one we added.\r\n            delete history.entries[history.tail];\r\n            delete history.entries[history.tail.add(1)];\r\n            history.numEntries = history.numEntries.sub(1);\r\n            history.tail = history.tail.add(2);\r\n        }\r\n        return true;\r\n    }\r\n\r\n    function updateSizeHistory(address group, uint256 size) private {\r\n        uint256[] storage sizeHistory = groups[group].sizeHistory;\r\n        if (size == sizeHistory.length) {\r\n            sizeHistory.push(now);\r\n        } else if (size < sizeHistory.length) {\r\n            sizeHistory[size] = now;\r\n        } else {\r\n            require(false, \"Unable to update size history\");\r\n        }\r\n    }\r\n\r\n    function _deaffiliate(Validator storage validator, address validatorAccount)\r\n    private\r\n    returns (bool)\r\n    {\r\n        address affiliation = validator.affiliation;\r\n        ValidatorGroup storage group = groups[affiliation];\r\n        if (group.members.member[validatorAccount]) {\r\n            group.members.member[validatorAccount] = false;\r\n        }\r\n        validator.affiliation = address(0);\r\n        return true;\r\n    }\r\n\r\n\r\n    function getElection() internal view returns (IElection) {\r\n        return IElection(registry.getAddressForOrDie(ELECTION_REGISTRY_ID));\r\n    }\r\n\r\n    function getGroupValidators(address account, uint256 n)\r\n    external\r\n    view\r\n    returns (address[] memory)\r\n    {\r\n        address[] memory arr;\r\n        arr = new address[](1);\r\n        arr[0] = msg.sender;\r\n        return arr;\r\n    }\r\n}\r\n",
  "sourcePath": "D:\\work\\zhangwei812\\mySolidity\\mySolidity\\contracts\\Validators.sol",
  "compiler": {
    "name": "solc",
    "version": "0.5.16+commit.9c3226ce.Emscripten.clang"
  },
  "schemaVersion": "3.4.3",
  "updatedAt": "2021-11-05T06:28:58.759Z",
  "devdoc": {
    "methods": {
      "isOwner()": {
        "details": "Returns true if the caller is the current owner."
      },
      "owner()": {
        "details": "Returns the address of the current owner."
      },
      "renounceOwnership()": {
        "details": "Leaves the contract without owner. It will not be possible to call `onlyOwner` functions anymore. Can only be called by the current owner.     * NOTE: Renouncing ownership will leave the contract without an owner, thereby removing any functionality that is only available to the owner."
      },
      "transferOwnership(address)": {
        "details": "Transfers ownership of the contract to a new account (`newOwner`). Can only be called by the current owner."
      }
    }
  },
  "userdoc": {
    "methods": {}
  }
}