{
	"data": {
		"bytecode": {
			"linkReferences": {},
			"object": "611264610026600b82828239805160001a60731461001957fe5b30600052607381538281f3fe73000000000000000000000000000000000000000030146080604052600436106100b35760003560e01c806342b6351a1161007b57806342b6351a14610228578063593b79fe1461026357806369b317e314610289578063cab455ae1461033f578063dcb2a4dd1461038e578063e0fe44b3146103b1576100b3565b806302f13028146100b857806328135929146100f85780632dedbbf014610133578063341f6623146101825780633a72e802146101bb575b600080fd5b6100e4600480360360408110156100ce57600080fd5b50803590602001356001600160a01b03166103dd565b604080519115158252519081900360200190f35b81801561010457600080fd5b506101316004803603604081101561011b57600080fd5b50803590602001356001600160a01b03166103ff565b005b81801561013f57600080fd5b50610131600480360360a081101561015657600080fd5b508035906001600160a01b0360208201358116916040810135916060820135811691608001351661041c565b61019f6004803603602081101561019857600080fd5b5035610452565b604080516001600160a01b039092168252519081900360200190f35b6101d8600480360360208110156101d157600080fd5b5035610458565b60408051602080825283518183015283519192839290830191858101910280838360005b838110156102145781810151838201526020016101fc565b505050509050019250505060405180910390f35b6102516004803603606081101561023e57600080fd5b5080359060208101359060400135610471565b60408051918252519081900360200190f35b6102516004803603602081101561027957600080fd5b50356001600160a01b03166104ec565b6102a66004803603602081101561029f57600080fd5b5035610501565b604051808060200180602001838103835285818151815260200191508051906020019060200280838360005b838110156102ea5781810151838201526020016102d2565b50505050905001838103825284818151815260200191508051906020019060200280838360005b83811015610329578181015183820152602001610311565b5050505090500194505050505060405180910390f35b81801561034b57600080fd5b50610131600480360360a081101561036257600080fd5b508035906001600160a01b03602082013581169160408101359160608201358116916080013516610629565b6101d8600480360360408110156103a457600080fd5b5080359060200135610658565b610251600480360360408110156103c757600080fd5b50803590602001356001600160a01b03166106fb565b60006103f86103eb836104ec565b849063ffffffff61071616565b9392505050565b61041861040b826104ec565b839063ffffffff61072816565b5050565b61044b610428856104ec565b84610432856104ec565b61043b856104ec565b899392919063ffffffff61074c16565b5050505050565b60601c90565b606061046b828360000160020154610658565b92915050565b600080610485838660000160020154610910565b855490915060005b828110156104e157856104a6888463ffffffff61092616565b10156104b65792506103f8915050565b600091825260038701602052604090912054906104da81600163ffffffff61093c16565b905061048d565b509095945050505050565b60601b6bffffffffffffffffffffffff191690565b606080606061050f84610996565b90506060815160405190808252806020026020018201604052801561053e578160200160208202803883390190505b5090506060825160405190808252806020026020018201604052801561056e578160200160208202803883390190505b50905060005b835181101561061d5761059984828151811061058c57fe5b6020026020010151610452565b8382815181106105a557fe5b60200260200101906001600160a01b031690816001600160a01b0316815250508660040160008583815181106105d757fe5b60200260200101518152602001908152602001600020548282815181106105fa57fe5b602090810291909101015261061681600163ffffffff61093c16565b9050610574565b50909350915050915091565b61044b610635856104ec565b8461063f856104ec565b610648856104ec565b899392919063ffffffff6109a116565b60608061066b848463ffffffff6109b816565b9050606083604051908082528060200260200182016040528015610699578160200160208202803883390190505b50905060005b848110156106f2576106b683828151811061058c57fe5b8282815181106106c257fe5b6001600160a01b03909216602092830291909101909101526106eb81600163ffffffff61093c16565b905061069f565b50949350505050565b60006103f8610709836104ec565b849063ffffffff61092616565b60006103f8838363ffffffff6109ca16565b610738828263ffffffff6109e616565b600090815260049091016020526040812055565b831580159061075b5750818414155b80156107675750808414155b801561077a57506107788585610716565b155b6107b9576040805162461bcd60e51b815260206004820152600b60248201526a696e76616c6964206b657960a81b604482015290519081900360640190fd5b811515806107c657508015155b806107d357506002850154155b610824576040805162461bcd60e51b815260206004820152601b60248201527f6772656174657220616e64206c6573736572206b6579207a65726f0000000000604482015290519081900360640190fd5b61082e8583610716565b80610837575081155b61087d576040805162461bcd60e51b8152602060048201526012602482015271696e76616c6964206c6573736572206b657960701b604482015290519081900360640190fd5b6108878582610716565b80610890575080155b6108d7576040805162461bcd60e51b8152602060048201526013602482015272696e76616c69642067726561746572206b657960681b604482015290519081900360640190fd5b6108e385848484610af4565b90925090506108fa8585848463ffffffff610c3a16565b5050600091825260049092016020526040902055565b600081831061091f57816103f8565b5090919050565b6000908152600491909101602052604090205490565b6000828201838110156103f8576040805162461bcd60e51b815260206004820152601b60248201527f536166654d6174683a206164646974696f6e206f766572666c6f770000000000604482015290519081900360640190fd5b606061046b82610f2c565b6109ab8585610728565b61044b858585858561074c565b60606103f8838363ffffffff610f3816565b6000908152600391909101602052604090206002015460ff1690565b600081815260038301602052604090208115801590610a0a5750610a0a83836109ca565b610a4d576040805162461bcd60e51b815260206004820152600f60248201526e1ad95e481b9bdd081a5b881b1a5cdd608a1b604482015290519081900360640190fd5b805415610a7457805460009081526003840160205260409020600180830154910155610a7f565b600180820154908401555b600181015415610aa75760018101546000908152600384016020526040902081549055610aac565b805483555b600082815260038401602052604081208181556001808201929092556002908101805460ff19169055840154610ae79163ffffffff61101616565b8360020181905550505050565b60008083158015610b135750610b138686868960000160010154611058565b15610b2657505060018401548290610c31565b82158015610b3f57508554610b3f908790879086611058565b15610b4e575050835481610c31565b8315801590610b7b57506000848152600387016020526040902060010154610b7b90879087908790611058565b15610b9d57505060008281526003850160205260409020600101548290610c31565b8215801590610bc657506000838152600387016020526040902054610bc6908790879086611058565b15610be4575050600081815260038501602052604090205481610c31565b6040805162461bcd60e51b815260206004820152601e60248201527f676574206c657373657220616e642067726561746572206661696c7572650000604482015290519081900360640190fd5b94509492505050565b82610c82576040805162461bcd60e51b815260206004820152601360248201527212d95e481b5d5cdd081899481919599a5b9959606a1b604482015290519081900360640190fd5b610c8c84846109ca565b15610cde576040805162461bcd60e51b815260206004820181905260248201527f43616e277420696e7365727420616e206578697374696e6720656c656d656e74604482015290519081900360640190fd5b828214158015610cee5750828114155b610d295760405162461bcd60e51b81526004018080602001828103825260308152602001806111486030913960400191505060405180910390fd5b600083815260038501602052604090206002808201805460ff19166001179055850154610d5f5760018501849055838555610f07565b82151580610d6c57508115155b610da75760405162461bcd60e51b815260040180806020018281038252602d815260200180611203602d913960400191505060405180910390fd5b828155600181018290558215610e5957610dc185846109ca565b610dfc5760405162461bcd60e51b815260040180806020018281038252603481526020018061119f6034913960400191505060405180910390fd5b6000838152600386016020526040902060018101548314610e4e5760405162461bcd60e51b81526004018080602001828103825260278152602001806111786027913960400191505060405180910390fd5b600101849055610e61565b600185018490555b8115610f0357610e7185836109ca565b610eac5760405162461bcd60e51b81526004018080602001828103825260308152602001806111d36030913960400191505060405180910390fd5b6000828152600386016020526040902080548414610efb5760405162461bcd60e51b81526004018080602001828103825260278152602001806111786027913960400191505060405180910390fd5b849055610f07565b8385555b6002850154610f1d90600163ffffffff61093c16565b85600201819055505050505050565b606061046b8283600201545b60608260020154821115610f89576040805162461bcd60e51b81526020600482015260136024820152726e6f7420656e6f75676820656c656d656e747360681b604482015290519081900360640190fd5b606082604051908082528060200260200182016040528015610fb5578160200160208202803883390190505b50845490915060005b8481101561100c5781838281518110610fd357fe5b60209081029190910181019190915260009283526003870190526040909120549061100581600163ffffffff61093c16565b9050610fbe565b5090949350505050565b60006103f883836040518060400160405280601e81526020017f536166654d6174683a207375627472616374696f6e206f766572666c6f7700008152506110b0565b600080831580611078575060008481526004870160205260409020548510155b90506000831580611099575060008481526004880160205260409020548611155b90508180156110a55750805b979650505050505050565b6000818484111561113f5760405162461bcd60e51b81526004018080602001828103825283818151815260200191508051906020019080838360005b838110156111045781810151838201526020016110ec565b50505050905090810190601f1680156111315780820380516001836020036101000a031916815260200191505b509250505060405180910390fd5b50505090039056fe4b65792063616e6e6f74206265207468652073616d652061732070726576696f75734b6579206f72206e6578744b657970726576696f75734b6579206d7573742062652061646a6163656e7420746f206e6578744b657949662070726576696f75734b657920697320646566696e65642c206974206d75737420657869737420696e20746865206c6973744966206e6578744b657920697320646566696e65642c206974206d75737420657869737420696e20746865206c6973744569746865722070726576696f75734b6579206f72206e6578744b6579206d75737420626520646566696e6564a265627a7a723158206e443a99d739e1b57957345de4575e5603d50778cc1ce928354471ae31f87dbf64736f6c634300050d0032",
			"opcodes": "PUSH2 0x1264 PUSH2 0x26 PUSH1 0xB DUP3 DUP3 DUP3 CODECOPY DUP1 MLOAD PUSH1 0x0 BYTE PUSH1 0x73 EQ PUSH2 0x19 JUMPI INVALID JUMPDEST ADDRESS PUSH1 0x0 MSTORE PUSH1 0x73 DUP2 MSTORE8 DUP3 DUP2 RETURN INVALID PUSH20 0x0 ADDRESS EQ PUSH1 0x80 PUSH1 0x40 MSTORE PUSH1 0x4 CALLDATASIZE LT PUSH2 0xB3 JUMPI PUSH1 0x0 CALLDATALOAD PUSH1 0xE0 SHR DUP1 PUSH4 0x42B6351A GT PUSH2 0x7B JUMPI DUP1 PUSH4 0x42B6351A EQ PUSH2 0x228 JUMPI DUP1 PUSH4 0x593B79FE EQ PUSH2 0x263 JUMPI DUP1 PUSH4 0x69B317E3 EQ PUSH2 0x289 JUMPI DUP1 PUSH4 0xCAB455AE EQ PUSH2 0x33F JUMPI DUP1 PUSH4 0xDCB2A4DD EQ PUSH2 0x38E JUMPI DUP1 PUSH4 0xE0FE44B3 EQ PUSH2 0x3B1 JUMPI PUSH2 0xB3 JUMP JUMPDEST DUP1 PUSH4 0x2F13028 EQ PUSH2 0xB8 JUMPI DUP1 PUSH4 0x28135929 EQ PUSH2 0xF8 JUMPI DUP1 PUSH4 0x2DEDBBF0 EQ PUSH2 0x133 JUMPI DUP1 PUSH4 0x341F6623 EQ PUSH2 0x182 JUMPI DUP1 PUSH4 0x3A72E802 EQ PUSH2 0x1BB JUMPI JUMPDEST PUSH1 0x0 DUP1 REVERT JUMPDEST PUSH2 0xE4 PUSH1 0x4 DUP1 CALLDATASIZE SUB PUSH1 0x40 DUP2 LT ISZERO PUSH2 0xCE JUMPI PUSH1 0x0 DUP1 REVERT JUMPDEST POP DUP1 CALLDATALOAD SWAP1 PUSH1 0x20 ADD CALLDATALOAD PUSH1 0x1 PUSH1 0x1 PUSH1 0xA0 SHL SUB AND PUSH2 0x3DD JUMP JUMPDEST PUSH1 0x40 DUP1 MLOAD SWAP2 ISZERO ISZERO DUP3 MSTORE MLOAD SWAP1 DUP2 SWAP1 SUB PUSH1 0x20 ADD SWAP1 RETURN JUMPDEST DUP2 DUP1 ISZERO PUSH2 0x104 JUMPI PUSH1 0x0 DUP1 REVERT JUMPDEST POP PUSH2 0x131 PUSH1 0x4 DUP1 CALLDATASIZE SUB PUSH1 0x40 DUP2 LT ISZERO PUSH2 0x11B JUMPI PUSH1 0x0 DUP1 REVERT JUMPDEST POP DUP1 CALLDATALOAD SWAP1 PUSH1 0x20 ADD CALLDATALOAD PUSH1 0x1 PUSH1 0x1 PUSH1 0xA0 SHL SUB AND PUSH2 0x3FF JUMP JUMPDEST STOP JUMPDEST DUP2 DUP1 ISZERO PUSH2 0x13F JUMPI PUSH1 0x0 DUP1 REVERT JUMPDEST POP PUSH2 0x131 PUSH1 0x4 DUP1 CALLDATASIZE SUB PUSH1 0xA0 DUP2 LT ISZERO PUSH2 0x156 JUMPI PUSH1 0x0 DUP1 REVERT JUMPDEST POP DUP1 CALLDATALOAD SWAP1 PUSH1 0x1 PUSH1 0x1 PUSH1 0xA0 SHL SUB PUSH1 0x20 DUP3 ADD CALLDATALOAD DUP2 AND SWAP2 PUSH1 0x40 DUP2 ADD CALLDATALOAD SWAP2 PUSH1 0x60 DUP3 ADD CALLDATALOAD DUP2 AND SWAP2 PUSH1 0x80 ADD CALLDATALOAD AND PUSH2 0x41C JUMP JUMPDEST PUSH2 0x19F PUSH1 0x4 DUP1 CALLDATASIZE SUB PUSH1 0x20 DUP2 LT ISZERO PUSH2 0x198 JUMPI PUSH1 0x0 DUP1 REVERT JUMPDEST POP CALLDATALOAD PUSH2 0x452 JUMP JUMPDEST PUSH1 0x40 DUP1 MLOAD PUSH1 0x1 PUSH1 0x1 PUSH1 0xA0 SHL SUB SWAP1 SWAP3 AND DUP3 MSTORE MLOAD SWAP1 DUP2 SWAP1 SUB PUSH1 0x20 ADD SWAP1 RETURN JUMPDEST PUSH2 0x1D8 PUSH1 0x4 DUP1 CALLDATASIZE SUB PUSH1 0x20 DUP2 LT ISZERO PUSH2 0x1D1 JUMPI PUSH1 0x0 DUP1 REVERT JUMPDEST POP CALLDATALOAD PUSH2 0x458 JUMP JUMPDEST PUSH1 0x40 DUP1 MLOAD PUSH1 0x20 DUP1 DUP3 MSTORE DUP4 MLOAD DUP2 DUP4 ADD MSTORE DUP4 MLOAD SWAP2 SWAP3 DUP4 SWAP3 SWAP1 DUP4 ADD SWAP2 DUP6 DUP2 ADD SWAP2 MUL DUP1 DUP4 DUP4 PUSH1 0x0 JUMPDEST DUP4 DUP2 LT ISZERO PUSH2 0x214 JUMPI DUP2 DUP2 ADD MLOAD DUP4 DUP3 ADD MSTORE PUSH1 0x20 ADD PUSH2 0x1FC JUMP JUMPDEST POP POP POP POP SWAP1 POP ADD SWAP3 POP POP POP PUSH1 0x40 MLOAD DUP1 SWAP2 SUB SWAP1 RETURN JUMPDEST PUSH2 0x251 PUSH1 0x4 DUP1 CALLDATASIZE SUB PUSH1 0x60 DUP2 LT ISZERO PUSH2 0x23E JUMPI PUSH1 0x0 DUP1 REVERT JUMPDEST POP DUP1 CALLDATALOAD SWAP1 PUSH1 0x20 DUP2 ADD CALLDATALOAD SWAP1 PUSH1 0x40 ADD CALLDATALOAD PUSH2 0x471 JUMP JUMPDEST PUSH1 0x40 DUP1 MLOAD SWAP2 DUP3 MSTORE MLOAD SWAP1 DUP2 SWAP1 SUB PUSH1 0x20 ADD SWAP1 RETURN JUMPDEST PUSH2 0x251 PUSH1 0x4 DUP1 CALLDATASIZE SUB PUSH1 0x20 DUP2 LT ISZERO PUSH2 0x279 JUMPI PUSH1 0x0 DUP1 REVERT JUMPDEST POP CALLDATALOAD PUSH1 0x1 PUSH1 0x1 PUSH1 0xA0 SHL SUB AND PUSH2 0x4EC JUMP JUMPDEST PUSH2 0x2A6 PUSH1 0x4 DUP1 CALLDATASIZE SUB PUSH1 0x20 DUP2 LT ISZERO PUSH2 0x29F JUMPI PUSH1 0x0 DUP1 REVERT JUMPDEST POP CALLDATALOAD PUSH2 0x501 JUMP JUMPDEST PUSH1 0x40 MLOAD DUP1 DUP1 PUSH1 0x20 ADD DUP1 PUSH1 0x20 ADD DUP4 DUP2 SUB DUP4 MSTORE DUP6 DUP2 DUP2 MLOAD DUP2 MSTORE PUSH1 0x20 ADD SWAP2 POP DUP1 MLOAD SWAP1 PUSH1 0x20 ADD SWAP1 PUSH1 0x20 MUL DUP1 DUP4 DUP4 PUSH1 0x0 JUMPDEST DUP4 DUP2 LT ISZERO PUSH2 0x2EA JUMPI DUP2 DUP2 ADD MLOAD DUP4 DUP3 ADD MSTORE PUSH1 0x20 ADD PUSH2 0x2D2 JUMP JUMPDEST POP POP POP POP SWAP1 POP ADD DUP4 DUP2 SUB DUP3 MSTORE DUP5 DUP2 DUP2 MLOAD DUP2 MSTORE PUSH1 0x20 ADD SWAP2 POP DUP1 MLOAD SWAP1 PUSH1 0x20 ADD SWAP1 PUSH1 0x20 MUL DUP1 DUP4 DUP4 PUSH1 0x0 JUMPDEST DUP4 DUP2 LT ISZERO PUSH2 0x329 JUMPI DUP2 DUP2 ADD MLOAD DUP4 DUP3 ADD MSTORE PUSH1 0x20 ADD PUSH2 0x311 JUMP JUMPDEST POP POP POP POP SWAP1 POP ADD SWAP5 POP POP POP POP POP PUSH1 0x40 MLOAD DUP1 SWAP2 SUB SWAP1 RETURN JUMPDEST DUP2 DUP1 ISZERO PUSH2 0x34B JUMPI PUSH1 0x0 DUP1 REVERT JUMPDEST POP PUSH2 0x131 PUSH1 0x4 DUP1 CALLDATASIZE SUB PUSH1 0xA0 DUP2 LT ISZERO PUSH2 0x362 JUMPI PUSH1 0x0 DUP1 REVERT JUMPDEST POP DUP1 CALLDATALOAD SWAP1 PUSH1 0x1 PUSH1 0x1 PUSH1 0xA0 SHL SUB PUSH1 0x20 DUP3 ADD CALLDATALOAD DUP2 AND SWAP2 PUSH1 0x40 DUP2 ADD CALLDATALOAD SWAP2 PUSH1 0x60 DUP3 ADD CALLDATALOAD DUP2 AND SWAP2 PUSH1 0x80 ADD CALLDATALOAD AND PUSH2 0x629 JUMP JUMPDEST PUSH2 0x1D8 PUSH1 0x4 DUP1 CALLDATASIZE SUB PUSH1 0x40 DUP2 LT ISZERO PUSH2 0x3A4 JUMPI PUSH1 0x0 DUP1 REVERT JUMPDEST POP DUP1 CALLDATALOAD SWAP1 PUSH1 0x20 ADD CALLDATALOAD PUSH2 0x658 JUMP JUMPDEST PUSH2 0x251 PUSH1 0x4 DUP1 CALLDATASIZE SUB PUSH1 0x40 DUP2 LT ISZERO PUSH2 0x3C7 JUMPI PUSH1 0x0 DUP1 REVERT JUMPDEST POP DUP1 CALLDATALOAD SWAP1 PUSH1 0x20 ADD CALLDATALOAD PUSH1 0x1 PUSH1 0x1 PUSH1 0xA0 SHL SUB AND PUSH2 0x6FB JUMP JUMPDEST PUSH1 0x0 PUSH2 0x3F8 PUSH2 0x3EB DUP4 PUSH2 0x4EC JUMP JUMPDEST DUP5 SWAP1 PUSH4 0xFFFFFFFF PUSH2 0x716 AND JUMP JUMPDEST SWAP4 SWAP3 POP POP POP JUMP JUMPDEST PUSH2 0x418 PUSH2 0x40B DUP3 PUSH2 0x4EC JUMP JUMPDEST DUP4 SWAP1 PUSH4 0xFFFFFFFF PUSH2 0x728 AND JUMP JUMPDEST POP POP JUMP JUMPDEST PUSH2 0x44B PUSH2 0x428 DUP6 PUSH2 0x4EC JUMP JUMPDEST DUP5 PUSH2 0x432 DUP6 PUSH2 0x4EC JUMP JUMPDEST PUSH2 0x43B DUP6 PUSH2 0x4EC JUMP JUMPDEST DUP10 SWAP4 SWAP3 SWAP2 SWAP1 PUSH4 0xFFFFFFFF PUSH2 0x74C AND JUMP JUMPDEST POP POP POP POP POP JUMP JUMPDEST PUSH1 0x60 SHR SWAP1 JUMP JUMPDEST PUSH1 0x60 PUSH2 0x46B DUP3 DUP4 PUSH1 0x0 ADD PUSH1 0x2 ADD SLOAD PUSH2 0x658 JUMP JUMPDEST SWAP3 SWAP2 POP POP JUMP JUMPDEST PUSH1 0x0 DUP1 PUSH2 0x485 DUP4 DUP7 PUSH1 0x0 ADD PUSH1 0x2 ADD SLOAD PUSH2 0x910 JUMP JUMPDEST DUP6 SLOAD SWAP1 SWAP2 POP PUSH1 0x0 JUMPDEST DUP3 DUP2 LT ISZERO PUSH2 0x4E1 JUMPI DUP6 PUSH2 0x4A6 DUP9 DUP5 PUSH4 0xFFFFFFFF PUSH2 0x926 AND JUMP JUMPDEST LT ISZERO PUSH2 0x4B6 JUMPI SWAP3 POP PUSH2 0x3F8 SWAP2 POP POP JUMP JUMPDEST PUSH1 0x0 SWAP2 DUP3 MSTORE PUSH1 0x3 DUP8 ADD PUSH1 0x20 MSTORE PUSH1 0x40 SWAP1 SWAP2 KECCAK256 SLOAD SWAP1 PUSH2 0x4DA DUP2 PUSH1 0x1 PUSH4 0xFFFFFFFF PUSH2 0x93C AND JUMP JUMPDEST SWAP1 POP PUSH2 0x48D JUMP JUMPDEST POP SWAP1 SWAP6 SWAP5 POP POP POP POP POP JUMP JUMPDEST PUSH1 0x60 SHL PUSH12 0xFFFFFFFFFFFFFFFFFFFFFFFF NOT AND SWAP1 JUMP JUMPDEST PUSH1 0x60 DUP1 PUSH1 0x60 PUSH2 0x50F DUP5 PUSH2 0x996 JUMP JUMPDEST SWAP1 POP PUSH1 0x60 DUP2 MLOAD PUSH1 0x40 MLOAD SWAP1 DUP1 DUP3 MSTORE DUP1 PUSH1 0x20 MUL PUSH1 0x20 ADD DUP3 ADD PUSH1 0x40 MSTORE DUP1 ISZERO PUSH2 0x53E JUMPI DUP2 PUSH1 0x20 ADD PUSH1 0x20 DUP3 MUL DUP1 CODESIZE DUP4 CODECOPY ADD SWAP1 POP JUMPDEST POP SWAP1 POP PUSH1 0x60 DUP3 MLOAD PUSH1 0x40 MLOAD SWAP1 DUP1 DUP3 MSTORE DUP1 PUSH1 0x20 MUL PUSH1 0x20 ADD DUP3 ADD PUSH1 0x40 MSTORE DUP1 ISZERO PUSH2 0x56E JUMPI DUP2 PUSH1 0x20 ADD PUSH1 0x20 DUP3 MUL DUP1 CODESIZE DUP4 CODECOPY ADD SWAP1 POP JUMPDEST POP SWAP1 POP PUSH1 0x0 JUMPDEST DUP4 MLOAD DUP2 LT ISZERO PUSH2 0x61D JUMPI PUSH2 0x599 DUP5 DUP3 DUP2 MLOAD DUP2 LT PUSH2 0x58C JUMPI INVALID JUMPDEST PUSH1 0x20 MUL PUSH1 0x20 ADD ADD MLOAD PUSH2 0x452 JUMP JUMPDEST DUP4 DUP3 DUP2 MLOAD DUP2 LT PUSH2 0x5A5 JUMPI INVALID JUMPDEST PUSH1 0x20 MUL PUSH1 0x20 ADD ADD SWAP1 PUSH1 0x1 PUSH1 0x1 PUSH1 0xA0 SHL SUB AND SWAP1 DUP2 PUSH1 0x1 PUSH1 0x1 PUSH1 0xA0 SHL SUB AND DUP2 MSTORE POP POP DUP7 PUSH1 0x4 ADD PUSH1 0x0 DUP6 DUP4 DUP2 MLOAD DUP2 LT PUSH2 0x5D7 JUMPI INVALID JUMPDEST PUSH1 0x20 MUL PUSH1 0x20 ADD ADD MLOAD DUP2 MSTORE PUSH1 0x20 ADD SWAP1 DUP2 MSTORE PUSH1 0x20 ADD PUSH1 0x0 KECCAK256 SLOAD DUP3 DUP3 DUP2 MLOAD DUP2 LT PUSH2 0x5FA JUMPI INVALID JUMPDEST PUSH1 0x20 SWAP1 DUP2 MUL SWAP2 SWAP1 SWAP2 ADD ADD MSTORE PUSH2 0x616 DUP2 PUSH1 0x1 PUSH4 0xFFFFFFFF PUSH2 0x93C AND JUMP JUMPDEST SWAP1 POP PUSH2 0x574 JUMP JUMPDEST POP SWAP1 SWAP4 POP SWAP2 POP POP SWAP2 POP SWAP2 JUMP JUMPDEST PUSH2 0x44B PUSH2 0x635 DUP6 PUSH2 0x4EC JUMP JUMPDEST DUP5 PUSH2 0x63F DUP6 PUSH2 0x4EC JUMP JUMPDEST PUSH2 0x648 DUP6 PUSH2 0x4EC JUMP JUMPDEST DUP10 SWAP4 SWAP3 SWAP2 SWAP1 PUSH4 0xFFFFFFFF PUSH2 0x9A1 AND JUMP JUMPDEST PUSH1 0x60 DUP1 PUSH2 0x66B DUP5 DUP5 PUSH4 0xFFFFFFFF PUSH2 0x9B8 AND JUMP JUMPDEST SWAP1 POP PUSH1 0x60 DUP4 PUSH1 0x40 MLOAD SWAP1 DUP1 DUP3 MSTORE DUP1 PUSH1 0x20 MUL PUSH1 0x20 ADD DUP3 ADD PUSH1 0x40 MSTORE DUP1 ISZERO PUSH2 0x699 JUMPI DUP2 PUSH1 0x20 ADD PUSH1 0x20 DUP3 MUL DUP1 CODESIZE DUP4 CODECOPY ADD SWAP1 POP JUMPDEST POP SWAP1 POP PUSH1 0x0 JUMPDEST DUP5 DUP2 LT ISZERO PUSH2 0x6F2 JUMPI PUSH2 0x6B6 DUP4 DUP3 DUP2 MLOAD DUP2 LT PUSH2 0x58C JUMPI INVALID JUMPDEST DUP3 DUP3 DUP2 MLOAD DUP2 LT PUSH2 0x6C2 JUMPI INVALID JUMPDEST PUSH1 0x1 PUSH1 0x1 PUSH1 0xA0 SHL SUB SWAP1 SWAP3 AND PUSH1 0x20 SWAP3 DUP4 MUL SWAP2 SWAP1 SWAP2 ADD SWAP1 SWAP2 ADD MSTORE PUSH2 0x6EB DUP2 PUSH1 0x1 PUSH4 0xFFFFFFFF PUSH2 0x93C AND JUMP JUMPDEST SWAP1 POP PUSH2 0x69F JUMP JUMPDEST POP SWAP5 SWAP4 POP POP POP POP JUMP JUMPDEST PUSH1 0x0 PUSH2 0x3F8 PUSH2 0x709 DUP4 PUSH2 0x4EC JUMP JUMPDEST DUP5 SWAP1 PUSH4 0xFFFFFFFF PUSH2 0x926 AND JUMP JUMPDEST PUSH1 0x0 PUSH2 0x3F8 DUP4 DUP4 PUSH4 0xFFFFFFFF PUSH2 0x9CA AND JUMP JUMPDEST PUSH2 0x738 DUP3 DUP3 PUSH4 0xFFFFFFFF PUSH2 0x9E6 AND JUMP JUMPDEST PUSH1 0x0 SWAP1 DUP2 MSTORE PUSH1 0x4 SWAP1 SWAP2 ADD PUSH1 0x20 MSTORE PUSH1 0x40 DUP2 KECCAK256 SSTORE JUMP JUMPDEST DUP4 ISZERO DUP1 ISZERO SWAP1 PUSH2 0x75B JUMPI POP DUP2 DUP5 EQ ISZERO JUMPDEST DUP1 ISZERO PUSH2 0x767 JUMPI POP DUP1 DUP5 EQ ISZERO JUMPDEST DUP1 ISZERO PUSH2 0x77A JUMPI POP PUSH2 0x778 DUP6 DUP6 PUSH2 0x716 JUMP JUMPDEST ISZERO JUMPDEST PUSH2 0x7B9 JUMPI PUSH1 0x40 DUP1 MLOAD PUSH3 0x461BCD PUSH1 0xE5 SHL DUP2 MSTORE PUSH1 0x20 PUSH1 0x4 DUP3 ADD MSTORE PUSH1 0xB PUSH1 0x24 DUP3 ADD MSTORE PUSH11 0x696E76616C6964206B6579 PUSH1 0xA8 SHL PUSH1 0x44 DUP3 ADD MSTORE SWAP1 MLOAD SWAP1 DUP2 SWAP1 SUB PUSH1 0x64 ADD SWAP1 REVERT JUMPDEST DUP2 ISZERO ISZERO DUP1 PUSH2 0x7C6 JUMPI POP DUP1 ISZERO ISZERO JUMPDEST DUP1 PUSH2 0x7D3 JUMPI POP PUSH1 0x2 DUP6 ADD SLOAD ISZERO JUMPDEST PUSH2 0x824 JUMPI PUSH1 0x40 DUP1 MLOAD PUSH3 0x461BCD PUSH1 0xE5 SHL DUP2 MSTORE PUSH1 0x20 PUSH1 0x4 DUP3 ADD MSTORE PUSH1 0x1B PUSH1 0x24 DUP3 ADD MSTORE PUSH32 0x6772656174657220616E64206C6573736572206B6579207A65726F0000000000 PUSH1 0x44 DUP3 ADD MSTORE SWAP1 MLOAD SWAP1 DUP2 SWAP1 SUB PUSH1 0x64 ADD SWAP1 REVERT JUMPDEST PUSH2 0x82E DUP6 DUP4 PUSH2 0x716 JUMP JUMPDEST DUP1 PUSH2 0x837 JUMPI POP DUP2 ISZERO JUMPDEST PUSH2 0x87D JUMPI PUSH1 0x40 DUP1 MLOAD PUSH3 0x461BCD PUSH1 0xE5 SHL DUP2 MSTORE PUSH1 0x20 PUSH1 0x4 DUP3 ADD MSTORE PUSH1 0x12 PUSH1 0x24 DUP3 ADD MSTORE PUSH18 0x696E76616C6964206C6573736572206B6579 PUSH1 0x70 SHL PUSH1 0x44 DUP3 ADD MSTORE SWAP1 MLOAD SWAP1 DUP2 SWAP1 SUB PUSH1 0x64 ADD SWAP1 REVERT JUMPDEST PUSH2 0x887 DUP6 DUP3 PUSH2 0x716 JUMP JUMPDEST DUP1 PUSH2 0x890 JUMPI POP DUP1 ISZERO JUMPDEST PUSH2 0x8D7 JUMPI PUSH1 0x40 DUP1 MLOAD PUSH3 0x461BCD PUSH1 0xE5 SHL DUP2 MSTORE PUSH1 0x20 PUSH1 0x4 DUP3 ADD MSTORE PUSH1 0x13 PUSH1 0x24 DUP3 ADD MSTORE PUSH19 0x696E76616C69642067726561746572206B6579 PUSH1 0x68 SHL PUSH1 0x44 DUP3 ADD MSTORE SWAP1 MLOAD SWAP1 DUP2 SWAP1 SUB PUSH1 0x64 ADD SWAP1 REVERT JUMPDEST PUSH2 0x8E3 DUP6 DUP5 DUP5 DUP5 PUSH2 0xAF4 JUMP JUMPDEST SWAP1 SWAP3 POP SWAP1 POP PUSH2 0x8FA DUP6 DUP6 DUP5 DUP5 PUSH4 0xFFFFFFFF PUSH2 0xC3A AND JUMP JUMPDEST POP POP PUSH1 0x0 SWAP2 DUP3 MSTORE PUSH1 0x4 SWAP1 SWAP3 ADD PUSH1 0x20 MSTORE PUSH1 0x40 SWAP1 KECCAK256 SSTORE JUMP JUMPDEST PUSH1 0x0 DUP2 DUP4 LT PUSH2 0x91F JUMPI DUP2 PUSH2 0x3F8 JUMP JUMPDEST POP SWAP1 SWAP2 SWAP1 POP JUMP JUMPDEST PUSH1 0x0 SWAP1 DUP2 MSTORE PUSH1 0x4 SWAP2 SWAP1 SWAP2 ADD PUSH1 0x20 MSTORE PUSH1 0x40 SWAP1 KECCAK256 SLOAD SWAP1 JUMP JUMPDEST PUSH1 0x0 DUP3 DUP3 ADD DUP4 DUP2 LT ISZERO PUSH2 0x3F8 JUMPI PUSH1 0x40 DUP1 MLOAD PUSH3 0x461BCD PUSH1 0xE5 SHL DUP2 MSTORE PUSH1 0x20 PUSH1 0x4 DUP3 ADD MSTORE PUSH1 0x1B PUSH1 0x24 DUP3 ADD MSTORE PUSH32 0x536166654D6174683A206164646974696F6E206F766572666C6F770000000000 PUSH1 0x44 DUP3 ADD MSTORE SWAP1 MLOAD SWAP1 DUP2 SWAP1 SUB PUSH1 0x64 ADD SWAP1 REVERT JUMPDEST PUSH1 0x60 PUSH2 0x46B DUP3 PUSH2 0xF2C JUMP JUMPDEST PUSH2 0x9AB DUP6 DUP6 PUSH2 0x728 JUMP JUMPDEST PUSH2 0x44B DUP6 DUP6 DUP6 DUP6 DUP6 PUSH2 0x74C JUMP JUMPDEST PUSH1 0x60 PUSH2 0x3F8 DUP4 DUP4 PUSH4 0xFFFFFFFF PUSH2 0xF38 AND JUMP JUMPDEST PUSH1 0x0 SWAP1 DUP2 MSTORE PUSH1 0x3 SWAP2 SWAP1 SWAP2 ADD PUSH1 0x20 MSTORE PUSH1 0x40 SWAP1 KECCAK256 PUSH1 0x2 ADD SLOAD PUSH1 0xFF AND SWAP1 JUMP JUMPDEST PUSH1 0x0 DUP2 DUP2 MSTORE PUSH1 0x3 DUP4 ADD PUSH1 0x20 MSTORE PUSH1 0x40 SWAP1 KECCAK256 DUP2 ISZERO DUP1 ISZERO SWAP1 PUSH2 0xA0A JUMPI POP PUSH2 0xA0A DUP4 DUP4 PUSH2 0x9CA JUMP JUMPDEST PUSH2 0xA4D JUMPI PUSH1 0x40 DUP1 MLOAD PUSH3 0x461BCD PUSH1 0xE5 SHL DUP2 MSTORE PUSH1 0x20 PUSH1 0x4 DUP3 ADD MSTORE PUSH1 0xF PUSH1 0x24 DUP3 ADD MSTORE PUSH15 0x1AD95E481B9BDD081A5B881B1A5CDD PUSH1 0x8A SHL PUSH1 0x44 DUP3 ADD MSTORE SWAP1 MLOAD SWAP1 DUP2 SWAP1 SUB PUSH1 0x64 ADD SWAP1 REVERT JUMPDEST DUP1 SLOAD ISZERO PUSH2 0xA74 JUMPI DUP1 SLOAD PUSH1 0x0 SWAP1 DUP2 MSTORE PUSH1 0x3 DUP5 ADD PUSH1 0x20 MSTORE PUSH1 0x40 SWAP1 KECCAK256 PUSH1 0x1 DUP1 DUP4 ADD SLOAD SWAP2 ADD SSTORE PUSH2 0xA7F JUMP JUMPDEST PUSH1 0x1 DUP1 DUP3 ADD SLOAD SWAP1 DUP5 ADD SSTORE JUMPDEST PUSH1 0x1 DUP2 ADD SLOAD ISZERO PUSH2 0xAA7 JUMPI PUSH1 0x1 DUP2 ADD SLOAD PUSH1 0x0 SWAP1 DUP2 MSTORE PUSH1 0x3 DUP5 ADD PUSH1 0x20 MSTORE PUSH1 0x40 SWAP1 KECCAK256 DUP2 SLOAD SWAP1 SSTORE PUSH2 0xAAC JUMP JUMPDEST DUP1 SLOAD DUP4 SSTORE JUMPDEST PUSH1 0x0 DUP3 DUP2 MSTORE PUSH1 0x3 DUP5 ADD PUSH1 0x20 MSTORE PUSH1 0x40 DUP2 KECCAK256 DUP2 DUP2 SSTORE PUSH1 0x1 DUP1 DUP3 ADD SWAP3 SWAP1 SWAP3 SSTORE PUSH1 0x2 SWAP1 DUP2 ADD DUP1 SLOAD PUSH1 0xFF NOT AND SWAP1 SSTORE DUP5 ADD SLOAD PUSH2 0xAE7 SWAP2 PUSH4 0xFFFFFFFF PUSH2 0x1016 AND JUMP JUMPDEST DUP4 PUSH1 0x2 ADD DUP2 SWAP1 SSTORE POP POP POP POP JUMP JUMPDEST PUSH1 0x0 DUP1 DUP4 ISZERO DUP1 ISZERO PUSH2 0xB13 JUMPI POP PUSH2 0xB13 DUP7 DUP7 DUP7 DUP10 PUSH1 0x0 ADD PUSH1 0x1 ADD SLOAD PUSH2 0x1058 JUMP JUMPDEST ISZERO PUSH2 0xB26 JUMPI POP POP PUSH1 0x1 DUP5 ADD SLOAD DUP3 SWAP1 PUSH2 0xC31 JUMP JUMPDEST DUP3 ISZERO DUP1 ISZERO PUSH2 0xB3F JUMPI POP DUP6 SLOAD PUSH2 0xB3F SWAP1 DUP8 SWAP1 DUP8 SWAP1 DUP7 PUSH2 0x1058 JUMP JUMPDEST ISZERO PUSH2 0xB4E JUMPI POP POP DUP4 SLOAD DUP2 PUSH2 0xC31 JUMP JUMPDEST DUP4 ISZERO DUP1 ISZERO SWAP1 PUSH2 0xB7B JUMPI POP PUSH1 0x0 DUP5 DUP2 MSTORE PUSH1 0x3 DUP8 ADD PUSH1 0x20 MSTORE PUSH1 0x40 SWAP1 KECCAK256 PUSH1 0x1 ADD SLOAD PUSH2 0xB7B SWAP1 DUP8 SWAP1 DUP8 SWAP1 DUP8 SWAP1 PUSH2 0x1058 JUMP JUMPDEST ISZERO PUSH2 0xB9D JUMPI POP POP PUSH1 0x0 DUP3 DUP2 MSTORE PUSH1 0x3 DUP6 ADD PUSH1 0x20 MSTORE PUSH1 0x40 SWAP1 KECCAK256 PUSH1 0x1 ADD SLOAD DUP3 SWAP1 PUSH2 0xC31 JUMP JUMPDEST DUP3 ISZERO DUP1 ISZERO SWAP1 PUSH2 0xBC6 JUMPI POP PUSH1 0x0 DUP4 DUP2 MSTORE PUSH1 0x3 DUP8 ADD PUSH1 0x20 MSTORE PUSH1 0x40 SWAP1 KECCAK256 SLOAD PUSH2 0xBC6 SWAP1 DUP8 SWAP1 DUP8 SWAP1 DUP7 PUSH2 0x1058 JUMP JUMPDEST ISZERO PUSH2 0xBE4 JUMPI POP POP PUSH1 0x0 DUP2 DUP2 MSTORE PUSH1 0x3 DUP6 ADD PUSH1 0x20 MSTORE PUSH1 0x40 SWAP1 KECCAK256 SLOAD DUP2 PUSH2 0xC31 JUMP JUMPDEST PUSH1 0x40 DUP1 MLOAD PUSH3 0x461BCD PUSH1 0xE5 SHL DUP2 MSTORE PUSH1 0x20 PUSH1 0x4 DUP3 ADD MSTORE PUSH1 0x1E PUSH1 0x24 DUP3 ADD MSTORE PUSH32 0x676574206C657373657220616E642067726561746572206661696C7572650000 PUSH1 0x44 DUP3 ADD MSTORE SWAP1 MLOAD SWAP1 DUP2 SWAP1 SUB PUSH1 0x64 ADD SWAP1 REVERT JUMPDEST SWAP5 POP SWAP5 SWAP3 POP POP POP JUMP JUMPDEST DUP3 PUSH2 0xC82 JUMPI PUSH1 0x40 DUP1 MLOAD PUSH3 0x461BCD PUSH1 0xE5 SHL DUP2 MSTORE PUSH1 0x20 PUSH1 0x4 DUP3 ADD MSTORE PUSH1 0x13 PUSH1 0x24 DUP3 ADD MSTORE PUSH19 0x12D95E481B5D5CDD081899481919599A5B9959 PUSH1 0x6A SHL PUSH1 0x44 DUP3 ADD MSTORE SWAP1 MLOAD SWAP1 DUP2 SWAP1 SUB PUSH1 0x64 ADD SWAP1 REVERT JUMPDEST PUSH2 0xC8C DUP5 DUP5 PUSH2 0x9CA JUMP JUMPDEST ISZERO PUSH2 0xCDE JUMPI PUSH1 0x40 DUP1 MLOAD PUSH3 0x461BCD PUSH1 0xE5 SHL DUP2 MSTORE PUSH1 0x20 PUSH1 0x4 DUP3 ADD DUP2 SWAP1 MSTORE PUSH1 0x24 DUP3 ADD MSTORE PUSH32 0x43616E277420696E7365727420616E206578697374696E6720656C656D656E74 PUSH1 0x44 DUP3 ADD MSTORE SWAP1 MLOAD SWAP1 DUP2 SWAP1 SUB PUSH1 0x64 ADD SWAP1 REVERT JUMPDEST DUP3 DUP3 EQ ISZERO DUP1 ISZERO PUSH2 0xCEE JUMPI POP DUP3 DUP2 EQ ISZERO JUMPDEST PUSH2 0xD29 JUMPI PUSH1 0x40 MLOAD PUSH3 0x461BCD PUSH1 0xE5 SHL DUP2 MSTORE PUSH1 0x4 ADD DUP1 DUP1 PUSH1 0x20 ADD DUP3 DUP2 SUB DUP3 MSTORE PUSH1 0x30 DUP2 MSTORE PUSH1 0x20 ADD DUP1 PUSH2 0x1148 PUSH1 0x30 SWAP2 CODECOPY PUSH1 0x40 ADD SWAP2 POP POP PUSH1 0x40 MLOAD DUP1 SWAP2 SUB SWAP1 REVERT JUMPDEST PUSH1 0x0 DUP4 DUP2 MSTORE PUSH1 0x3 DUP6 ADD PUSH1 0x20 MSTORE PUSH1 0x40 SWAP1 KECCAK256 PUSH1 0x2 DUP1 DUP3 ADD DUP1 SLOAD PUSH1 0xFF NOT AND PUSH1 0x1 OR SWAP1 SSTORE DUP6 ADD SLOAD PUSH2 0xD5F JUMPI PUSH1 0x1 DUP6 ADD DUP5 SWAP1 SSTORE DUP4 DUP6 SSTORE PUSH2 0xF07 JUMP JUMPDEST DUP3 ISZERO ISZERO DUP1 PUSH2 0xD6C JUMPI POP DUP2 ISZERO ISZERO JUMPDEST PUSH2 0xDA7 JUMPI PUSH1 0x40 MLOAD PUSH3 0x461BCD PUSH1 0xE5 SHL DUP2 MSTORE PUSH1 0x4 ADD DUP1 DUP1 PUSH1 0x20 ADD DUP3 DUP2 SUB DUP3 MSTORE PUSH1 0x2D DUP2 MSTORE PUSH1 0x20 ADD DUP1 PUSH2 0x1203 PUSH1 0x2D SWAP2 CODECOPY PUSH1 0x40 ADD SWAP2 POP POP PUSH1 0x40 MLOAD DUP1 SWAP2 SUB SWAP1 REVERT JUMPDEST DUP3 DUP2 SSTORE PUSH1 0x1 DUP2 ADD DUP3 SWAP1 SSTORE DUP3 ISZERO PUSH2 0xE59 JUMPI PUSH2 0xDC1 DUP6 DUP5 PUSH2 0x9CA JUMP JUMPDEST PUSH2 0xDFC JUMPI PUSH1 0x40 MLOAD PUSH3 0x461BCD PUSH1 0xE5 SHL DUP2 MSTORE PUSH1 0x4 ADD DUP1 DUP1 PUSH1 0x20 ADD DUP3 DUP2 SUB DUP3 MSTORE PUSH1 0x34 DUP2 MSTORE PUSH1 0x20 ADD DUP1 PUSH2 0x119F PUSH1 0x34 SWAP2 CODECOPY PUSH1 0x40 ADD SWAP2 POP POP PUSH1 0x40 MLOAD DUP1 SWAP2 SUB SWAP1 REVERT JUMPDEST PUSH1 0x0 DUP4 DUP2 MSTORE PUSH1 0x3 DUP7 ADD PUSH1 0x20 MSTORE PUSH1 0x40 SWAP1 KECCAK256 PUSH1 0x1 DUP2 ADD SLOAD DUP4 EQ PUSH2 0xE4E JUMPI PUSH1 0x40 MLOAD PUSH3 0x461BCD PUSH1 0xE5 SHL DUP2 MSTORE PUSH1 0x4 ADD DUP1 DUP1 PUSH1 0x20 ADD DUP3 DUP2 SUB DUP3 MSTORE PUSH1 0x27 DUP2 MSTORE PUSH1 0x20 ADD DUP1 PUSH2 0x1178 PUSH1 0x27 SWAP2 CODECOPY PUSH1 0x40 ADD SWAP2 POP POP PUSH1 0x40 MLOAD DUP1 SWAP2 SUB SWAP1 REVERT JUMPDEST PUSH1 0x1 ADD DUP5 SWAP1 SSTORE PUSH2 0xE61 JUMP JUMPDEST PUSH1 0x1 DUP6 ADD DUP5 SWAP1 SSTORE JUMPDEST DUP2 ISZERO PUSH2 0xF03 JUMPI PUSH2 0xE71 DUP6 DUP4 PUSH2 0x9CA JUMP JUMPDEST PUSH2 0xEAC JUMPI PUSH1 0x40 MLOAD PUSH3 0x461BCD PUSH1 0xE5 SHL DUP2 MSTORE PUSH1 0x4 ADD DUP1 DUP1 PUSH1 0x20 ADD DUP3 DUP2 SUB DUP3 MSTORE PUSH1 0x30 DUP2 MSTORE PUSH1 0x20 ADD DUP1 PUSH2 0x11D3 PUSH1 0x30 SWAP2 CODECOPY PUSH1 0x40 ADD SWAP2 POP POP PUSH1 0x40 MLOAD DUP1 SWAP2 SUB SWAP1 REVERT JUMPDEST PUSH1 0x0 DUP3 DUP2 MSTORE PUSH1 0x3 DUP7 ADD PUSH1 0x20 MSTORE PUSH1 0x40 SWAP1 KECCAK256 DUP1 SLOAD DUP5 EQ PUSH2 0xEFB JUMPI PUSH1 0x40 MLOAD PUSH3 0x461BCD PUSH1 0xE5 SHL DUP2 MSTORE PUSH1 0x4 ADD DUP1 DUP1 PUSH1 0x20 ADD DUP3 DUP2 SUB DUP3 MSTORE PUSH1 0x27 DUP2 MSTORE PUSH1 0x20 ADD DUP1 PUSH2 0x1178 PUSH1 0x27 SWAP2 CODECOPY PUSH1 0x40 ADD SWAP2 POP POP PUSH1 0x40 MLOAD DUP1 SWAP2 SUB SWAP1 REVERT JUMPDEST DUP5 SWAP1 SSTORE PUSH2 0xF07 JUMP JUMPDEST DUP4 DUP6 SSTORE JUMPDEST PUSH1 0x2 DUP6 ADD SLOAD PUSH2 0xF1D SWAP1 PUSH1 0x1 PUSH4 0xFFFFFFFF PUSH2 0x93C AND JUMP JUMPDEST DUP6 PUSH1 0x2 ADD DUP2 SWAP1 SSTORE POP POP POP POP POP POP JUMP JUMPDEST PUSH1 0x60 PUSH2 0x46B DUP3 DUP4 PUSH1 0x2 ADD SLOAD JUMPDEST PUSH1 0x60 DUP3 PUSH1 0x2 ADD SLOAD DUP3 GT ISZERO PUSH2 0xF89 JUMPI PUSH1 0x40 DUP1 MLOAD PUSH3 0x461BCD PUSH1 0xE5 SHL DUP2 MSTORE PUSH1 0x20 PUSH1 0x4 DUP3 ADD MSTORE PUSH1 0x13 PUSH1 0x24 DUP3 ADD MSTORE PUSH19 0x6E6F7420656E6F75676820656C656D656E7473 PUSH1 0x68 SHL PUSH1 0x44 DUP3 ADD MSTORE SWAP1 MLOAD SWAP1 DUP2 SWAP1 SUB PUSH1 0x64 ADD SWAP1 REVERT JUMPDEST PUSH1 0x60 DUP3 PUSH1 0x40 MLOAD SWAP1 DUP1 DUP3 MSTORE DUP1 PUSH1 0x20 MUL PUSH1 0x20 ADD DUP3 ADD PUSH1 0x40 MSTORE DUP1 ISZERO PUSH2 0xFB5 JUMPI DUP2 PUSH1 0x20 ADD PUSH1 0x20 DUP3 MUL DUP1 CODESIZE DUP4 CODECOPY ADD SWAP1 POP JUMPDEST POP DUP5 SLOAD SWAP1 SWAP2 POP PUSH1 0x0 JUMPDEST DUP5 DUP2 LT ISZERO PUSH2 0x100C JUMPI DUP2 DUP4 DUP3 DUP2 MLOAD DUP2 LT PUSH2 0xFD3 JUMPI INVALID JUMPDEST PUSH1 0x20 SWAP1 DUP2 MUL SWAP2 SWAP1 SWAP2 ADD DUP2 ADD SWAP2 SWAP1 SWAP2 MSTORE PUSH1 0x0 SWAP3 DUP4 MSTORE PUSH1 0x3 DUP8 ADD SWAP1 MSTORE PUSH1 0x40 SWAP1 SWAP2 KECCAK256 SLOAD SWAP1 PUSH2 0x1005 DUP2 PUSH1 0x1 PUSH4 0xFFFFFFFF PUSH2 0x93C AND JUMP JUMPDEST SWAP1 POP PUSH2 0xFBE JUMP JUMPDEST POP SWAP1 SWAP5 SWAP4 POP POP POP POP JUMP JUMPDEST PUSH1 0x0 PUSH2 0x3F8 DUP4 DUP4 PUSH1 0x40 MLOAD DUP1 PUSH1 0x40 ADD PUSH1 0x40 MSTORE DUP1 PUSH1 0x1E DUP2 MSTORE PUSH1 0x20 ADD PUSH32 0x536166654D6174683A207375627472616374696F6E206F766572666C6F770000 DUP2 MSTORE POP PUSH2 0x10B0 JUMP JUMPDEST PUSH1 0x0 DUP1 DUP4 ISZERO DUP1 PUSH2 0x1078 JUMPI POP PUSH1 0x0 DUP5 DUP2 MSTORE PUSH1 0x4 DUP8 ADD PUSH1 0x20 MSTORE PUSH1 0x40 SWAP1 KECCAK256 SLOAD DUP6 LT ISZERO JUMPDEST SWAP1 POP PUSH1 0x0 DUP4 ISZERO DUP1 PUSH2 0x1099 JUMPI POP PUSH1 0x0 DUP5 DUP2 MSTORE PUSH1 0x4 DUP9 ADD PUSH1 0x20 MSTORE PUSH1 0x40 SWAP1 KECCAK256 SLOAD DUP7 GT ISZERO JUMPDEST SWAP1 POP DUP2 DUP1 ISZERO PUSH2 0x10A5 JUMPI POP DUP1 JUMPDEST SWAP8 SWAP7 POP POP POP POP POP POP POP JUMP JUMPDEST PUSH1 0x0 DUP2 DUP5 DUP5 GT ISZERO PUSH2 0x113F JUMPI PUSH1 0x40 MLOAD PUSH3 0x461BCD PUSH1 0xE5 SHL DUP2 MSTORE PUSH1 0x4 ADD DUP1 DUP1 PUSH1 0x20 ADD DUP3 DUP2 SUB DUP3 MSTORE DUP4 DUP2 DUP2 MLOAD DUP2 MSTORE PUSH1 0x20 ADD SWAP2 POP DUP1 MLOAD SWAP1 PUSH1 0x20 ADD SWAP1 DUP1 DUP4 DUP4 PUSH1 0x0 JUMPDEST DUP4 DUP2 LT ISZERO PUSH2 0x1104 JUMPI DUP2 DUP2 ADD MLOAD DUP4 DUP3 ADD MSTORE PUSH1 0x20 ADD PUSH2 0x10EC JUMP JUMPDEST POP POP POP POP SWAP1 POP SWAP1 DUP2 ADD SWAP1 PUSH1 0x1F AND DUP1 ISZERO PUSH2 0x1131 JUMPI DUP1 DUP3 SUB DUP1 MLOAD PUSH1 0x1 DUP4 PUSH1 0x20 SUB PUSH2 0x100 EXP SUB NOT AND DUP2 MSTORE PUSH1 0x20 ADD SWAP2 POP JUMPDEST POP SWAP3 POP POP POP PUSH1 0x40 MLOAD DUP1 SWAP2 SUB SWAP1 REVERT JUMPDEST POP POP POP SWAP1 SUB SWAP1 JUMP INVALID 0x4B PUSH6 0x792063616E6E PUSH16 0x74206265207468652073616D65206173 KECCAK256 PUSH17 0x726576696F75734B6579206F72206E6578 PUSH21 0x4B657970726576696F75734B6579206D7573742062 PUSH6 0x2061646A6163 PUSH6 0x6E7420746F20 PUSH15 0x6578744B657949662070726576696F PUSH22 0x734B657920697320646566696E65642C206974206D75 PUSH20 0x7420657869737420696E20746865206C69737449 PUSH7 0x206E6578744B65 PUSH26 0x20697320646566696E65642C206974206D757374206578697374 KECCAK256 PUSH10 0x6E20746865206C697374 GASLIMIT PUSH10 0x74686572207072657669 PUSH16 0x75734B6579206F72206E6578744B6579 KECCAK256 PUSH14 0x75737420626520646566696E6564 LOG2 PUSH6 0x627A7A723158 KECCAK256 PUSH15 0x443A99D739E1B57957345DE4575E56 SUB 0xD5 SMOD PUSH25 0xCC1CE928354471AE31F87DBF64736F6C634300050D00320000 "
		},
		"gasEstimates": {
			"creation": {
				"codeDepositCost": "941600",
				"executionCost": "1006",
				"totalCost": "942606"
			},
			"external": {
				"contains(SortedLinkedList.List storage,address)": "infinite",
				"getElements(SortedLinkedList.List storage)": "infinite",
				"getKeys(SortedLinkedList.List storage)": "infinite",
				"getValue(SortedLinkedList.List storage,address)": "infinite",
				"headN(SortedLinkedList.List storage,uint256)": "infinite",
				"insert(SortedLinkedList.List storage,address,uint256,address,address)": "infinite",
				"numElementsGreaterThan(SortedLinkedList.List storage,uint256,uint256)": "infinite",
				"remove(SortedLinkedList.List storage,address)": "infinite",
				"toAddress(bytes32)": "315",
				"toBytes(address)": "276",
				"update(SortedLinkedList.List storage,address,uint256,address,address)": "infinite"
			}
		},
		"methodIdentifiers": {
			"contains(SortedLinkedList.List storage,address)": "02f13028",
			"getElements(SortedLinkedList.List storage)": "69b317e3",
			"getKeys(SortedLinkedList.List storage)": "3a72e802",
			"getValue(SortedLinkedList.List storage,address)": "e0fe44b3",
			"headN(SortedLinkedList.List storage,uint256)": "dcb2a4dd",
			"insert(SortedLinkedList.List storage,address,uint256,address,address)": "2dedbbf0",
			"numElementsGreaterThan(SortedLinkedList.List storage,uint256,uint256)": "42b6351a",
			"remove(SortedLinkedList.List storage,address)": "28135929",
			"toAddress(bytes32)": "341f6623",
			"toBytes(address)": "593b79fe",
			"update(SortedLinkedList.List storage,address,uint256,address,address)": "cab455ae"
		}
	},
	"abi": [
		{
			"constant": true,
			"inputs": [
				{
					"internalType": "bytes32",
					"name": "b",
					"type": "bytes32"
				}
			],
			"name": "toAddress",
			"outputs": [
				{
					"internalType": "address",
					"name": "",
					"type": "address"
				}
			],
			"payable": false,
			"stateMutability": "view",
			"type": "function"
		},
		{
			"constant": true,
			"inputs": [
				{
					"internalType": "address",
					"name": "a",
					"type": "address"
				}
			],
			"name": "toBytes",
			"outputs": [
				{
					"internalType": "bytes32",
					"name": "",
					"type": "bytes32"
				}
			],
			"payable": false,
			"stateMutability": "view",
			"type": "function"
		}
	]
}