{
	"data": {
		"bytecode": {
			"linkReferences": {
				"Election.sol": {
					"AddressSortedLinkedList": [
						{
							"length": 20,
							"start": 1257
						},
						{
							"length": 20,
							"start": 2108
						},
						{
							"length": 20,
							"start": 2247
						},
						{
							"length": 20,
							"start": 3059
						},
						{
							"length": 20,
							"start": 3563
						}
					]
				}
			},
			"object": "608060405234801561001057600080fd5b50604051620021c8380380620021c88339818101604052602081101561003557600080fd5b505180600061004b6001600160e01b036100b316565b600080546001600160a01b0319166001600160a01b0383169081178255604051929350917f8be0079c531659141344cd1fd0a4f28419497f9722a3daafe3b4186f6b6457e0908290a35060018055806100ac576002805460ff191660011790555b50506100b7565b3390565b61210180620000c76000396000f3fe608060405234801561001057600080fd5b506004361061012c5760003560e01c806390a4dd5c116100ad578063c4d66de811610071578063c4d66de8146102dd578063d7a71cf814610303578063df4da46114610329578063f2fde38b14610331578063f9d7daae146103575761012c565b806390a4dd5c1461022c5780639a0e7d661461029f5780639a7b3be7146102a7578063a91ee0dc146102af578063ac839d69146102d55761012c565b8063715018a6116100f4578063715018a6146101e85780637b103999146101f057806383483e3c146102145780638da5cb5b1461021c5780638f32d59b146102245761012c565b8063158ef93e14610131578063334f4ffc1461014d5780633b1eb4bf146101755780634be8843b146101a4578063580d747a146101ac575b600080fd5b610139610378565b604080519115158252519081900360200190f35b6101736004803603602081101561016357600080fd5b50356001600160a01b0316610381565b005b6101926004803603602081101561018b57600080fd5b50356103ce565b60408051918252519081900360200190f35b6101926103e7565b610139600480360360808110156101c257600080fd5b506001600160a01b038135811691602081013591604082013581169160600135166103ed565b610173610614565b6101f86106b7565b604080516001600160a01b039092168252519081900360200190f35b6101f86106cb565b6101f86106da565b6101396106e9565b61024f6004803603604081101561024257600080fd5b508035906020013561070d565b60408051602080825283518183015283519192839290830191858101910280838360005b8381101561028b578181015183820152602001610273565b505050509050019250505060405180910390f35b610192611004565b610192611022565b610173600480360360208110156102c557600080fd5b50356001600160a01b031661102d565b610192611133565b610173600480360360208110156102f357600080fd5b50356001600160a01b0316611139565b61024f6004803603602081101561031957600080fd5b50356001600160a01b03166111b0565b6101926112d6565b6101736004803603602081101561034757600080fd5b50356001600160a01b03166113d3565b61035f611435565b6040805192835260208301919091528051918290030190f35b60025460ff1681565b600380546001600160a01b0319166001600160a01b03831617905560408051808201909152600e81526d39b2ba2b30b634b230ba37b9399960911b60208201526103cb908261143e565b50565b60006103e1826103dc6112d6565b6114f5565b92915050565b60115481565b6001805481019081905560408051625e260560e31b8152600860048201526001600160a01b038716602482015290516000929173__$c044bba148cf2a180e58d2a3ba8cbce5cc$__916302f1302891604480820192602092909190829003018186803b15801561045c57600080fd5b505af4158015610470573d6000803e3d6000fd5b505050506040513d602081101561048657600080fd5b50516104ce576040805162461bcd60e51b815260206004820152601260248201527147726f7570206e6f7420656c696769626c6560701b604482015290519081900360640190fd5b84600010610523576040805162461bcd60e51b815260206004820152601960248201527f566f74652076616c75652063616e6e6f74206265207a65726f00000000000000604482015290519081900360640190fd5b336000818152600d60205260408120815b815481101561058b5782806105715750896001600160a01b031682828154811061055a57fe5b6000918252602090912001546001600160a01b0316145b925061058481600163ffffffff61153216565b9050610534565b50816105bd5780546001810182556000828152602090200180546001600160a01b0319166001600160a01b038b161790555b60019450505050600154811461060b576040805162461bcd60e51b815260206004820152600e60248201526d1c99595b9d1c985b9d0818d85b1b60921b604482015290519081900360640190fd5b50949350505050565b61061c6106e9565b61066d576040805162461bcd60e51b815260206004820181905260248201527f4f776e61626c653a2063616c6c6572206973206e6f7420746865206f776e6572604482015290519081900360640190fd5b600080546040516001600160a01b03909116907f8be0079c531659141344cd1fd0a4f28419497f9722a3daafe3b4186f6b6457e0908390a3600080546001600160a01b0319169055565b60025461010090046001600160a01b031681565b6003546001600160a01b031681565b6000546001600160a01b031690565b600080546001600160a01b03166106fe611593565b6001600160a01b031614905090565b60606000610748610743610727610722611004565b611597565b604080516020810190915260115481529063ffffffff61160516565b61195b565b6040805163215b1a8d60e11b8152600860048201526024810183905260448101869052905191925060009173__$c044bba148cf2a180e58d2a3ba8cbce5cc$__916342b6351a916064808301926020929190829003018186803b1580156107ae57600080fd5b505af41580156107c2573d6000803e3d6000fd5b505050506040513d60208110156107d857600080fd5b50516040805163dcb2a4dd60e01b81526008600482015260248101839052905191925060609173__$c044bba148cf2a180e58d2a3ba8cbce5cc$__9163dcb2a4dd916044808301926000929190829003018186803b15801561083957600080fd5b505af415801561084d573d6000803e3d6000fd5b505050506040513d6000823e601f3d908101601f19168201604052602081101561087657600080fd5b8101908080516040519392919084600160201b82111561089557600080fd5b9083019060208201858111156108aa57600080fd5b82518660208202830111600160201b821117156108c657600080fd5b82525081516020918201928201910280838360005b838110156108f35781810151838201526020016108db565b505050509050016040525050509050606061090c61196c565b6001600160a01b03166370447754836040518263ffffffff1660e01b81526004018080602001828103825283818151815260200191508051906020019060200280838360005b8381101561096a578181015183820152602001610952565b505050509050019250505060006040518083038186803b15801561098d57600080fd5b505afa1580156109a1573d6000803e3d6000fd5b505050506040513d6000823e601f3d908101601f1916820160405260208110156109ca57600080fd5b8101908080516040519392919084600160201b8211156109e957600080fd5b9083019060208201858111156109fe57600080fd5b82518660208202830111600160201b82111715610a1a57600080fd5b82525081516020918201928201910280838360005b83811015610a47578181015183820152602001610a2f565b50505050905001604052505050905060608251604051908082528060200260200182016040528015610a83578160200160208202803883390190505b509050600080905060608451604051908082528060200260200182016040528015610ab8578160200160208202803883390190505b50905060608551604051908082528060200260200182016040528015610af857816020015b610ae5611ff4565b815260200190600190039081610add5790505b50905060005b8651811015610c075780838281518110610b1457fe5b602002602001018181525050610bd86004800160000173__$c044bba148cf2a180e58d2a3ba8cbce5cc$__63e0fe44b390918a8581518110610b5257fe5b60200260200101516040518363ffffffff1660e01b815260040180838152602001826001600160a01b03166001600160a01b031681526020019250505060206040518083038186803b158015610ba757600080fd5b505af4158015610bbb573d6000803e3d6000fd5b505050506040513d6020811015610bd157600080fd5b5051611597565b828281518110610be457fe5b6020908102919091010152610c0081600163ffffffff61153216565b9050610afe565b505b8983108015610c19575060008651115b15610d7e57600082600081518110610c2d57fe5b60200260200101519050610c53828281518110610c4657fe5b6020026020010151611a1a565b610c5d5750610d7e565b848181518110610c6957fe5b6020026020010151868281518110610c7d57fe5b602002602001015111610cb057610c946000611a1e565b828281518110610ca057fe5b6020026020010181905250610d6e565b610cd76001868381518110610cc157fe5b602002602001015161153290919063ffffffff16565b858281518110610ce357fe5b6020908102919091010152610cff84600163ffffffff61153216565b9350610d56610d186107226001888581518110610cc157fe5b610d4a6004800160000173__$c044bba148cf2a180e58d2a3ba8cbce5cc$__63e0fe44b390918c8781518110610b5257fe5b9063ffffffff611a3816565b828281518110610d6257fe5b60200260200101819052505b610d788383611b05565b50610c09565b8a831015610dd3576040805162461bcd60e51b815260206004820152601d60248201527f4e6f7420656e6f75676820656c65637465642076616c696461746f7273000000604482015290519081900360640190fd5b606083604051908082528060200260200182016040528015610dff578160200160208202803883390190505b50600094509050835b8751811015610ff4576060610e1b61196c565b6001600160a01b0316638dd31e398a8481518110610e3557fe5b6020026020010151898581518110610e4957fe5b60200260200101516040518363ffffffff1660e01b815260040180836001600160a01b03166001600160a01b031681526020018281526020019250505060006040518083038186803b158015610e9e57600080fd5b505afa158015610eb2573d6000803e3d6000fd5b505050506040513d6000823e601f3d908101601f191682016040526020811015610edb57600080fd5b8101908080516040519392919084600160201b821115610efa57600080fd5b908301906020820185811115610f0f57600080fd5b82518660208202830111600160201b82111715610f2b57600080fd5b82525081516020918201928201910280838360005b83811015610f58578181015183820152602001610f40565b50505050905001604052505050905060008090505b8151811015610fd957818181518110610f8257fe5b6020026020010151848881518110610f9657fe5b6001600160a01b0390921660209283029190910190910152610fbf87600163ffffffff61153216565b9650610fd281600163ffffffff61153216565b9050610f6d565b50610fed905081600163ffffffff61153216565b9050610e08565b509b9a5050505050505050505050565b60045460065460009161101d919063ffffffff61153216565b905090565b600061101d436103ce565b6110356106e9565b611086576040805162461bcd60e51b815260206004820181905260248201527f4f776e61626c653a2063616c6c6572206973206e6f7420746865206f776e6572604482015290519081900360640190fd5b6001600160a01b0381166110e1576040805162461bcd60e51b815260206004820181905260248201527f43616e6e6f7420726567697374657220746865206e756c6c2061646472657373604482015290519081900360640190fd5b60028054610100600160a81b0319166101006001600160a01b038416908102919091179091556040517f27fe5f0c1c3b1ed427cc63d0f05759ffdecf9aec9e18d31ef366fc8a6cb5dc3b90600090a250565b60105481565b60025460ff1615611191576040805162461bcd60e51b815260206004820152601c60248201527f636f6e747261637420616c726561647920696e697469616c697a656400000000604482015290519081900360640190fd5b6002805460ff191660011790556111a733611b17565b6103cb8161102d565b6003546040805163104ad68160e01b81526001600160a01b038481166004830152600160248301529151606093929092169163104ad68191604480820192600092909190829003018186803b15801561120857600080fd5b505afa15801561121c573d6000803e3d6000fd5b505050506040513d6000823e601f3d908101601f19168201604052602081101561124557600080fd5b8101908080516040519392919084600160201b82111561126457600080fd5b90830190602082018581111561127957600080fd5b82518660208202830111600160201b8211171561129557600080fd5b82525081516020918201928201910280838360005b838110156112c25781810151838201526020016112aa565b505050509050016040525050509050919050565b604080516000808252602082019283905281519092606092849260f89290819081908082805b6020831061131b5780518252601f1990920191602091820191016112fc565b6001836020036101000a038019825116818451168082178552505050505050905001915050600060405180830381855afa9150503d806000811461137b576040519150601f19603f3d011682016040523d82523d6000602084013e611380565b606091505b5092509050806113c15760405162461bcd60e51b81526004018080602001828103825260258152602001806120856025913960400191505060405180910390fd5b6113cc826000611bb7565b9250505090565b6113db6106e9565b61142c576040805162461bcd60e51b815260206004820181905260248201527f4f776e61626c653a2063616c6c6572206973206e6f7420746865206f776e6572604482015290519081900360640190fd5b6103cb81611b17565b600e54600f5482565b7f62ddffe5b5108385f7a590f100e1ee414ad9551a31f089e64e82998440785e1e82826040518080602001836001600160a01b03166001600160a01b03168152602001828103825284818151815260200191508051906020019080838360005b838110156114b657818101518382015260200161149e565b50505050905090810190601f1680156114e35780820380516001836020036101000a031916815260200191505b50935050505060405180910390a15050565b60008082848161150157fe5b04905082848161150d57fe5b066115195790506103e1565b61152a81600163ffffffff61153216565b9150506103e1565b60008282018381101561158c576040805162461bcd60e51b815260206004820152601b60248201527f536166654d6174683a206164646974696f6e206f766572666c6f770000000000604482015290519081900360640190fd5b9392505050565b3390565b61159f611ff4565b6115a7611bc3565b8211156115e55760405162461bcd60e51b815260040180806020018281038252603681526020018061202e6036913960400191505060405180910390fd5b50604080516020810190915269d3c21bcecceda100000082028152919050565b61160d611ff4565b8251158061161a57508151155b1561163457506040805160208101909152600081526103e1565b815169d3c21bcecceda1000000141561164e5750816103e1565b825169d3c21bcecceda100000014156116685750806103e1565b600069d3c21bcecceda100000061167e85611bde565b518161168657fe5b049050600061169485611c13565b519050600069d3c21bcecceda10000006116ad86611bde565b51816116b557fe5b04905060006116c386611c13565b519050838202841561172557828582816116d957fe5b0414611725576040805162461bcd60e51b81526020600482015260166024820152751bdd995c999b1bddc81e0c5e4c4819195d1958dd195960521b604482015290519081900360640190fd5b69d3c21bcecceda10000008102811561179f5769d3c21bcecceda100000082828161174c57fe5b041461179f576040805162461bcd60e51b815260206004820152601f60248201527f6f766572666c6f772078317931202a2066697865643120646574656374656400604482015290519081900360640190fd5b905080848402851561180157848682816117b557fe5b0414611801576040805162461bcd60e51b81526020600482015260166024820152751bdd995c999b1bddc81e0c9e4c4819195d1958dd195960521b604482015290519081900360640190fd5b8684028715611860578488828161181457fe5b0414611860576040805162461bcd60e51b81526020600482015260166024820152751bdd995c999b1bddc81e0c5e4c8819195d1958dd195960521b604482015290519081900360640190fd5b611868611c4d565b878161187057fe5b04965061187b611c4d565b858161188357fe5b04945086850287156118e5578588828161189957fe5b04146118e5576040805162461bcd60e51b81526020600482015260166024820152751bdd995c999b1bddc81e0c9e4c8819195d1958dd195960521b604482015290519081900360640190fd5b6118ed611ff4565b604051806020016040528087815250905061191681604051806020016040528087815250611c56565b905061193081604051806020016040528086815250611c56565b905061194a81604051806020016040528085815250611c56565b9d9c50505050505050505050505050565b5169d3c21bcecceda1000000900490565b600254604080516956616c696461746f727360b01b6020808301919091528251600a818403018152602a830180855281519183019190912063dcf0aaed60e01b909152602e830152915160009361010090046001600160a01b03169263dcf0aaed92604e8082019391829003018186803b1580156119e957600080fd5b505afa1580156119fd573d6000803e3d6000fd5b505050506040513d6020811015611a1357600080fd5b5051905090565b5190565b611a26611ff4565b50604080516020810190915290815290565b611a40611ff4565b8151611a87576040805162461bcd60e51b8152602060048201526011602482015270063616e277420646976696465206279203607c1b604482015290519081900360640190fd5b825169d3c21bcecceda10000008181029190820414611ae2576040805162461bcd60e51b81526020600482015260126024820152716f766572666c6f772061742064697669646560701b604482015290519081900360640190fd5b604051806020016040528084600001518381611afa57fe5b049052949350505050565b611b13828260008551611cc7565b5050565b6001600160a01b038116611b5c5760405162461bcd60e51b81526004018080602001828103825260268152602001806120086026913960400191505060405180910390fd5b600080546040516001600160a01b03808516939216917f8be0079c531659141344cd1fd0a4f28419497f9722a3daafe3b4186f6b6457e091a3600080546001600160a01b0319166001600160a01b0392909216919091179055565b600061158c8383611f2c565b7601357c299a88ea76a58924d52ce4f26a85af186c2b9e7490565b611be6611ff4565b604051806020016040528069d3c21bcecceda100000080856000015181611c0957fe5b0402905292915050565b611c1b611ff4565b604051806020016040528069d3c21bcecceda100000080856000015181611c3e57fe5b95519504029093039092525090565b64e8d4a5100090565b611c5e611ff4565b8151835190810190811015611cb2576040805162461bcd60e51b8152602060048201526015602482015274185919081bdd995c999b1bddc819195d1958dd1959605a1b604482015290519081900360640190fd5b60408051602081019091529081529392505050565b8251845114611d075760405162461bcd60e51b81526004018080602001828103825260238152602001806120aa6023913960400191505060405180910390fd5b83518210611d5c576040805162461bcd60e51b815260206004820152601d60248201527f6865617020737461727420696e646578206f7574206f662072616e6765000000604482015290519081900360640190fd5b8351811115611db2576040805162461bcd60e51b815260206004820152601860248201527f68656170206c656e677468206f7574206f662072616e67650000000000000000604482015290519081900360640190fd5b815b6000611dd86001611dcc84600263ffffffff611f9416565b9063ffffffff61153216565b90506000611df16002611dcc858263ffffffff611f9416565b9050828483108015611e5d5750611e5d87898381518110611e0e57fe5b602002602001015181518110611e2057fe5b6020026020010151888a8681518110611e3557fe5b602002602001015181518110611e4757fe5b6020026020010151611fed90919063ffffffff16565b15611e655750815b8482108015611ea65750611ea687898381518110611e7f57fe5b602002602001015181518110611e9157fe5b6020026020010151888a8581518110611e3557fe5b15611eae5750805b83811415611ebe57505050611f25565b6000888581518110611ecc57fe5b60200260200101519050888281518110611ee257fe5b6020026020010151898681518110611ef657fe5b60200260200101818152505080898381518110611f0f57fe5b6020908102919091010152509250611db4915050565b5050505050565b6000611f3f82602063ffffffff61153216565b83511015611f8b576040805162461bcd60e51b8152602060048201526014602482015273736c6963696e67206f7574206f662072616e676560601b604482015290519081900360640190fd5b50016020015190565b600082611fa3575060006103e1565b82820282848281611fb057fe5b041461158c5760405162461bcd60e51b81526004018080602001828103825260218152602001806120646021913960400191505060405180910390fd5b5190511190565b604051806020016040528060008152509056fe4f776e61626c653a206e6577206f776e657220697320746865207a65726f206164647265737363616e277420637265617465206669786964697479206e756d626572206c6172676572207468616e206d61784e657746697865642829536166654d6174683a206d756c7469706c69636174696f6e206f766572666c6f776572726f722063616c6c696e672067657445706f636853697a6520707265636f6d70696c656b657920616e642076616c7565206172726179206c656e677468206d69736d61746368a265627a7a72315820865198d4dd8aa80a81753b4d682f4d76844d15f0c3838c08be8d27d2d08977df64736f6c634300050d0032",
			"opcodes": "PUSH1 0x80 PUSH1 0x40 MSTORE CALLVALUE DUP1 ISZERO PUSH2 0x10 JUMPI PUSH1 0x0 DUP1 REVERT JUMPDEST POP PUSH1 0x40 MLOAD PUSH3 0x21C8 CODESIZE SUB DUP1 PUSH3 0x21C8 DUP4 CODECOPY DUP2 DUP2 ADD PUSH1 0x40 MSTORE PUSH1 0x20 DUP2 LT ISZERO PUSH2 0x35 JUMPI PUSH1 0x0 DUP1 REVERT JUMPDEST POP MLOAD DUP1 PUSH1 0x0 PUSH2 0x4B PUSH1 0x1 PUSH1 0x1 PUSH1 0xE0 SHL SUB PUSH2 0xB3 AND JUMP JUMPDEST PUSH1 0x0 DUP1 SLOAD PUSH1 0x1 PUSH1 0x1 PUSH1 0xA0 SHL SUB NOT AND PUSH1 0x1 PUSH1 0x1 PUSH1 0xA0 SHL SUB DUP4 AND SWAP1 DUP2 OR DUP3 SSTORE PUSH1 0x40 MLOAD SWAP3 SWAP4 POP SWAP2 PUSH32 0x8BE0079C531659141344CD1FD0A4F28419497F9722A3DAAFE3B4186F6B6457E0 SWAP1 DUP3 SWAP1 LOG3 POP PUSH1 0x1 DUP1 SSTORE DUP1 PUSH2 0xAC JUMPI PUSH1 0x2 DUP1 SLOAD PUSH1 0xFF NOT AND PUSH1 0x1 OR SWAP1 SSTORE JUMPDEST POP POP PUSH2 0xB7 JUMP JUMPDEST CALLER SWAP1 JUMP JUMPDEST PUSH2 0x2101 DUP1 PUSH3 0xC7 PUSH1 0x0 CODECOPY PUSH1 0x0 RETURN INVALID PUSH1 0x80 PUSH1 0x40 MSTORE CALLVALUE DUP1 ISZERO PUSH2 0x10 JUMPI PUSH1 0x0 DUP1 REVERT JUMPDEST POP PUSH1 0x4 CALLDATASIZE LT PUSH2 0x12C JUMPI PUSH1 0x0 CALLDATALOAD PUSH1 0xE0 SHR DUP1 PUSH4 0x90A4DD5C GT PUSH2 0xAD JUMPI DUP1 PUSH4 0xC4D66DE8 GT PUSH2 0x71 JUMPI DUP1 PUSH4 0xC4D66DE8 EQ PUSH2 0x2DD JUMPI DUP1 PUSH4 0xD7A71CF8 EQ PUSH2 0x303 JUMPI DUP1 PUSH4 0xDF4DA461 EQ PUSH2 0x329 JUMPI DUP1 PUSH4 0xF2FDE38B EQ PUSH2 0x331 JUMPI DUP1 PUSH4 0xF9D7DAAE EQ PUSH2 0x357 JUMPI PUSH2 0x12C JUMP JUMPDEST DUP1 PUSH4 0x90A4DD5C EQ PUSH2 0x22C JUMPI DUP1 PUSH4 0x9A0E7D66 EQ PUSH2 0x29F JUMPI DUP1 PUSH4 0x9A7B3BE7 EQ PUSH2 0x2A7 JUMPI DUP1 PUSH4 0xA91EE0DC EQ PUSH2 0x2AF JUMPI DUP1 PUSH4 0xAC839D69 EQ PUSH2 0x2D5 JUMPI PUSH2 0x12C JUMP JUMPDEST DUP1 PUSH4 0x715018A6 GT PUSH2 0xF4 JUMPI DUP1 PUSH4 0x715018A6 EQ PUSH2 0x1E8 JUMPI DUP1 PUSH4 0x7B103999 EQ PUSH2 0x1F0 JUMPI DUP1 PUSH4 0x83483E3C EQ PUSH2 0x214 JUMPI DUP1 PUSH4 0x8DA5CB5B EQ PUSH2 0x21C JUMPI DUP1 PUSH4 0x8F32D59B EQ PUSH2 0x224 JUMPI PUSH2 0x12C JUMP JUMPDEST DUP1 PUSH4 0x158EF93E EQ PUSH2 0x131 JUMPI DUP1 PUSH4 0x334F4FFC EQ PUSH2 0x14D JUMPI DUP1 PUSH4 0x3B1EB4BF EQ PUSH2 0x175 JUMPI DUP1 PUSH4 0x4BE8843B EQ PUSH2 0x1A4 JUMPI DUP1 PUSH4 0x580D747A EQ PUSH2 0x1AC JUMPI JUMPDEST PUSH1 0x0 DUP1 REVERT JUMPDEST PUSH2 0x139 PUSH2 0x378 JUMP JUMPDEST PUSH1 0x40 DUP1 MLOAD SWAP2 ISZERO ISZERO DUP3 MSTORE MLOAD SWAP1 DUP2 SWAP1 SUB PUSH1 0x20 ADD SWAP1 RETURN JUMPDEST PUSH2 0x173 PUSH1 0x4 DUP1 CALLDATASIZE SUB PUSH1 0x20 DUP2 LT ISZERO PUSH2 0x163 JUMPI PUSH1 0x0 DUP1 REVERT JUMPDEST POP CALLDATALOAD PUSH1 0x1 PUSH1 0x1 PUSH1 0xA0 SHL SUB AND PUSH2 0x381 JUMP JUMPDEST STOP JUMPDEST PUSH2 0x192 PUSH1 0x4 DUP1 CALLDATASIZE SUB PUSH1 0x20 DUP2 LT ISZERO PUSH2 0x18B JUMPI PUSH1 0x0 DUP1 REVERT JUMPDEST POP CALLDATALOAD PUSH2 0x3CE JUMP JUMPDEST PUSH1 0x40 DUP1 MLOAD SWAP2 DUP3 MSTORE MLOAD SWAP1 DUP2 SWAP1 SUB PUSH1 0x20 ADD SWAP1 RETURN JUMPDEST PUSH2 0x192 PUSH2 0x3E7 JUMP JUMPDEST PUSH2 0x139 PUSH1 0x4 DUP1 CALLDATASIZE SUB PUSH1 0x80 DUP2 LT ISZERO PUSH2 0x1C2 JUMPI PUSH1 0x0 DUP1 REVERT JUMPDEST POP PUSH1 0x1 PUSH1 0x1 PUSH1 0xA0 SHL SUB DUP2 CALLDATALOAD DUP2 AND SWAP2 PUSH1 0x20 DUP2 ADD CALLDATALOAD SWAP2 PUSH1 0x40 DUP3 ADD CALLDATALOAD DUP2 AND SWAP2 PUSH1 0x60 ADD CALLDATALOAD AND PUSH2 0x3ED JUMP JUMPDEST PUSH2 0x173 PUSH2 0x614 JUMP JUMPDEST PUSH2 0x1F8 PUSH2 0x6B7 JUMP JUMPDEST PUSH1 0x40 DUP1 MLOAD PUSH1 0x1 PUSH1 0x1 PUSH1 0xA0 SHL SUB SWAP1 SWAP3 AND DUP3 MSTORE MLOAD SWAP1 DUP2 SWAP1 SUB PUSH1 0x20 ADD SWAP1 RETURN JUMPDEST PUSH2 0x1F8 PUSH2 0x6CB JUMP JUMPDEST PUSH2 0x1F8 PUSH2 0x6DA JUMP JUMPDEST PUSH2 0x139 PUSH2 0x6E9 JUMP JUMPDEST PUSH2 0x24F PUSH1 0x4 DUP1 CALLDATASIZE SUB PUSH1 0x40 DUP2 LT ISZERO PUSH2 0x242 JUMPI PUSH1 0x0 DUP1 REVERT JUMPDEST POP DUP1 CALLDATALOAD SWAP1 PUSH1 0x20 ADD CALLDATALOAD PUSH2 0x70D JUMP JUMPDEST PUSH1 0x40 DUP1 MLOAD PUSH1 0x20 DUP1 DUP3 MSTORE DUP4 MLOAD DUP2 DUP4 ADD MSTORE DUP4 MLOAD SWAP2 SWAP3 DUP4 SWAP3 SWAP1 DUP4 ADD SWAP2 DUP6 DUP2 ADD SWAP2 MUL DUP1 DUP4 DUP4 PUSH1 0x0 JUMPDEST DUP4 DUP2 LT ISZERO PUSH2 0x28B JUMPI DUP2 DUP2 ADD MLOAD DUP4 DUP3 ADD MSTORE PUSH1 0x20 ADD PUSH2 0x273 JUMP JUMPDEST POP POP POP POP SWAP1 POP ADD SWAP3 POP POP POP PUSH1 0x40 MLOAD DUP1 SWAP2 SUB SWAP1 RETURN JUMPDEST PUSH2 0x192 PUSH2 0x1004 JUMP JUMPDEST PUSH2 0x192 PUSH2 0x1022 JUMP JUMPDEST PUSH2 0x173 PUSH1 0x4 DUP1 CALLDATASIZE SUB PUSH1 0x20 DUP2 LT ISZERO PUSH2 0x2C5 JUMPI PUSH1 0x0 DUP1 REVERT JUMPDEST POP CALLDATALOAD PUSH1 0x1 PUSH1 0x1 PUSH1 0xA0 SHL SUB AND PUSH2 0x102D JUMP JUMPDEST PUSH2 0x192 PUSH2 0x1133 JUMP JUMPDEST PUSH2 0x173 PUSH1 0x4 DUP1 CALLDATASIZE SUB PUSH1 0x20 DUP2 LT ISZERO PUSH2 0x2F3 JUMPI PUSH1 0x0 DUP1 REVERT JUMPDEST POP CALLDATALOAD PUSH1 0x1 PUSH1 0x1 PUSH1 0xA0 SHL SUB AND PUSH2 0x1139 JUMP JUMPDEST PUSH2 0x24F PUSH1 0x4 DUP1 CALLDATASIZE SUB PUSH1 0x20 DUP2 LT ISZERO PUSH2 0x319 JUMPI PUSH1 0x0 DUP1 REVERT JUMPDEST POP CALLDATALOAD PUSH1 0x1 PUSH1 0x1 PUSH1 0xA0 SHL SUB AND PUSH2 0x11B0 JUMP JUMPDEST PUSH2 0x192 PUSH2 0x12D6 JUMP JUMPDEST PUSH2 0x173 PUSH1 0x4 DUP1 CALLDATASIZE SUB PUSH1 0x20 DUP2 LT ISZERO PUSH2 0x347 JUMPI PUSH1 0x0 DUP1 REVERT JUMPDEST POP CALLDATALOAD PUSH1 0x1 PUSH1 0x1 PUSH1 0xA0 SHL SUB AND PUSH2 0x13D3 JUMP JUMPDEST PUSH2 0x35F PUSH2 0x1435 JUMP JUMPDEST PUSH1 0x40 DUP1 MLOAD SWAP3 DUP4 MSTORE PUSH1 0x20 DUP4 ADD SWAP2 SWAP1 SWAP2 MSTORE DUP1 MLOAD SWAP2 DUP3 SWAP1 SUB ADD SWAP1 RETURN JUMPDEST PUSH1 0x2 SLOAD PUSH1 0xFF AND DUP2 JUMP JUMPDEST PUSH1 0x3 DUP1 SLOAD PUSH1 0x1 PUSH1 0x1 PUSH1 0xA0 SHL SUB NOT AND PUSH1 0x1 PUSH1 0x1 PUSH1 0xA0 SHL SUB DUP4 AND OR SWAP1 SSTORE PUSH1 0x40 DUP1 MLOAD DUP1 DUP3 ADD SWAP1 SWAP2 MSTORE PUSH1 0xE DUP2 MSTORE PUSH14 0x39B2BA2B30B634B230BA37B93999 PUSH1 0x91 SHL PUSH1 0x20 DUP3 ADD MSTORE PUSH2 0x3CB SWAP1 DUP3 PUSH2 0x143E JUMP JUMPDEST POP JUMP JUMPDEST PUSH1 0x0 PUSH2 0x3E1 DUP3 PUSH2 0x3DC PUSH2 0x12D6 JUMP JUMPDEST PUSH2 0x14F5 JUMP JUMPDEST SWAP3 SWAP2 POP POP JUMP JUMPDEST PUSH1 0x11 SLOAD DUP2 JUMP JUMPDEST PUSH1 0x1 DUP1 SLOAD DUP2 ADD SWAP1 DUP2 SWAP1 SSTORE PUSH1 0x40 DUP1 MLOAD PUSH3 0x5E2605 PUSH1 0xE3 SHL DUP2 MSTORE PUSH1 0x8 PUSH1 0x4 DUP3 ADD MSTORE PUSH1 0x1 PUSH1 0x1 PUSH1 0xA0 SHL SUB DUP8 AND PUSH1 0x24 DUP3 ADD MSTORE SWAP1 MLOAD PUSH1 0x0 SWAP3 SWAP2 PUSH20 0x0 SWAP2 PUSH4 0x2F13028 SWAP2 PUSH1 0x44 DUP1 DUP3 ADD SWAP3 PUSH1 0x20 SWAP3 SWAP1 SWAP2 SWAP1 DUP3 SWAP1 SUB ADD DUP2 DUP7 DUP1 EXTCODESIZE ISZERO DUP1 ISZERO PUSH2 0x45C JUMPI PUSH1 0x0 DUP1 REVERT JUMPDEST POP GAS DELEGATECALL ISZERO DUP1 ISZERO PUSH2 0x470 JUMPI RETURNDATASIZE PUSH1 0x0 DUP1 RETURNDATACOPY RETURNDATASIZE PUSH1 0x0 REVERT JUMPDEST POP POP POP POP PUSH1 0x40 MLOAD RETURNDATASIZE PUSH1 0x20 DUP2 LT ISZERO PUSH2 0x486 JUMPI PUSH1 0x0 DUP1 REVERT JUMPDEST POP MLOAD PUSH2 0x4CE JUMPI PUSH1 0x40 DUP1 MLOAD PUSH3 0x461BCD PUSH1 0xE5 SHL DUP2 MSTORE PUSH1 0x20 PUSH1 0x4 DUP3 ADD MSTORE PUSH1 0x12 PUSH1 0x24 DUP3 ADD MSTORE PUSH18 0x47726F7570206E6F7420656C696769626C65 PUSH1 0x70 SHL PUSH1 0x44 DUP3 ADD MSTORE SWAP1 MLOAD SWAP1 DUP2 SWAP1 SUB PUSH1 0x64 ADD SWAP1 REVERT JUMPDEST DUP5 PUSH1 0x0 LT PUSH2 0x523 JUMPI PUSH1 0x40 DUP1 MLOAD PUSH3 0x461BCD PUSH1 0xE5 SHL DUP2 MSTORE PUSH1 0x20 PUSH1 0x4 DUP3 ADD MSTORE PUSH1 0x19 PUSH1 0x24 DUP3 ADD MSTORE PUSH32 0x566F74652076616C75652063616E6E6F74206265207A65726F00000000000000 PUSH1 0x44 DUP3 ADD MSTORE SWAP1 MLOAD SWAP1 DUP2 SWAP1 SUB PUSH1 0x64 ADD SWAP1 REVERT JUMPDEST CALLER PUSH1 0x0 DUP2 DUP2 MSTORE PUSH1 0xD PUSH1 0x20 MSTORE PUSH1 0x40 DUP2 KECCAK256 DUP2 JUMPDEST DUP2 SLOAD DUP2 LT ISZERO PUSH2 0x58B JUMPI DUP3 DUP1 PUSH2 0x571 JUMPI POP DUP10 PUSH1 0x1 PUSH1 0x1 PUSH1 0xA0 SHL SUB AND DUP3 DUP3 DUP2 SLOAD DUP2 LT PUSH2 0x55A JUMPI INVALID JUMPDEST PUSH1 0x0 SWAP2 DUP3 MSTORE PUSH1 0x20 SWAP1 SWAP2 KECCAK256 ADD SLOAD PUSH1 0x1 PUSH1 0x1 PUSH1 0xA0 SHL SUB AND EQ JUMPDEST SWAP3 POP PUSH2 0x584 DUP2 PUSH1 0x1 PUSH4 0xFFFFFFFF PUSH2 0x1532 AND JUMP JUMPDEST SWAP1 POP PUSH2 0x534 JUMP JUMPDEST POP DUP2 PUSH2 0x5BD JUMPI DUP1 SLOAD PUSH1 0x1 DUP2 ADD DUP3 SSTORE PUSH1 0x0 DUP3 DUP2 MSTORE PUSH1 0x20 SWAP1 KECCAK256 ADD DUP1 SLOAD PUSH1 0x1 PUSH1 0x1 PUSH1 0xA0 SHL SUB NOT AND PUSH1 0x1 PUSH1 0x1 PUSH1 0xA0 SHL SUB DUP12 AND OR SWAP1 SSTORE JUMPDEST PUSH1 0x1 SWAP5 POP POP POP POP PUSH1 0x1 SLOAD DUP2 EQ PUSH2 0x60B JUMPI PUSH1 0x40 DUP1 MLOAD PUSH3 0x461BCD PUSH1 0xE5 SHL DUP2 MSTORE PUSH1 0x20 PUSH1 0x4 DUP3 ADD MSTORE PUSH1 0xE PUSH1 0x24 DUP3 ADD MSTORE PUSH14 0x1C99595B9D1C985B9D0818D85B1B PUSH1 0x92 SHL PUSH1 0x44 DUP3 ADD MSTORE SWAP1 MLOAD SWAP1 DUP2 SWAP1 SUB PUSH1 0x64 ADD SWAP1 REVERT JUMPDEST POP SWAP5 SWAP4 POP POP POP POP JUMP JUMPDEST PUSH2 0x61C PUSH2 0x6E9 JUMP JUMPDEST PUSH2 0x66D JUMPI PUSH1 0x40 DUP1 MLOAD PUSH3 0x461BCD PUSH1 0xE5 SHL DUP2 MSTORE PUSH1 0x20 PUSH1 0x4 DUP3 ADD DUP2 SWAP1 MSTORE PUSH1 0x24 DUP3 ADD MSTORE PUSH32 0x4F776E61626C653A2063616C6C6572206973206E6F7420746865206F776E6572 PUSH1 0x44 DUP3 ADD MSTORE SWAP1 MLOAD SWAP1 DUP2 SWAP1 SUB PUSH1 0x64 ADD SWAP1 REVERT JUMPDEST PUSH1 0x0 DUP1 SLOAD PUSH1 0x40 MLOAD PUSH1 0x1 PUSH1 0x1 PUSH1 0xA0 SHL SUB SWAP1 SWAP2 AND SWAP1 PUSH32 0x8BE0079C531659141344CD1FD0A4F28419497F9722A3DAAFE3B4186F6B6457E0 SWAP1 DUP4 SWAP1 LOG3 PUSH1 0x0 DUP1 SLOAD PUSH1 0x1 PUSH1 0x1 PUSH1 0xA0 SHL SUB NOT AND SWAP1 SSTORE JUMP JUMPDEST PUSH1 0x2 SLOAD PUSH2 0x100 SWAP1 DIV PUSH1 0x1 PUSH1 0x1 PUSH1 0xA0 SHL SUB AND DUP2 JUMP JUMPDEST PUSH1 0x3 SLOAD PUSH1 0x1 PUSH1 0x1 PUSH1 0xA0 SHL SUB AND DUP2 JUMP JUMPDEST PUSH1 0x0 SLOAD PUSH1 0x1 PUSH1 0x1 PUSH1 0xA0 SHL SUB AND SWAP1 JUMP JUMPDEST PUSH1 0x0 DUP1 SLOAD PUSH1 0x1 PUSH1 0x1 PUSH1 0xA0 SHL SUB AND PUSH2 0x6FE PUSH2 0x1593 JUMP JUMPDEST PUSH1 0x1 PUSH1 0x1 PUSH1 0xA0 SHL SUB AND EQ SWAP1 POP SWAP1 JUMP JUMPDEST PUSH1 0x60 PUSH1 0x0 PUSH2 0x748 PUSH2 0x743 PUSH2 0x727 PUSH2 0x722 PUSH2 0x1004 JUMP JUMPDEST PUSH2 0x1597 JUMP JUMPDEST PUSH1 0x40 DUP1 MLOAD PUSH1 0x20 DUP2 ADD SWAP1 SWAP2 MSTORE PUSH1 0x11 SLOAD DUP2 MSTORE SWAP1 PUSH4 0xFFFFFFFF PUSH2 0x1605 AND JUMP JUMPDEST PUSH2 0x195B JUMP JUMPDEST PUSH1 0x40 DUP1 MLOAD PUSH4 0x215B1A8D PUSH1 0xE1 SHL DUP2 MSTORE PUSH1 0x8 PUSH1 0x4 DUP3 ADD MSTORE PUSH1 0x24 DUP2 ADD DUP4 SWAP1 MSTORE PUSH1 0x44 DUP2 ADD DUP7 SWAP1 MSTORE SWAP1 MLOAD SWAP2 SWAP3 POP PUSH1 0x0 SWAP2 PUSH20 0x0 SWAP2 PUSH4 0x42B6351A SWAP2 PUSH1 0x64 DUP1 DUP4 ADD SWAP3 PUSH1 0x20 SWAP3 SWAP2 SWAP1 DUP3 SWAP1 SUB ADD DUP2 DUP7 DUP1 EXTCODESIZE ISZERO DUP1 ISZERO PUSH2 0x7AE JUMPI PUSH1 0x0 DUP1 REVERT JUMPDEST POP GAS DELEGATECALL ISZERO DUP1 ISZERO PUSH2 0x7C2 JUMPI RETURNDATASIZE PUSH1 0x0 DUP1 RETURNDATACOPY RETURNDATASIZE PUSH1 0x0 REVERT JUMPDEST POP POP POP POP PUSH1 0x40 MLOAD RETURNDATASIZE PUSH1 0x20 DUP2 LT ISZERO PUSH2 0x7D8 JUMPI PUSH1 0x0 DUP1 REVERT JUMPDEST POP MLOAD PUSH1 0x40 DUP1 MLOAD PUSH4 0xDCB2A4DD PUSH1 0xE0 SHL DUP2 MSTORE PUSH1 0x8 PUSH1 0x4 DUP3 ADD MSTORE PUSH1 0x24 DUP2 ADD DUP4 SWAP1 MSTORE SWAP1 MLOAD SWAP2 SWAP3 POP PUSH1 0x60 SWAP2 PUSH20 0x0 SWAP2 PUSH4 0xDCB2A4DD SWAP2 PUSH1 0x44 DUP1 DUP4 ADD SWAP3 PUSH1 0x0 SWAP3 SWAP2 SWAP1 DUP3 SWAP1 SUB ADD DUP2 DUP7 DUP1 EXTCODESIZE ISZERO DUP1 ISZERO PUSH2 0x839 JUMPI PUSH1 0x0 DUP1 REVERT JUMPDEST POP GAS DELEGATECALL ISZERO DUP1 ISZERO PUSH2 0x84D JUMPI RETURNDATASIZE PUSH1 0x0 DUP1 RETURNDATACOPY RETURNDATASIZE PUSH1 0x0 REVERT JUMPDEST POP POP POP POP PUSH1 0x40 MLOAD RETURNDATASIZE PUSH1 0x0 DUP3 RETURNDATACOPY PUSH1 0x1F RETURNDATASIZE SWAP1 DUP2 ADD PUSH1 0x1F NOT AND DUP3 ADD PUSH1 0x40 MSTORE PUSH1 0x20 DUP2 LT ISZERO PUSH2 0x876 JUMPI PUSH1 0x0 DUP1 REVERT JUMPDEST DUP2 ADD SWAP1 DUP1 DUP1 MLOAD PUSH1 0x40 MLOAD SWAP4 SWAP3 SWAP2 SWAP1 DUP5 PUSH1 0x1 PUSH1 0x20 SHL DUP3 GT ISZERO PUSH2 0x895 JUMPI PUSH1 0x0 DUP1 REVERT JUMPDEST SWAP1 DUP4 ADD SWAP1 PUSH1 0x20 DUP3 ADD DUP6 DUP2 GT ISZERO PUSH2 0x8AA JUMPI PUSH1 0x0 DUP1 REVERT JUMPDEST DUP3 MLOAD DUP7 PUSH1 0x20 DUP3 MUL DUP4 ADD GT PUSH1 0x1 PUSH1 0x20 SHL DUP3 GT OR ISZERO PUSH2 0x8C6 JUMPI PUSH1 0x0 DUP1 REVERT JUMPDEST DUP3 MSTORE POP DUP2 MLOAD PUSH1 0x20 SWAP2 DUP3 ADD SWAP3 DUP3 ADD SWAP2 MUL DUP1 DUP4 DUP4 PUSH1 0x0 JUMPDEST DUP4 DUP2 LT ISZERO PUSH2 0x8F3 JUMPI DUP2 DUP2 ADD MLOAD DUP4 DUP3 ADD MSTORE PUSH1 0x20 ADD PUSH2 0x8DB JUMP JUMPDEST POP POP POP POP SWAP1 POP ADD PUSH1 0x40 MSTORE POP POP POP SWAP1 POP PUSH1 0x60 PUSH2 0x90C PUSH2 0x196C JUMP JUMPDEST PUSH1 0x1 PUSH1 0x1 PUSH1 0xA0 SHL SUB AND PUSH4 0x70447754 DUP4 PUSH1 0x40 MLOAD DUP3 PUSH4 0xFFFFFFFF AND PUSH1 0xE0 SHL DUP2 MSTORE PUSH1 0x4 ADD DUP1 DUP1 PUSH1 0x20 ADD DUP3 DUP2 SUB DUP3 MSTORE DUP4 DUP2 DUP2 MLOAD DUP2 MSTORE PUSH1 0x20 ADD SWAP2 POP DUP1 MLOAD SWAP1 PUSH1 0x20 ADD SWAP1 PUSH1 0x20 MUL DUP1 DUP4 DUP4 PUSH1 0x0 JUMPDEST DUP4 DUP2 LT ISZERO PUSH2 0x96A JUMPI DUP2 DUP2 ADD MLOAD DUP4 DUP3 ADD MSTORE PUSH1 0x20 ADD PUSH2 0x952 JUMP JUMPDEST POP POP POP POP SWAP1 POP ADD SWAP3 POP POP POP PUSH1 0x0 PUSH1 0x40 MLOAD DUP1 DUP4 SUB DUP2 DUP7 DUP1 EXTCODESIZE ISZERO DUP1 ISZERO PUSH2 0x98D JUMPI PUSH1 0x0 DUP1 REVERT JUMPDEST POP GAS STATICCALL ISZERO DUP1 ISZERO PUSH2 0x9A1 JUMPI RETURNDATASIZE PUSH1 0x0 DUP1 RETURNDATACOPY RETURNDATASIZE PUSH1 0x0 REVERT JUMPDEST POP POP POP POP PUSH1 0x40 MLOAD RETURNDATASIZE PUSH1 0x0 DUP3 RETURNDATACOPY PUSH1 0x1F RETURNDATASIZE SWAP1 DUP2 ADD PUSH1 0x1F NOT AND DUP3 ADD PUSH1 0x40 MSTORE PUSH1 0x20 DUP2 LT ISZERO PUSH2 0x9CA JUMPI PUSH1 0x0 DUP1 REVERT JUMPDEST DUP2 ADD SWAP1 DUP1 DUP1 MLOAD PUSH1 0x40 MLOAD SWAP4 SWAP3 SWAP2 SWAP1 DUP5 PUSH1 0x1 PUSH1 0x20 SHL DUP3 GT ISZERO PUSH2 0x9E9 JUMPI PUSH1 0x0 DUP1 REVERT JUMPDEST SWAP1 DUP4 ADD SWAP1 PUSH1 0x20 DUP3 ADD DUP6 DUP2 GT ISZERO PUSH2 0x9FE JUMPI PUSH1 0x0 DUP1 REVERT JUMPDEST DUP3 MLOAD DUP7 PUSH1 0x20 DUP3 MUL DUP4 ADD GT PUSH1 0x1 PUSH1 0x20 SHL DUP3 GT OR ISZERO PUSH2 0xA1A JUMPI PUSH1 0x0 DUP1 REVERT JUMPDEST DUP3 MSTORE POP DUP2 MLOAD PUSH1 0x20 SWAP2 DUP3 ADD SWAP3 DUP3 ADD SWAP2 MUL DUP1 DUP4 DUP4 PUSH1 0x0 JUMPDEST DUP4 DUP2 LT ISZERO PUSH2 0xA47 JUMPI DUP2 DUP2 ADD MLOAD DUP4 DUP3 ADD MSTORE PUSH1 0x20 ADD PUSH2 0xA2F JUMP JUMPDEST POP POP POP POP SWAP1 POP ADD PUSH1 0x40 MSTORE POP POP POP SWAP1 POP PUSH1 0x60 DUP3 MLOAD PUSH1 0x40 MLOAD SWAP1 DUP1 DUP3 MSTORE DUP1 PUSH1 0x20 MUL PUSH1 0x20 ADD DUP3 ADD PUSH1 0x40 MSTORE DUP1 ISZERO PUSH2 0xA83 JUMPI DUP2 PUSH1 0x20 ADD PUSH1 0x20 DUP3 MUL DUP1 CODESIZE DUP4 CODECOPY ADD SWAP1 POP JUMPDEST POP SWAP1 POP PUSH1 0x0 DUP1 SWAP1 POP PUSH1 0x60 DUP5 MLOAD PUSH1 0x40 MLOAD SWAP1 DUP1 DUP3 MSTORE DUP1 PUSH1 0x20 MUL PUSH1 0x20 ADD DUP3 ADD PUSH1 0x40 MSTORE DUP1 ISZERO PUSH2 0xAB8 JUMPI DUP2 PUSH1 0x20 ADD PUSH1 0x20 DUP3 MUL DUP1 CODESIZE DUP4 CODECOPY ADD SWAP1 POP JUMPDEST POP SWAP1 POP PUSH1 0x60 DUP6 MLOAD PUSH1 0x40 MLOAD SWAP1 DUP1 DUP3 MSTORE DUP1 PUSH1 0x20 MUL PUSH1 0x20 ADD DUP3 ADD PUSH1 0x40 MSTORE DUP1 ISZERO PUSH2 0xAF8 JUMPI DUP2 PUSH1 0x20 ADD JUMPDEST PUSH2 0xAE5 PUSH2 0x1FF4 JUMP JUMPDEST DUP2 MSTORE PUSH1 0x20 ADD SWAP1 PUSH1 0x1 SWAP1 SUB SWAP1 DUP2 PUSH2 0xADD JUMPI SWAP1 POP JUMPDEST POP SWAP1 POP PUSH1 0x0 JUMPDEST DUP7 MLOAD DUP2 LT ISZERO PUSH2 0xC07 JUMPI DUP1 DUP4 DUP3 DUP2 MLOAD DUP2 LT PUSH2 0xB14 JUMPI INVALID JUMPDEST PUSH1 0x20 MUL PUSH1 0x20 ADD ADD DUP2 DUP2 MSTORE POP POP PUSH2 0xBD8 PUSH1 0x4 DUP1 ADD PUSH1 0x0 ADD PUSH20 0x0 PUSH4 0xE0FE44B3 SWAP1 SWAP2 DUP11 DUP6 DUP2 MLOAD DUP2 LT PUSH2 0xB52 JUMPI INVALID JUMPDEST PUSH1 0x20 MUL PUSH1 0x20 ADD ADD MLOAD PUSH1 0x40 MLOAD DUP4 PUSH4 0xFFFFFFFF AND PUSH1 0xE0 SHL DUP2 MSTORE PUSH1 0x4 ADD DUP1 DUP4 DUP2 MSTORE PUSH1 0x20 ADD DUP3 PUSH1 0x1 PUSH1 0x1 PUSH1 0xA0 SHL SUB AND PUSH1 0x1 PUSH1 0x1 PUSH1 0xA0 SHL SUB AND DUP2 MSTORE PUSH1 0x20 ADD SWAP3 POP POP POP PUSH1 0x20 PUSH1 0x40 MLOAD DUP1 DUP4 SUB DUP2 DUP7 DUP1 EXTCODESIZE ISZERO DUP1 ISZERO PUSH2 0xBA7 JUMPI PUSH1 0x0 DUP1 REVERT JUMPDEST POP GAS DELEGATECALL ISZERO DUP1 ISZERO PUSH2 0xBBB JUMPI RETURNDATASIZE PUSH1 0x0 DUP1 RETURNDATACOPY RETURNDATASIZE PUSH1 0x0 REVERT JUMPDEST POP POP POP POP PUSH1 0x40 MLOAD RETURNDATASIZE PUSH1 0x20 DUP2 LT ISZERO PUSH2 0xBD1 JUMPI PUSH1 0x0 DUP1 REVERT JUMPDEST POP MLOAD PUSH2 0x1597 JUMP JUMPDEST DUP3 DUP3 DUP2 MLOAD DUP2 LT PUSH2 0xBE4 JUMPI INVALID JUMPDEST PUSH1 0x20 SWAP1 DUP2 MUL SWAP2 SWAP1 SWAP2 ADD ADD MSTORE PUSH2 0xC00 DUP2 PUSH1 0x1 PUSH4 0xFFFFFFFF PUSH2 0x1532 AND JUMP JUMPDEST SWAP1 POP PUSH2 0xAFE JUMP JUMPDEST POP JUMPDEST DUP10 DUP4 LT DUP1 ISZERO PUSH2 0xC19 JUMPI POP PUSH1 0x0 DUP7 MLOAD GT JUMPDEST ISZERO PUSH2 0xD7E JUMPI PUSH1 0x0 DUP3 PUSH1 0x0 DUP2 MLOAD DUP2 LT PUSH2 0xC2D JUMPI INVALID JUMPDEST PUSH1 0x20 MUL PUSH1 0x20 ADD ADD MLOAD SWAP1 POP PUSH2 0xC53 DUP3 DUP3 DUP2 MLOAD DUP2 LT PUSH2 0xC46 JUMPI INVALID JUMPDEST PUSH1 0x20 MUL PUSH1 0x20 ADD ADD MLOAD PUSH2 0x1A1A JUMP JUMPDEST PUSH2 0xC5D JUMPI POP PUSH2 0xD7E JUMP JUMPDEST DUP5 DUP2 DUP2 MLOAD DUP2 LT PUSH2 0xC69 JUMPI INVALID JUMPDEST PUSH1 0x20 MUL PUSH1 0x20 ADD ADD MLOAD DUP7 DUP3 DUP2 MLOAD DUP2 LT PUSH2 0xC7D JUMPI INVALID JUMPDEST PUSH1 0x20 MUL PUSH1 0x20 ADD ADD MLOAD GT PUSH2 0xCB0 JUMPI PUSH2 0xC94 PUSH1 0x0 PUSH2 0x1A1E JUMP JUMPDEST DUP3 DUP3 DUP2 MLOAD DUP2 LT PUSH2 0xCA0 JUMPI INVALID JUMPDEST PUSH1 0x20 MUL PUSH1 0x20 ADD ADD DUP2 SWAP1 MSTORE POP PUSH2 0xD6E JUMP JUMPDEST PUSH2 0xCD7 PUSH1 0x1 DUP7 DUP4 DUP2 MLOAD DUP2 LT PUSH2 0xCC1 JUMPI INVALID JUMPDEST PUSH1 0x20 MUL PUSH1 0x20 ADD ADD MLOAD PUSH2 0x1532 SWAP1 SWAP2 SWAP1 PUSH4 0xFFFFFFFF AND JUMP JUMPDEST DUP6 DUP3 DUP2 MLOAD DUP2 LT PUSH2 0xCE3 JUMPI INVALID JUMPDEST PUSH1 0x20 SWAP1 DUP2 MUL SWAP2 SWAP1 SWAP2 ADD ADD MSTORE PUSH2 0xCFF DUP5 PUSH1 0x1 PUSH4 0xFFFFFFFF PUSH2 0x1532 AND JUMP JUMPDEST SWAP4 POP PUSH2 0xD56 PUSH2 0xD18 PUSH2 0x722 PUSH1 0x1 DUP9 DUP6 DUP2 MLOAD DUP2 LT PUSH2 0xCC1 JUMPI INVALID JUMPDEST PUSH2 0xD4A PUSH1 0x4 DUP1 ADD PUSH1 0x0 ADD PUSH20 0x0 PUSH4 0xE0FE44B3 SWAP1 SWAP2 DUP13 DUP8 DUP2 MLOAD DUP2 LT PUSH2 0xB52 JUMPI INVALID JUMPDEST SWAP1 PUSH4 0xFFFFFFFF PUSH2 0x1A38 AND JUMP JUMPDEST DUP3 DUP3 DUP2 MLOAD DUP2 LT PUSH2 0xD62 JUMPI INVALID JUMPDEST PUSH1 0x20 MUL PUSH1 0x20 ADD ADD DUP2 SWAP1 MSTORE POP JUMPDEST PUSH2 0xD78 DUP4 DUP4 PUSH2 0x1B05 JUMP JUMPDEST POP PUSH2 0xC09 JUMP JUMPDEST DUP11 DUP4 LT ISZERO PUSH2 0xDD3 JUMPI PUSH1 0x40 DUP1 MLOAD PUSH3 0x461BCD PUSH1 0xE5 SHL DUP2 MSTORE PUSH1 0x20 PUSH1 0x4 DUP3 ADD MSTORE PUSH1 0x1D PUSH1 0x24 DUP3 ADD MSTORE PUSH32 0x4E6F7420656E6F75676820656C65637465642076616C696461746F7273000000 PUSH1 0x44 DUP3 ADD MSTORE SWAP1 MLOAD SWAP1 DUP2 SWAP1 SUB PUSH1 0x64 ADD SWAP1 REVERT JUMPDEST PUSH1 0x60 DUP4 PUSH1 0x40 MLOAD SWAP1 DUP1 DUP3 MSTORE DUP1 PUSH1 0x20 MUL PUSH1 0x20 ADD DUP3 ADD PUSH1 0x40 MSTORE DUP1 ISZERO PUSH2 0xDFF JUMPI DUP2 PUSH1 0x20 ADD PUSH1 0x20 DUP3 MUL DUP1 CODESIZE DUP4 CODECOPY ADD SWAP1 POP JUMPDEST POP PUSH1 0x0 SWAP5 POP SWAP1 POP DUP4 JUMPDEST DUP8 MLOAD DUP2 LT ISZERO PUSH2 0xFF4 JUMPI PUSH1 0x60 PUSH2 0xE1B PUSH2 0x196C JUMP JUMPDEST PUSH1 0x1 PUSH1 0x1 PUSH1 0xA0 SHL SUB AND PUSH4 0x8DD31E39 DUP11 DUP5 DUP2 MLOAD DUP2 LT PUSH2 0xE35 JUMPI INVALID JUMPDEST PUSH1 0x20 MUL PUSH1 0x20 ADD ADD MLOAD DUP10 DUP6 DUP2 MLOAD DUP2 LT PUSH2 0xE49 JUMPI INVALID JUMPDEST PUSH1 0x20 MUL PUSH1 0x20 ADD ADD MLOAD PUSH1 0x40 MLOAD DUP4 PUSH4 0xFFFFFFFF AND PUSH1 0xE0 SHL DUP2 MSTORE PUSH1 0x4 ADD DUP1 DUP4 PUSH1 0x1 PUSH1 0x1 PUSH1 0xA0 SHL SUB AND PUSH1 0x1 PUSH1 0x1 PUSH1 0xA0 SHL SUB AND DUP2 MSTORE PUSH1 0x20 ADD DUP3 DUP2 MSTORE PUSH1 0x20 ADD SWAP3 POP POP POP PUSH1 0x0 PUSH1 0x40 MLOAD DUP1 DUP4 SUB DUP2 DUP7 DUP1 EXTCODESIZE ISZERO DUP1 ISZERO PUSH2 0xE9E JUMPI PUSH1 0x0 DUP1 REVERT JUMPDEST POP GAS STATICCALL ISZERO DUP1 ISZERO PUSH2 0xEB2 JUMPI RETURNDATASIZE PUSH1 0x0 DUP1 RETURNDATACOPY RETURNDATASIZE PUSH1 0x0 REVERT JUMPDEST POP POP POP POP PUSH1 0x40 MLOAD RETURNDATASIZE PUSH1 0x0 DUP3 RETURNDATACOPY PUSH1 0x1F RETURNDATASIZE SWAP1 DUP2 ADD PUSH1 0x1F NOT AND DUP3 ADD PUSH1 0x40 MSTORE PUSH1 0x20 DUP2 LT ISZERO PUSH2 0xEDB JUMPI PUSH1 0x0 DUP1 REVERT JUMPDEST DUP2 ADD SWAP1 DUP1 DUP1 MLOAD PUSH1 0x40 MLOAD SWAP4 SWAP3 SWAP2 SWAP1 DUP5 PUSH1 0x1 PUSH1 0x20 SHL DUP3 GT ISZERO PUSH2 0xEFA JUMPI PUSH1 0x0 DUP1 REVERT JUMPDEST SWAP1 DUP4 ADD SWAP1 PUSH1 0x20 DUP3 ADD DUP6 DUP2 GT ISZERO PUSH2 0xF0F JUMPI PUSH1 0x0 DUP1 REVERT JUMPDEST DUP3 MLOAD DUP7 PUSH1 0x20 DUP3 MUL DUP4 ADD GT PUSH1 0x1 PUSH1 0x20 SHL DUP3 GT OR ISZERO PUSH2 0xF2B JUMPI PUSH1 0x0 DUP1 REVERT JUMPDEST DUP3 MSTORE POP DUP2 MLOAD PUSH1 0x20 SWAP2 DUP3 ADD SWAP3 DUP3 ADD SWAP2 MUL DUP1 DUP4 DUP4 PUSH1 0x0 JUMPDEST DUP4 DUP2 LT ISZERO PUSH2 0xF58 JUMPI DUP2 DUP2 ADD MLOAD DUP4 DUP3 ADD MSTORE PUSH1 0x20 ADD PUSH2 0xF40 JUMP JUMPDEST POP POP POP POP SWAP1 POP ADD PUSH1 0x40 MSTORE POP POP POP SWAP1 POP PUSH1 0x0 DUP1 SWAP1 POP JUMPDEST DUP2 MLOAD DUP2 LT ISZERO PUSH2 0xFD9 JUMPI DUP2 DUP2 DUP2 MLOAD DUP2 LT PUSH2 0xF82 JUMPI INVALID JUMPDEST PUSH1 0x20 MUL PUSH1 0x20 ADD ADD MLOAD DUP5 DUP9 DUP2 MLOAD DUP2 LT PUSH2 0xF96 JUMPI INVALID JUMPDEST PUSH1 0x1 PUSH1 0x1 PUSH1 0xA0 SHL SUB SWAP1 SWAP3 AND PUSH1 0x20 SWAP3 DUP4 MUL SWAP2 SWAP1 SWAP2 ADD SWAP1 SWAP2 ADD MSTORE PUSH2 0xFBF DUP8 PUSH1 0x1 PUSH4 0xFFFFFFFF PUSH2 0x1532 AND JUMP JUMPDEST SWAP7 POP PUSH2 0xFD2 DUP2 PUSH1 0x1 PUSH4 0xFFFFFFFF PUSH2 0x1532 AND JUMP JUMPDEST SWAP1 POP PUSH2 0xF6D JUMP JUMPDEST POP PUSH2 0xFED SWAP1 POP DUP2 PUSH1 0x1 PUSH4 0xFFFFFFFF PUSH2 0x1532 AND JUMP JUMPDEST SWAP1 POP PUSH2 0xE08 JUMP JUMPDEST POP SWAP12 SWAP11 POP POP POP POP POP POP POP POP POP POP POP JUMP JUMPDEST PUSH1 0x4 SLOAD PUSH1 0x6 SLOAD PUSH1 0x0 SWAP2 PUSH2 0x101D SWAP2 SWAP1 PUSH4 0xFFFFFFFF PUSH2 0x1532 AND JUMP JUMPDEST SWAP1 POP SWAP1 JUMP JUMPDEST PUSH1 0x0 PUSH2 0x101D NUMBER PUSH2 0x3CE JUMP JUMPDEST PUSH2 0x1035 PUSH2 0x6E9 JUMP JUMPDEST PUSH2 0x1086 JUMPI PUSH1 0x40 DUP1 MLOAD PUSH3 0x461BCD PUSH1 0xE5 SHL DUP2 MSTORE PUSH1 0x20 PUSH1 0x4 DUP3 ADD DUP2 SWAP1 MSTORE PUSH1 0x24 DUP3 ADD MSTORE PUSH32 0x4F776E61626C653A2063616C6C6572206973206E6F7420746865206F776E6572 PUSH1 0x44 DUP3 ADD MSTORE SWAP1 MLOAD SWAP1 DUP2 SWAP1 SUB PUSH1 0x64 ADD SWAP1 REVERT JUMPDEST PUSH1 0x1 PUSH1 0x1 PUSH1 0xA0 SHL SUB DUP2 AND PUSH2 0x10E1 JUMPI PUSH1 0x40 DUP1 MLOAD PUSH3 0x461BCD PUSH1 0xE5 SHL DUP2 MSTORE PUSH1 0x20 PUSH1 0x4 DUP3 ADD DUP2 SWAP1 MSTORE PUSH1 0x24 DUP3 ADD MSTORE PUSH32 0x43616E6E6F7420726567697374657220746865206E756C6C2061646472657373 PUSH1 0x44 DUP3 ADD MSTORE SWAP1 MLOAD SWAP1 DUP2 SWAP1 SUB PUSH1 0x64 ADD SWAP1 REVERT JUMPDEST PUSH1 0x2 DUP1 SLOAD PUSH2 0x100 PUSH1 0x1 PUSH1 0xA8 SHL SUB NOT AND PUSH2 0x100 PUSH1 0x1 PUSH1 0x1 PUSH1 0xA0 SHL SUB DUP5 AND SWAP1 DUP2 MUL SWAP2 SWAP1 SWAP2 OR SWAP1 SWAP2 SSTORE PUSH1 0x40 MLOAD PUSH32 0x27FE5F0C1C3B1ED427CC63D0F05759FFDECF9AEC9E18D31EF366FC8A6CB5DC3B SWAP1 PUSH1 0x0 SWAP1 LOG2 POP JUMP JUMPDEST PUSH1 0x10 SLOAD DUP2 JUMP JUMPDEST PUSH1 0x2 SLOAD PUSH1 0xFF AND ISZERO PUSH2 0x1191 JUMPI PUSH1 0x40 DUP1 MLOAD PUSH3 0x461BCD PUSH1 0xE5 SHL DUP2 MSTORE PUSH1 0x20 PUSH1 0x4 DUP3 ADD MSTORE PUSH1 0x1C PUSH1 0x24 DUP3 ADD MSTORE PUSH32 0x636F6E747261637420616C726561647920696E697469616C697A656400000000 PUSH1 0x44 DUP3 ADD MSTORE SWAP1 MLOAD SWAP1 DUP2 SWAP1 SUB PUSH1 0x64 ADD SWAP1 REVERT JUMPDEST PUSH1 0x2 DUP1 SLOAD PUSH1 0xFF NOT AND PUSH1 0x1 OR SWAP1 SSTORE PUSH2 0x11A7 CALLER PUSH2 0x1B17 JUMP JUMPDEST PUSH2 0x3CB DUP2 PUSH2 0x102D JUMP JUMPDEST PUSH1 0x3 SLOAD PUSH1 0x40 DUP1 MLOAD PUSH4 0x104AD681 PUSH1 0xE0 SHL DUP2 MSTORE PUSH1 0x1 PUSH1 0x1 PUSH1 0xA0 SHL SUB DUP5 DUP2 AND PUSH1 0x4 DUP4 ADD MSTORE PUSH1 0x1 PUSH1 0x24 DUP4 ADD MSTORE SWAP2 MLOAD PUSH1 0x60 SWAP4 SWAP3 SWAP1 SWAP3 AND SWAP2 PUSH4 0x104AD681 SWAP2 PUSH1 0x44 DUP1 DUP3 ADD SWAP3 PUSH1 0x0 SWAP3 SWAP1 SWAP2 SWAP1 DUP3 SWAP1 SUB ADD DUP2 DUP7 DUP1 EXTCODESIZE ISZERO DUP1 ISZERO PUSH2 0x1208 JUMPI PUSH1 0x0 DUP1 REVERT JUMPDEST POP GAS STATICCALL ISZERO DUP1 ISZERO PUSH2 0x121C JUMPI RETURNDATASIZE PUSH1 0x0 DUP1 RETURNDATACOPY RETURNDATASIZE PUSH1 0x0 REVERT JUMPDEST POP POP POP POP PUSH1 0x40 MLOAD RETURNDATASIZE PUSH1 0x0 DUP3 RETURNDATACOPY PUSH1 0x1F RETURNDATASIZE SWAP1 DUP2 ADD PUSH1 0x1F NOT AND DUP3 ADD PUSH1 0x40 MSTORE PUSH1 0x20 DUP2 LT ISZERO PUSH2 0x1245 JUMPI PUSH1 0x0 DUP1 REVERT JUMPDEST DUP2 ADD SWAP1 DUP1 DUP1 MLOAD PUSH1 0x40 MLOAD SWAP4 SWAP3 SWAP2 SWAP1 DUP5 PUSH1 0x1 PUSH1 0x20 SHL DUP3 GT ISZERO PUSH2 0x1264 JUMPI PUSH1 0x0 DUP1 REVERT JUMPDEST SWAP1 DUP4 ADD SWAP1 PUSH1 0x20 DUP3 ADD DUP6 DUP2 GT ISZERO PUSH2 0x1279 JUMPI PUSH1 0x0 DUP1 REVERT JUMPDEST DUP3 MLOAD DUP7 PUSH1 0x20 DUP3 MUL DUP4 ADD GT PUSH1 0x1 PUSH1 0x20 SHL DUP3 GT OR ISZERO PUSH2 0x1295 JUMPI PUSH1 0x0 DUP1 REVERT JUMPDEST DUP3 MSTORE POP DUP2 MLOAD PUSH1 0x20 SWAP2 DUP3 ADD SWAP3 DUP3 ADD SWAP2 MUL DUP1 DUP4 DUP4 PUSH1 0x0 JUMPDEST DUP4 DUP2 LT ISZERO PUSH2 0x12C2 JUMPI DUP2 DUP2 ADD MLOAD DUP4 DUP3 ADD MSTORE PUSH1 0x20 ADD PUSH2 0x12AA JUMP JUMPDEST POP POP POP POP SWAP1 POP ADD PUSH1 0x40 MSTORE POP POP POP SWAP1 POP SWAP2 SWAP1 POP JUMP JUMPDEST PUSH1 0x40 DUP1 MLOAD PUSH1 0x0 DUP1 DUP3 MSTORE PUSH1 0x20 DUP3 ADD SWAP3 DUP4 SWAP1 MSTORE DUP2 MLOAD SWAP1 SWAP3 PUSH1 0x60 SWAP3 DUP5 SWAP3 PUSH1 0xF8 SWAP3 SWAP1 DUP2 SWAP1 DUP2 SWAP1 DUP1 DUP3 DUP1 JUMPDEST PUSH1 0x20 DUP4 LT PUSH2 0x131B JUMPI DUP1 MLOAD DUP3 MSTORE PUSH1 0x1F NOT SWAP1 SWAP3 ADD SWAP2 PUSH1 0x20 SWAP2 DUP3 ADD SWAP2 ADD PUSH2 0x12FC JUMP JUMPDEST PUSH1 0x1 DUP4 PUSH1 0x20 SUB PUSH2 0x100 EXP SUB DUP1 NOT DUP3 MLOAD AND DUP2 DUP5 MLOAD AND DUP1 DUP3 OR DUP6 MSTORE POP POP POP POP POP POP SWAP1 POP ADD SWAP2 POP POP PUSH1 0x0 PUSH1 0x40 MLOAD DUP1 DUP4 SUB DUP2 DUP6 GAS STATICCALL SWAP2 POP POP RETURNDATASIZE DUP1 PUSH1 0x0 DUP2 EQ PUSH2 0x137B JUMPI PUSH1 0x40 MLOAD SWAP2 POP PUSH1 0x1F NOT PUSH1 0x3F RETURNDATASIZE ADD AND DUP3 ADD PUSH1 0x40 MSTORE RETURNDATASIZE DUP3 MSTORE RETURNDATASIZE PUSH1 0x0 PUSH1 0x20 DUP5 ADD RETURNDATACOPY PUSH2 0x1380 JUMP JUMPDEST PUSH1 0x60 SWAP2 POP JUMPDEST POP SWAP3 POP SWAP1 POP DUP1 PUSH2 0x13C1 JUMPI PUSH1 0x40 MLOAD PUSH3 0x461BCD PUSH1 0xE5 SHL DUP2 MSTORE PUSH1 0x4 ADD DUP1 DUP1 PUSH1 0x20 ADD DUP3 DUP2 SUB DUP3 MSTORE PUSH1 0x25 DUP2 MSTORE PUSH1 0x20 ADD DUP1 PUSH2 0x2085 PUSH1 0x25 SWAP2 CODECOPY PUSH1 0x40 ADD SWAP2 POP POP PUSH1 0x40 MLOAD DUP1 SWAP2 SUB SWAP1 REVERT JUMPDEST PUSH2 0x13CC DUP3 PUSH1 0x0 PUSH2 0x1BB7 JUMP JUMPDEST SWAP3 POP POP POP SWAP1 JUMP JUMPDEST PUSH2 0x13DB PUSH2 0x6E9 JUMP JUMPDEST PUSH2 0x142C JUMPI PUSH1 0x40 DUP1 MLOAD PUSH3 0x461BCD PUSH1 0xE5 SHL DUP2 MSTORE PUSH1 0x20 PUSH1 0x4 DUP3 ADD DUP2 SWAP1 MSTORE PUSH1 0x24 DUP3 ADD MSTORE PUSH32 0x4F776E61626C653A2063616C6C6572206973206E6F7420746865206F776E6572 PUSH1 0x44 DUP3 ADD MSTORE SWAP1 MLOAD SWAP1 DUP2 SWAP1 SUB PUSH1 0x64 ADD SWAP1 REVERT JUMPDEST PUSH2 0x3CB DUP2 PUSH2 0x1B17 JUMP JUMPDEST PUSH1 0xE SLOAD PUSH1 0xF SLOAD DUP3 JUMP JUMPDEST PUSH32 0x62DDFFE5B5108385F7A590F100E1EE414AD9551A31F089E64E82998440785E1E DUP3 DUP3 PUSH1 0x40 MLOAD DUP1 DUP1 PUSH1 0x20 ADD DUP4 PUSH1 0x1 PUSH1 0x1 PUSH1 0xA0 SHL SUB AND PUSH1 0x1 PUSH1 0x1 PUSH1 0xA0 SHL SUB AND DUP2 MSTORE PUSH1 0x20 ADD DUP3 DUP2 SUB DUP3 MSTORE DUP5 DUP2 DUP2 MLOAD DUP2 MSTORE PUSH1 0x20 ADD SWAP2 POP DUP1 MLOAD SWAP1 PUSH1 0x20 ADD SWAP1 DUP1 DUP4 DUP4 PUSH1 0x0 JUMPDEST DUP4 DUP2 LT ISZERO PUSH2 0x14B6 JUMPI DUP2 DUP2 ADD MLOAD DUP4 DUP3 ADD MSTORE PUSH1 0x20 ADD PUSH2 0x149E JUMP JUMPDEST POP POP POP POP SWAP1 POP SWAP1 DUP2 ADD SWAP1 PUSH1 0x1F AND DUP1 ISZERO PUSH2 0x14E3 JUMPI DUP1 DUP3 SUB DUP1 MLOAD PUSH1 0x1 DUP4 PUSH1 0x20 SUB PUSH2 0x100 EXP SUB NOT AND DUP2 MSTORE PUSH1 0x20 ADD SWAP2 POP JUMPDEST POP SWAP4 POP POP POP POP PUSH1 0x40 MLOAD DUP1 SWAP2 SUB SWAP1 LOG1 POP POP JUMP JUMPDEST PUSH1 0x0 DUP1 DUP3 DUP5 DUP2 PUSH2 0x1501 JUMPI INVALID JUMPDEST DIV SWAP1 POP DUP3 DUP5 DUP2 PUSH2 0x150D JUMPI INVALID JUMPDEST MOD PUSH2 0x1519 JUMPI SWAP1 POP PUSH2 0x3E1 JUMP JUMPDEST PUSH2 0x152A DUP2 PUSH1 0x1 PUSH4 0xFFFFFFFF PUSH2 0x1532 AND JUMP JUMPDEST SWAP2 POP POP PUSH2 0x3E1 JUMP JUMPDEST PUSH1 0x0 DUP3 DUP3 ADD DUP4 DUP2 LT ISZERO PUSH2 0x158C JUMPI PUSH1 0x40 DUP1 MLOAD PUSH3 0x461BCD PUSH1 0xE5 SHL DUP2 MSTORE PUSH1 0x20 PUSH1 0x4 DUP3 ADD MSTORE PUSH1 0x1B PUSH1 0x24 DUP3 ADD MSTORE PUSH32 0x536166654D6174683A206164646974696F6E206F766572666C6F770000000000 PUSH1 0x44 DUP3 ADD MSTORE SWAP1 MLOAD SWAP1 DUP2 SWAP1 SUB PUSH1 0x64 ADD SWAP1 REVERT JUMPDEST SWAP4 SWAP3 POP POP POP JUMP JUMPDEST CALLER SWAP1 JUMP JUMPDEST PUSH2 0x159F PUSH2 0x1FF4 JUMP JUMPDEST PUSH2 0x15A7 PUSH2 0x1BC3 JUMP JUMPDEST DUP3 GT ISZERO PUSH2 0x15E5 JUMPI PUSH1 0x40 MLOAD PUSH3 0x461BCD PUSH1 0xE5 SHL DUP2 MSTORE PUSH1 0x4 ADD DUP1 DUP1 PUSH1 0x20 ADD DUP3 DUP2 SUB DUP3 MSTORE PUSH1 0x36 DUP2 MSTORE PUSH1 0x20 ADD DUP1 PUSH2 0x202E PUSH1 0x36 SWAP2 CODECOPY PUSH1 0x40 ADD SWAP2 POP POP PUSH1 0x40 MLOAD DUP1 SWAP2 SUB SWAP1 REVERT JUMPDEST POP PUSH1 0x40 DUP1 MLOAD PUSH1 0x20 DUP2 ADD SWAP1 SWAP2 MSTORE PUSH10 0xD3C21BCECCEDA1000000 DUP3 MUL DUP2 MSTORE SWAP2 SWAP1 POP JUMP JUMPDEST PUSH2 0x160D PUSH2 0x1FF4 JUMP JUMPDEST DUP3 MLOAD ISZERO DUP1 PUSH2 0x161A JUMPI POP DUP2 MLOAD ISZERO JUMPDEST ISZERO PUSH2 0x1634 JUMPI POP PUSH1 0x40 DUP1 MLOAD PUSH1 0x20 DUP2 ADD SWAP1 SWAP2 MSTORE PUSH1 0x0 DUP2 MSTORE PUSH2 0x3E1 JUMP JUMPDEST DUP2 MLOAD PUSH10 0xD3C21BCECCEDA1000000 EQ ISZERO PUSH2 0x164E JUMPI POP DUP2 PUSH2 0x3E1 JUMP JUMPDEST DUP3 MLOAD PUSH10 0xD3C21BCECCEDA1000000 EQ ISZERO PUSH2 0x1668 JUMPI POP DUP1 PUSH2 0x3E1 JUMP JUMPDEST PUSH1 0x0 PUSH10 0xD3C21BCECCEDA1000000 PUSH2 0x167E DUP6 PUSH2 0x1BDE JUMP JUMPDEST MLOAD DUP2 PUSH2 0x1686 JUMPI INVALID JUMPDEST DIV SWAP1 POP PUSH1 0x0 PUSH2 0x1694 DUP6 PUSH2 0x1C13 JUMP JUMPDEST MLOAD SWAP1 POP PUSH1 0x0 PUSH10 0xD3C21BCECCEDA1000000 PUSH2 0x16AD DUP7 PUSH2 0x1BDE JUMP JUMPDEST MLOAD DUP2 PUSH2 0x16B5 JUMPI INVALID JUMPDEST DIV SWAP1 POP PUSH1 0x0 PUSH2 0x16C3 DUP7 PUSH2 0x1C13 JUMP JUMPDEST MLOAD SWAP1 POP DUP4 DUP3 MUL DUP5 ISZERO PUSH2 0x1725 JUMPI DUP3 DUP6 DUP3 DUP2 PUSH2 0x16D9 JUMPI INVALID JUMPDEST DIV EQ PUSH2 0x1725 JUMPI PUSH1 0x40 DUP1 MLOAD PUSH3 0x461BCD PUSH1 0xE5 SHL DUP2 MSTORE PUSH1 0x20 PUSH1 0x4 DUP3 ADD MSTORE PUSH1 0x16 PUSH1 0x24 DUP3 ADD MSTORE PUSH22 0x1BDD995C999B1BDDC81E0C5E4C4819195D1958DD1959 PUSH1 0x52 SHL PUSH1 0x44 DUP3 ADD MSTORE SWAP1 MLOAD SWAP1 DUP2 SWAP1 SUB PUSH1 0x64 ADD SWAP1 REVERT JUMPDEST PUSH10 0xD3C21BCECCEDA1000000 DUP2 MUL DUP2 ISZERO PUSH2 0x179F JUMPI PUSH10 0xD3C21BCECCEDA1000000 DUP3 DUP3 DUP2 PUSH2 0x174C JUMPI INVALID JUMPDEST DIV EQ PUSH2 0x179F JUMPI PUSH1 0x40 DUP1 MLOAD PUSH3 0x461BCD PUSH1 0xE5 SHL DUP2 MSTORE PUSH1 0x20 PUSH1 0x4 DUP3 ADD MSTORE PUSH1 0x1F PUSH1 0x24 DUP3 ADD MSTORE PUSH32 0x6F766572666C6F772078317931202A2066697865643120646574656374656400 PUSH1 0x44 DUP3 ADD MSTORE SWAP1 MLOAD SWAP1 DUP2 SWAP1 SUB PUSH1 0x64 ADD SWAP1 REVERT JUMPDEST SWAP1 POP DUP1 DUP5 DUP5 MUL DUP6 ISZERO PUSH2 0x1801 JUMPI DUP5 DUP7 DUP3 DUP2 PUSH2 0x17B5 JUMPI INVALID JUMPDEST DIV EQ PUSH2 0x1801 JUMPI PUSH1 0x40 DUP1 MLOAD PUSH3 0x461BCD PUSH1 0xE5 SHL DUP2 MSTORE PUSH1 0x20 PUSH1 0x4 DUP3 ADD MSTORE PUSH1 0x16 PUSH1 0x24 DUP3 ADD MSTORE PUSH22 0x1BDD995C999B1BDDC81E0C9E4C4819195D1958DD1959 PUSH1 0x52 SHL PUSH1 0x44 DUP3 ADD MSTORE SWAP1 MLOAD SWAP1 DUP2 SWAP1 SUB PUSH1 0x64 ADD SWAP1 REVERT JUMPDEST DUP7 DUP5 MUL DUP8 ISZERO PUSH2 0x1860 JUMPI DUP5 DUP9 DUP3 DUP2 PUSH2 0x1814 JUMPI INVALID JUMPDEST DIV EQ PUSH2 0x1860 JUMPI PUSH1 0x40 DUP1 MLOAD PUSH3 0x461BCD PUSH1 0xE5 SHL DUP2 MSTORE PUSH1 0x20 PUSH1 0x4 DUP3 ADD MSTORE PUSH1 0x16 PUSH1 0x24 DUP3 ADD MSTORE PUSH22 0x1BDD995C999B1BDDC81E0C5E4C8819195D1958DD1959 PUSH1 0x52 SHL PUSH1 0x44 DUP3 ADD MSTORE SWAP1 MLOAD SWAP1 DUP2 SWAP1 SUB PUSH1 0x64 ADD SWAP1 REVERT JUMPDEST PUSH2 0x1868 PUSH2 0x1C4D JUMP JUMPDEST DUP8 DUP2 PUSH2 0x1870 JUMPI INVALID JUMPDEST DIV SWAP7 POP PUSH2 0x187B PUSH2 0x1C4D JUMP JUMPDEST DUP6 DUP2 PUSH2 0x1883 JUMPI INVALID JUMPDEST DIV SWAP5 POP DUP7 DUP6 MUL DUP8 ISZERO PUSH2 0x18E5 JUMPI DUP6 DUP9 DUP3 DUP2 PUSH2 0x1899 JUMPI INVALID JUMPDEST DIV EQ PUSH2 0x18E5 JUMPI PUSH1 0x40 DUP1 MLOAD PUSH3 0x461BCD PUSH1 0xE5 SHL DUP2 MSTORE PUSH1 0x20 PUSH1 0x4 DUP3 ADD MSTORE PUSH1 0x16 PUSH1 0x24 DUP3 ADD MSTORE PUSH22 0x1BDD995C999B1BDDC81E0C9E4C8819195D1958DD1959 PUSH1 0x52 SHL PUSH1 0x44 DUP3 ADD MSTORE SWAP1 MLOAD SWAP1 DUP2 SWAP1 SUB PUSH1 0x64 ADD SWAP1 REVERT JUMPDEST PUSH2 0x18ED PUSH2 0x1FF4 JUMP JUMPDEST PUSH1 0x40 MLOAD DUP1 PUSH1 0x20 ADD PUSH1 0x40 MSTORE DUP1 DUP8 DUP2 MSTORE POP SWAP1 POP PUSH2 0x1916 DUP2 PUSH1 0x40 MLOAD DUP1 PUSH1 0x20 ADD PUSH1 0x40 MSTORE DUP1 DUP8 DUP2 MSTORE POP PUSH2 0x1C56 JUMP JUMPDEST SWAP1 POP PUSH2 0x1930 DUP2 PUSH1 0x40 MLOAD DUP1 PUSH1 0x20 ADD PUSH1 0x40 MSTORE DUP1 DUP7 DUP2 MSTORE POP PUSH2 0x1C56 JUMP JUMPDEST SWAP1 POP PUSH2 0x194A DUP2 PUSH1 0x40 MLOAD DUP1 PUSH1 0x20 ADD PUSH1 0x40 MSTORE DUP1 DUP6 DUP2 MSTORE POP PUSH2 0x1C56 JUMP JUMPDEST SWAP14 SWAP13 POP POP POP POP POP POP POP POP POP POP POP POP POP JUMP JUMPDEST MLOAD PUSH10 0xD3C21BCECCEDA1000000 SWAP1 DIV SWAP1 JUMP JUMPDEST PUSH1 0x2 SLOAD PUSH1 0x40 DUP1 MLOAD PUSH10 0x56616C696461746F7273 PUSH1 0xB0 SHL PUSH1 0x20 DUP1 DUP4 ADD SWAP2 SWAP1 SWAP2 MSTORE DUP3 MLOAD PUSH1 0xA DUP2 DUP5 SUB ADD DUP2 MSTORE PUSH1 0x2A DUP4 ADD DUP1 DUP6 MSTORE DUP2 MLOAD SWAP2 DUP4 ADD SWAP2 SWAP1 SWAP2 KECCAK256 PUSH4 0xDCF0AAED PUSH1 0xE0 SHL SWAP1 SWAP2 MSTORE PUSH1 0x2E DUP4 ADD MSTORE SWAP2 MLOAD PUSH1 0x0 SWAP4 PUSH2 0x100 SWAP1 DIV PUSH1 0x1 PUSH1 0x1 PUSH1 0xA0 SHL SUB AND SWAP3 PUSH4 0xDCF0AAED SWAP3 PUSH1 0x4E DUP1 DUP3 ADD SWAP4 SWAP2 DUP3 SWAP1 SUB ADD DUP2 DUP7 DUP1 EXTCODESIZE ISZERO DUP1 ISZERO PUSH2 0x19E9 JUMPI PUSH1 0x0 DUP1 REVERT JUMPDEST POP GAS STATICCALL ISZERO DUP1 ISZERO PUSH2 0x19FD JUMPI RETURNDATASIZE PUSH1 0x0 DUP1 RETURNDATACOPY RETURNDATASIZE PUSH1 0x0 REVERT JUMPDEST POP POP POP POP PUSH1 0x40 MLOAD RETURNDATASIZE PUSH1 0x20 DUP2 LT ISZERO PUSH2 0x1A13 JUMPI PUSH1 0x0 DUP1 REVERT JUMPDEST POP MLOAD SWAP1 POP SWAP1 JUMP JUMPDEST MLOAD SWAP1 JUMP JUMPDEST PUSH2 0x1A26 PUSH2 0x1FF4 JUMP JUMPDEST POP PUSH1 0x40 DUP1 MLOAD PUSH1 0x20 DUP2 ADD SWAP1 SWAP2 MSTORE SWAP1 DUP2 MSTORE SWAP1 JUMP JUMPDEST PUSH2 0x1A40 PUSH2 0x1FF4 JUMP JUMPDEST DUP2 MLOAD PUSH2 0x1A87 JUMPI PUSH1 0x40 DUP1 MLOAD PUSH3 0x461BCD PUSH1 0xE5 SHL DUP2 MSTORE PUSH1 0x20 PUSH1 0x4 DUP3 ADD MSTORE PUSH1 0x11 PUSH1 0x24 DUP3 ADD MSTORE PUSH17 0x63616E277420646976696465206279203 PUSH1 0x7C SHL PUSH1 0x44 DUP3 ADD MSTORE SWAP1 MLOAD SWAP1 DUP2 SWAP1 SUB PUSH1 0x64 ADD SWAP1 REVERT JUMPDEST DUP3 MLOAD PUSH10 0xD3C21BCECCEDA1000000 DUP2 DUP2 MUL SWAP2 SWAP1 DUP3 DIV EQ PUSH2 0x1AE2 JUMPI PUSH1 0x40 DUP1 MLOAD PUSH3 0x461BCD PUSH1 0xE5 SHL DUP2 MSTORE PUSH1 0x20 PUSH1 0x4 DUP3 ADD MSTORE PUSH1 0x12 PUSH1 0x24 DUP3 ADD MSTORE PUSH18 0x6F766572666C6F7720617420646976696465 PUSH1 0x70 SHL PUSH1 0x44 DUP3 ADD MSTORE SWAP1 MLOAD SWAP1 DUP2 SWAP1 SUB PUSH1 0x64 ADD SWAP1 REVERT JUMPDEST PUSH1 0x40 MLOAD DUP1 PUSH1 0x20 ADD PUSH1 0x40 MSTORE DUP1 DUP5 PUSH1 0x0 ADD MLOAD DUP4 DUP2 PUSH2 0x1AFA JUMPI INVALID JUMPDEST DIV SWAP1 MSTORE SWAP5 SWAP4 POP POP POP POP JUMP JUMPDEST PUSH2 0x1B13 DUP3 DUP3 PUSH1 0x0 DUP6 MLOAD PUSH2 0x1CC7 JUMP JUMPDEST POP POP JUMP JUMPDEST PUSH1 0x1 PUSH1 0x1 PUSH1 0xA0 SHL SUB DUP2 AND PUSH2 0x1B5C JUMPI PUSH1 0x40 MLOAD PUSH3 0x461BCD PUSH1 0xE5 SHL DUP2 MSTORE PUSH1 0x4 ADD DUP1 DUP1 PUSH1 0x20 ADD DUP3 DUP2 SUB DUP3 MSTORE PUSH1 0x26 DUP2 MSTORE PUSH1 0x20 ADD DUP1 PUSH2 0x2008 PUSH1 0x26 SWAP2 CODECOPY PUSH1 0x40 ADD SWAP2 POP POP PUSH1 0x40 MLOAD DUP1 SWAP2 SUB SWAP1 REVERT JUMPDEST PUSH1 0x0 DUP1 SLOAD PUSH1 0x40 MLOAD PUSH1 0x1 PUSH1 0x1 PUSH1 0xA0 SHL SUB DUP1 DUP6 AND SWAP4 SWAP3 AND SWAP2 PUSH32 0x8BE0079C531659141344CD1FD0A4F28419497F9722A3DAAFE3B4186F6B6457E0 SWAP2 LOG3 PUSH1 0x0 DUP1 SLOAD PUSH1 0x1 PUSH1 0x1 PUSH1 0xA0 SHL SUB NOT AND PUSH1 0x1 PUSH1 0x1 PUSH1 0xA0 SHL SUB SWAP3 SWAP1 SWAP3 AND SWAP2 SWAP1 SWAP2 OR SWAP1 SSTORE JUMP JUMPDEST PUSH1 0x0 PUSH2 0x158C DUP4 DUP4 PUSH2 0x1F2C JUMP JUMPDEST PUSH23 0x1357C299A88EA76A58924D52CE4F26A85AF186C2B9E74 SWAP1 JUMP JUMPDEST PUSH2 0x1BE6 PUSH2 0x1FF4 JUMP JUMPDEST PUSH1 0x40 MLOAD DUP1 PUSH1 0x20 ADD PUSH1 0x40 MSTORE DUP1 PUSH10 0xD3C21BCECCEDA1000000 DUP1 DUP6 PUSH1 0x0 ADD MLOAD DUP2 PUSH2 0x1C09 JUMPI INVALID JUMPDEST DIV MUL SWAP1 MSTORE SWAP3 SWAP2 POP POP JUMP JUMPDEST PUSH2 0x1C1B PUSH2 0x1FF4 JUMP JUMPDEST PUSH1 0x40 MLOAD DUP1 PUSH1 0x20 ADD PUSH1 0x40 MSTORE DUP1 PUSH10 0xD3C21BCECCEDA1000000 DUP1 DUP6 PUSH1 0x0 ADD MLOAD DUP2 PUSH2 0x1C3E JUMPI INVALID JUMPDEST SWAP6 MLOAD SWAP6 DIV MUL SWAP1 SWAP4 SUB SWAP1 SWAP3 MSTORE POP SWAP1 JUMP JUMPDEST PUSH5 0xE8D4A51000 SWAP1 JUMP JUMPDEST PUSH2 0x1C5E PUSH2 0x1FF4 JUMP JUMPDEST DUP2 MLOAD DUP4 MLOAD SWAP1 DUP2 ADD SWAP1 DUP2 LT ISZERO PUSH2 0x1CB2 JUMPI PUSH1 0x40 DUP1 MLOAD PUSH3 0x461BCD PUSH1 0xE5 SHL DUP2 MSTORE PUSH1 0x20 PUSH1 0x4 DUP3 ADD MSTORE PUSH1 0x15 PUSH1 0x24 DUP3 ADD MSTORE PUSH21 0x185919081BDD995C999B1BDDC819195D1958DD1959 PUSH1 0x5A SHL PUSH1 0x44 DUP3 ADD MSTORE SWAP1 MLOAD SWAP1 DUP2 SWAP1 SUB PUSH1 0x64 ADD SWAP1 REVERT JUMPDEST PUSH1 0x40 DUP1 MLOAD PUSH1 0x20 DUP2 ADD SWAP1 SWAP2 MSTORE SWAP1 DUP2 MSTORE SWAP4 SWAP3 POP POP POP JUMP JUMPDEST DUP3 MLOAD DUP5 MLOAD EQ PUSH2 0x1D07 JUMPI PUSH1 0x40 MLOAD PUSH3 0x461BCD PUSH1 0xE5 SHL DUP2 MSTORE PUSH1 0x4 ADD DUP1 DUP1 PUSH1 0x20 ADD DUP3 DUP2 SUB DUP3 MSTORE PUSH1 0x23 DUP2 MSTORE PUSH1 0x20 ADD DUP1 PUSH2 0x20AA PUSH1 0x23 SWAP2 CODECOPY PUSH1 0x40 ADD SWAP2 POP POP PUSH1 0x40 MLOAD DUP1 SWAP2 SUB SWAP1 REVERT JUMPDEST DUP4 MLOAD DUP3 LT PUSH2 0x1D5C JUMPI PUSH1 0x40 DUP1 MLOAD PUSH3 0x461BCD PUSH1 0xE5 SHL DUP2 MSTORE PUSH1 0x20 PUSH1 0x4 DUP3 ADD MSTORE PUSH1 0x1D PUSH1 0x24 DUP3 ADD MSTORE PUSH32 0x6865617020737461727420696E646578206F7574206F662072616E6765000000 PUSH1 0x44 DUP3 ADD MSTORE SWAP1 MLOAD SWAP1 DUP2 SWAP1 SUB PUSH1 0x64 ADD SWAP1 REVERT JUMPDEST DUP4 MLOAD DUP2 GT ISZERO PUSH2 0x1DB2 JUMPI PUSH1 0x40 DUP1 MLOAD PUSH3 0x461BCD PUSH1 0xE5 SHL DUP2 MSTORE PUSH1 0x20 PUSH1 0x4 DUP3 ADD MSTORE PUSH1 0x18 PUSH1 0x24 DUP3 ADD MSTORE PUSH32 0x68656170206C656E677468206F7574206F662072616E67650000000000000000 PUSH1 0x44 DUP3 ADD MSTORE SWAP1 MLOAD SWAP1 DUP2 SWAP1 SUB PUSH1 0x64 ADD SWAP1 REVERT JUMPDEST DUP2 JUMPDEST PUSH1 0x0 PUSH2 0x1DD8 PUSH1 0x1 PUSH2 0x1DCC DUP5 PUSH1 0x2 PUSH4 0xFFFFFFFF PUSH2 0x1F94 AND JUMP JUMPDEST SWAP1 PUSH4 0xFFFFFFFF PUSH2 0x1532 AND JUMP JUMPDEST SWAP1 POP PUSH1 0x0 PUSH2 0x1DF1 PUSH1 0x2 PUSH2 0x1DCC DUP6 DUP3 PUSH4 0xFFFFFFFF PUSH2 0x1F94 AND JUMP JUMPDEST SWAP1 POP DUP3 DUP5 DUP4 LT DUP1 ISZERO PUSH2 0x1E5D JUMPI POP PUSH2 0x1E5D DUP8 DUP10 DUP4 DUP2 MLOAD DUP2 LT PUSH2 0x1E0E JUMPI INVALID JUMPDEST PUSH1 0x20 MUL PUSH1 0x20 ADD ADD MLOAD DUP2 MLOAD DUP2 LT PUSH2 0x1E20 JUMPI INVALID JUMPDEST PUSH1 0x20 MUL PUSH1 0x20 ADD ADD MLOAD DUP9 DUP11 DUP7 DUP2 MLOAD DUP2 LT PUSH2 0x1E35 JUMPI INVALID JUMPDEST PUSH1 0x20 MUL PUSH1 0x20 ADD ADD MLOAD DUP2 MLOAD DUP2 LT PUSH2 0x1E47 JUMPI INVALID JUMPDEST PUSH1 0x20 MUL PUSH1 0x20 ADD ADD MLOAD PUSH2 0x1FED SWAP1 SWAP2 SWAP1 PUSH4 0xFFFFFFFF AND JUMP JUMPDEST ISZERO PUSH2 0x1E65 JUMPI POP DUP2 JUMPDEST DUP5 DUP3 LT DUP1 ISZERO PUSH2 0x1EA6 JUMPI POP PUSH2 0x1EA6 DUP8 DUP10 DUP4 DUP2 MLOAD DUP2 LT PUSH2 0x1E7F JUMPI INVALID JUMPDEST PUSH1 0x20 MUL PUSH1 0x20 ADD ADD MLOAD DUP2 MLOAD DUP2 LT PUSH2 0x1E91 JUMPI INVALID JUMPDEST PUSH1 0x20 MUL PUSH1 0x20 ADD ADD MLOAD DUP9 DUP11 DUP6 DUP2 MLOAD DUP2 LT PUSH2 0x1E35 JUMPI INVALID JUMPDEST ISZERO PUSH2 0x1EAE JUMPI POP DUP1 JUMPDEST DUP4 DUP2 EQ ISZERO PUSH2 0x1EBE JUMPI POP POP POP PUSH2 0x1F25 JUMP JUMPDEST PUSH1 0x0 DUP9 DUP6 DUP2 MLOAD DUP2 LT PUSH2 0x1ECC JUMPI INVALID JUMPDEST PUSH1 0x20 MUL PUSH1 0x20 ADD ADD MLOAD SWAP1 POP DUP9 DUP3 DUP2 MLOAD DUP2 LT PUSH2 0x1EE2 JUMPI INVALID JUMPDEST PUSH1 0x20 MUL PUSH1 0x20 ADD ADD MLOAD DUP10 DUP7 DUP2 MLOAD DUP2 LT PUSH2 0x1EF6 JUMPI INVALID JUMPDEST PUSH1 0x20 MUL PUSH1 0x20 ADD ADD DUP2 DUP2 MSTORE POP POP DUP1 DUP10 DUP4 DUP2 MLOAD DUP2 LT PUSH2 0x1F0F JUMPI INVALID JUMPDEST PUSH1 0x20 SWAP1 DUP2 MUL SWAP2 SWAP1 SWAP2 ADD ADD MSTORE POP SWAP3 POP PUSH2 0x1DB4 SWAP2 POP POP JUMP JUMPDEST POP POP POP POP POP JUMP JUMPDEST PUSH1 0x0 PUSH2 0x1F3F DUP3 PUSH1 0x20 PUSH4 0xFFFFFFFF PUSH2 0x1532 AND JUMP JUMPDEST DUP4 MLOAD LT ISZERO PUSH2 0x1F8B JUMPI PUSH1 0x40 DUP1 MLOAD PUSH3 0x461BCD PUSH1 0xE5 SHL DUP2 MSTORE PUSH1 0x20 PUSH1 0x4 DUP3 ADD MSTORE PUSH1 0x14 PUSH1 0x24 DUP3 ADD MSTORE PUSH20 0x736C6963696E67206F7574206F662072616E6765 PUSH1 0x60 SHL PUSH1 0x44 DUP3 ADD MSTORE SWAP1 MLOAD SWAP1 DUP2 SWAP1 SUB PUSH1 0x64 ADD SWAP1 REVERT JUMPDEST POP ADD PUSH1 0x20 ADD MLOAD SWAP1 JUMP JUMPDEST PUSH1 0x0 DUP3 PUSH2 0x1FA3 JUMPI POP PUSH1 0x0 PUSH2 0x3E1 JUMP JUMPDEST DUP3 DUP3 MUL DUP3 DUP5 DUP3 DUP2 PUSH2 0x1FB0 JUMPI INVALID JUMPDEST DIV EQ PUSH2 0x158C JUMPI PUSH1 0x40 MLOAD PUSH3 0x461BCD PUSH1 0xE5 SHL DUP2 MSTORE PUSH1 0x4 ADD DUP1 DUP1 PUSH1 0x20 ADD DUP3 DUP2 SUB DUP3 MSTORE PUSH1 0x21 DUP2 MSTORE PUSH1 0x20 ADD DUP1 PUSH2 0x2064 PUSH1 0x21 SWAP2 CODECOPY PUSH1 0x40 ADD SWAP2 POP POP PUSH1 0x40 MLOAD DUP1 SWAP2 SUB SWAP1 REVERT JUMPDEST MLOAD SWAP1 MLOAD GT SWAP1 JUMP JUMPDEST PUSH1 0x40 MLOAD DUP1 PUSH1 0x20 ADD PUSH1 0x40 MSTORE DUP1 PUSH1 0x0 DUP2 MSTORE POP SWAP1 JUMP INVALID 0x4F PUSH24 0x6E61626C653A206E6577206F776E65722069732074686520 PUSH27 0x65726F206164647265737363616E27742063726561746520666978 PUSH10 0x64697479206E756D6265 PUSH19 0x206C6172676572207468616E206D61784E6577 CHAINID PUSH10 0x7865642829536166654D PUSH2 0x7468 GASPRICE KECCAK256 PUSH14 0x756C7469706C69636174696F6E20 PUSH16 0x766572666C6F776572726F722063616C PUSH13 0x696E672067657445706F636853 PUSH10 0x7A6520707265636F6D70 PUSH10 0x6C656B657920616E6420 PUSH23 0x616C7565206172726179206C656E677468206D69736D61 PUSH21 0x6368A265627A7A72315820865198D4DD8AA80A8175 EXTCODESIZE 0x4D PUSH9 0x2F4D76844D15F0C383 DUP13 ADDMOD 0xBE DUP14 0x27 0xD2 0xD0 DUP10 PUSH24 0xDF64736F6C634300050D0032000000000000000000000000 "
		},
		"gasEstimates": {
			"creation": {
				"codeDepositCost": "1689800",
				"executionCost": "infinite",
				"totalCost": "infinite"
			},
			"external": {
				"Validators2()": "504",
				"electNValidatorSigners(uint256,uint256)": "infinite",
				"electValidatorSigners(address)": "infinite",
				"electabilityThreshold()": "488",
				"electableValidators()": "735",
				"getEpochNumber()": "infinite",
				"getEpochNumberOfBlock(uint256)": "infinite",
				"getEpochSize()": "infinite",
				"getTotalVotes()": "infinite",
				"initialize(address)": "infinite",
				"initialized()": "434",
				"isOwner()": "591",
				"maxNumGroupsVotedFor()": "509",
				"owner()": "526",
				"registry()": "493",
				"renounceOwnership()": "22468",
				"setRegistry(address)": "22073",
				"setValidators2(address)": "infinite",
				"transferOwnership(address)": "infinite",
				"vote(address,uint256,address,address)": "infinite"
			},
			"internal": {
				"incrementPendingVotes(address,address,uint256)": "infinite",
				"incrementTotalVotes(address,uint256,address,address)": "infinite"
			}
		},
		"methodIdentifiers": {
			"Validators2()": "83483e3c",
			"electNValidatorSigners(uint256,uint256)": "90a4dd5c",
			"electValidatorSigners(address)": "d7a71cf8",
			"electabilityThreshold()": "4be8843b",
			"electableValidators()": "f9d7daae",
			"getEpochNumber()": "9a7b3be7",
			"getEpochNumberOfBlock(uint256)": "3b1eb4bf",
			"getEpochSize()": "df4da461",
			"getTotalVotes()": "9a0e7d66",
			"initialize(address)": "c4d66de8",
			"initialized()": "158ef93e",
			"isOwner()": "8f32d59b",
			"maxNumGroupsVotedFor()": "ac839d69",
			"owner()": "8da5cb5b",
			"registry()": "7b103999",
			"renounceOwnership()": "715018a6",
			"setRegistry(address)": "a91ee0dc",
			"setValidators2(address)": "334f4ffc",
			"transferOwnership(address)": "f2fde38b",
			"vote(address,uint256,address,address)": "580d747a"
		}
	},
	"abi": [
		{
			"inputs": [
				{
					"internalType": "bool",
					"name": "test",
					"type": "bool"
				}
			],
			"payable": false,
			"stateMutability": "nonpayable",
			"type": "constructor"
		},
		{
			"anonymous": false,
			"inputs": [
				{
					"indexed": false,
					"internalType": "string",
					"name": "",
					"type": "string"
				},
				{
					"indexed": false,
					"internalType": "address",
					"name": "",
					"type": "address"
				}
			],
			"name": "LogAddress",
			"type": "event"
		},
		{
			"anonymous": false,
			"inputs": [
				{
					"indexed": false,
					"internalType": "string",
					"name": "",
					"type": "string"
				},
				{
					"indexed": false,
					"internalType": "bool",
					"name": "",
					"type": "bool"
				}
			],
			"name": "LogBool",
			"type": "event"
		},
		{
			"anonymous": false,
			"inputs": [
				{
					"indexed": false,
					"internalType": "string",
					"name": "",
					"type": "string"
				},
				{
					"indexed": false,
					"internalType": "bytes",
					"name": "",
					"type": "bytes"
				}
			],
			"name": "LogBytes",
			"type": "event"
		},
		{
			"anonymous": false,
			"inputs": [
				{
					"indexed": false,
					"internalType": "string",
					"name": "",
					"type": "string"
				},
				{
					"indexed": false,
					"internalType": "bytes32",
					"name": "",
					"type": "bytes32"
				}
			],
			"name": "LogBytes32",
			"type": "event"
		},
		{
			"anonymous": false,
			"inputs": [
				{
					"indexed": false,
					"internalType": "string",
					"name": "",
					"type": "string"
				},
				{
					"indexed": false,
					"internalType": "int256",
					"name": "",
					"type": "int256"
				}
			],
			"name": "LogInt",
			"type": "event"
		},
		{
			"anonymous": false,
			"inputs": [
				{
					"indexed": false,
					"internalType": "string",
					"name": "",
					"type": "string"
				},
				{
					"indexed": false,
					"internalType": "uint256",
					"name": "",
					"type": "uint256"
				}
			],
			"name": "LogUint",
			"type": "event"
		},
		{
			"anonymous": false,
			"inputs": [
				{
					"indexed": true,
					"internalType": "address",
					"name": "previousOwner",
					"type": "address"
				},
				{
					"indexed": true,
					"internalType": "address",
					"name": "newOwner",
					"type": "address"
				}
			],
			"name": "OwnershipTransferred",
			"type": "event"
		},
		{
			"anonymous": false,
			"inputs": [
				{
					"indexed": true,
					"internalType": "address",
					"name": "registryAddress",
					"type": "address"
				}
			],
			"name": "RegistrySet",
			"type": "event"
		},
		{
			"constant": true,
			"inputs": [],
			"name": "Validators2",
			"outputs": [
				{
					"internalType": "contract IValidators2",
					"name": "",
					"type": "address"
				}
			],
			"payable": false,
			"stateMutability": "view",
			"type": "function"
		},
		{
			"constant": true,
			"inputs": [
				{
					"internalType": "uint256",
					"name": "minElectableValidators",
					"type": "uint256"
				},
				{
					"internalType": "uint256",
					"name": "maxElectableValidators",
					"type": "uint256"
				}
			],
			"name": "electNValidatorSigners",
			"outputs": [
				{
					"internalType": "address[]",
					"name": "",
					"type": "address[]"
				}
			],
			"payable": false,
			"stateMutability": "view",
			"type": "function"
		},
		{
			"constant": true,
			"inputs": [
				{
					"internalType": "address",
					"name": "group",
					"type": "address"
				}
			],
			"name": "electValidatorSigners",
			"outputs": [
				{
					"internalType": "address[]",
					"name": "",
					"type": "address[]"
				}
			],
			"payable": false,
			"stateMutability": "view",
			"type": "function"
		},
		{
			"constant": true,
			"inputs": [],
			"name": "electabilityThreshold",
			"outputs": [
				{
					"internalType": "uint256",
					"name": "value",
					"type": "uint256"
				}
			],
			"payable": false,
			"stateMutability": "view",
			"type": "function"
		},
		{
			"constant": true,
			"inputs": [],
			"name": "electableValidators",
			"outputs": [
				{
					"internalType": "uint256",
					"name": "min",
					"type": "uint256"
				},
				{
					"internalType": "uint256",
					"name": "max",
					"type": "uint256"
				}
			],
			"payable": false,
			"stateMutability": "view",
			"type": "function"
		},
		{
			"constant": true,
			"inputs": [],
			"name": "getEpochNumber",
			"outputs": [
				{
					"internalType": "uint256",
					"name": "",
					"type": "uint256"
				}
			],
			"payable": false,
			"stateMutability": "view",
			"type": "function"
		},
		{
			"constant": true,
			"inputs": [
				{
					"internalType": "uint256",
					"name": "blockNumber",
					"type": "uint256"
				}
			],
			"name": "getEpochNumberOfBlock",
			"outputs": [
				{
					"internalType": "uint256",
					"name": "",
					"type": "uint256"
				}
			],
			"payable": false,
			"stateMutability": "view",
			"type": "function"
		},
		{
			"constant": true,
			"inputs": [],
			"name": "getEpochSize",
			"outputs": [
				{
					"internalType": "uint256",
					"name": "",
					"type": "uint256"
				}
			],
			"payable": false,
			"stateMutability": "view",
			"type": "function"
		},
		{
			"constant": true,
			"inputs": [],
			"name": "getTotalVotes",
			"outputs": [
				{
					"internalType": "uint256",
					"name": "",
					"type": "uint256"
				}
			],
			"payable": false,
			"stateMutability": "view",
			"type": "function"
		},
		{
			"constant": false,
			"inputs": [
				{
					"internalType": "address",
					"name": "registryAddress",
					"type": "address"
				}
			],
			"name": "initialize",
			"outputs": [],
			"payable": false,
			"stateMutability": "nonpayable",
			"type": "function"
		},
		{
			"constant": true,
			"inputs": [],
			"name": "initialized",
			"outputs": [
				{
					"internalType": "bool",
					"name": "",
					"type": "bool"
				}
			],
			"payable": false,
			"stateMutability": "view",
			"type": "function"
		},
		{
			"constant": true,
			"inputs": [],
			"name": "isOwner",
			"outputs": [
				{
					"internalType": "bool",
					"name": "",
					"type": "bool"
				}
			],
			"payable": false,
			"stateMutability": "view",
			"type": "function"
		},
		{
			"constant": true,
			"inputs": [],
			"name": "maxNumGroupsVotedFor",
			"outputs": [
				{
					"internalType": "uint256",
					"name": "",
					"type": "uint256"
				}
			],
			"payable": false,
			"stateMutability": "view",
			"type": "function"
		},
		{
			"constant": true,
			"inputs": [],
			"name": "owner",
			"outputs": [
				{
					"internalType": "address",
					"name": "",
					"type": "address"
				}
			],
			"payable": false,
			"stateMutability": "view",
			"type": "function"
		},
		{
			"constant": true,
			"inputs": [],
			"name": "registry",
			"outputs": [
				{
					"internalType": "contract IRegistry",
					"name": "",
					"type": "address"
				}
			],
			"payable": false,
			"stateMutability": "view",
			"type": "function"
		},
		{
			"constant": false,
			"inputs": [],
			"name": "renounceOwnership",
			"outputs": [],
			"payable": false,
			"stateMutability": "nonpayable",
			"type": "function"
		},
		{
			"constant": false,
			"inputs": [
				{
					"internalType": "address",
					"name": "registryAddress",
					"type": "address"
				}
			],
			"name": "setRegistry",
			"outputs": [],
			"payable": false,
			"stateMutability": "nonpayable",
			"type": "function"
		},
		{
			"constant": false,
			"inputs": [
				{
					"internalType": "address",
					"name": "validators2",
					"type": "address"
				}
			],
			"name": "setValidators2",
			"outputs": [],
			"payable": false,
			"stateMutability": "nonpayable",
			"type": "function"
		},
		{
			"constant": false,
			"inputs": [
				{
					"internalType": "address",
					"name": "newOwner",
					"type": "address"
				}
			],
			"name": "transferOwnership",
			"outputs": [],
			"payable": false,
			"stateMutability": "nonpayable",
			"type": "function"
		},
		{
			"constant": false,
			"inputs": [
				{
					"internalType": "address",
					"name": "group",
					"type": "address"
				},
				{
					"internalType": "uint256",
					"name": "value",
					"type": "uint256"
				},
				{
					"internalType": "address",
					"name": "lesser",
					"type": "address"
				},
				{
					"internalType": "address",
					"name": "greater",
					"type": "address"
				}
			],
			"name": "vote",
			"outputs": [
				{
					"internalType": "bool",
					"name": "",
					"type": "bool"
				}
			],
			"payable": false,
			"stateMutability": "nonpayable",
			"type": "function"
		}
	]
}